:100000000C9435010C9466010C9466010C94660105
:100010000C9466010C9466010C9466010C946601C4
:100020000C9466010C9466010C9466010C946601B4
:100030000C9466010C9466010C9466010C946601A4
:100040000C9466010C9466010C9466010C94660194
:100050000C9466010C9466010C9466010C942103C7
:100060000C9466010C94F5030C94CB030C9466017C
:100070000C9466010C9466010C9466010C94660164
:100080000C9466010C9466010C9466010C94660154
:100090000C9466010C9466010C9466010C94660144
:1000A0000C9466010C9466010C9466010C94660134
:1000B0000C9466010C9466010C9466010C94660124
:1000C0000C9466010C9466010C9466010C94660114
:1000D0000C9466010C9466010C9495030C946B03CC
:1000E0000C9466010C941F060C942B040C94BC0118
:1000F0000C942F060C9437060C943D060C94DF01EB
:100100000C944B060C94CB010C948F010C941006AC
:100110000C9418060C941C060C9425060C942F02C3
:100120000C944F060C9429060C947E020C94140631
:100130000C9402060C9441060C9433060C94FD05B5
:100140000C94ED010C9445060000220025002800C7
:100150002B002E00310034000201000005010801CF
:100160000B0100002100240027002A002D00300090
:10017000330001010000040107010A010000200012
:100180002300260029002C002F003200000100006F
:10019000030106010901050505050705080808080A
:1001A000020202020A0A080804040404010101010F
:1001B000010101010303030303030303040707070A
:1001C0000C0C0C0C0C0C0C0C0202020206060606AF
:1001D000060606060B0B0B0B0B0B0B0B010210207C
:1001E000200808102040102040800201020108046D
:1001F0000201010204081020408080402010080401
:100200000201800402018040201008040201080459
:10021000020101020408102040800102040810209D
:10022000408000000A0B02090C0D0E0807030401B0
:1002300000000000000000000000000000000000BE
:10024000000000000000000000000000000012118B
:10025000100000000000000000000000000000008E
:1002600000000000000000002B0411241FBECFEF8F
:10027000D1E2DEBFCDBF00E00CBF23E0A8E2B2E0D8
:1002800001C01D92AD36B207E1F712E0A0E0B2E086
:10029000EEE0FDE000E00BBF02C007900D92A83237
:1002A000B107D9F711E0C5E3D1E000E006C021971E
:1002B0000109802FFE010E947D06C433D10780E032
:1002C0000807A9F70E947E040C9485060C94000090
:1002D000FC01A089B18982E08C93A485B5851C922C
:1002E000A685B7858FEC8C93108EA489B58986E09E
:1002F0008C93A289B3898C9180618C93A289B389F4
:100300008C9188608C93A289B3898C9180688C933E
:100310000288F389E02D80818F7D80830895AF92DC
:10032000BF92CF92DF92EF92FF920F931F93CF93E2
:10033000DF936C017B018B01040F151FEB015E0144
:10034000AE18BF08C017D10759F06991D601ED91D9
:10035000FC910190F081E02DC6011995892B79F768
:10036000C501DF91CF911F910F91FF90EF90DF902A
:10037000CF90BF90AF900895FC01538D448D252FF1
:1003800030E0842F90E0821B930B541710F0CF962F
:10039000089501970895FC01918D828D981761F061
:1003A000A28DAE0FBF2FB11D5D968C91928D9F5F78
:1003B0009F73928F90E008958FEF9FEF0895FC0157
:1003C000918D828D981731F0828DE80FF11D858D0A
:1003D00090E008958FEF9FEF0895FC01918D228D9D
:1003E000892F90E0805C9F4F821B91098F73992722
:1003F000089583E392E00E94ED0121E0892B09F446
:1004000020E0822F089580ED92E00E94ED0121E02E
:10041000892B09F420E0822F0895FC01A48DA80FF8
:10042000B92FB11DA35ABF4F2C91848D90E0019636
:100430008F739927848FA689B7892C93A089B18956
:100440008C91837080648C93938D848D981306C0F7
:100450000288F389E02D80818F7D80830895EF925B
:10046000FF920F931F93CF93DF93EC0181E0888F6E
:100470009B8D8C8D98131AC0E889F989808185FF3E
:1004800015C09FB7F894EE89FF896083E889F989E0
:1004900080818370806480839FBF81E090E0DF91E2
:1004A000CF911F910F91FF90EF900895F62E0B8D35
:1004B00010E00F5F1F4F0F731127E02E8C8D8E11F0
:1004C0000CC00FB607FCFACFE889F989808185FF57
:1004D000F5CFCE010E940D02F1CFEB8DEC0FFD2F79
:1004E000F11DE35AFF4FF0829FB7F8940B8FEA8912
:1004F000FB8980818062CFCF0C942F02CF93DF9352
:10050000EC01888D8823B9F0AA89BB89E889F9892B
:100510008C9185FD03C0808186FD0DC00FB607FC60
:10052000F7CF8C9185FFF2CF808185FFEDCFCE0193
:100530000E940D02E9CFDF91CF91089580E090E015
:10054000892B29F00E94030281110E94000080E0A3
:1005500090E0892B49F080E090E0892B29F00E94FF
:10056000000081110E94000080E090E0892B49F09A
:1005700080E090E0892B29F00E94000081110E9408
:10058000000080E090E0892B29F00E94F9018111A0
:100590000C94000008958F929F92AF92BF920F9398
:1005A0001F93CF93DF93CDB7DEB7A1970FB6F89423
:1005B000DEBF0FBECDBF19A2423008F44AE08E0163
:1005C0000F5D1F4F842E912CB12CA12CA5019401FD
:1005D0000E945B06E62FB901CA01EA3044F5E05DEE
:1005E000D801EE938D01232B242B252B79F790E056
:1005F00080E0109769F0FD0101900020E9F7319744
:10060000AF014A1B5B0BBD0180ED92E00E948F01A0
:10061000A1960FB6F894DEBF0FBECDBFDF91CF918C
:100620001F910F91BF90AF909F908F900895E95CBC
:10063000D7CF42E050E064E272E080ED92E00C94AB
:100640008F011F920F920FB60F9211242F933F9399
:100650008F939F93AF93BF9380912F02909130021D
:10066000A0913102B091320230912E0223E0230F8B
:100670002D3758F50196A11DB11D20932E028093B0
:100680002F0290933002A0933102B09332028091F6
:100690002A0290912B02A0912C02B0912D0201967A
:1006A000A11DB11D80932A0290932B02A0932C02CE
:1006B000B0932D02BF91AF919F918F913F912F9158
:1006C0000F900FBE0F901F90189526E8230F0296EB
:1006D000A11DB11DD2CF1F920F920FB60F92112400
:1006E0000BB60F922F933F934F935F936F937F932C
:1006F0008F939F93AF93BF93EF93FF9383E392E026
:100700000E940D02FF91EF91BF91AF919F918F9148
:100710007F916F915F914F913F912F910F900BBE01
:100720000F900FBE0F901F9018951F920F920FB64B
:100730000F9211240BB60F922F938F939F93EF93E9
:10074000FF93E0914302F09144028081E0914902DD
:10075000F0914A0282FD1DC0908180914C028F5F12
:100760008F7320914D02821741F0E0914C02F0E02E
:10077000ED5CFD4F958F80934C02FF91EF919F911F
:100780008F912F910F900BBE0F900FBE0F901F9067
:1007900018958081F2CF1F920F920FB60F921124FD
:1007A0000BB60F922F933F934F935F936F937F936B
:1007B0008F939F93AF93BF93EF93FF9380ED92E05E
:1007C0000E940D02FF91EF91BF91AF919F918F9188
:1007D0007F916F915F914F913F912F910F900BBE41
:1007E0000F900FBE0F901F9018951F920F920FB68B
:1007F0000F9211240BB60F922F938F939F93EF9329
:10080000FF93E091E002F091E1028081E091E60245
:10081000F091E70282FD1DC090818091E9028F5F17
:100820008F732091EA02821741F0E091E902F0E033
:10083000E053FD4F958F8093E902FF91EF919F91D7
:100840008F912F910F900BBE0F900FBE0F901F90A6
:1008500018958081F2CFE3E3F2E01382128248EE32
:1008600053E060E070E0448355836683778386E1DC
:1008700092E09183808325E331E03587248724E368
:1008800031E03787268720E331E0318B208B21E36D
:1008900031E0338B228B22E331E0358B248B26E34E
:1008A00031E0378B268B118E128E138E148EE0ED75
:1008B000F2E01382128244835583668377839183A7
:1008C000808385EC90E09587848784EC90E097871F
:1008D000868780EC90E0918B808B81EC90E0938B0D
:1008E000828B82EC90E0958B848B86EC90E0978BEA
:1008F000868B118E128E138E148E0895789484B583
:10090000826084BD84B5816084BD85B5826085BD0B
:1009100085B5816085BD80916E00816080936E0099
:10092000109281008091810082608093810080918B
:10093000810081608093810080918000816080933C
:1009400080008091B10084608093B1008091B000FC
:1009500081608093B00080919100826080939100CB
:1009600080919100816080939100809190008160DE
:10097000809390008091A10082608093A10080917B
:10098000A10081608093A1008091A000816080938C
:10099000A00080912101826080932101809121013A
:1009A00081608093210180912001816080932001EA
:1009B00080917A00846080937A0080917A008260CE
:1009C00080937A0080917A00816080937A00809190
:1009D0007A00806880937A001092C10083E392E0ED
:1009E0000E94680180ED92E00E946801A0E0B2E000
:1009F00022E132E08D919D919927FC01E452FE4F56
:100A000044918A569E4FFC0184918823C9F090E05E
:100A1000880F991FFC01EE59FE4FC591D491FC013E
:100A2000E85BFE4F659174919FB7F8945881842FCD
:100A3000809585238883EB01E8814E2B48839FBFF7
:100A40002A173B07B9F6CAE2D2E083E392E00E949C
:100A5000ED01892B09F497C008E212E02FB7F89452
:100A600080912F0290913002A0913102B091320218
:100A70002FBF80933B0290933C02A0933D02B09322
:100A80003E0283E392E00E94CB0197FF0CC12FB797
:100A9000F89480912F0290913002A0913102B09190
:100AA00032022FBF40913B0250913C0260913D02C7
:100AB00070913E02841B950BA60BB70B4091370239
:100AC000509138026091390270913A02841795076B
:100AD000A607B707B0F280912802823409F456C005
:100AE000843509F050C060912902062F062E000CB3
:100AF000110B0053110980ED92E00E947C020E94CC
:100B000019036801012E000CEE08FF084AE0C70136
:100B1000B60117FF0DC06DE280ED92E00E947C02ED
:100B200066277727CB016C197D098E099F094AE05A
:100B30000E94CB020E941903802F063310F08AEC2A
:100B4000800F20917B00982F9870277F922B909395
:100B50007B008770806480937C0080917A00806441
:100B600080937A0080917A0086FDFCCF8091780096
:100B700090917900853491050CF450C061E383E3D2
:100B800092E00E947C020E949E025FCFE0912902C7
:100B9000EE0FFF0BE056FE4F208131813327F90124
:100BA000EE5DFD4F8491F901E452FE4F94912A5677
:100BB0003E4FF9012491222309F430C0882311F11A
:100BC00081508231F8F4E82FF0E08827E551FA4FA0
:100BD0008F4F0C947D0618061C06FD0510061406A2
:100BE00002061F06250629062F06330637063D0690
:100BF0004106020645064B064F06809180008F771E
:100C000080938000E22FF0E0EE0FFF1FE458FE4FCC
:100C1000A591B491EC919E2309F0B0CF60E3AFCFE2
:100C2000809180008F7DECCF80918000877FE8CF1E
:100C300084B58F7784BDE6CF84B58F7DFBCF80915F
:100C4000B0008F778093B000DDCF8091B0008F7DB2
:100C5000F9CF809190008F7780939000D3CF8091CF
:100C600090008F7DF9CF80919000877FF5CF8091A4
:100C7000A0008F778093A000C5CF8091A0008F7DCA
:100C8000F9CF8091A000877FF5CF809120018F77E9
:100C900080932001B7CF809120018F7DF9CF809183
:100CA0002001877FF5CFF80181938F01CE17DF07F1
:100CB00009F0D4CE10CFA1E21A2EAA1BBB1BFD0156
:100CC0000DC0AA1FBB1FEE1FFF1FA217B307E4072B
:100CD000F50720F0A21BB30BE40BF50B661F771F83
:100CE000881F991F1A9469F7609570958095909563
:100CF0009B01AC01BD01CF010895EE0FFF1F881FBE
:0E0D00008BBF0790F691E02D1994F894FFCF69
:100D0E0016001700180019001A001B001C001D0009
:100D1E001E00000000002F028F01BC017E02ED01BB
:080D2E00CB01DF010D0A0000FA
:00000001FF
