:020000040000FA
:100000000C947B010C94AC010C94AC010C94AC01ED
:100010000C94AC010C94AC010C94AC010C94AC01AC
:100020000C94AC010C94AC010C94AC010C94AC019C
:100030000C94AC010C94AC010C94AC010C94AC018C
:100040000C94AC010C94AC010C94AC010C94AC017C
:100050000C94AC010C94AC010C94AC010C94E50E26
:100060000C94AC010C94B90F0C948F0F0C94AC0150
:100070000C94AC010C94AC010C94AC010C94AC014C
:100080000C94AC010C94AC010C94AC010C94AC013C
:100090000C94AC010C94AC010C94AC010C94AC012C
:1000A0000C94AC010C94AC010C94AC010C94AC011C
:1000B0000C94AC010C94AC010C94AC010C94AC010C
:1000C0000C94AC010C94AC010C94AC010C94AC01FC
:1000D0000C94AC010C94AC010C94590F0C942F0FA0
:1000E0000C94AC010C9453050C9483120C94E80806
:1000F0000C9401020C9463090C942A020C94540988
:100100000C94C5030C94DD080C94D3030C943B169B
:100110000C9426020C9434020C9412020C941504D4
:100120000C945A050C940E020C9463050C94E2088E
:100130000C94B0040C940E170C94F9010C945B030E
:100140000C9457050C9449050C9438020C94F5084E
:100150000C942E030C9433020C94AF040C946005A1
:100160000C94B1160C9406150C94EF0F0C946A03C2
:100170000C9418020C94A8140C944E050C9491073E
:100180000C9465090C9401130C94FD010C94DC1281
:100190000C945D050C9437130C9462040C942E0996
:1001A0000C94F3010C94EC080C9408020C942002BB
:1001B0000C9405020C9451050C94E6080C94E0088C
:1001C0000C9469170C94E4080C942E020C941C02F5
:1001D0000C94EA0800002100240027002A002D00CA
:1001E0003000330001010000040107010A01000092
:1001F0002200250028002B002E00310034000201CF
:100200000000050108010B0100002000230026006A
:1002100029002C002F00320000010000030106011C
:10022000090105050505070508080808020202027C
:100230000A0A080804040404010101010101010182
:100240000303030303030303040707070C0C0C0C4D
:100250000C0C0C0C02020202060606060606060636
:100260000B0B0B0B0B0B0B0B0102102020080810C3
:100270002040102040800201020108040201010216
:1002800004081020408080402010080402018004EF
:10029000020180402010080402010804020101024A
:1002A0000408102040800102040810204080000053
:1002B0000A0B02090C0D0E080703040100000000E0
:1002C000000000000000000000000000000000002E
:1002D00000000000000000000000121110000000EB
:1002E000000000000000000000000000000000000E
:1002F00000000000EF0F11241FBECFEFD1E2DEBFE0
:10030000CDBF00E00CBF27E0A0E0B6E001C01D9229
:10031000A13EB207E1F716E0A0E0B2E0ECE5F5E3BC
:1003200000E00BBF02C007900D92A030B107D9F7D3
:1003300011E0CBE7D1E000E006C021970109802F52
:10034000FE010E945919CA37D10780E00807A9F7B2
:100350000E940B110C94AC1A0C940000FC01A089B3
:10036000B18982E08C93A485B5851C92A685B7855A
:100370008FEC8C93108EA489B58986E08C93A2892A
:10038000B3898C9180618C93A289B3898C918860A8
:100390008C93A289B3898C9180688C930288F389AD
:1003A000E02D80818F7D808308958150823108F017
:1003B0005AC0E82FF0E08827EF51FE4F8F4F0C9482
:1003C000591901020502F301F901FD013302080286
:1003D0000E02120218021C02200226022A02330216
:1003E0002E0234023802809180008F778093800043
:1003F0000895809180008F7DF9CF80918000877F64
:10040000F5CF84B58F7784BD089584B58F7DFBCFFC
:100410008091B0008F778093B00008958091B000F4
:100420008F7DF9CF809190008F7780939000089511
:10043000809190008F7DF9CF80919000877FF5CFDC
:100440008091A0008F778093A00008958091A000F4
:100450008F7DF9CF8091A000877FF5CF809120011B
:100460008F77809320010895809120018F7DF9CFAF
:1004700080912001877FF5CFCF93DF93282F30E045
:10048000F901E255FD4F8491F901E859FD4FD491EE
:10049000F901EE5DFD4FC491CC23A1F081110E94C2
:1004A000D501EC2FF0E0EE0FFF1FE85FFD4FA591A7
:1004B000B491EC91ED2381E090E009F480E0DF91CC
:1004C000CF91089580E090E0FACF1F93CF93DF9310
:1004D000282F30E0F901E255FD4F8491F901E859E8
:1004E000FD4FD491F901EE5DFD4FC491CC23A9F0ED
:1004F000162F81110E94D501EC2FF0E0EE0FFF1FA7
:10050000E251FE4FA591B4918FB7F894EC9111117F
:1005100008C0D095DE23DC938FBFDF91CF911F9170
:100520000895DE2BF8CFCF93DF9390E0FC01E859DC
:10053000FD4F24918E5D9D4FFC0184918823D1F065
:1005400090E0880F991FFC01EC52FE4FA591B491E9
:10055000FC01E251FE4FC591D49161110EC09FB7CD
:10056000F8948C91E22FE0958E238C932881E223DE
:10057000E8839FBFDF91CF9108958FB7F894EC91F6
:10058000E22BEC938FBFF6CF3FB7F8948091220611
:1005900090912306A0912406B091250626B5A89B2C
:1005A00005C02F3F19F00196A11DB11D3FBFBA2F05
:1005B000A92F982F8827BC01CD01620F711D811DC5
:1005C000911D42E0660F771F881F991F4A95D1F74A
:1005D00008958F929F92AF92BF92CF92DF92EF9247
:1005E000FF924B015C010E94C4026B017C010E94DE
:1005F000C4026C197D098E099F09683E734081050C
:100600009105A8F321E0821A9108A108B10888EEAB
:10061000C80E83E0D81EE11CF11C81149104A104D2
:10062000B10429F7FF90EF90DF90CF90BF90AF908B
:100630009F908F9008952FB7F89460911E06709147
:100640001F0680912006909121062FBF0895DC019E
:10065000ED91FC910190F081E02D1994AF92BF9241
:10066000CF92DF92EF92FF920F931F93CF93DF937E
:100670006C017B018B01040F151FEB015E01AE18AD
:10068000BF08C017D10759F06991D601ED91FC91CF
:100690000190F081E02DC6011995892B79F7C501EC
:1006A000DF91CF911F910F91FF90EF90DF90CF904E
:1006B000BF90AF900895FC01538D448D252F30E0FD
:1006C000842F90E0821B930B541710F0CF9608955F
:1006D00001970895FC01918D828D981761F0A28D8C
:1006E000AE0FBF2FB11D5D968C91928D9F5F9F7352
:1006F000928F90E008958FEF9FEF08958F929F92D1
:10070000AF92BF92CF92DF92EF92FF920F931F931F
:10071000CF93DF937C016A018B01D0E0C0E00E949F
:100720001B03F7016087718782879387C7010E9447
:100730006A0397FF22C00E941B03F7018084918403
:10074000A284B384681979098A099B0984809580F9
:10075000A680B780681579058A059B0538F3CE0118
:10076000DF91CF911F910F91FF90EF90DF90CF908D
:10077000BF90AF909F908F900895F80181938F0163
:100780002196CC16DD0659F6EACFFC01918D828DBB
:10079000981731F0828DE80FF11D858D90E0089556
:1007A0008FEF9FEF0895FC01918D228D892F90E0AE
:1007B000805C9F4F821B91098F739927089583E373
:1007C00096E00E94D30321E0892B09F420E0822FD8
:1007D000089580ED96E00E94D30321E0892B09F46F
:1007E00020E0822F0895FC01A48DA80FB92FB11D20
:1007F000A35ABF4F2C91848D90E001968F73992757
:10080000848FA689B7892C93A089B1898C91837034
:1008100080648C93938D848D981306C00288F3892D
:10082000E02D80818F7D80830895EF92FF920F935A
:100830001F93CF93DF93EC0181E0888F9B8D8C8D8C
:1008400098131AC0E889F989808185FF15C09FB780
:10085000F894EE89FF896083E889F9898081837043
:10086000806480839FBF81E090E0DF91CF911F91F2
:100870000F91FF90EF900895F62E0B8D10E00F5F13
:100880001F4F0F731127E02E8C8D8E110CC00FB6E9
:1008900007FCFACFE889F989808185FFF5CFCE0181
:1008A0000E94F303F1CFEB8DEC0FFD2FF11DE35A06
:1008B000FF4FF0829FB7F8940B8FEA89FB89808104
:1008C0008062CFCFCF93DF93EC01888D8823B9F07E
:1008D000AA89BB89E889F9898C9185FD03C080814B
:1008E00086FD0DC00FB607FCF7CF8C9185FFF2CFC8
:1008F000808185FFEDCFCE010E94F303E9CFDF9128
:10090000CF91089580E090E0892B29F00E94E903BF
:1009100081110E94000080E090E0892B49F080E086
:1009200090E0892B29F00E94000081110E940000B4
:1009300080E090E0892B49F080E090E0892B29F05D
:100940000E94000081110E94000080E090E0892B4D
:1009500029F00E94DF0381110C940000089508958E
:1009600090E080E00895CF92DF92EF92FF92CF93D4
:10097000DF930E941B03EB010E941B030E941B03D9
:100980006B0180ED96E00E94D303892B29F080ED66
:1009900096E00E946A03F5CFCC1ADD0A88EEC816ED
:1009A00083E0D8065CF380ED96E00E94D303892BA8
:1009B00029F7DF91CF91FF90EF90DF90CF900895CE
:1009C00082E00E943C02892B41F062ED70E080E001
:1009D00090E00E94E90281E0089583E00E943C02D9
:1009E000892B71F362ED70E080E090E00E94E902F3
:1009F00080E00895FF920F931F93CF93DF93C8E099
:100A0000D0E0FC2E61E08C2F0E94650204E010E033
:100A1000802F0E943C020197B1F460E08F2D0E946C
:100A2000650204501109C801880F991F080F191F8A
:100A3000C00FD11FCE50DD4F8881DF91CF911F9124
:100A40000F91FF9008950F5F1F4F0830110501F7B8
:100A500060E08F2D0E9465022196CB30D10589F68A
:100A600080E2EBCFCF93DF93EB01DA01893098F48A
:100A7000E82FF0E08827E05CFA4F8F4F0C9459196B
:100A800049054E055105530557055A055D05600595
:100A9000630518821C92DF91CF91089583E08883CB
:100AA000F9CF86E0FCCF188283E08C93F4CF83E00B
:100AB0008883FBCF86E08883F7CF188286E0F5CF66
:100AC00083E08883FBCF86E0F3CFCF92DF92EF9273
:100AD000FF920F931F93CF93DF931F921F92CDB777
:100AE000DEB769834A83880F991F0091C30710916D
:100AF000C407000F111FEDE6F7E09F012D563740A8
:100B00002017310714F41192F8CF2981FC01E35921
:100B1000F84F21838A81808360E08091C1070E9421
:100B200065021016110604F501501109F801E35988
:100B3000F84FE080D090BF07C090BD0788E0F82E46
:100B40006E2D661F6627661F8C2D0E946502EE0CB7
:100B500061E08D2D0E94650260E08D2D0E9465028E
:100B6000FA94F110EDCFDDCF61E08091C1070F90D5
:100B70000F90DF91CF911F910F91FF90EF90DF9039
:100B8000CF900C946502EF92FF920F931F93CF9337
:100B90007C018C0183E0000F111F8A95E1F7035857
:100BA000184FC1E0F80111928F0140E06C2FC7018E
:100BB0000E946505CF5FC930A9F7CF911F910F91B2
:100BC000FF90EF900895AF92BF92CF92DF92EF9295
:100BD000FF920F931F93CF93DF93CDE6D7E080E092
:100BE000C82E82E0D82EB12C90E8E92EF12C10E02E
:100BF00000E0AA24A394AB0C8091C3079091C40792
:100C000018161906E4F488E0B816C9F00830110582
:100C1000B1F0C701002E02C0959587950A94E2F7BE
:100C20002889F601E00FF11F3081332301F1822B77
:100C3000888B48896A2D90E080E00E9465050F5FEF
:100C40001F4F09301105C1F6B394219688E0C80EF4
:100C5000D11C89E0B812CBCFDF91CF911F910F91BA
:100C6000FF90EF90DF90CF90BF90AF900895809568
:100C70008223DECFCF93DF93EC0160E08E810E9470
:100C8000650261E08E810E94650260E08E810E94B3
:100C900065028BE891E00197F1F7DF91CF9108951C
:100CA000CF92DF92EF92FF920F931F93CF93DF9338
:100CB0006C017C0187E0E80EF11CD0E0C0E0062F5B
:100CC00010E0B8010C2E02C0759567950A94E2F702
:100CD0006170F70181917F010E9465022196C43005
:100CE000D10579F7C601DF91CF911F910F91FF9048
:100CF000EF90DF90CF900C943A06CF92DF92EF9274
:100D0000FF920F931F93CF93DF93EC01F62E642F86
:100D10008C810E9465028D818F3F19F060E00E94F6
:100D200065020F2D10E08F8584FF25C06E0187E0DE
:100D3000C80ED11CF12CE12CB8010E2C02C0759507
:100D400067950A94E2F76170F60181916F010E9444
:100D50006502FFEFEF1AFF0A88E0E816F10461F779
:100D6000CE01DF91CF911F910F91FF90EF90DF9017
:100D7000CF900C943A06B80184E0759567958A95F2
:100D8000E1F7CE010E9450066F2DCE01DF91CF9189
:100D90001F910F91FF90EF90DF90CF900C94500631
:100DA00040E0682F85EC97E00C947D0681E00E947E
:100DB000D0068BE39FE10197F1F70895CF93DF937E
:100DC000813029F09091D40798609093D407809354
:100DD000D8071092D90780E48093DA0780E18093E6
:100DE000DB0780E58093DC0761E08091C9070E9402
:100DF00093028091CA078F3F19F061E00E9493022D
:100E000061E08091CB070E949302C5ECD7E09E0180
:100E1000255C37408091D40784FD0BC084E090E0CE
:100E200021962817390744F461E08E810E949302CD
:100E3000EECF88E090E0F4CF8BE39DE00197F1F7EF
:100E400060E08091C9070E94650260E08091CB0755
:100E50000E9465028091CA078F3F19F060E00E94EE
:100E600065028091D40784FD34C063E085EC97E08F
:100E70000E945006CBE4D6E4CE010197F1F763E07F
:100E800085EC97E00E9450062197F1F763E085EC2E
:100E900097E00E94500683E592E00197F1F762E047
:100EA00085EC97E00E9450068091D40780620E94F2
:100EB000D00684E08093D5078CE00E94D0060E9483
:100EC000D60682E08093D60786E0DF91CF910C941E
:100ED000D00680620E94D0068BE496E40197F1F779
:100EE0008091D40780620E94D00683E592E001974A
:100EF000F1F78091D40780620E94D006D5CF64308C
:100F000008F063E09091D807691710F06FEF690F50
:100F1000E62FF0E0EB53F84F9489890F80680C942A
:100F2000D00641E00E947D0681E090E00895CF92D6
:100F3000DF92EF92FF920F931F93CF93DF93EB011A
:100F40007B0123E2E20EF11C8B016C01C61AD70A69
:100F5000C601800F911F0E942119F80181938F0112
:100F6000EE15FF05A9F7CE01DF91CF911F910F91EB
:100F7000FF90EF90DF90CF900895FB01019000204B
:100F8000E9F73197AF01461B570BDC01ED91FC915E
:100F90000280F381E02D19948F929F92AF92BF92BD
:100FA000EF92FF920F931F93CF93DF93CDB7DEB7EE
:100FB000A1970FB6F894DEBF0FBECDBF7C01FA013A
:100FC000CB0119A2223008F42AE08E010F5D1F4FD9
:100FD000822E912CB12CA12CBF01A50194010E945D
:100FE0003719F901CA016A300CF5605DD8016E93BA
:100FF0008D01232B242B252B79F790E080E010978F
:1010000021F0BD01C7010E94BD07A1960FB6F8945B
:10101000DEBF0FBECDBFDF91CF911F910F91FF902B
:10102000EF90BF90AF909F908F900895695CDECF56
:101030000F931F93CF93DF93EC010E94BD078C01A8
:1010400064E273E0CE010E94BD07800F911FDF9123
:10105000CF911F910F9108951F93CF93DF9300D0ED
:10106000CDB7DEB7BC0180ED96E00E94180810E015
:1010700080ED96E00E94D303892B59F042E050E0C6
:10108000BE016F5F7F4F80ED96E00E947E0311E00E
:10109000EFCF112369F380ED96E00E94D303892BF3
:1010A00039F70F900F900F90DF91CF911F91089516
:1010B0000E94D60660E080E00E947F0767E273E04E
:1010C00085EC97E00E94180861E080E00E947F07AD
:1010D00067E373E085EC97E00E94180862E080E027
:1010E0000E947F0768E473E085EC97E00E9418088F
:1010F00063E080E00E947F0768E573E085EC97E09D
:101100000E94180864EF71E080E090E00E94E9021C
:101110000E94D60660E080E00E947F0767E673E0E9
:1011200085EC97E00E94180864EF71E080E090E0A1
:101130000C94E902CF92DF92EF92FF920F931F93EC
:10114000CF93DF937C01C62E80E00E947F0700E0F2
:10115000C0E085E0D82E6C2D80E00E947F070E94C1
:10116000FA04182F64E670E080E090E00E94E90243
:10117000EDEDE10FE73108F038C00E2E000CFF0B4B
:101180008827EA53F74F8F4F0C9459192E09F50809
:10119000F508F508F508F508F5085409F508F50807
:1011A000F508F508F508EC08DD0865096309E008AD
:1011B000E208E408E608E808EA08D0E0C0E05DC01C
:1011C000D3E0FCCFD4E0FACFD5E0F8CFD6E0F6CF2D
:1011D000D7E0F4CFD8E0F2CFF701E00FF11D808126
:1011E000882309F4B8CF0F5FB6CF82E00E943C029B
:1011F0000197B1F467E974E080ED96E00E94180869
:1012000064E670E080E090E00E94E90281E0DF9116
:10121000CF911F910F91FF90EF90DF90CF900895A5
:1012200083E00E943C02019709F095CF67E773E0E5
:1012300080ED96E00E94180880E0F701E80FF11DAC
:101240009081992319F010828F5FF7CF64E670E0E8
:1012500080E090E00E94E90280E0D9CFC43009F438
:10126000ADCFDD9EF0011124E353FD4FEC0FF11DD6
:101270008181CF5F882309F4A1CFDD9EF001112485
:10128000E353FD4FEC0FF11D8081F701E00FF11DDD
:101290008083B70185EC97E00E941808B70180EDC4
:1012A00096E00E94180857CFCC2311F0C150E5CF2B
:1012B000DD9EF0011124E353FD4F8481C4E08111D0
:1012C000DCCFC3E0DACFD2E079CFD1E077CF6115C0
:1012D000710511F00C94BD0790E080E00895CF9364
:1012E000DF9300D01F92CDB7DEB792E49B83805D81
:1012F0008C83BE016D5F7F4F83E396E00E94670998
:1013000041E050E0BE016F5F7F4F83E396E00E94B3
:101310007E0381E09981913309F080E00F900F9076
:101320000F900F90DF91CF9108957F928F929F92AF
:10133000AF92BF92CF92DF92EF92FF920F931F93E3
:10134000CF93DF9300D0CDB7DEB78C016B010E9445
:10135000B3040E94D60660E873E085EC97E00E9433
:10136000670961E080E00E947F0761E973E085EC36
:1013700097E00E94670980ED96E00E94D303892BD5
:10138000D1F342E050E0BE016F5F7F4F80ED96E009
:101390000E947E030E941B034B015C010E941B0301
:1013A0000E94B304C6010E942C080E94D60660E089
:1013B00080E00E947F07B60185EC97E00E94180844
:1013C000F12CE12C712C80ED96E00E94D303892B47
:1013D00071F080ED96E00E946A03F801EE0DFF1DAA
:1013E0008083C70101967C0177247394ECCF77202A
:1013F00091F10E941B03681979098A099B09643FCE
:10140000714081059105FCF261E080E00E947F0758
:10141000B80185EC97E00E94180862E080E00E9425
:101420007F0762EA73E085EC97E00E94670964EF4A
:1014300071E080E090E00E94E9020E94E0048111E6
:1014400011C0F801E80FF11D9081992309F4A2CF92
:1014500010828F5FF6CF0E941B034B015C010E943C
:101460001B03B1CF81E00F900F900F90DF91CF91D0
:101470001F910F91FF90EF90DF90CF90BF90AF90B2
:101480009F908F907F900895FF920F931F93CF931B
:10149000DF938C01FC0101900020E9F73197FE2ECB
:1014A000F81A8DE090E00E946119EC014CE050E0E8
:1014B000B8010E949D1ABE01DE012C2F98E78A2FE9
:1014C0008C1B8F1568F099E7862F821B8F1580F48F
:1014D000FB018191BF01DF01119789278C93F4CF24
:1014E0008D91AD01415051098927FA018083E7CFE1
:1014F000CE01DF91CF911F910F91FF900895CF9270
:10150000DF92EF92FF920F931F93CF93DF93CDB7AC
:10151000DEB7A3970FB6F894DEBF0FBECDBF8C0128
:1015200086E296E00E94440A6C01C8010E94440AC7
:101530007C010FE710E0BE016F5F7F4FC8010E9482
:101540009707B601CE0101960E94861A892BE9F40D
:10155000B701CE010E960E94861A892BB1F4C601FE
:101560000E94FD19C7010E94FD1981E0A3960FB6E4
:10157000F894DEBF0FBECDBFDF91CF911F910F91C9
:10158000FF90EF90DF90CF9008950D5D1F4F0B3CC3
:1015900089E0180781F6C6010E94FD19C7010E9463
:1015A000FD1980E0E3CFCF92DF92EF92FF920F938D
:1015B0001F93CF93DF93CDB7DEB760970FB6F89444
:1015C000DEBF0FBECDBF0E94D60660E080E00E9465
:1015D0007F0762EB73E085EC97E00E94180861E0FA
:1015E00080E00E947F0761EC73E085EC97E00E9449
:1015F000180862E080E00E947F076EEC73E085ECE3
:1016000097E00E9418080E94FA04182F64E670E020
:1016100080E090E00E94E9021A3209F048C081E0BF
:1016200090E090930106809300060E94D6068E01FA
:101630000F5F1F4F80E1F80111928A95E9F70E9430
:10164000D60660E080E00E947F07809100069091BE
:1016500001060197A1F56EED73E085EC97E00E941D
:10166000180861E0C8010E949A0820910006309194
:101670000106232B29F46EEE73E0C8010E94950940
:101680008823E9F2B80180ED96E00E9418080E94D4
:10169000D606C8010E947F0A811137C0F801E80F01
:1016A000F11D9081992369F010828F5FF7CF13327B
:1016B00009F0A9CF1092010610920006B6CF80E083
:1016C000D4CF0E94D60660E080E00E947F07809120
:1016D000000690910106019709F057C068ED73E08C
:1016E00085EC97E00E94180861E0C8010E949A0802
:1016F0002091000630910106232B29F468EE73E057
:10170000C8010E9495098823E1F2C8010E947F0A5E
:10171000182F81112AC010921C0610921B068AE015
:10172000C82ED12CE12CF12C0E94D60660E080E07E
:101730000E947F072AE0B701A60185EC97E00E948E
:10174000CC0764E273E085EC97E00E94BD0768EE89
:1017500073E080E090E00E94E902F1E0CF1AD10846
:10176000E108F10809F70E945808812F60960FB62A
:10177000F894DEBF0FBECDBFDF91CF911F910F91C7
:10178000FF90EF90DF90CF90089580E0B1CFEF927F
:10179000FF920F931F93CF93DF93CDB7DEB7A3973D
:1017A0000FB6F894DEBF0FBECDBF0E94440A7C0185
:1017B0000FE710E0BE016F5F7F4FC8010E949707DF
:1017C000B701CE0101960E94861A892B89F4C701C0
:1017D0000E94FD1981E0A3960FB6F894DEBF0FBEFC
:1017E000CDBFDF91CF911F910F91FF90EF900895A2
:1017F0000D5D1F4F0B3C89E01807E1F6C7010E9401
:10180000FD1980E0E8CFFF920F931F93CF93DF93F2
:10181000EC01F62E08811981C8010E942119F816E1
:1018200021F06F2DC8010E942919CE01DF91CF91BF
:101830001F910F91FF9008950F931F93CF93DF9304
:101840001F921F92CDB7DEB78B019A838983FB016C
:101850006081CE0101960E94030CC8010F900F9089
:10186000DF91CF911F910F9108952F923F924F9248
:101870005F926F927F928F929F92AF92BF92CF9220
:10188000DF92EF92FF920F931F93CF93DF93CDB729
:10189000DEB7CA56D1090FB6F894DEBF0FBECDBF72
:1018A0008C017B013A010E94C70B882309F167EF85
:1018B00073E080ED96E00E94180880E0C659DF4F83
:1018C0000FB6F894DEBF0FBECDBFDF91CF911F9151
:1018D0000F91FF90EF90DF90CF90BF90AF909F90CF
:1018E0008F907F906F905F904F903F902F900895D2
:1018F000C8010E94440A4C01C7010E94440A5C01CD
:101900000FE710E0BE016C5D7F4FC8010E94970792
:10191000C8010E942119780193E2E90EF11C882385
:1019200009F471C08701EBECEE16E9E0FE0651F711
:101930004DE050E0B401CE01895B9F4F0E949D1A9B
:101940004DE050E0B50187E490E08C0F9D1F0D96AF
:101950000E949D1A49E050E0B30187E490E08C0FAB
:101960009D1F4A960E949D1A87E4282E312C2C0E2A
:101970003D1EF3E22F0E311C8E01095B1F4F270124
:10198000401A510ACE0101966C01C201800F911FCD
:101990009A838983F80161918F01C6010E94030C2B
:1019A0000215130591F7F3E2EF0EF11CB601C70122
:1019B0000E949707F60101900020E9F731970E2F5A
:1019C0000C198DE090E00E946119182F592E4CE0FF
:1019D00050E0B6010E949D1A612F752DA12FB52DE3
:1019E000412F99E78A2F811B801778F098E7862F7F
:1019F000841B801790F4FB018191BF01DF011197D7
:101A000089278C93F4CF780193CF8D919D0121503C
:101A100031098927F9018083E5CF812F952D0E9417
:101A2000C70B882329F0F0ECEF16F9E0FF0648F425
:101A3000AB961FAEAB97BE0166597F4FC7010E94A0
:101A40001C0C6CE074E080ED96E00E941808B40174
:101A500080ED96E00E94670962EF74E080ED96E009
:101A60000E946709B50180ED96E00E94670962EF68
:101A700074E080ED96E00E946709B30180ED96E086
:101A80000E94670966E273E080ED96E00E94180804
:101A900060E274E080ED96E00E941808C4010E94A4
:101AA000FD19C5010E94FD1981E008CFEF92FF9258
:101AB0000F931F93CF93DF9300D01F92CDB7DEB764
:101AC0008B01AE014C5F5F4FBE016D5F7F4F0E9487
:101AD00032058C812B8190E030E0AC01E3E0440FD3
:101AE000551FEA95E1F740505E4FFA01E20FF31FF0
:101AF0000130110509F040C061E0608373E0880F98
:101B0000991F7A95E1F7885F9D4FFC01E20FF31F63
:101B100060832F5F3F4F420F531FFA016083820F94
:101B2000931FFC0160830E94E3051982BE016F5F71
:101B30007F4F90E080E00E941C0C80E4E82E82E061
:101B4000F82E01E010E01A830983F70161917F010B
:101B5000CE0101960E94030C0F5F1F4F0F37110536
:101B600091F70F900F900F900F90DF91CF911F91F1
:101B70000F91FF90EF900895108263E0880F991FF6
:101B80006A95E1F7885F9D4FFC01E20FF31F108219
:101B90002F5F3F4F420F531FFA011082820F931F96
:101BA000FC011082C0CFCF92DF92EF92FF920F9391
:101BB0001F93CF93DF9300D000D000D0CDB7DEB716
:101BC00089E0E4ECF2E0DE01119601900D928A9535
:101BD000E1F790E4E92E92E0F92E10E000E0D12C3C
:101BE000D7018C91811113C04CE050E0B7016F5FB9
:101BF0007F4F86E296E00E948F1A892B41F4E1E044
:101C0000F0E0EC0FFD1FE00FF11F0083D3940F5F96
:101C10001F4FBEE0EB0EF11C0930110509F7DD2066
:101C200009F4C4C00E94D606FE0131967F0110E07F
:101C300000E0033011F0063029F41F5F612F80E0CF
:101C40000E947F07D7016D917D016F3F59F0605D64
:101C500085EC97E00E94270364E273E085EC97E04F
:101C60000E94BD070F5F093021F71F5F612F80E0E1
:101C70000E947F0764E374E085EC97E00E946709A7
:101C8000612F87E00E947F0762EF74E085EC97E0A8
:101C90000E946709612F87E00E947F070E94FA0473
:101CA000082F64E670E080E090E00E94E9020032D4
:101CB00039F30A3229F3033219F3602F85EC97E0E8
:101CC0000E94270380EDF82EF00E68EC70E080E0B3
:101CD00090E00E94E902CF2CD12CE1E0F0E0EC0F83
:101CE000FD1FEC0DFD1D80818F3F51F2BFEFFB16F4
:101CF00039F20E94D30A882309F458C00E94D606FC
:101D000060E080E00E947F076DE374E085EC97E07F
:101D10000E94180861E080E00E947F076BE474E095
:101D200085EC97E00E946709602F85EC97E00E94A0
:101D300027038F2D0E946F098823D9F38EE08C9D95
:101D4000F0018D9DF00D1124E05CFD4FDF011D922F
:101D50008A95E9F781E0808370E060E08F2D0E9432
:101D6000560D0E94D60660E080E00E947F0762E583
:101D700074E085EC97E00E946709602F85EC97E09E
:101D80000E9427036AEF70E080E090E029960FB68A
:101D9000F894DEBF0FBECDBFDF91CF911F910F91A1
:101DA000FF90EF90DF90CF900C94E90229960FB648
:101DB000F894DEBF0FBECDBFDF91CF911F910F9181
:101DC000FF90EF90DF90CF9008951F920F920FB683
:101DD0000F9211242F933F938F939F93AF93BF93B1
:101DE00080911E0690911F06A0912006B0912106B9
:101DF00030911D0623E0230F2D3758F50196A11DC4
:101E0000B11D20931D0680931E0690931F06A0937C
:101E10002006B09321068091220690912306A0917E
:101E20002406B09125060196A11DB11D80932206BE
:101E300090932306A0932406B0932506BF91AF91FB
:101E40009F918F913F912F910F900FBE0F901F90F8
:101E5000189526E8230F0296A11DB11DD2CF1F921F
:101E60000F920FB60F9211240BB60F922F933F9340
:101E70004F935F936F937F938F939F93AF93BF9392
:101E8000EF93FF9383E396E00E94F303FF91EF91BA
:101E9000BF91AF919F918F917F916F915F914F9182
:101EA0003F912F910F900BBE0F900FBE0F901F9080
:101EB00018951F920F920FB60F9211240BB60F9226
:101EC0002F938F939F93EF93FF93E0914306F091AD
:101ED00044068081E0914906F0914A0682FD1DC0CA
:101EE000908180914C068F5F8F7320914D068217F1
:101EF00041F0E0914C06F0E0ED5CF94F958F809356
:101F00004C06FF91EF919F918F912F910F900BBEF7
:101F10000F900FBE0F901F9018958081F2CF1F92E7
:101F20000F920FB60F9211240BB60F922F933F937F
:101F30004F935F936F937F938F939F93AF93BF93D1
:101F4000EF93FF9380ED96E00E94F303FF91EF91F2
:101F5000BF91AF919F918F917F916F915F914F91C1
:101F60003F912F910F900BBE0F900FBE0F901F90BF
:101F700018951F920F920FB60F9211240BB60F9265
:101F80002F938F939F93EF93FF93E091E006F0914F
:101F9000E1068081E091E606F091E70682FD1DC032
:101FA00090818091E9068F5F8F732091EA068217F6
:101FB00041F0E091E906F0E0E053F94F958F80930E
:101FC000E906FF91EF919F918F912F910F900BBE9A
:101FD0000F900FBE0F901F9018958081F2CFCF9376
:101FE000DF93109236061092350648EE53E060E01B
:101FF00070E040933706509338066093390670932B
:102000003A068AE093E0909334068093330625E302
:1020100031E03093400620933F0624E331E03093D3
:1020200042062093410620E331E03093440620939A
:10203000430621E331E0309346062093450622E330
:1020400031E0309348062093470626E331E0309391
:102050004A062093490610924C0610924D061092A3
:102060004E0610924F061092D3061092D20640935D
:10207000D4065093D5066093D6067093D7069093F6
:10208000D1068093D00685EC90E09093DD06809396
:10209000DC0684EC90E09093DF068093DE0680EC13
:1020A00090E09093E1068093E00681EC90E09093BD
:1020B000E3068093E20682EC90E09093E50680933D
:1020C000E40686EC90E09093E7068093E606109293
:1020D000E9061092EA061092EB061092EC061092B6
:1020E000C8071092C7078CE193E09093C6078093CE
:1020F000C50786E18093C9078FEF8093CA0787E100
:102100008093CB0788E18093CC0789E18093CD074A
:102110008AE18093CE078BE18093CF071092D0079E
:102120001092D1071092D2071092D3071092D407C1
:1021300081E00E94DE06CCE1D0E0D093BE07C093E0
:10214000BD078EE190E09093C0078093BF078DE1BB
:1021500090E09093C2078093C10781E090E0909354
:10216000C4078093C30761E08CE10E94930261E0A1
:102170008091BF070E94930261E08091C1070E9495
:10218000930261E08091C1070E946502D093BE076F
:10219000C093BD07EDE7F7E0119287E0ED3BF8074C
:1021A000D9F7D0E0C0E08091C3079091C407C81769
:1021B000D90774F540E06FE0CE010E94650580917B
:1021C000C3079091C407C817D9072CF447E06BE008
:1021D000CE010E94650540E069E0CE010E946505E0
:1021E0008091C3079091C407C817D9071CF4CE018A
:1021F0000E94C3058091C3079091C407C817D907EF
:102200002CF440E06CE0CE010E9465052196CBCF16
:10221000DF91CF910895CF93DF93CDB7DEB7E597E8
:102220000FB6F894DEBF0FBECDBF789484B5826040
:1022300084BD84B5816084BD85B5826085BD85B56A
:10224000816085BD80916E00816080936E001092E8
:102250008100809181008260809381008091810063
:1022600081608093810080918000816080938000F4
:102270008091B10084608093B1008091B000816052
:102280008093B00080919100826080939100809152
:102290009100816080939100809190008160809393
:1022A00090008091A10082608093A1008091A100A4
:1022B00081608093A1008091A00081608093A00044
:1022C00080912101826080932101809121018160B0
:1022D0008093210180912001816080932001809171
:1022E0007A00846080937A0080917A008260809383
:1022F0007A0080917A00816080937A0080917A00E0
:10230000806880937A001092C10080ED96E00E9470
:10231000AE0183E396E00E94AE018091C3079091E5
:10232000C4071816190634F441E06CE090E080E030
:102330000E9465058091C3079091C407181619067D
:1023400034F448E06AE090E080E00E946505809106
:10235000C3079091C4071816190624F490E080E092
:102360000E94C30584E00E94DE0612E060E0812F37
:102370000E9493021F5F1830C9F761E088E00E9455
:10238000930261E089E00E94930261E08AE00E948A
:1023900093020E9458088BE594E00E94C70B8111BC
:1023A000ABC062E674E080ED96E00E9418081982E6
:1023B000BE016F5F7F4F8FE790E00E941C0C40E7EB
:1023C00054E0BA018BE594E00E94350C90E080E087
:1023D0000E942119F82E811163C000E412E0580117
:1023E000CC24C394D12CC6010E942119F5018193FC
:1023F0005F01FFEFCF1ADF0A2FE7C216D10499F76A
:1024000061E472E080ED96E00E941808409140027D
:1024100050E070E060E02AE080ED96E00E94CC079A
:1024200064E273E080ED96E00E94BD07EE24E39441
:10243000F801808181112EC0AE014F5F5F4FBE0158
:102440006C5D7F4F8F2D0E943205898190E02CA119
:1024500030E0AC01E3E0440F551FEA95E1F740504E
:102460005E4FFA01E20FF31FE082F3E0880F991F3D
:10247000FA95E1F7885F9D4FFC01E20FF31FE082C0
:102480002F5F3F4F420F531FFA01E082820F931FCD
:10249000FC01E082F394025F1F4FF9E0FF12C8CF06
:1024A0000E94E30556E2252E56E0352E6BE0462EBF
:1024B00066E0562E73E0672E712C6E0124E2C20E88
:1024C000D11C8E010F5F1F4FE0911B06F0911C067F
:1024D000EA30F10508F070C08827EE58FD4E8F4FA6
:1024E0000C94591983120E17B11601133713DC120D
:1024F00069170615A8143B1665E774E080ED96E0B1
:102500000E94180863CF0E94D60660E080E00E9417
:102510007F076FE774E085EC97E00E94670961E050
:1025200080E00E947F076EE874E085EC97E00E94EF
:10253000670962E080E00E947F076FE974E085EC44
:1025400097E00E94670963E080E00E947F0767EAE6
:1025500074E085EC97E00E94670960911A066E5F4F
:1025600080E00E947F0763EB74E085EC97E00E94B7
:1025700067090E94FA04823381F462ED70E080E022
:1025800090E00E94E90280911A06815080931A0619
:102590008F3F91F410921A060FC0883391F462EDC8
:1025A00070E080E090E00E94E90280911A068F5F5F
:1025B000823028F480931A060E94820485CF81E03D
:1025C000F9CF82E00E943C027C0191E0E916F1041F
:1025D00081F662ED70E080E090E00E94E902809177
:1025E0001A06882339F08130A9F6F0921C06E09291
:1025F0001B06D0CF82E090E090931C0680931B06D0
:10260000C9CF0E94B3040E94D60660E873E085EC4F
:1026100097E00E94670961E080E00E947F0761E91E
:1026200073E085EC97E00E946709F12C80ED96E05D
:102630000E94D303892B51F042E050E0B80180EDB5
:1026400096E00E947E03FF24F394F0CFFF2071F305
:1026500080ED96E00E94D303892B41F78091180604
:102660009091190690931C0680931B06A5CF8BE0D2
:10267000F101282F11922A95E9F7F20111928A951A
:10268000E9F789E0E2E0F6E011928A95E9F70E9425
:10269000B30485EB94E00E942C08F1012BE0119229
:1026A0002A95E9F70E94D6066DEB74E085EC97E079
:1026B0000E94670961E080E00E947F0767EC74E098
:1026C00085EC97E00E94670962E080E00E947F0746
:1026D0000E941B034B015C010E941B030E94B30478
:1026E000F12CE12C1CAA80ED96E00E94D303892BEB
:1026F00071F080ED96E00E946A03F701EA5DF94F00
:102700008083C70101967C0191E09CABECCFECA9E2
:10271000EE23D1F10E941B03681979098A099B09EC
:10272000643F714081059105F4F266E276E085EC44
:1027300097E00E94670963E080E00E947F0762EDF6
:1027400074E085EC97E00E94670964EF71E080E037
:1027500090E00E94E9020E94E0048CAB811167C006
:1027600062E00E947F0763EE74E085EC97E00E94D0
:10277000670963E080E00E947F0763EE74E085EC08
:1027800097E00E94670983CF0E941B034B015C0105
:102790000E941B03A8CFEDA9EE23D9F00E941B03D2
:1027A000681979098A099B09643F7140810591057F
:1027B0000CF469C04BE0E42E46E0F42EF701819161
:1027C0007F01882369F06AE285EC97E00E94910717
:1027D000F5CF0E941B034B015C010E941B0353C0F9
:1027E00063E080E00E947F0762ED74E085EC97E093
:1027F0000E94670964EF71E080E090E00E94E902C6
:102800000E94E004811154C062E00E947F0763EEE1
:1028100074E085EC97E00E94670963E080E00E9425
:102820007F0763EE74E085EC97E00E9467090E94E1
:10283000B30487EF94E00E942C08F2012BE0119280
:102840002A95E9F70E94D6066DEB74E085EC97E0D7
:102850000E94670961E080E00E947F0764EF74E0F6
:1028600085EC97E00E94670962E080E00E947F07A4
:102870000E941B034B015C010E941B030E94B304D6
:10288000F12CE12C1DAA80ED96E00E94D303892B48
:1028900009F481CF80ED96E00E946A03F701E55FBD
:1028A000F94F8083C70101967C019CA99DABEBCFBA
:1028B00080E095E00E942C088BE096E00E947F0A61
:1028C000F82E0E94D6066BE574E086E296E00E9440
:1028D000861A892B09F560E774E08BE096E00E9488
:1028E000861A892BC9F46EE075E085EC97E00E94AA
:1028F000670962E370E080E090E00E94E90288E00E
:1029000090E090931C0680931B0660ED77E080E0DA
:1029100090E00E94E90250CEFF2019F087E090E09D
:10292000F0CF66E276E085EC97E00E9467096BE005
:1029300076E085EC97E00E94670962E370E080E052
:1029400090E00E94E90210921C0610921B06DDCF57
:102950000E94D60660E080E00E947F076EE874E087
:1029600085EC97E00E94670961E080E00E947F07A4
:1029700065E075E085EC97E00E94670962E080E021
:102980000E947F0764E175E085EC97E00E9467098B
:1029900063E080E00E947F0764E275E085EC97E0E9
:1029A0000E94670960911A066F5F80E00E947F07AE
:1029B00063EB74E085EC97E00E9467090E94FA04DB
:1029C000823309F4DACD883381F462ED70E080E07F
:1029D00090E00E94E90280911A068F5F80931A06A8
:1029E000833008F4E9CD82E0E5CD82E00E943C022C
:1029F000019721F762ED70E080E090E00E94E9022B
:102A000080911A06823009F425C1C4CD0E94D606F1
:102A100060E080E00E947F0764E375E085EC97E06A
:102A20000E94670961E080E00E947F0761E475E031
:102A300085EC97E00E94670962E080E00E947F07D2
:102A400065E275E085EC97E00E94670963E080E04D
:102A50000E947F076DE475E085EC97E00E946709AE
:102A600060911A0680E00E947F0763EB74E085ECBA
:102A700097E00E9467090E94FA04823309F47DCD31
:102A8000883371F462ED70E080E090E00E94E9022A
:102A900080911A068F5F843008F48CCD83E08ACD54
:102AA00082E00E943C02019731F762ED70E080E025
:102AB00090E00E94E90280911A06813009F494C0E6
:102AC000B8F0823009F4C6C0833009F063CD86E2E5
:102AD00096E00E94C70B20E4E22E22E0F22E811144
:102AE0005CC06FE675E080ED96E00E94180852CD5C
:102AF00030E4A32E32E0B32EF12CE12C0E94D60656
:102B000060E080E00E947F076EE575E085EC97E06D
:102B10000E94180861E080E00E947F076BE474E087
:102B200085EC97E00E9467099E2C60E36E0D85ECB2
:102B300097E00E942703F5018081882311F1892DF8
:102B40000E946F098111FBCF0E94D30A882309F4E8
:102B500021CD2EE02E9DC0012F9D900D1124FC0152
:102B6000E05CFD4F10824CE050E066E276E08F5B67
:102B70009D4F0E949D1A61E070E0892D0E94560DC4
:102B800009CDFFEFEF1AFF0A2EE0A20EB11C89E07B
:102B9000E816F10409F0B2CFFDCCF7018081811174
:102BA00026C04CE050E0B7016F5F7F4F86E296E0B1
:102BB0000E948F1A892BD9F40E94D60660E080E02B
:102BC0000E947F0764E875E085EC97E00E94180892
:102BD00063E975E085EC97E00E94180860E971E010
:102BE00080E090E00E94E9020E94D30DD3CCFEE089
:102BF000EF0EF11C2EEBE21622E0F20671F686E2F1
:102C000096E00E94440A4C019FE7E92EF12CB8019E
:102C1000C7010E949707B401C8010E94861A892B38
:102C2000F1F4B12CA12C1CA2B601C7018A0D9B1D89
:102C30000E941C0C8FEFA81AB80A92E2A916B104E0
:102C400091F765EA75E080ED96E00E941808C401EE
:102C50000E94FD1910921C0610921B069BCCE3E209
:102C6000EE0EF11CFBECEF16F9E0FF0681F6C40155
:102C70000E94FD198FCC0E94D60660E080E00E9481
:102C80007F0761EA74E085EC97E00E94670961E0E4
:102C900080E00E947F0767EC74E085EC97E00E947B
:102CA000670980E1F60111928A95E9F762E0C601B1
:102CB0000E949A088823B1F068EE73E080E090E00B
:102CC0000E94E9020E94D60665EB75E085EC97E06C
:102CD0000E94670968EE73E080E090E00E94E902DC
:102CE0000E94D6060E94D60660E080E00E947F0720
:102CF00061EA74E085EC97E00E94670961E080E09A
:102D00000E947F076CEB75E085EC97E00E946709F5
:102D100080E1F80111928A95E9F762E0C8010E940A
:102D20009A08882309F448CC68EE73E080E090E0CC
:102D30000E94E9020E94D606B60185EC97E00E9447
:102D40006709B80185EC97E00E94670968EE73E0B7
:102D500080E090E00E94E9020E94D60687E090E0C1
:102D600081CC0E94D60660E080E00E947F076EE87A
:102D700074E085EC97E00E94670961E080E00E94C2
:102D80007F0767EC75E085EC97E00E94670962E0D9
:102D900080E00E947F0764ED75E085EC97E00E947B
:102DA000670963E080E00E947F076CED75E085ECC9
:102DB00097E00E94670960911A066F5F80E00E94A9
:102DC0007F0763EB74E085EC97E00E9467090E943F
:102DD000FA04823309F4D1CB883309F4F6CD82E0CA
:102DE0000E943C02019799F762ED70E080E090E06C
:102DF0000E94E90280911A06813069F008F002CE43
:102E000070921C0660921B0684E090E09093190675
:102E100080931806BFCB89E090E0EECB0E94D606E7
:102E200060E080E00E947F076EE874E085EC97E048
:102E30000E94670961E080E00E947F0767EC75E00F
:102E400085EC97E00E94670962E080E00E947F07BE
:102E500064ED75E085EC97E00E94670963E080E02F
:102E60000E947F076CED75E085EC97E00E94670992
:102E700060911A066F5F80E00E947F0763EB74E049
:102E800085EC97E00E9467090E94FA04823309F4F6
:102E900074CB883309F499CD82E00E943C020197FB
:102EA00099F762ED70E080E090E00E94E902809185
:102EB0001A06813009F4AFCF08F0A4CD70921C0639
:102EC00060921B06E6E0F0E0F0931906E093180626
:102ED00061CB8DE0F101282F11922A95E9F7F201DB
:102EE00011928A95E9F789E0E2E0F6E011928A957D
:102EF000E9F70E94B30485EB94E00E942C08F101ED
:102F00002DE011922A95E9F70E94D60664EE75E04D
:102F100085EC97E00E94670961E080E00E947F07EE
:102F200067EC74E085EC97E00E94670962E080E05E
:102F30000E947F070E941B034B015C010E941B0340
:102F40000E94B304F12CE12C1CAA80ED96E00E94B3
:102F5000D303892B71F080ED96E00E946A03F7019C
:102F6000EA5DF94F8083C70101967C0191E09CAB3B
:102F7000ECCFECA9EE23D1F10E941B03681979096B
:102F80008A099B09643F714081059105F4F266E26C
:102F900076E085EC97E00E94670963E080E00E949C
:102FA0007F0762ED74E085EC97E00E94670964EFAB
:102FB00071E080E090E00E94E9020E94E0048CABA6
:102FC000811159C062E00E947F0763EE74E085ECD6
:102FD00097E00E94670963E080E00E947F0763EE4C
:102FE00074E085EC97E00E94670983CF0E941B0381
:102FF0004B015C010E941B03A8CFEDA9EE2309F44D
:103000007CC00E941B03681979098A099B09643FE7
:103010007140810591050CF45BC062E076E085ECBF
:1030200097E00E94670963E080E00E947F0762EDFD
:1030300074E085EC97E00E94670964EF71E080E03E
:1030400090E00E94E9020E94E0048DAB8111A8C0CB
:1030500062E00E947F0763EE74E085EC97E00E94D7
:10306000670963E080E00E947F0763EE74E085EC0F
:1030700097E00E9467090E94B30487EF95E00E94E1
:103080002C08E2E0F6E029E011922A95E9F70E9487
:10309000D60664EE75E085EC97E00E94670961E072
:1030A00080E00E947F0764EF75E085EC97E00E9466
:1030B000670962E080E00E947F070E941B034B01CA
:1030C0005C010E941B030E94B304F12CE12C1DAA99
:1030D00080ED96E00E94D303892B09F48ECF80ED1A
:1030E00096E00E946A03F701EE5FF94F8083C70103
:1030F00001967C019CA99DABEBCF0E941B034B0169
:103100005C010E941B03E4CFECA9EE23D9F00E94DE
:103110001B03681979098A099B09643F714081057D
:1031200091050CF469C08BE0E82E86E0F82EF701DB
:1031300081917F01882369F06AE285EC97E00E9423
:103140009107F5CF0E941B034B015C010E941B03FA
:1031500053C063E080E00E947F0762ED74E085EC7D
:1031600097E00E94670964EF71E080E090E00E94C0
:10317000E9020E94E004811154C062E00E947F07CE
:1031800063EE74E085EC97E00E94670963E080E0FD
:103190000E947F0763EE74E085EC97E00E94670968
:1031A0000E94B30487EF94E00E942C08F2012DE006
:1031B00011922A95E9F70E94D60664EE75E085EC37
:1031C00097E00E94670961E080E00E947F0764EF5A
:1031D00074E085EC97E00E94670962E080E00E945D
:1031E0007F070E941B034B015C010E941B030E948E
:1031F000B304F12CE12C1CAA80ED96E00E94D303CD
:10320000892B09F481CF80ED96E00E946A03F701D3
:10321000E55FF94F8083C70101967C019DA99CABB6
:10322000EBCF42E056E06BE076E086E296E00E946B
:10323000350C882309F4C0C910921C0610921B0695
:10324000BBC9F999FECF92BD81BDF89A992780B587
:103250000895262FF999FECF1FBA92BD81BD20BDDA
:103260000FB6F894FA9AF99A0FBE01960895A1E262
:103270001A2EAA1BBB1BFD010DC0AA1FBB1FEE1FF0
:10328000FF1FA217B307E407F50720F0A21BB30B3B
:10329000E40BF50B661F771F881F991F1A9469F7B7
:1032A00060957095809590959B01AC01BD01CF0113
:1032B0000895EE0FFF1F881F8BBF0790F691E02D3A
:1032C00019940F931F93CF93DF938230910510F4DD
:1032D00082E090E0E091DF07F091E00730E020E04D
:1032E000B0E0A0E0309799F42115310509F44AC007
:1032F000281B390B24303105D8F58A819B81611553
:10330000710589F1FB0193838283FE0111C0408125
:1033100051810281138148175907E0F04817590776
:1033200099F4109761F012960C93129713961C93D0
:103330003296CF01DF91CF911F910F9108950093A5
:10334000DF071093E007F4CF2115310551F0421744
:10335000530738F0A901DB019A01BD01DF01F80133
:10336000C1CFEF01F9CF9093E0078093DF07CDCF76
:10337000FE01E20FF31F81939193225031093983AB
:103380002883D7CF2091DD073091DE07232B41F42E
:103390002091C0023091C1023093DE072093DD07F7
:1033A0002091BE023091BF022115310541F42DB7A5
:1033B0003EB74091C2025091C302241B350BE091ED
:1033C000DD07F091DE07E217F307A0F42E1B3F0B99
:1033D0002817390778F0AC014E5F5F4F2417350787
:1033E00048F04E0F5F1F5093DE074093DD07819337
:1033F00091939FCFF0E0E0E09CCFCF93DF930097D5
:10340000E9F0FC01329713821282A091DF07B0919C
:10341000E007ED0130E020E01097A1F42081318138
:10342000820F931F2091DD073091DE07281739079F
:1034300009F061C0F093DE07E093DD07DF91CF91E3
:103440000895EA01CE17DF07E8F54A815B819E0106
:1034500041155105B1F7E901FB83EA83499159917F
:10346000C40FD51FEC17FD0761F48081918102968E
:10347000840F951FE90199838883828193819B83BF
:103480008A83F0E0E0E012968D919C91139700976B
:10349000B9F52D913C911197CD010296820F931FA2
:1034A0002091DD073091DE072817390739F630976C
:1034B00051F51092E0071092DF07B093DE07A0935A
:1034C000DD07BCCFD383C28340815181840F951F18
:1034D000C817D90761F44E5F5F4F88819981480F03
:1034E000591F518340838A819B8193838283211555
:1034F000310509F0B0CFF093E007E093DF079ECFEE
:10350000FD01DC01C0CF13821282D7CFFB01DC01A9
:103510008D91019080190110D9F3990B0895FB0149
:10352000DC014150504030F08D910190801919F428
:103530000020B9F7881B990B0895FB01DC0141506D
:10354000504048F001900D920020C9F701C01D9233
:1035500041505040E0F70895F894FFCF000001007B
:103560000001000000000100000100000101010154
:103570000101010100000100000100000000010044
:103580000001000001010101010101010000010031
:103590000001000000000100000100000100000027
:1035A000000000000000000000000100000000001A
:1035B000000000000000000001000000000000000A
:1035C00000000000000001000000000000000000FA
:1035D00000000000010000000000000000000000EA
:1035E00000000100000000000000000000000000DA
:1035F00001000000000000000000000000000100C9
:1036000000000000000000000000000001000000B9
:10361000000000000000000000000000E107800042
:10362000FFFFFFFFFFFFFFFFFF312A24232132416D
:1036300042433033444546003447484900354A4BFD
:103640004C00364D4E4F003750515253385455565A
:1036500000395758595A3132333435363738392AC8
:1036600030230000000015042E035B036204D30323
:103670006A03C5030000000091072E03B004AF04E5
:103680000D0A00527562656E2032303231313138A8
:1036900033350053657267696F2032303231313112
:1036A00038333500506564726F2032303231313139
:1036B000383335004A6F7365203230313930313755
:1036C0003536005365626173203230323131313822
:1036D00033350063616E63656C6172002045737001
:1036E0006572616E646F2020756E6120002020205D
:1036F000636F6E6578696F6E2E2E2E2020004163F9
:1037000065707461723F20202020202020005449E1
:10371000504F20444520494E5055543A00232041F3
:10372000504C49434143494F4E002A205445434C95
:1037300041444F006572726F722070617373776FCE
:1037400072643A006572726F722070617373776F82
:10375000726400456C207573756172696F207961C0
:1037600020657869737465002D2D2D4E7565766F13
:10377000207573756172696F2D2D2D002D2D2D2DE6
:103780002D2D2D2D2D2D2D2D2D2D2D2D2D2D2D0096
:103790004F7063696F6E3A200052657469726520DC
:1037A00043454C20656E0020504F53202300536149
:1037B0006361646F20230061646D696E310041674D
:1037C00072656761722041646D696E003132333415
:1037D000004861792061646D696E004D656E7520E9
:1037E0007072696E636970616C0050726573696FA5
:1037F0006E6120616365707461720020204C6F6798
:10380000696E002020526567697374726172003EB0
:10381000004E6F6D6272653A004C204F2047204980
:10382000204E00202D204E4F4D4252453A00436F0E
:1038300072726563746F3F202020202020200020BA
:103840002020202020202020202020202020200098
:10385000202D20436F6E747261733A004E414441D3
:10386000002020416363696F6E2041444D494E0042
:103870002020416363696F6E2041444D494E320000
:10388000202043657272617220736573696F6E00E8
:1038900020496E677265736F2043656C0020526526
:1038A0007469726F2043656C0020456C696D696EA8
:1038B0006172204375656E746100496E746F647542
:1038C0007A63612043454C20656E00456C2075731A
:1038D000756172696F206E6F206578697374650019
:1038E00043454C20656E2053697374656D61004DCE
:1038F000656E752064652072657469726F2E2E2E58
:10390000005573756172696F20426F727261646FE6
:103910000053495555555500202D20434F4E5452C4
:10392000413A00202041706C69636163696F6E00E9
:10393000202050616E656C00202053616C6972001C
:1039400052204520472049205320542052204F0028
:0C395000202D2043656C756C61723A00FC
:020000040003F7
:10E000000D9489F10D94B2F10D94B2F10D94B2F129
:10E010000D94B2F10D94B2F10D94B2F10D94B2F1F0
:10E020000D94B2F10D94B2F10D94B2F10D94B2F1E0
:10E030000D94B2F10D94B2F10D94B2F10D94B2F1D0
:10E040000D94B2F10D94B2F10D94B2F10D94B2F1C0
:10E050000D94B2F10D94B2F10D94B2F10D94B2F1B0
:10E060000D94B2F10D94B2F10D94B2F10D94B2F1A0
:10E070000D94B2F10D94B2F10D94B2F10D94B2F190
:10E080000D94B2F10D94B2F10D94B2F10D94B2F180
:10E090000D94B2F10D94B2F10D94B2F10D94B2F170
:10E0A0000D94B2F10D94B2F10D94B2F10D94B2F160
:10E0B0000D94B2F10D94B2F10D94B2F10D94B2F150
:10E0C0000D94B2F10D94B2F10D94B2F10D94B2F140
:10E0D0000D94B2F10D94B2F10D94B2F10D94B2F130
:10E0E0000D94B2F141546D656761323536300041AF
:10E0F000726475696E6F206578706C6F72657220DE
:10E1000073746B3530305632206279204D4C530099
:10E11000426F6F746C6F616465723E004875683F52
:10E1200000436F6D70696C6564206F6E203D200048
:10E130004350552054797065202020203D20005FF9
:10E140005F4156525F415243485F5F3D2000415658
:10E1500052204C696243205665723D20004743437C
:10E160002056657273696F6E203D20004350552024
:10E1700049442020202020203D20004C6F7720663D
:10E18000757365202020203D20004869676820665F
:10E190007573652020203D200045787420667573D6
:10E1A00065202020203D20004C6F636B2066757336
:10E1B000652020203D20004D617220203720323024
:10E1C000313300312E362E3800342E332E350056A2
:10E1D00023202020414444522020206F7020636F70
:10E1E00064652020202020696E73747275637469E1
:10E1F0006F6E2061646472202020496E74657272B3
:10E20000757074006E6F20766563746F7200726A49
:10E210006D702020006A6D70200057686174207056
:10E220006F72743A00506F7274206E6F7420737541
:10E2300070706F72746564004D7573742062652030
:10E2400061206C6574746572002000577269747483
:10E25000696E672045450052656164696E672045B7
:10E26000450045452065727220636E743D00504F35
:10E27000525400303D5A65726F2061646472003FF1
:10E280003D43505520737461747300403D454550C3
:10E29000524F4D207465737400423D426C696E6B41
:10E2A000204C454400453D44756D70204545505215
:10E2B0004F4D00463D44756D7020464C415348001B
:10E2C000483D48656C70004C3D4C69737420492F83
:10E2D0004F20506F72747300513D51756974005234
:10E2E0003D44756D702052414D00563D73686F7707
:10E2F00020696E7465727275707420566563746FF0
:10E30000727300593D506F727420626C696E6B00BD
:10E310002A0011241FBECFEFD1E2DEBFCDBF01E046
:10E320000CBF12E0A0E0B2E0EEE1FDEF03E00BBFB6
:10E3300002C007900D92A030B107D9F712E0A0E01B
:10E34000B2E001C01D92AE30B107E1F70F9460F367
:10E350000D948DFE01E20EBF0FEF0DBF11241FBE05
:10E360000D9460F30D9400F020E030E040ED57E0B4
:10E3700005C0FA013197F1F72F5F3F4F2817390792
:10E38000C0F308959C01260F311DC901A0E0B0E043
:10E390002F5F3F4FABBFFC018791882361F08093D3
:10E3A000C6008091C00086FFFCCF8091C0008064D1
:10E3B0008093C000EACF08958DE08093C6008091DD
:10E3C000C00086FFFCCF8091C00080648093C000B5
:10E3D0008AE08093C6008091C00086FFFCCF8091C8
:10E3E000C00080648093C00008950F94C2F10F9420
:10E3F000DCF10895FC019081992359F09093C600B7
:10E400008091C00086FFFCCF8091C0008064809323
:10E41000C0003196992379F70895282F982F929567
:10E420009F70892F805D8A3308F0895F8093C600D2
:10E430008091C00086FFFCCF8091C00080648093F3
:10E44000C000822F8F70982F905D9A3308F0995FEB
:10E450009093C6008091C00086FFFCCF8091C000E1
:10E4600080648093C00008959C01FB01853691056E
:10E470001CF46330710594F0C90164E670E00F94F8
:10E480002EFE605D7F4F6093C6008091C00086FFC6
:10E49000FCCF8091C00080648093C0002B30310598
:10E4A00014F43297B4F0C90164E670E00F942EFEC4
:10E4B0006AE070E00F942EFE605D7F4F6093C600AF
:10E4C0008091C00086FFFCCF8091C0008064809363
:10E4D000C000C9016AE070E00F942EFEC0968093E0
:10E4E000C6008091C00086FFFCCF8091C000806490
:10E4F0008093C00008951F93182F8EE692EE60E07F
:10E500000F94C2F11093C6008091C00086FFFCCF2B
:10E510008091C00080648093C0000F94DCF11F9153
:10E5200008952F923F924F925F926F927F928F92B7
:10E530009F92AF92BF92CF92DF92EF92FF920F9392
:10E540001F93DF93CF93CDB7DEB762970FB6F894E2
:10E55000DEBF0FBECDBF382E622ECA01DB015C01CB
:10E560006D01772420E2222E2E010894411C511CBB
:10E570008BC081E0A81680E0B80681E0C80680E084
:10E58000D80628F0C601AA27BB270F940DF2BB2797
:10E59000AD2D9C2D8B2D0F940DF28A2D0F940DF225
:10E5A0002092C6008091C00086FFFCCF8091C00001
:10E5B00080648093C0009DE29093C6008091C0006B
:10E5C00086FFFCCF8091C00080648093C0002092C1
:10E5D000C6008091C00086FFFCCF8091C00080649F
:10E5E0008093C00019828601750188249924A1E0D6
:10E5F0003A1651F03A1620F0B2E03B1661F409C029
:10E600000BBFF701779007C0C7010F9477FE782EF4
:10E6100002C0F7017080872D0F940DF22092C60082
:10E620008091C00086FFFCCF8091C0008064809301
:10E63000C000872D8052F401EF70F0708F3520F408
:10E64000E40DF51D708204C0E40DF51D8EE280839B
:10E650000894E11CF11C011D111D0894811C911CE2
:10E6600090E18916910409F0C2CF80E190E0A0E02A
:10E67000B0E0A80EB91ECA1EDB1E198AC2010F9493
:10E68000FAF10F94DCF16A94662009F072CF629679
:10E690000FB6F894DEBF0FBECDBFCF91DF911F91B3
:10E6A0000F91FF90EF90DF90CF90BF90AF909F9031
:10E6B0008F907F906F905F904F903F902F90089534
:10E6C0002F923F924F925F926F927F928F929F9282
:10E6D000AF92BF92CF92DF92EF92FF920F931F9370
:10E6E000DF93CF93CDB7DEB7CD53D1400FB6F894BB
:10E6F000DEBF0FBECDBF01E20EBF0FEF0DBF94B75F
:10E70000F894A89514BE80916000886180936000A1
:10E7100010926000789493FF05C0E0910002F091A0
:10E7200001021995279A2F9A8091C00082608093E8
:10E73000C00080E18093C40088E18093C1000000A4
:10E74000EE24FF24870144E0A42EB12CCC24DD2448
:10E7500024C0C5010197F1F70894E11CF11C011DCB
:10E76000111D21E2E2162EE4F20620E0020720E06D
:10E77000120718F031E0C32ED12CC801B70127ECE5
:10E780003BE140E050E00F9441FE611571058105C9
:10E79000910519F485B1805885B98091C00087FD35
:10E7A00003C0C114D104A9F2A6014F5F5F4FC25E3E
:10E7B000DE4F59834883CE51D140C25EDE4F8881FF
:10E7C0009981CE51D140019711F00D9410FEC05D9A
:10E7D000DE4F19821882C053D14060E0C15DDE4F28
:10E7E0001882CF52D14088249924C35DDE4F19820C
:10E7F0001882CD52D140C05EDE4F188219821A8233
:10E800001B82C052D140CE5CDE4F188219821A8220
:10E810001B82C253D140EE24FF2487010BBFF701B6
:10E8200007911691C45CDE4F19830883CC53D14005
:10E830000D940BFEC25EDE4F28813981CE51D1404E
:10E840002130310509F52091C600C25EDE4F1982E4
:10E850001882CE51D14022C02F5F3F4F4F4F5F4FA4
:10E86000213082E138078AE7480780E0580780F0C6
:10E87000C45CDE4FE881F981CC53D140EF5FFF4F9C
:10E8800019F0EE27FF27099420E030E040E050E047
:10E890008091C00087FFE0CF2091C600C35DDE4FAE
:10E8A00048815981CD52D1404F5F5F4FC35DDE4FEC
:10E8B00059834883CD52D140213209F063C64A3092
:10E8C000510508F05FC60894811C911C53E0851621
:10E8D000910409F059C600E010E018C081E280936D
:10E8E000C6008091C00086FFFCCF8091C00080648C
:10E8F0008093C0002F5F3F4F2931310579F70F9486
:10E90000DCF10F5F1F4F0530110519F020E030E0FA
:10E91000E5CF10920A0210920B0210920C02109294
:10E920000D02109206021092070210920802109235
:10E930000902109202021092030210920402109235
:10E9400005028FEE90EE60E00F94F5F180E191EE1C
:10E9500060E00F94C2F18091C00087FFFCCF9091DE
:10E96000C600903608F09F759032B8F09093C600BC
:10E970008091C00086FFFCCF8091C00080648093AE
:10E98000C000A0E2A093C6008091C00086FFFCCF2B
:10E990008091C00080648093C000983409F4D7C18E
:10E9A0009934B8F4923409F459C1933458F490333B
:10E9B00019F1903308F4E3C59F33A1F1903409F0C5
:10E9C000DEC5BDC0953409F470C1963409F0D7C5D1
:10E9D00098C1923509F42BC2933538F49C3409F46C
:10E9E000F5C1913509F0CBC518C2963509F445C279
:10E9F000993509F0C4C567C483E792EE62E00F94CD
:10EA0000F5F110920602109207021092080210927D
:10EA1000090210920A0210920B0210920C0210923C
:10EA20000D0213C18FE792EE62E00F94F5F18FEEC5
:10EA300090EE60E00F94F5F181E291EE60E00F94CA
:10EA4000C2F187EB91EE60E00F94F5F180E391EE77
:10EA500060E00F94C2F184EE90EE60E00F94F5F167
:10EA60008FE391EE60E00F94C2F186E090E061E008
:10EA700070E00F9434F20F94DCF18DE591EE60E0DC
:10EA80000F94C2F189EC91EE60E00F94F5F18EE401
:10EA900091EE60E00F94C2F183EC91EE60E00F9490
:10EAA000F5F18CE691EE60E00F94C2F18EE10F94E7
:10EAB0000DF288E90F940DF281E00F940DF20F949E
:10EAC000DCF18BE791EE60E00F94C2F119E0E0E039
:10EAD000F0E010935700E4918E2F0F940DF20F94F5
:10EAE000DCF18AE891EE60E00F94C2F1E3E0F0E03F
:10EAF00010935700E4918E2F0F940DF20F94DCF1D8
:10EB000089E991EE60E00F94C2F1E2E0F0E0109349
:10EB10005700E4918E2F0F940DF20F94DCF188EAE8
:10EB200091EE60E00F94C2F1E1E0F0E01093570045
:10EB30001491812F0F940DF20F94DCF107CF8BE825
:10EB400092EE62E00F94F5F18BE492EE60E00F94A8
:10EB5000F5F10F94DCF100E010E019C0C8016F2D51
:10EB60000F947FFEFF2031F489E492EE60E00F9471
:10EB7000C2F10BC0F092C6008091C00086FFFCCFAE
:10EB80008091C00080648093C0000F5F1F4FC80158
:10EB900081519F41A0E0B0E0ABBFFC01F790BAE229
:10EBA000FB1621F0E2E000301E07C1F60F94DCF105
:10EBB0000F94DCF187E592EE60E00F94F5F10F948D
:10EBC000DCF1CC24DD2400E010E01EC0C8010F946D
:10EBD00077FEF82E882331F489E492EE60E00F94FA
:10EBE000C2F10BC08093C6008091C00086FFFCCFAD
:10EBF0008091C00080648093C000FE1419F00894D6
:10EC0000C11CD11C0F5F1F4FC80181519F41A0E063
:10EC1000B0E0ABBFFC01E790FAE2EF1621F022E092
:10EC20000030120799F60F94DCF10F94DCF182E6C4
:10EC300092EE60E00F94C2F1C60161E070E00F94C3
:10EC400034F20F94DCF10F94DCF110920202109276
:10EC50000302109204021092050278CE89E992EE26
:10EC600062E00F94F5F1279A2F9A16C02F9880E052
:10EC700090E0E0EDF7E03197F1F7019684369105E9
:10EC8000C1F72F9A80E090E0E0EDF7E03197F1F7DF
:10EC9000019684369105C1F78091C00087FFE6CFC9
:10ECA0008091C00087FFFCCF64C485EA92EE62E0E9
:10ECB0000F94F5F140910202509103026091040219
:10ECC0007091050281E020E10F9491F2809102029F
:10ECD00090910302A0910402B091050280509F4FD1
:10ECE000AF4FBF4F8093020290930302A0930402A0
:10ECF000B093050280509041A040B04008F426CE69
:10ED0000A4CF83EB92EE62E00F94F5F140910602FE
:10ED100050910702609108027091090280E020E1A1
:10ED20000F9491F28091060290910702A09108023F
:10ED3000B091090280509F4FAF4FBF4F80930602A2
:10ED400090930702A0930802B0930902FFCD80ECD4
:10ED500092EE62E00F94F5F183E792EE60E00F949B
:10ED6000F5F18FE792EE60E00F94F5F18BE892EE0B
:10ED700060E00F94F5F189E992EE60E00F94F5F10F
:10ED800085EA92EE60E00F94F5F183EB92EE60E09D
:10ED90000F94F5F180EC92EE60E00F94F5F187ECC2
:10EDA00092EE60E00F94F5F188ED92EE60E00F9442
:10EDB000F5F18FED92EE60E00F94F5F18AEE92EEB0
:10EDC00060E00F94F5F183E093EEBDCD87EC92EE19
:10EDD00062E00F94F5F181E40F947BF282E40F94EA
:10EDE0007BF283E40F947BF284E40F947BF285E45E
:10EDF0000F947BF286E40F947BF287E40F947BF20E
:10EE000088E40F947BF28AE40F947BF28BE40F94F6
:10EE10007BF28CE40F947BF299CD88ED92EE62E068
:10EE20000F94F5F1772473948824992409C48FED05
:10EE300092EE62E00F94F5F140910A0250910B02BC
:10EE400060910C0270910D0282E020E10F9491F22A
:10EE500080910A0290910B02A0910C02B0910D02D8
:10EE600080509F4FAF4FBF4F80930A0290930B0289
:10EE7000A0930C02B0930D0269CD8AEE92EE62E08F
:10EE80000F94F5F184EE90EE60E00F94F5F18FECC5
:10EE900091EE60E00F94F5F1662477244301CC5D98
:10EEA000DE4F19821882C452D140D401C301B695F5
:10EEB000A79597958795CA5DDE4F88839983AA8326
:10EEC000BB83C652D140CC5DDE4FA881B981C4520C
:10EED000D1401196CC5DDE4FB983A883C452D14096
:10EEE000CD0162E070E00F9434F2B0E2B093C6005E
:10EEF0008091C00086FFFCCF8091C0008064809329
:10EF0000C000EDE2E093C6008091C00086FFFCCF18
:10EF10008091C00080648093C000F0E2F093C6004E
:10EF20008091C00086FFFCCF8091C00080648093F8
:10EF3000C000CA5DDE4FE880F9800A811B81C6529D
:10EF4000D140BB27A12F902F8F2D0F940DF2CA5DBA
:10EF5000DE4F8881C652D1400F940DF2B0E2FB2EF5
:10EF6000F092C6008091C00086FFFCCF8091C00067
:10EF700080648093C0000DE30093C6008091C000C0
:10EF800086FFFCCF8091C00080648093C00010E2B7
:10EF90001093C6008091C00086FFFCCF8091C00016
:10EFA00080648093C0008BBEF3012791C65DDE4F65
:10EFB0002883CA52D140A22EBB24CC24DD2408943D
:10EFC000611C711C811C911C8BBEF3018791282E42
:10EFD0003324442455240894611C711C811C911C09
:10EFE0008BBEF3013791C55DDE4F3883CB52D140E4
:10EFF0000894611C711C811C911C8BBEF30147910C
:10F00000C45DDE4F4883CC52D140ADEFEA2EAFEF66
:10F01000FA2EAFEF0A2FAFEF1A2F6E0C7F1C801E57
:10F02000911E142D032DF22CEE24EA0CFB1C0C1D5A
:10F030001D1D0F940DF220E22093C6008091C000A8
:10F0400086FFFCCF8091C00080648093C000C65DC5
:10F05000DE4F8881CA52D1400F940DF230E23093D6
:10F06000C6008091C00086FFFCCF8091C000806404
:10F070008093C000C45DDE4F8881CC52D1400F9494
:10F080000DF240E24093C6008091C00086FFFCCFA5
:10F090008091C00080648093C000C55DDE4F888190
:10F0A000CB52D1400F940DF250E25093C6008091A4
:10F0B000C00086FFFCCF8091C00080648093C000B8
:10F0C0008FEFE8168FEFF80680E0080780E018075A
:10F0D00031F484E092EE60E00F94C2F1DFC0D80119
:10F0E000C7018070907CA070B0708050904CA040A0
:10F0F000B040D1F52FEF3FE340E050E0E222F322B1
:10F1000004231523CA5DDE4FA880B980CA80DB8046
:10F11000C652D140AE0CBF1CC01ED11EAA0CBB1CD7
:10F12000CC1CDD1C8EE092EE60E00F94C2F1BB2798
:10F13000A12F902F8F2D0F940DF28E2D0F940DF285
:10F1400030E23093C6008091C00086FFFCCF8091F2
:10F15000C00080648093C0004EE34093C60080915D
:10F16000C00086FFFCCF87C08EE09EEFA0E0B0E03D
:10F17000E822F9220A231B239CE0E91694E9F90608
:10F1800090E0090790E0190709F088C0C45DDE4FE0
:10F19000A881CC52D140EA2EFF2400E010E0102FCD
:10F1A0000F2DFE2CEE24C55DDE4FB881CB52D14031
:10F1B000EB0EF11C011D111DD601C501817090706F
:10F1C000A070B070DC0199278827E80EF91E0A1F8D
:10F1D0001B1F20EF30E040E050E0A222B322C42207
:10F1E000D52241E1AA0CBB1CCC1CDD1C4A95D1F7F1
:10F1F000EA0CFB1C0C1D1D1D81E090E0A0E0B0E0BE
:10F20000282239224A225B2235E1220C331C441C7D
:10F21000551C3A95D1F7E20CF31C041D151D57013E
:10F220006801AA0CBB1CCC1CDD1C85E192EE60E0E1
:10F230000F94C2F1C801AA27BB270F940DF2BB2778
:10F24000A12F902F8F2D0F940DF28E2D0F940DF274
:10F2500090E29093C6008091C00086FFFCCF809121
:10F26000C00080648093C000AEE3A093C60080918C
:10F27000C00086FFFCCF8091C00080648093C000F6
:10F28000C601AA27BB270F940DF2BB27AD2D9C2DDD
:10F290008B2D0F940DF28A2D0F940DF20F94DCF14B
:10F2A000CC5DDE4FE881F981C452D140F99709F471
:10F2B0004DCBF4E0EF2EF12C012D112D6E0C7F1CA7
:10F2C000801E911EF2CD83E093EE62E00F94F5F183
:10F2D0008AE192EE60E00F94C2F18091C00087FF56
:10F2E000FCCF1091C6001F751093C6008091C0001E
:10F2F00086FFFCCF8091C00080648093C0000F9493
:10F30000DCF1812F81548A3108F036C1163409F4BA
:10F3100095C0173490F4133409F44EC0143430F40B
:10F320001134F1F0123409F01DC130C0143409F465
:10F3300059C0153409F016C16BC01A3409F4C4C0A1
:10F340001B3438F4173409F48FC0183409F00AC19B
:10F35000A1C01B3409F4D2C01C3409F003C1E8C0B9
:10F360008FEF81B90DC082B1809582B980E090E0C5
:10F37000E0EDF7E03197F1F70196883C9105C1F790
:10F380008091C00087FFEFCF12B8EFC08FEF84B934
:10F390000DC085B1809585B980E090E0E0EDF7E0A3
:10F3A0003197F1F70196883C9105C1F78091C00033
:10F3B00087FFEFCF15B8D9C08FEF87B90DC088B1DF
:10F3C000809588B980E090E0E0EDF7E03197F1F7C3
:10F3D0000196883C9105C1F78091C00087FFEFCF6F
:10F3E00018B8C3C08FEF8AB90DC08BB180958BB9A7
:10F3F00080E090E0E0EDF7E03197F1F70196883C8E
:10F400009105C1F78091C00087FFEFCF1BB8ADC059
:10F410008FEF8DB90DC08EB180958EB980E090E0F0
:10F42000E0EDF7E03197F1F70196883C9105C1F7DF
:10F430008091C00087FFEFCF1EB897C08FEF80BBD1
:10F440000DC081B3809581BB80E090E0E0EDF7E0F6
:10F450003197F1F70196883C9105C1F78091C00082
:10F4600087FFEFCF11BA81C08FEF83BB0DC084B38C
:10F47000809584BB80E090E0E0EDF7E03197F1F714
:10F480000196883C9105C1F78091C00087FFEFCFBE
:10F4900014BA6BC08FEF809301010FC080910201FD
:10F4A00080958093020180E090E0E0EDF7E03197F5
:10F4B000F1F70196883C9105C1F78091C00087FF64
:10F4C000EDCF1092020151C08FEF809304010FC065
:10F4D0008091050180958093050180E090E0E0ED4A
:10F4E000F7E03197F1F70196883C9105C1F78091DB
:10F4F000C00087FFEDCF1092050137C08FEF8093DA
:10F5000007010FC08091080180958093080180E079
:10F5100090E0E0EDF7E03197F1F70196883C910536
:10F52000C1F78091C00087FFEDCF109208011DC088
:10F530008FEF80930A010FC080910B01809580931B
:10F540000B0180E090E0E0EDF7E03197F1F70196F4
:10F55000883C9105C1F78091C00087FFEDCF1092E4
:10F560000B0103C085E292EEEEC98091C00087FFD7
:10F57000FCCF8091C600EAC988E392EEE4C98CE131
:10F5800091EEE1C988249924933011F1943028F444
:10F59000913089F09230B8F408C0953061F195301F
:10F5A000F0F0963009F048C043C02B3109F042C951
:10F5B00091E06BE13FC96227C15DDE4F2883CF52E6
:10F5C000D14092E037C9B22FA0E0622793E032C960
:10F5D000822F90E0A82BB92B622794E02BC92E3004
:10F5E00009F039C3622795E0C05DDE4F19821882A9
:10F5F000C053D1401FC9E1E0F0E0EC0FFD1FC05D3A
:10F60000DE4F08811981C053D140E00FF11F2083E4
:10F610000F5F1F4FC05DDE4F19830883C053D14079
:10F6200062270A171B0709F005C9D80196E002C92D
:10F63000261709F010C303C0973009F0FBC87724E0
:10F640009981933109F412C19431C8F4963009F4C8
:10F65000D8C0973050F4923009F406C1933009F4C1
:10F660006DC0913009F059C253C0913109F477C08F
:10F67000923108F0BBC0903109F04FC2F5C098310B
:10F6800009F487C0993150F4953109F4EFC09531F0
:10F6900008F4C6C1963109F040C2C2C19A3109F4DA
:10F6A0006CC09A3108F491C09B3109F45BC09D3164
:10F6B00009F033C29D81903359F48F81882311F46E
:10F6C0009EE11CC0813011F091E018C098E916C08D
:10F6D000892F807591F0903539F4E0E0F0E089E011
:10F6E0008093570094910AC0983539F4E3E0F0E034
:10F6F00089E080935700949101C090E01A821B82A8
:10F700008D818C831D829E831F8227E030E009C299
:10F710001A8288E08B8381E48C8386E58D8382E581
:10F720008E8389E48F8383E5888780E589878FE5E9
:10F730008A8782E38B872BE030E0F3C18A818139AD
:10F7400041F0823941F0803911F48FE005C080E04A
:10F7500003C082E001C08AE01A828B8344C0772410
:10F76000739482C08D81882311F48EE12CC0813086
:10F7700011F081E028C088E926C01A82E1E0F0E0BB
:10F7800089E08093570084918B831C8224E030E0D1
:10F79000C8C18B81803589F48C81883039F4E2E0EE
:10F7A000F0E089E08093570084910DC0E0E0F0E044
:10F7B00089E080935700849106C0E3E0F0E089E09F
:10F7C0008093570084911A82DFCF8D81836C99E0FA
:10F7D000E1E0F0E0082E90935700E89507B600FCB2
:10F7E000FDCF1A821B8223E030E09BC180EC8A832C
:10F7F000CE5CDE4F188219821A821B82C253D1401E
:10F800008EC18A8190E0A0E0B0E0582F44273327D2
:10F8100022278B8190E0A0E0B0E0DC0199278827C7
:10F82000282B392B4A2B5B2B8D8190E0A0E0B0E098
:10F83000282B392B4A2B5B2B8C8190E0A0E0B0E089
:10F84000BA2FA92F982F8827282B392B4A2B5B2BCF
:10F85000220F331F441F551FC05EDE4F288339839C
:10F860004A835B83C052D1401A8259C13A81C95C34
:10F87000DE4F3883C753D140CA5CDE4F1882C6536F
:10F88000D1408B81C82EDD24CA5CDE4F488159816E
:10F89000C653D140C42AD52A933109F082C0CE5C28
:10F8A000DE4F88819981AA81BB81C253D1408050AB
:10F8B000904CA340B04030F583E0CE5CDE4FE88052
:10F8C000F9800A811B81C253D140F70100935B008C
:10F8D00080935700E89507B600FCFDCFCE5CDE4F65
:10F8E000088119812A813B81C253D14000501F4FAA
:10F8F0002F4F3F4FCE5CDE4F088319832A833B8313
:10F90000C253D140C05EDE4F488159816A817B81FC
:10F91000C052D140DE011B9631E08C9111962C91A2
:10F9200011971296C75CDE4F2883C953D140C85C3B
:10F93000DE4F1882C853D14090E0C85CDE4FE881AA
:10F94000F981C853D1408E2B9F2B0C01FA01609393
:10F950005B0030935700E89511244E5F5F4F6F4F67
:10F960007F4F0EEFE02E0FEFF02ECE0CDF1CC114F8
:10F97000D10499F685E0C05EDE4F088119812A81A5
:10F980003B81C052D140F80120935B008093570027
:10F99000E89507B600FCFDCF81E180935700E8951C
:10F9A00035C0C05EDE4F88819981AA81BB81C0527B
:10F9B000D140B695A795979587957C018601ABE0D8
:10F9C000AA2EB12CAC0EBD1E0BC0D5016D915D01F0
:10F9D000C7010F947FFE0894E11CF11C01501040F8
:10F9E0000115110591F7A60160E070E0440F551F65
:10F9F000661F771FC05EDE4FE880F9800A811B8199
:10FA0000C052D1404E0D5F1D601F711F1A82C05E33
:10FA1000DE4F488359836A837B83C052D1407FC0C5
:10FA2000FA80C55CDE4FF882CB53D140C65CDE4F16
:10FA30001882CA53D1408B81C82EDD24C65CDE4FAC
:10FA400008811981CA53D140C02AD12A1A828981DA
:10FA5000BE016D5F7F4F843121F59601C05EDE4FA0
:10FA6000E880F9800A811B81C052D1400BBFF701A9
:10FA700087919691DB018C9311969C936E5F7F4FDB
:10FA8000D801C7010296A11DB11DC05EDE4F88835B
:10FA90009983AA83BB83C052D14022503040F1F6F3
:10FAA00036C0C05EDE4F288139814A815B81C052F9
:10FAB000D1400894C108D108760100E010E0089414
:10FAC000C11CD11C0894E11CF11C011D111DE20E8A
:10FAD000F31E041F151F21BDBB27A52F942F832FB5
:10FAE00082BD2F5F3F4F4F4F5F4FF89A80B5DB01CC
:10FAF0008D93BD012E153F054007510761F7C05E8C
:10FB0000DE4F288339834A835B83C052D1409601FC
:10FB10002D5F3F4FFB01108204C080EC8A8322E0FE
:10FB200030E08BE18093C6008091C00086FFFCCF5F
:10FB30008091C00080648093C000C15DDE4FF88179
:10FB4000CF52D140F093C6008091C00086FFFCCF19
:10FB50008091C00080648093C000432F3093C60022
:10FB60008091C00086FFFCCF8091C00080648093AC
:10FB7000C000922F2093C6008091C00086FFFCCF6A
:10FB80008091C00080648093C0008EE08093C600A6
:10FB90008091C00086FFFCCF8091C000806480937C
:10FBA000C00065E1C15DDE4FE880CF52D1406E25D7
:10FBB00069276427FE01319610C090819093C6009A
:10FBC0008091C00086FFFCCF31968091C000806498
:10FBD0008093C0006927215030402115310569F715
:10FBE0006093C6008091C00086FFFCCF8091C0006A
:10FBF00080648093C00085B1805885B9772081F4F6
:10FC0000C15DDE4F0881CF52D1400F5FC15DDE4F35
:10FC10000883CF52D14090E0A0E0B0E00D941AF4F8
:10FC200027982F9880E090E020ED37E0F901319798
:10FC3000F1F7019684369105C9F700008091C00064
:10FC40008D7F8093C00081E180935700E895EE2777
:10FC5000FF270994FFCF90E00D941AF497FB092E2B
:10FC600007260AD077FD04D02ED006D000201AF443
:10FC7000709561957F4F0895F6F7909581959F4F08
:10FC80000895A1E21A2EAA1BBB1BFD010DC0AA1FDD
:10FC9000BB1FEE1FFF1FA217B307E407F50720F0F5
:10FCA000A21BB30BE40BF50B661F771F881F991F70
:10FCB0001A9469F760957095809590959B01AC01B9
:10FCC000BD01CF010895AA1BBB1B51E107C0AA1FAC
:10FCD000BB1FA617B70710F0A61BB70B881F991FED
:10FCE0005A95A9F780959095BC01CD010895F99991
:10FCF000FECF92BD81BDF89A992780B50895262F31
:10FD0000F999FECF1FBA92BD81BD20BD0FB6F89400
:0EFD1000FA9AF99A0FBE01960895F894FFCF63
:00000001FF
