:020000040000FA
:100000000C947D010C94AE010C94AE010C94AE01E5
:100010000C94AE010C94AE010C94AE010C94AE01A4
:100020000C94AE010C94AE010C94AE010C94AE0194
:100030000C94AE010C94AE010C94AE010C94AE0184
:100040000C94AE010C94AE010C94AE010C94AE0174
:100050000C94AE010C94AE010C94AE010C941D1ADC
:100060000C94AE010C94391B0C940F1B0C94AE0134
:100070000C94AE010C94AE010C94AE010C94AE0144
:100080000C94AE010C94AE010C94AE010C94AE0134
:100090000C94AE010C94AE010C94AE010C94AE0124
:1000A0000C94AE010C94AE010C94AE010C94AE0114
:1000B0000C94AE010C94AE010C94AE010C94AE0104
:1000C0000C94AE010C94AE010C94AE010C94E51AA4
:1000D0000C94BB1A0C94AE010C94911A0C94671AF0
:1000E0000C94AE010C947C050C943A020C943411DF
:1000F0000C94631B0C9480040C9476050C94D61716
:100100000C94D2170C946E050C94B6070C945D17E2
:100110000C94FB010C9435020C944D170C941A02AC
:100120000C9482050C947B170C9428020C941402F6
:100130000C94C9040C947E170C94430D0C94551721
:100140000C9436020C942C020C94CA040C948A0E63
:100150000C9459170C9407020C947E030C943002F3
:100160000C94E7030C9421140C9437130C94FF01A6
:100170000C94D40D0C9410020C9411100C9449178B
:100180000C941E020C947F050C9433040C94D90338
:100190000C9473050C9429030C9422020C94871779
:1001A0000C94F5010C9403020C949E120C945117BC
:1001B0000C946F030C9478050C94BF130C940A02F2
:1001C0000C947C140C9461170C9485050C94880590
:1001D0000C94530E0C9444170000210024002700B7
:1001E0002A002D0030003300010100000401070146
:1001F0000A0100002200250028002B002E003100FB
:10020000340002010000050108010B01000020007C
:100210002300260029002C002F00320000010000DE
:100220000301060109010505050507050808080879
:10023000020202020A0A080804040404010101017E
:100240000101010103030303030303030407070779
:100250000C0C0C0C0C0C0C0C02020202060606061E
:10026000060606060B0B0B0B0B0B0B0B01021020EB
:1002700020080810204010204080020102010804DC
:100280000201010204081020408080402010080470
:1002900002018004020180402010080402010804C9
:1002A000020101020408102040800102040810200D
:1002B000408000000A0B02090C0D0E080703040120
:1002C000000000000000000000000000000000002E
:1002D00000000000000000000000000000001211FB
:1002E00010000000000000000000000000000000FE
:1002F0000000000000000000631B11241FBECFEFB0
:10030000D1E2DEBFCDBF00E00CBF29E0A4EEB6E035
:1003100001C01D92AA36B207E1F716E0A0E0B2E0F4
:10032000E2E2FFE300E00BBF02C007900D92A43EA3
:10033000B107D9F711E0CDE7D1E000E006C0219781
:100340000109802FFE010E94351ECC37D10780E0C5
:100350000807A9F70E94BB1C0C948F1F0C94000087
:10036000FC01A089B18982E08C93A485B5851C929B
:10037000A685B7858FEC8C93108EA489B58986E00D
:100380008C93A289B3898C9180618C93A289B38963
:100390008C9188608C93A289B3898C9180688C93AE
:1003A0000288F389E02D80818F7D808308958150BC
:1003B000823108F05AC0E82FF0E08827ED51FE4F57
:1003C0008F4F0C94351E03020702F501FB01FF015C
:1003D00035020A02100214021A021E022202280228
:1003E0002C023502300236023A02809180008F776B
:1003F000809380000895809180008F7DF9CF809157
:100400008000877FF5CF84B58F7784BD089584B54C
:100410008F7DFBCF8091B0008F778093B0000895DF
:100420008091B0008F7DF9CF809190008F7780937D
:1004300090000895809190008F7DF9CF8091900079
:10044000877FF5CF8091A0008F778093A0000895DB
:100450008091A0008F7DF9CF8091A000877FF5CF9C
:10046000809120018F778093200108958091200151
:100470008F7DF9CF80912001877FF5CFCF93DF93D8
:10048000282F30E0F901EE54FD4F8491F901E45931
:10049000FD4FD491F901EA5DFD4FC491CC23A1F049
:1004A00081110E94D701EC2FF0E0EE0FFF1FE45FF7
:1004B000FD4FA591B491EC91ED2381E090E009F41A
:1004C00080E0DF91CF91089580E090E0FACF1F9314
:1004D000CF93DF93282F30E0F901EE54FD4F849144
:1004E000F901E459FD4FD491F901EA5DFD4FC49142
:1004F000CC23A9F0162F81110E94D701EC2FF0E038
:10050000EE0FFF1FEE50FE4FA591B4918FB7F894F8
:10051000EC91111108C0D095DE23DC938FBFDF91E1
:10052000CF911F910895DE2BF8CFCF93DF9390E00A
:10053000FC01E459FD4F24918A5D9D4FFC0184919B
:100540008823D1F090E0880F991FFC01E852FE4FFC
:10055000A591B491FC01EE50FE4FC591D49161116B
:100560000EC09FB7F8948C91E22FE0958E238C9368
:100570002881E223E8839FBFDF91CF9108958FB751
:10058000F894EC91E22BEC938FBFF6CF3FB7F89441
:1005900080910E0790910F07A0911007B09111075D
:1005A00026B5A89B05C02F3F19F00196A11DB11DCE
:1005B0003FBFBA2FA92F982F8827BC01CD01620F0A
:1005C000711D811D911D42E0660F771F881F991FC5
:1005D0004A95D1F708958F929F92AF92BF92CF9292
:1005E000DF92EF92FF924B015C010E94C6026B0109
:1005F0007C010E94C6026C197D098E099F09683E24
:10060000734081059105A8F321E0821A9108A108A1
:10061000B10888EEC80E83E0D81EE11CF11C8114DD
:100620009104A104B10429F7FF90EF90DF90CF90DF
:10063000BF90AF909F908F9008952FB7F8946091DE
:100640000A0770910B0780910C0790910D072FBF3F
:100650000895AF92BF92CF92DF92EF92FF920F93E5
:100660001F93CF93DF936C017B018B01040F151F48
:10067000EB015E01AE18BF08C017D10759F06991B0
:10068000D601ED91FC910190F081E02DC601199504
:10069000892B79F7C501DF91CF911F910F91FF90C1
:1006A000EF90DF90CF90BF90AF900895FC01A089AC
:1006B000B1898C91A689B78982FD0FC09C91818DEB
:1006C0008F5F8F73228D821749F0A18DAE0FBF2FE0
:1006D000B11D5D969C93818F08958C910895FC01C6
:1006E000538D448D252F30E0842F90E0821B930B97
:1006F000541710F0CF96089501970895FC01918D3D
:10070000828D981761F0A28DAE0FBF2FB11D5D963F
:100710008C91928D9F5F9F73928F90E008958FEFE1
:100720009FEF08958F929F92AF92BF92CF92DF92E8
:10073000EF92FF920F931F93CF93DF937C016A0197
:100740008B01D0E0C0E00E941D03F7016087718734
:1007500082879387C7010E947E0397FF22C00E9471
:100760001D03F70180849184A284B38468197909F8
:100770008A099B0984809580A680B78068157905D1
:100780008A059B0538F3CE01DF91CF911F910F9120
:10079000FF90EF90DF90CF90BF90AF909F908F90A1
:1007A0000895F80181938F012196CC16DD0659F644
:1007B000EACFFC01918D828D981731F0828DE80F80
:1007C000F11D858D90E008958FEF9FEF0895FC0156
:1007D000918D228D892F90E0805C9F4F821B910923
:1007E0008F73992708958FE197E00E94E70321E036
:1007F000892B09F420E0822F08958CEB97E00E946A
:10080000E70321E0892B09F420E0822F089589E590
:1008100098E00E94E70321E0892B09F420E0822F71
:100820000895FC01A48DA80FB92FB11DA35ABF4F85
:100830002C91848D90E001968F739927848FA689DF
:10084000B7892C93A089B1898C91837080648C9333
:10085000938D848D981306C00288F389E02D8081E2
:100860008F7D80830895EF92FF920F931F93CF9314
:10087000DF93EC0181E0888F9B8D8C8D98131AC0DB
:10088000E889F989808185FF15C09FB7F894EE89C2
:10089000FF896083E889F98980818370806480831F
:1008A0009FBF81E090E0DF91CF911F910F91FF906A
:1008B000EF900895F62E0B8D10E00F5F1F4F0F7312
:1008C0001127E02E8C8D8E110CC00FB607FCFACFCD
:1008D000E889F989808185FFF5CFCE010E94110456
:1008E000F1CFEB8DEC0FFD2FF11DE35AFF4FF0829E
:1008F0009FB7F8940B8FEA89FB8980818062CFCF04
:10090000CF93DF93EC01888D8823B9F0AA89BB8946
:10091000E889F9898C9185FD03C0808186FD0DC031
:100920000FB607FCF7CF8C9185FFF2CF808185FF52
:10093000EDCFCE010E941104E9CFDF91CF91089550
:1009400080E090E0892B29F00E94070481110E9429
:10095000000080E090E0892B49F080E090E0892B56
:1009600029F00E94000081110E94000080E090E0C8
:10097000892B29F00E94FD0381110E94000080E074
:1009800090E0892B29F00E94F30381110C94000060
:100990000895089590E080E00895CF92DF92EF925D
:1009A000FF92CF93DF930E941D03EB010E941D0372
:1009B0000E941D036B0189E598E00E94E703892BE3
:1009C00029F089E598E00E947E03F5CFCC1ADD0A74
:1009D00088EEC81683E0D8065CF389E598E00E94AB
:1009E000E703892B29F7DF91CF91FF90EF90DF90FC
:1009F000CF90089582E00E943E02892B41F062ED83
:100A000070E080E090E00E94EB0281E0089583E0D6
:100A10000E943E02892B71F362ED70E080E090E06D
:100A20000E94EB0280E00895FF920F931F93CF93F3
:100A3000DF93C8E0D0E0FC2E61E08C2F0E946702BB
:100A400004E010E0802F0E943E020197B1F460E0C4
:100A50008F2D0E94670204501109C801880F991F49
:100A6000080F191FC00FD11FCF5FDC4F8881DF91A6
:100A7000CF911F910F91FF9008950F5F1F4F083086
:100A8000110501F760E08F2D0E9467022196CB309F
:100A9000D10589F680E2EBCF0E941D036093E60644
:100AA0007093E7068093E8069093E9060895CF9344
:100AB000DF93EB01DA01893098F4E82FF0E0882722
:100AC000EB59FA4F8F4F0C94351E6E057305760562
:100AD00078057C057F0582058505880518821C92AE
:100AE000DF91CF91089583E08883F9CF86E0FCCF32
:100AF000188283E08C93F4CF83E08883FBCF86E079
:100B00008883F7CF188286E0F5CF83E08883FBCF18
:100B100086E0F3CFCF92DF92EF92FF920F931F9375
:100B2000CF93DF931F921F92CDB7DEB769834A83BD
:100B3000880F991F00914C0910914D09000F111F4A
:100B4000E6EFF8E09F01265F38402017310714F4E4
:100B50001192F8CF2981FC01EA50F74F21838A8155
:100B6000808360E080914A090E9467021016110696
:100B700004F501501109F801EA50F74FE080D090D8
:100B80004809C090460988E0F82E6E2D661F66273A
:100B9000661F8C2D0E946702EE0C61E08D2D0E9475
:100BA000670260E08D2D0E946702FA94F110EDCF8C
:100BB000DDCF61E080914A090F900F90DF91CF91D6
:100BC0001F910F91FF90EF90DF90CF900C946702F0
:100BD000EF92FF920F931F93CF937C018C0183E0E0
:100BE000000F111F8A95E1F70A5F164FC1E0F80167
:100BF00011928F0140E06C2FC7010E948A05CF5FE0
:100C0000C930A9F7CF911F910F91FF90EF900895F0
:100C1000AF92BF92CF92DF92EF92FF920F931F930A
:100C2000CF93DF93C6EFD8E080E0C82E82E0D82EC5
:100C3000B12C90E8E92EF12C10E000E0AA24A39456
:100C4000AB0C80914C0990914D0918161906E4F4EB
:100C500088E0B816C9F008301105B1F0C701002EC0
:100C600002C0959587950A94E2F72889F601E00F6E
:100C7000F11F3081332301F1822B888B48896A2D43
:100C800090E080E00E948A050F5F1F4F0930110538
:100C9000C1F6B394219688E0C80ED11C89E0B81241
:100CA000CBCFDF91CF911F910F91FF90EF90DF900D
:100CB000CF90BF90AF90089580958223DECFCF93E1
:100CC000DF93EC0160E08E810E94670261E08E811B
:100CD0000E94670260E08E810E9467028BE891E0CB
:100CE0000197F1F7DF91CF910895CF92DF92EF92C4
:100CF000FF920F931F93CF93DF936C017C0187E0EA
:100D0000E80EF11CD0E0C0E0062F10E0B8010C2E78
:100D100002C0759567950A94E2F76170F7018191B9
:100D20007F010E9467022196C430D10579F7C60180
:100D3000DF91CF911F910F91FF90EF90DF90CF90B7
:100D40000C945F06CF92DF92EF92FF920F931F9366
:100D5000CF93DF93EC01F62E642F8C810E94670203
:100D60008D818F3F19F060E00E9467020F2D10E027
:100D70008F8584FF25C06E0187E0C80ED11CF12C41
:100D8000E12CB8010E2C02C0759567950A94E2F724
:100D90006170F60181916F010E946702FFEFEF1A07
:100DA000FF0A88E0E816F10461F7CE01DF91CF91E8
:100DB0001F910F91FF90EF90DF90CF900C945F0602
:100DC000B80184E0759567958A95E1F7CE010E9498
:100DD00075066F2DCE01DF91CF911F910F91FF907E
:100DE000EF90DF90CF900C94750640E0682F8EE472
:100DF00099E00C94A20681E00E94F5068BE39FE146
:100E00000197F1F70895CF93DF93813029F0909106
:100E10005D09986090935D09809361091092620961
:100E200080E48093630980E18093640980E5809386
:100E3000650961E0809152090E94950280915309F1
:100E40008F3F19F061E00E94950261E080915409A2
:100E50000E949502CEE4D9E09E012E543940809143
:100E60005D0984FD0BC084E090E0219628173907C6
:100E700044F461E08E810E949502EECF88E090E01C
:100E8000F4CF8BE39DE00197F1F760E08091520988
:100E90000E94670260E0809154090E94670280917D
:100EA00053098F3F19F060E00E94670280915D094D
:100EB00084FD34C063E08EE499E00E947506CBE4C3
:100EC000D6E4CE010197F1F763E08EE499E00E9449
:100ED00075062197F1F763E08EE499E00E947506AC
:100EE00083E592E00197F1F762E08EE499E00E94D9
:100EF000750680915D0980620E94F50684E080930A
:100F00005E098CE00E94F5060E94FB0682E0809359
:100F10005F0986E0DF91CF910C94F50680620E9414
:100F2000F5068BE496E40197F1F780915D09806204
:100F30000E94F50683E592E00197F1F780915D0943
:100F400080620E94F506D5CF643008F063E090918E
:100F50006109691710F06FEF690FE62FF0E0E25BAF
:100F6000F64F9489890F80680C94F50641E00E9441
:100F7000A20681E090E0089541E0682F8EE499E0B8
:100F80000E94A20681E090E00895CF92DF92EF9256
:100F9000FF920F931F93CF93DF93EB017B0120E12F
:100FA000E20EF11C8B016C01C61AD70AC601800F34
:100FB000911F0E94FD1DF80181938F01EE15FF0521
:100FC000A9F7CE01DF91CF911F910F91FF90EF9084
:100FD000DF90CF900895CF92DF92EF92FF920F9320
:100FE0001F93CF93DF93EB017B0123E2E20EF11C11
:100FF0008B016C01C61AD70AC601800F911F0E948F
:10100000FD1DF80181938F01EE15FF05A9F7CE01B3
:10101000DF91CF911F910F91FF90EF90DF90CF90D4
:101020000895FB0101900020E9F73197AF01461BBD
:10103000570BDC01ED91FC910280F381E02D1994B6
:101040008F929F92AF92BF92EF92FF920F931F9356
:10105000CF93DF93CDB7DEB7A1970FB6F894DEBF7D
:101060000FBECDBF7C01262F30E050E040E019A23A
:101070008E010F5D1F4F8AE0882E912CA12CB12C80
:10108000CA01B901A50194010E94131E605DF80117
:1010900062938F01211531054105510589F790E0D3
:1010A00080E0309721F0C701BF010E941108A1968E
:1010B0000FB6F894DEBF0FBECDBFDF91CF911F9169
:1010C0000F91FF90EF90BF90AF909F908F900895F9
:1010D0000F931F93CF93DF93EC010E9420088C01A4
:1010E00063E373E0CE010E941108800F911FDF912E
:1010F000CF911F910F9108950F931F93CF93DF937B
:10110000EC010E9411088C0163E373E0CE010E94A0
:101110001108800F911FDF91CF911F910F910895BA
:101120001F93CF93DF9300D0CDB7DEB7BC0189E525
:1011300098E00E947C0810E089E598E00E94E703AF
:10114000892B59F042E050E0BE016F5F7F4F89E587
:1011500098E00E94920311E0EFCF112369F389E533
:1011600098E00E94E703892B39F70F900F900F90BA
:10117000DF91CF911F9108950E94FB0660E080E00F
:101180000E94A40766E373E08EE499E00E947C0865
:1011900061E080E00E94A40766E473E08EE499E0D9
:1011A0000E947C0862E080E00E94A40767E573E08B
:1011B0008EE499E00E947C0863E080E00E94A4072E
:1011C00067E673E08EE499E00E947C0864EF71E0CA
:1011D00080E090E00E94EB020E94FB0660E080E06D
:1011E0000E94A40766E773E08EE499E00E947C0801
:1011F00064EF71E080E090E00C94EB020F931F939A
:101200000E941D030091E6061091E7062091E80672
:101210003091E906601B710B820B930B613E7349A1
:101220008F4F9F4F70F066E873E089E598E00E9469
:101230007C08109208071092070780E01F910F9119
:10124000089581E0FBCF6115710511F00C94110830
:1012500090E080E00895CF93DF9300D01F92CDB748
:10126000DEB78983605D6A83BE016F5F7F4F8FE168
:1012700097E00E94230941E050E0BE016D5F7F4F7F
:101280008FE197E00E94920381E09B81913309F006
:1012900080E00F900F900F900F90DF91CF91089505
:1012A000FF920F931F93CF93DF938C01FC0101906A
:1012B0000020E9F73197FE2EF81A8DE090E00E94A9
:1012C0003D1EEC014CE050E0B8010E94801FBE01C1
:1012D000DE012C2F95E38A2F8C1B8F1568F093E38A
:1012E000862F821B8F1580F4FB018191BF01DF01E6
:1012F000119789278C93F4CF8D91AD0141505109FD
:101300008927FA018083E7CFCE01DF91CF911F912A
:101310000F91FF900895EF92FF920F931F93CF9339
:10132000DF93CDB7DEB7A3970FB6F894DEBF0FBE3D
:10133000CDBF0E9450097C0104E810E0BE016F5F40
:101340007F4FC8010E94EB07B701CE0101960E94B2
:10135000621F892B89F4C7010E94D91E81E0A396E0
:101360000FB6F894DEBF0FBECDBFDF91CF911F91B6
:101370000F91FF90EF9008950D5D1F4F003D89E0A4
:101380001807E1F6C7010E94D91E80E0E8CFCF928E
:10139000DF92EF92FF920F931F93CF93DF93CDB71E
:1013A000DEB7A3970FB6F894DEBF0FBECDBF8B019B
:1013B0000E9450096C01C8010E9450097C0104E898
:1013C00010E0BE016F5F7F4FC8010E94EB07B601BE
:1013D000CE0101960E94621F892BE9F4B701CE016C
:1013E0000E960E94621F892BB1F4C6010E94D91E7D
:1013F000C7010E94D91E81E0A3960FB6F894DEBF04
:101400000FBECDBFDF91CF911F910F91FF90EF9055
:10141000DF90CF9008950D5D1F4F003D89E01807C4
:1014200081F6C6010E94D91EC7010E94D91E80E024
:10143000E3CFFF920F931F93CF93DF93EC01F62E30
:1014400008811981C8010E94FD1DF81621F06F2D39
:10145000C8010E94051ECE01DF91CF911F910F910F
:10146000FF9008950F931F93CF93DF931F921F92C6
:10147000CDB7DEB78B019A838983FB016081CE01F2
:1014800001960E94190AC8010F900F90DF91CF9129
:101490001F910F910895EF92FF920F931F93CF9397
:1014A000DF931F921F92CDB7DEB78230910569F1AD
:1014B0008330910581F1019711F18091EA06680F5F
:1014C0006093EA068AEEE82E86E0F82E00E810E047
:1014D0001A830983F70161917F01CE0101960E9471
:1014E000190A0F5F1F4F0438110591F70F900F90E5
:1014F000DF91CF911F910F91FF90EF900895809110
:10150000EB06680F6093EB06DDCF8091EC06680F69
:101510006093EC06D7CF8091ED06680F6093ED06DF
:10152000D1CFAF92BF92CF92DF92EF92FF920F9303
:101530001F93CF93DF93CDB7DEB762970FB6F894C2
:10154000DEBF0FBECDBF5C0180ECE82E89E0F82E37
:10155000D12CC7010E94FD1D8D1118C0D39480E1CC
:10156000E80EF11CE4E6DE12F4CF62960FB6F894B2
:10157000DEBF0FBECDBFDF91CF911F910F91FF90C6
:10158000EF90DF90CF90BF90AF9008958E010F5FE6
:101590001F4F80E1F80111928A95E9F7D9824FE057
:1015A00050E0B501CE0102960E94801F6E01F1E16C
:1015B000CF0ED11CE01AF10AC701800F911F9A8B40
:1015C000898BF80161918F01C6010E94190AC0162A
:1015D000D10691F7CACFBF92CF92DF92EF92FF92DE
:1015E0000F931F93CF93DF93CDB7DEB72F970FB62F
:1015F000F894DEBF0FBECDBF20E4E22E22E0F22E33
:10160000D12C8E010F5F1F4F6D2D84E50E942B0999
:10161000B82E6D2D82E40E942B09F7019081911163
:1016200048C090E3C92ECD0C882309F18EE0E4EC8C
:10163000F2E0D80101900D928A95E1F71F86F8013A
:1016400001900020E9F73197E01BF10BEC0FFD1F33
:10165000C082B80189E598E00E947C0861E070E0F2
:1016600082E090E00E944B0AC8010E94910ABB20D0
:1016700001F18FE0E9E9F3E0D80101900D928A953C
:10168000E1F7F80101900020E9F73197E01BF10B39
:10169000EC0FFD1FC08261E070E082E090E00E94EC
:1016A0004B0AB80189E598E00E947C08C8010E94B5
:1016B000910AD394FEE0EF0EF11C89E0D812A4CF7A
:1016C0002F960FB6F894DEBF0FBECDBFDF91CF913E
:1016D0001F910F91FF90EF90DF90CF90BF900895F2
:1016E0002F923F924F925F926F927F928F929F9232
:1016F000AF92BF92CF92DF92EF92FF920F931F9320
:10170000CF93DF93CDB7DEB7CA56D1090FB6F894A1
:10171000DEBF0FBECDBF8C017B013A010E948B0959
:10172000882309F168EA73E089E598E00E947C0863
:1017300080E0C659DF4F0FB6F894DEBF0FBECDBFB5
:10174000DF91CF911F910F91FF90EF90DF90CF909D
:10175000BF90AF909F908F907F906F905F904F90D1
:101760003F902F900895C8010E9450094C01C70175
:101770000E9450095C0104E810E0BE016C5D7F4FDF
:10178000C8010E94EB07C8010E94FD1D780193E289
:10179000E90EF11C882309F471C08701E0EDEE1613
:1017A000E9E0FE0651F74DE050E0B401CE01895B5F
:1017B0009F4F0E94801F4DE050E0B50187E490E00C
:1017C0008C0F9D1F0D960E94801F49E050E0B301D1
:1017D00087E490E08C0F9D1F4A960E94801F87E44B
:1017E000282E312C2C0E3D1EF3E22F0E311C8E01C3
:1017F000095B1F4F2701401A510ACE0101966C0167
:10180000C201800F911F9A838983F80161918F0132
:10181000C6010E94190A0215130591F7F3E2EF0EB3
:10182000F11CB601C7010E94EB07F60101900020F0
:10183000E9F731970E2F0C198DE090E00E943D1EC4
:10184000182F592E4CE050E0B6010E94801F612FE6
:10185000752DA12FB52D412F93E38A2F811B801762
:1018600078F095E3862F841B801790F4FB0181911B
:10187000BF01DF01119789278C93F4CF780193CFB3
:101880008D919D01215031098927F9018083E5CF90
:10189000812F952D0E948B09882329F0F0ECEF16FB
:1018A000F9E0FF0648F4AB961FAEAB97BE01665950
:1018B0007F4FC7010E94320A6DEB73E089E598E023
:1018C0000E947C08B40189E598E00E9423096AE738
:1018D00074E089E598E00E942309B50189E598E064
:1018E0000E9423096AE774E089E598E00E942309D1
:1018F000B30189E598E00E94230965E373E089E577
:1019000098E00E947C0861ED73E089E598E00E9410
:101910007C08C4010E94D91EC5010E94D91E61E045
:1019200070E083E090E00E944B0A81E002CFEF92EA
:10193000FF920F931F93CF93DF9300D01F92CDB7E9
:10194000DEB78B01AE014C5F5F4FBE016D5F7F4F15
:101950000E9457058C812B8190E030E0AC01E3E0E0
:10196000440F551FEA95E1F740505E4FFA01E20F30
:10197000F31F0130110509F040C061E0608373E09E
:10198000880F991F7A95E1F7885F9D4FFC01E20F60
:10199000F31F60832F5F3F4F420F531FFA01608395
:1019A000820F931FFC0160830E9408061982BE010A
:1019B0006F5F7F4F90E080E00E94320A80E4E82E63
:1019C00082E0F82E01E010E01A830983F7016191AB
:1019D0007F01CE0101960E94190A0F5F1F4F0F373A
:1019E000110591F70F900F900F900F90DF91CF910D
:1019F0001F910F91FF90EF900895108263E0880F80
:101A0000991F6A95E1F7885F9D4FFC01E20FF31F74
:101A100010822F5F3F4F420F531FFA011082820F37
:101A2000931FFC011082C0CF7F928F929F92AF9242
:101A3000BF92CF92DF92EF92FF920F931F93CF93BB
:101A4000DF93CDB7DEB7C354D1090FB6F894DEBF2C
:101A50000FBECDBFE0910707F0910807EB30F1050D
:101A600008F05CC08827E85CF24F8F4F0C94351E5D
:101A7000430D2114BF13530E8A0ED40D7C14341160
:101A8000111037139E120E94EB0A0E94FB0660E0C1
:101A900080E00E94A40765EE73E08EE499E00E9466
:101AA000230961E080E00E94A40764EF73E08EE404
:101AB00099E00E94230962E080E00E94A40765E0AB
:101AC00074E08EE499E00E94230963E080E00E94C4
:101AD000A4076DE074E08EE499E00E942309609110
:101AE00006076E5F80E00E94A40769E174E08EE45F
:101AF00099E00E9423090E941405823321F562EDCA
:101B000070E080E090E00E94EB0280910607815037
:101B1000809306078F3F11F410920607CD5BDF4FCD
:101B20000FB6F894DEBF0FBECDBFDF91CF911F91EE
:101B30000F91FF90EF90DF90CF90BF90AF909F906C
:101B40008F907F900895883381F462ED70E080E09B
:101B500090E00E94EB02809106078F5F823018F4BC
:101B600080930607DBCF81E0FBCF82E00E943E023C
:101B70008C01019709F0BFCF62ED70E080E090E04A
:101B80000E94EB0280910607882339F0813021F60C
:101B90001093080700930707BFCF82E090E090936F
:101BA000080780930707B8CF80EC99E00E94FD1DDD
:101BB000E82E0E94FB066E2D8CEB97E00E946808D1
:101BC000D12C10E000E081EC882E89E0982EB12C19
:101BD000A12CF12CAE14BF040CF04DC0D1104BC0A1
:101BE000BE016F5F7F4FC4010E94C507602F82E076
:101BF0000E94A40769818CEB97E00E946808BE01EF
:101C00006E5F7F4F8EE499E00E942309602F80E091
:101C10000E94A40769818EE499E00E94200820E1D7
:101C2000820E911C0F5F1F4F3FEFA31AB30A0430BF
:101C3000110581F682E00E943E02019751F466EEA2
:101C400070E080E090E00E94EB020E94FB0610E052
:101C500000E083E00E943E02019749F766EE70E0E3
:101C600080E090E00E94EB020E94FB06DD24D3940A
:101C700010E000E0AFCF0115110591F0D11010C0B8
:101C800082E00E943E02019729F083E00E943E021A
:101C9000019789F766EE70E080E090E00E94EB0229
:101CA00088E090E032C00E94CD040E94FB066BE108
:101CB00074E08EE499E00E94230961E080E00E94D4
:101CC000A4076CE274E08EE499E00E94230910E01E
:101CD00089E598E00E94E703892B59F042E050E043
:101CE000BE016F5F7F4F89E598E00E94920311E08B
:101CF000EFCF112369F389E598E00E94E703892B70
:101D000039F7809104079091050790930807809315
:101D1000070704CF8BE0E2E1F7E0DF01282F1D92F7
:101D20002A95E9F7E7EFF6E0DF011D928A95E9F7DA
:101D3000EEEEF6E089E0DF011D928A95E9F7A2E177
:101D4000CA2EA7E0DA2EBBE0EB2E0E94CD048DE375
:101D500094E00E949008F6012E2D11922A95E9F741
:101D60000E94FB0665E474E08EE499E00E9423097A
:101D700061E080E00E94A4076FE474E08EE499E0E3
:101D80000E94230962E080E00E94A4070E941D03D4
:101D90004B015C010E941D030E94CD0410E000E095
:101DA000F12C89E598E00E94E703892B69F089E529
:101DB00098E00E947E03F801EE5EF84F80830F5F8B
:101DC0001F4FFF24F394EDCFFF2009F46BC00E9456
:101DD0001D03681979098A099B09643F71408105CF
:101DE0009105FCF262E177E08EE499E00E9423091C
:101DF00063E080E00E94A4076AE574E08EE499E065
:101E00000E94230964EF71E080E090E00E94EB0201
:101E10000E94FA04F82E882309F44BC0E7EFCE2E77
:101E2000E6E0DE2EFBE07F2E0E94CD048FE794E0FB
:101E30000E949008D601E72D1D92EA95E9F70E94CD
:101E4000FB0665E474E08EE499E00E94230961E0FA
:101E500080E00E94A4076CE774E08EE499E00E94A1
:101E6000230962E080E00E94A4070E941D034B0149
:101E70005C010E941D030E94CD0410E000E0E12CF3
:101E800089E598E00E94E703892B41F189E598E014
:101E90000E947E03F801E950F94F80830F5F1F4FC6
:101EA000EF2CEECF0E941D034B015C010E941D032D
:101EB00078CF62E080E00E94A4076BE674E08EE4D5
:101EC00099E00E94230963E080E00E94A4076BE68A
:101ED00074E08EE499E00E94230937CFEE20C1F030
:101EE0000E941D03681979098A099B09643F7140A2
:101EF000810591052CF207EF16E0D8018D918D0137
:101F0000882369F06AE28EE499E00E94B607F5CF73
:101F10000E941D034B015C010E941D03B1CF63E0D1
:101F200080E00E94A4076AE574E08EE499E00E94D4
:101F3000230964EF71E080E090E00E94EB020E94D0
:101F4000FA04811114C062E00E94A4076BE674E0F9
:101F50008EE499E00E94230963E080E00E94A407D8
:101F60006BE674E08EE499E00E9423095DCF88E877
:101F700094E00E94900867EF76E082E197E00E948B
:101F8000C709182F0E94FB066DE874E082E197E014
:101F90000E94621F892B29F569E974E087EF96E0BA
:101FA0000E94621F892BE9F461EA74E08EE499E0F3
:101FB0000E94230962E370E080E090E00E94EB025F
:101FC00088E090E0909308078093070787EA94E001
:101FD0000E94910A60ED77E080E090E00E94EB02C1
:101FE0009DCD112349F087E090E0909308078093FE
:101FF00007078FEA94E0ECCF62E370E080E090E0C6
:102000000E94EB02109208071092070787EB94E0FA
:102010000E94910A61E070E081E090E00E944B0A2A
:10202000D9CF0E94EB0A0E94FB0660E080E00E948C
:10203000A40764EF73E08EE499E00E94230961E055
:1020400080E00E94A4076FEB74E08EE499E00E94A8
:10205000230962E080E00E94A40766EC74E08EE44D
:1020600099E00E94230963E080E00E94A40763EDE9
:1020700074E08EE499E00E942309609106076F5F87
:1020800080E00E94A40769E174E08EE499E00E9478
:1020900023090E941405823309F431CD883381F479
:1020A00062ED70E080E090E00E94EB028091060714
:1020B0008F5F80930607833008F430CD82E050CDE7
:1020C00082E00E943E02019721F762ED70E080E01D
:1020D00090E00E94EB0280910607813009F47CC0F9
:1020E00060F0823009F018CD1092080710920707AF
:1020F00087E195E00E94910A0FCD63EE74E089E5D7
:1021000098E00E947C080E94FB066E01B4E2CB0EB0
:10211000D11C80E1F60111928A95E9F770ECE72E67
:1021200079E0F72E10E0612F89E598E00E946808B9
:10213000043070F082E00E943E02019729F564E6C7
:1021400070E080E090E00E94EB020E94FB0600E05D
:10215000C7010E94FD1D81130EC0BE016F5F7F4F3E
:10216000C7010E94C5074FE050E0BE016E5F7F4F80
:10217000C6010E94801F8CA1811112C083E00E94C1
:102180003E020197D9F705C083E00E943E02019705
:1021900089F664E670E080E090E00E94EB02BCCC3F
:1021A000602F80E00E94A407B6018EE499E00E94AF
:1021B0007C0880E0F601E80FF11D9081992319F069
:1021C00010828F5FF7CF0F5F1F5FF0E1EF0EF11C02
:1021D000143609F0A8CFA0CC0E94FB0660E080E096
:1021E0000E94A40767EE74E08EE499E00E94230940
:1021F0006091EA068EE499E00E94200861E080E0A8
:102200000E94A40763EF74E08EE499E00E94230922
:102210006091EB068EE499E00E94200862E080E085
:102220000E94A4076FEF74E08EE499E00E942309F6
:102230006091EC068EE499E00E94200863E080E063
:102240000E94A4076BE075E08EE499E00E942309E8
:102250006091ED068EE499E00E94200883E00E94E0
:102260003E020197D9F795CF0E94EB0A0E94FB0628
:1022700060E080E00E94A40760E275E08EE499E0EF
:102280000E94230961E080E00E94A4076DE275E0EE
:102290008EE499E00E94230962E080E00E94A40796
:1022A00064ED74E08EE499E00E94230963E080E02D
:1022B0000E94A40769E375E08EE499E00E94230977
:1022C0006091060780E00E94A40769E174E08EE453
:1022D00099E00E9423090E941405823309F40FCC6F
:1022E000883371F462ED70E080E090E00E94EB02D0
:1022F000809106078F5F843008F432CC83E030CCC5
:1023000082E00E943E02019731F762ED70E080E0CA
:1023100090E00E94EB0280910607813009F4BDC075
:10232000A8F0823009F48BC0833009F0F5CB82E14C
:1023300097E00E948B0900E412E0811187C065E9F3
:1023400075E089E598E00E947C08E6CBE0E4F2E0E5
:1023500010E000E08081882309F469C0F02E60E37A
:10236000E62EE00E0E94FB0660E080E00E94A407DB
:102370006AE475E08EE499E00E947C0861E080E008
:102380000E94A4076BE575E08EE499E00E942309A2
:102390008E2D0E94BC076F2D82E40E942B098111B3
:1023A000FACF0E94FB0660E080E00E94A40762E68C
:1023B00075E08EE499E00E947C0861E080E00E9474
:1023C000A4076BE575E08EE499E00E9423098E2D49
:1023D0000E94BC076F2D84E50E942B098111FACF62
:1023E0000E940518811103C081E795E083CE2EE09D
:1023F000209FC001219F900D1124FC01E05CFD4F46
:1024000010824CE050E062E177E08F5B9D4F0E94CC
:10241000801F61E070E08F2D0E94970C61E070E0FA
:1024200090E080E00E944B0A8FE795E063CE0F5F5B
:102430001F4F3E960930110509F08CCF6DCB1092DD
:102440000807109207078BE895E054CED8018C91CD
:10245000811126C04CE050E0B8016F5F7F4F82E1F0
:1024600097E00E94721F892BD9F40E94FB0660E05E
:1024700080E00E94A4076AEA75E08EE499E00E9479
:102480007C0869EB75E08EE499E00E947C0860E9C5
:1024900071E080E090E00E94EB020E94FB183CCBD0
:1024A000025F1F4FB2E00E3B1B0781F682E197E00F
:1024B0000E9450096C0104E810E0BE016F5F7F4F7D
:1024C000C8010E94EB07B601CE0101960E94621F6F
:1024D000892B51F5F12CE12C1CA2BE016C5D7F4FC4
:1024E000C701800F911F0E94320AEFEFEE1AFE0A19
:1024F000F2E2EF16F10481F76BEC75E089E598E004
:102500000E947C08C6010E94D91E8BED95E00E94B6
:10251000910A6FEF7FEF83E090E00E944B0A1092E8
:10252000080710920707F8CA0D5D1F4F003D29E00C
:10253000120719F6C6010E94D91EEECA0E94FB06B8
:1025400060E080E00E94A40763EE75E08EE499E00D
:102550000E94230961E080E00E94A4076FE474E018
:102560008EE499E00E94230980E1DE0111967D014D
:10257000FD01282F11922A95E9F78E010C5D1F4F5E
:10258000D801E82F1D92EA95E9F76E01F4E3CF0E2A
:10259000D11CD6011D928A95E9F762E0C7010E941D
:1025A0000017882309F164E670E080E090E00E9463
:1025B000EB02B70182E197E00E946B1F0E94FB06CD
:1025C00060E080E00E94A40763EE75E08EE499E08D
:1025D0000E94230961E080E00E94A4076CEE75E090
:1025E0008EE499E00E94230962E0C8010E9400176E
:1025F000882309F164E670E080E090E00E94EB023D
:10260000B80187EF96E00E946B1F0E94FB0660E016
:1026100080E00E94A40763EE75E08EE499E00E94DA
:10262000230961E080E00E94A40767EF75E08EE473
:1026300099E00E94230962E0C6010E9400178823E6
:1026400059F064E670E080E090E00E94EB02B8018F
:102650008EEE96E00E946B1F4EEE56E067EF76E03E
:1026600082E197E00E94700B811184C057CA0E94DA
:10267000FB0660E080E00E94A40762E076E08EE462
:1026800099E00E94230961E080E00E94A4076FE4C2
:1026900074E08EE499E00E94230980E18E010F5FCF
:1026A0001F4FF801282F11922A95E9F77E0134E295
:1026B000E30EF11CD7011D928A95E9F762E0C8018B
:1026C0000E940017882309F164E670E080E090E042
:1026D0000E94EB02B80182E197E00E946B1F0E940A
:1026E000FB0660E080E00E94A40767E074E08EE4EF
:1026F00099E00E94230961E080E00E94A4076CEE4B
:1027000075E08EE499E00E94230962E0C7010E940F
:102710000017882359F064E670E080E090E00E94A2
:10272000EB02B70187EF96E00E946B1FB701C8016B
:102730000E94C7098823E1F00E94FB0664EF71E064
:1027400080E090E00E94EB026DE874E082E197E0A7
:102750000E94621F892B49F469E974E087EF96E0D3
:102760000E94621F892B09F49BCA87E090E0CDCAC2
:102770000E94FB061092080710920707CFC90E941B
:10278000FB0660E080E00E94A40764EF73E08EE443
:1027900099E00E94230961E080E00E94A40768E0BC
:1027A00076E08EE499E00E94230962E080E00E94D6
:1027B000A40765E176E08EE499E00E94230963E0D6
:1027C00080E00E94A4076DE176E08EE499E00E942B
:1027D0002309609106076F5F80E00E94A40769E10A
:1027E00074E08EE499E00E9423090E94140582336C
:1027F00009F485C9883309F453CC82E00E943E0273
:10280000019799F762ED70E080E090E00E94EB02A2
:1028100080910607813091F020F0823009F47FCE5C
:102820007BC983E090E0909308078093070784E0DA
:1028300090E090930507809304076EC989E090E0CB
:10284000AEC90E94FB0660E080E00E94A40764EF2E
:1028500073E08EE499E00E94230961E080E00E9429
:10286000A40768E076E08EE499E00E94230962E024
:1028700080E00E94A40765E176E08EE499E00E9482
:10288000230963E080E00E94A4076DE176E08EE416
:1028900099E00E942309609106076F5F80E00E9423
:1028A000A40769E174E08EE499E00E9423090E9484
:1028B0001405823309F423C9883309F4F1CB82E08B
:1028C0000E943E02019799F762ED70E080E090E08F
:1028D0000E94EB0280910607813059F008F09DCFED
:1028E00083E090E0909308078093070786E090E0EC
:1028F000A0CF8AE090E053C98DE0E2E1F7E0DF018C
:10290000282F1D922A95E9F7E7EFF6E0DF011D92E7
:102910008A95E9F7EEEEF6E089E0DF011D928A95EF
:10292000E9F742E1C42E47E0D42E5DE0752E0E9407
:10293000CD048DE394E00E949008F601272D1192BA
:102940002A95E9F70E94FB0665E276E08EE499E0BD
:102950000E94230961E080E00E94A4076FE474E014
:102960008EE499E00E94230962E080E00E94A407BF
:102970000E941D034B015C010E941D030E94CD04B7
:1029800010E000E0F12C89E598E00E94E703892B34
:1029900069F089E598E00E947E03F801EE5EF84F49
:1029A00080830F5F1F4FFF24F394EDCFFF2009F4C6
:1029B0006BC00E941D03681979098A099B09643F4D
:1029C000714081059105FCF262E177E08EE499E0C7
:1029D0000E94230963E080E00E94A4076AE574E096
:1029E0008EE499E00E94230964EF71E080E090E0BA
:1029F0000E94EB020E94FA04E82E882309F44BC0DF
:102A00002EEEC22E26E0D22E39E0732E0E94CD0487
:102A100088E396E00E949008D601E72D1D92EA9582
:102A2000E9F70E94FB0665E276E08EE499E00E94F9
:102A3000230961E080E00E94A40765E376E08EE46C
:102A400099E00E94230962E080E00E94A4070E94AE
:102A50001D034B015C010E941D030E94CD0410E088
:102A600000E0F12C89E598E00E94E703892B41F111
:102A700089E598E00E947E03F801E251F94F8083D6
:102A80000F5F1F4FFE2CEECF0E941D034B015C0118
:102A90000E941D0378CF62E080E00E94A4076BE6ED
:102AA00074E08EE499E00E94230963E080E00E94D4
:102AB000A4076BE674E08EE499E00E94230937CF07
:102AC000FF2009F46BC00E941D03681979098A0967
:102AD0009B09643F71408105910524F26EEE76E01A
:102AE0008EE499E00E94230963E080E00E94A4073D
:102AF0006AE574E08EE499E00E94230964EF71E0D6
:102B000080E090E00E94EB020E94FA04F82E8823F5
:102B100009F44BC087EFC82E86E0D82E9DE0792EB1
:102B20000E94CD048FE794E00E949008D601E72D23
:102B30001D92EA95E9F70E94FB0665E276E08EE4D5
:102B400099E00E94230961E080E00E94A4076CE7FD
:102B500074E08EE499E00E94230962E080E00E9424
:102B6000A4070E941D034B015C010E941D030E94EB
:102B7000CD0410E000E0E12C89E598E00E94E70335
:102B8000892B41F189E598E00E947E03F801E95024
:102B9000F94F80830F5F1F4FEF2CEECF0E941D0374
:102BA0004B015C010E941D035DCF62E080E00E944A
:102BB000A4076BE674E08EE499E00E94230963E0C9
:102BC00080E00E94A4076BE674E08EE499E00E9426
:102BD00023091CCFEE20C1F00E941D03681979095A
:102BE0008A099B09643F7140810591052CF207EF2A
:102BF00016E0D8018D918D01882369F06AE28EE498
:102C000099E00E94B607F5CF0E941D034B015C01BD
:102C10000E941D03B1CF63E080E00E94A4076AE533
:102C200074E08EE499E00E94230964EF71E080E093
:102C300090E00E94EB020E94FA0481110DCD62E047
:102C40000E94A4076BE674E08EE499E00E942309D9
:102C500063E080E00E94A4076BE674E08EE499E0F4
:102C60000E9423095DCF7F928F929F92AF92BF9275
:102C7000CF92DF92EF92FF920F931F93CF93DF9348
:102C800000D0CDB7DEB78C016B010E94CD040E944D
:102C9000FB066BE174E08EE499E00E94230961E099
:102CA00080E00E94A4076CE274E08EE499E00E9448
:102CB000230989E598E00E94E703892BD1F38091ED
:102CC000070790910807079731F40E94FE088111C9
:102CD00002C00E94140D42E050E0BE016F5F7F4FC2
:102CE00089E598E00E9492030E944C0580910707B5
:102CF00090910807079731F40E94FE08811102C0E5
:102D00000E94140D0E941D034B015C010E941D03D3
:102D10000E94CD04C6010E9490080E94FB0660E05C
:102D200080E00E94A407B6018EE499E00E947C082E
:102D3000F12CE12C712C89E598E00E94E703892BA6
:102D400071F089E598E00E947E03F801EE0DFF1D09
:102D50008083C70101967C0177247394ECCF7720A0
:102D6000A1F10E941D03681979098A099B09643F32
:102D7000714081059105FCF20E944C0561E080E004
:102D80000E94A407B8018EE499E00E947C0862E0EA
:102D900080E00E94A40761E476E08EE499E00E945E
:102DA000230964EF71E080E090E00E94EB020E9452
:102DB000FA04811111C0F801E80FF11D90819923E7
:102DC00009F494CF10828F5FF6CF0E941D034B0150
:102DD0005C010E941D03AFCF0E944C0581E00F9063
:102DE0000F900F90DF91CF911F910F91FF90EF9077
:102DF000DF90CF90BF90AF909F908F907F9008957D
:102E0000BF92CF92DF92EF92FF920F931F93CF93D7
:102E1000DF937C01B62E80E00E94A407D12CC0E095
:102E200085E0C82E6B2D80E00E94A4070E94140547
:102E3000D82F64E670E080E090E00E94EB02EDEDB8
:102E4000ED0FE73108F063C00E2E000CFF0B882752
:102E5000E35DF84E8F4F0C94351E7B17871787174D
:102E60008717871787178717611787178717871798
:102E7000871787177E17D217D617441749174D178C
:102E80005117551759175D17D0E010E002E0C0E068
:102E90001AC0D0E010E003E0FACFD0E010E004E088
:102EA000F6CFD0E010E005E0F2CFD0E010E006E091
:102EB000EECFD0E010E007E0EACFD0E010E008E08D
:102EC000E6CFD1E010E00E944C05802F90E0112366
:102ED00009F470C0C43069F0C89EF001C99EF00DBD
:102EE0001124E452FD4FEC0FF11D2181CF5F211120
:102EF00066C0C0E064C0D0E011E0E5CFF701ED0DA1
:102F0000F11D8081882309F48DCFD3948BCF82E08B
:102F10000E943E020197C9F46DEF73E089E598E0E5
:102F20000E947C0864E670E080E090E00E94EB0282
:102F30000E944C0581E0DF91CF911F910F91FF908E
:102F4000EF90DF90CF90BF90089583E00E943E0203
:102F50000197D1F461E576E089E598E00E947C086C
:102F600080E0F701E80FF11D9081992319F010829C
:102F70008F5FF7CF64E670E080E090E00E94EB02A4
:102F80000E944C0580E0D7CF8091070790910807F9
:102F9000079709F047CF0E94FE08811143CF0E9496
:102FA000140D40CFD0E010E000E071CFD0E010E091
:102FB00001E06DCFDD2319F0CC23D1F0C150C89EC4
:102FC000F001C99EF00D1124E452FD4FEC0FF11DEC
:102FD0008081F701ED0DF11D8083B7018EE499E04A
:102FE0000E947C08B70189E598E00E947C081ACF0E
:102FF000C89EF001C99EF00D1124E452FD4F2481BA
:10300000C4E02111DCCFC3E0DACF0F931F93CF933D
:10301000DF93CDB7DEB760970FB6F894DEBF0FBE73
:10302000CDBF0E944C050E94FB0660E080E00E943C
:10303000A4076AE576E08EE499E00E947C0861E0EE
:1030400080E00E94A40769E676E08EE499E00E94A1
:103050007C0862E080E00E94A40766E776E08EE4E8
:1030600099E00E947C0880910707909108070797D4
:1030700031F40E94FE08811102C00E94140D0E94CA
:103080001405182F64E670E080E090E00E94EB02E7
:1030900080910707909108071A3209F04EC021E08D
:1030A00030E03093E5062093E406079711F40E9480
:1030B0004C050E94FB068E010F5F1F4F80E1F80157
:1030C00011928A95E9F70E94FB0660E080E00E9479
:1030D000A4078091E4069091E5060197B1F566E8B2
:1030E00076E08EE499E00E947C0861E0C8010E94CD
:1030F00000172091E4063091E506232B29F466E9B8
:1031000076E0C8010E9433168823E9F2B80189E508
:1031100098E00E947C080E94FB06B80182E197E0DB
:103120000E94C709811137C0F801E80FF11D908195
:10313000992369F010828F5FF7CF133209F093CF94
:103140001092E5061092E406B0CF80E0D2CF0E9444
:10315000FB0660E080E00E94A4078091E406909165
:10316000E506019709F045C060E876E08EE499E055
:103170000E947C0861E0C8010E9400172091E406CB
:103180003091E506232B29F460E976E0C8010E941E
:1031900033168823E1F2B80182E197E00E94C70963
:1031A000082F81111AC010920807109207071AE021
:1031B0000E94FB0660E080E00E94A407612F8EE47D
:1031C00099E00E94680868EE73E080E090E00E9459
:1031D000EB02115069F70E94BC08802F60960FB671
:1031E000F894DEBF0FBECDBFDF91CF911F910F913D
:1031F000089580E0C3CFCF92DF92EF92FF920F93BA
:103200001F93CF93DF9300D000D000D0CDB7DEB7AF
:1032100089E0E3EDF2E0DE01119601900D928A95CE
:10322000E1F790E4E92E92E0F92E10E000E0D12CD5
:10323000D7018C91811113C04CE050E0B7016F5F52
:103240007F4F82E197E00E94721F892B41F4E1E0F9
:10325000F0E0EC0FFD1FE00FF11F0083D3940F5F30
:103260001F4FBEE0EB0EF11C0930110509F7DD2000
:1032700009F4D4C00E94FB06FE0131967F0110E0E4
:1032800000E0033011F0063029F41F5F612F80E069
:103290000E94A407D7018D917D018F3F49F0805D89
:1032A0000E94BC0763E373E08EE499E00E9411087A
:1032B0000F5F093031F71F5F612F80E00E94A40784
:1032C0006FE976E08EE499E00E942309612F87E0A0
:1032D0000E94A4076AE774E08EE499E00E94230943
:1032E000612F87E00E94A4070E941405082F64E65E
:1032F00070E080E090E00E94EB02003239F30A3285
:1033000029F3033219F3802F0E94BC0780EDF82EB9
:10331000F00E68EC70E080E090E00E94EB02CF2CB1
:10332000D12CE1E0F0E0EC0FFD1FEC0DFD1D8081E4
:103330008F3F61F2BFEFFB1649F20E940518811121
:1033400012C088EA96E029960FB6F894DEBF0FBE49
:10335000CDBFDF91CF911F910F91FF90EF90DF9044
:10336000CF900C94910A0E94FB0660E080E00E94DE
:10337000A40764EB76E08EE499E00E947C0861E0AB
:1033800080E00E94A4076BE575E08EE499E00E945E
:103390002309802F0E94BC076F2D82E40E942B0915
:1033A0008823D1F38EE08C9DF0018D9DF00D1124CA
:1033B000E05CFD4FDF011D928A95E9F781E0808393
:1033C00070E060E08F2D0E94970C0E94FB0660E089
:1033D00080E00E94A40762EC76E08EE499E00E940F
:1033E0002309802F0E94BC076FEF7FEF90E080E001
:1033F0000E944B0A6AEF70E080E090E029960FB6D9
:10340000F894DEBF0FBECDBFDF91CF911F910F911A
:10341000FF90EF90DF90CF900C94EB0229960FB6BF
:10342000F894DEBF0FBECDBFDF91CF911F910F91FA
:10343000FF90EF90DF90CF9008951F920F920FB6FC
:103440000F9211242F933F938F939F93AF93BF932A
:1034500080910A0790910B07A0910C07B0910D077E
:103460003091090723E0230F2D3758F50196A11D50
:10347000B11D2093090780930A0790930B07A0932F
:103480000C07B0930D0780910E0790910F07A09144
:103490001007B09111070196A11DB11D80930E0771
:1034A00090930F07A0931007B0931107BF91AF91AE
:1034B0009F918F913F912F910F900FBE0F901F9072
:1034C000189526E8230F0296A11DB11DD2CF1F9299
:1034D0000F920FB60F9211240BB60F922F933F93BA
:1034E0004F935F936F937F938F939F93AF93BF930C
:1034F000EF93FF938FE197E00E941104FF91EF910A
:10350000BF91AF919F918F917F916F915F914F91FB
:103510003F912F910F900BBE0F900FBE0F901F90F9
:1035200018951F920F920FB60F9211240BB60F929F
:103530002F933F934F935F936F937F938F939F93BB
:10354000AF93BF93EF93FF938FE197E00E945603F1
:10355000FF91EF91BF91AF919F918F917F916F916B
:103560005F914F913F912F910F900BBE0F900FBE27
:103570000F901F9018951F920F920FB60F92112463
:103580000BB60F922F933F934F935F936F937F935D
:103590008F939F93AF93BF93EF93FF938CEB97E041
:1035A0000E941104FF91EF91BF91AF919F918F9174
:1035B0007F916F915F914F913F912F910F900BBE33
:1035C0000F900FBE0F901F9018951F920F920FB67D
:1035D0000F9211240BB60F922F933F934F935F934B
:1035E0006F937F938F939F93AF93BF93EF93FF93CB
:1035F0008CEB97E00E945603FF91EF91BF91AF9142
:103600009F918F917F916F915F914F913F912F91FA
:103610000F900BBE0F900FBE0F901F9018951F922A
:103620000F920FB60F9211240BB60F922F933F9368
:103630004F935F936F937F938F939F93AF93BF93BA
:10364000EF93FF9389E598E00E941104FF91EF91B9
:10365000BF91AF919F918F917F916F915F914F91AA
:103660003F912F910F900BBE0F900FBE0F901F90A8
:1036700018951F920F920FB60F9211240BB60F924E
:103680002F933F934F935F936F937F938F939F936A
:10369000AF93BF93EF93FF9389E598E00E945603A1
:1036A000FF91EF91BF91AF919F918F917F916F911A
:1036B0005F914F913F912F910F900BBE0F900FBED6
:1036C0000F901F901895CF93DF93109222071092BE
:1036D000210748EE53E060E070E0409323075093E9
:1036E0002407609325077093260789E193E0909360
:1036F000200780931F0725E331E030932C072093A8
:103700002B0724E331E030932E0720932D0720E38D
:1037100031E03093300720932F0721E331E03093DD
:1037200032072093310722E331E0309334072093AE
:10373000330726E331E030933607209335071092A4
:1037400038071092390710923A0710923B071092EF
:10375000BF071092BE074093C0075093C107609304
:10376000C2077093C3079093BD078093BC0725EDF4
:1037700030E03093C9072093C80724ED30E0309340
:10378000CB072093CA0720ED30E03093CD0720937C
:10379000CC0721ED30E03093CF072093CE0722ED08
:1037A00030E03093D1072093D00726ED30E03093FE
:1037B000D3072093D2071092D5071092D607109204
:1037C000D7071092D80710925C0810925B084093BC
:1037D0005D0850935E0860935F0870936008909353
:1037E0005A088093590885EC90E09093660880937E
:1037F000650884EC90E0909368088093670880ECFB
:1038000090E090936A088093690881EC90E090932F
:103810006C0880936B0882EC90E090936E08809324
:103820006D0886EC90E09093700880936F0810927A
:103830007208109273081092740810927508109212
:103840005109109250098BE293E090934F098093B5
:103850004E0986E1809352098FEF8093530987E1E7
:103860008093540988E18093550989E18093560932
:103870008AE1809357098BE1809358091092590986
:1038800010925A0910925B0910925C0910925D091E
:1038900081E00E940307CCE1D0E0D0934709C093B8
:1038A00046098EE190E090934909809348098DE1A3
:1038B00090E090934B0980934A0981E090E09093C7
:1038C0004D0980934C0961E08CE10E94950261E012
:1038D000809148090E94950261E080914A090E9406
:1038E000950261E080914A090E946702D0934709DE
:1038F000C0934609E6E0F9E0119289E0E634F80762
:10390000D9F7D0E0C0E080914C0990914D09C817DB
:10391000D90774F540E06FE0CE010E948A058091DE
:103920004C0990914D09C817D9072CF447E06BE07A
:10393000CE010E948A0540E069E0CE010E948A051E
:1039400080914C0990914D09C817D9071CF4CE01FC
:103950000E94E80580914C0990914D09C817D9073C
:103960002CF440E06CE0CE010E948A052196CBCF7A
:10397000DF91CF910895CF93DF931F921F92CDB720
:10398000DEB7789484B5826084BD84B5816084BDDF
:1039900085B5826085BD85B5816085BD80916E00ED
:1039A000816080936E00109281008091810082601E
:1039B000809381008091810081608093810080915B
:1039C00080008160809380008091B100846080934A
:1039D000B1008091B00081608093B000809191002F
:1039E000826080939100809191008160809391002A
:1039F000809190008160809390008091A10082600E
:103A00008093A1008091A10081608093A1008091AA
:103A1000A00081608093A00080912101826080934A
:103A200021018091210181608093210180912001F9
:103A300081608093200180917A00846080937A0075
:103A400080917A00826080937A0080917A00816010
:103A500080937A0080917A00806880937A00109237
:103A6000C1008CEB97E00E94B0018CEB97E00E94C4
:103A7000B00189E598E00E94B0018FE197E00E94D3
:103A8000B00180914C0990914D091816190634F433
:103A900041E06CE090E080E00E948A0580914C0952
:103AA00090914D091816190634F448E06AE090E048
:103AB00080E00E948A0580914C0990914D0918166A
:103AC000190624F490E080E00E94E80584E00E945A
:103AD000030712E060E0812F0E9495021F5F1830FB
:103AE000C9F761E088E00E94950261E089E00E94E8
:103AF000950261E08AE00E9495020E94BC088DE870
:103B000094E00E948B09811171C06BEC76E089E52D
:103B100098E00E947C081982BE016F5F7F4F84E8A5
:103B200090E00E94320A45E653E069E974E08DE8CE
:103B300094E00E94700B90E080E00E94FD1DF82E42
:103B400081114DC000E412E05801CC24C394D12C63
:103B5000C6010E94FD1DF50181935F01FFEFCF1AA1
:103B6000DF0A8FE7C816D10499F7EE24E394F80131
:103B7000808181112EC0AE014F5F5F4FBE016E5F2D
:103B80007F4F8F2D0E945705898190E02A8130E078
:103B9000AC0163E0440F551F6A95E1F740505E4F5A
:103BA000FA01E20FF31FE08273E0880F991F7A9504
:103BB000E1F7885F9D4FFC01E20FF31FE0822F5F6A
:103BC0003F4F420F531FFA01E082820F931FFC0107
:103BD000E082F394025F1F4FF9E0FF12C8CF0E940A
:103BE00008060E94140D0E94A004FBCF69ED76E048
:103BF00089E598E00E947C089ECFF999FECF92BD9E
:103C000081BDF89A992780B50895262FF999FECF9E
:103C10001FBA92BD81BD20BD0FB6F894FA9AF99AE9
:103C20000FBE01960895A1E21A2EAA1BBB1BFD012F
:103C30000DC0AA1FBB1FEE1FFF1FA217B307E4078B
:103C4000F50720F0A21BB30BE40BF50B661F771FE3
:103C5000881F991F1A9469F76095709580959095C3
:103C60009B01AC01BD01CF010895EE0FFF1F881F1E
:103C70008BBF0790F691E02D19940F931F93CF936C
:103C8000DF938230910510F482E090E0E0916809C2
:103C9000F091690930E020E0B0E0A0E0309799F4BD
:103CA0002115310509F44AC0281B390B2430310590
:103CB000D8F58A819B816115710589F1FB01938398
:103CC0008283FE0111C04081518102811381481716
:103CD0005907E0F04817590799F4109761F01296C8
:103CE0000C93129713961C933296CF01DF91CF91CC
:103CF0001F910F9108950093680910936909F4CFFB
:103D00002115310551F04217530738F0A901DB01A5
:103D10009A01BD01DF01F801C1CFEF01F9CF909306
:103D2000690980936809CDCFFE01E20FF31F8193EB
:103D300091932250310939832883D7CF2091660986
:103D400030916709232B41F42091C0023091C102C8
:103D500030936709209366092091BE023091BF021B
:103D60002115310541F42DB73EB74091C202509163
:103D7000C302241B350BE0916609F0916709E21735
:103D8000F307A0F42E1B3F0B2817390778F0AC017E
:103D90004E5F5F4F2417350748F04E0F5F1F50935B
:103DA000670940936609819391939FCFF0E0E0E02B
:103DB0009CCFCF93DF930097E9F0FC0132971382F9
:103DC0001282A0916809B0916909ED0130E020E00C
:103DD0001097A1F420813181820F931F20916609F1
:103DE000309167092817390709F061C0F093670916
:103DF000E0936609DF91CF910895EA01CE17DF07BE
:103E0000E8F54A815B819E0141155105B1F7E90151
:103E1000FB83EA8349915991C40FD51FEC17FD0725
:103E200061F4808191810296840F951FE901998345
:103E30008883828193819B838A83F0E0E0E01296FD
:103E40008D919C9113970097B9F52D913C91119705
:103E5000CD010296820F931F209166093091670968
:103E60002817390739F6309751F5109269091092E1
:103E70006809B0936709A0936609BCCFD383C28356
:103E800040815181840F951FC817D90761F44E5F97
:103E90005F4F88819981480F591F518340838A81E0
:103EA0009B81938382832115310509F0B0CFF09374
:103EB0006909E09368099ECFFD01DC01C0CF138240
:103EC0001282D7CFFB01DC018D9101908019011086
:103ED000D9F3990B0895FB01DC0101900D920020AC
:103EE000E1F70895FB01DC014150504030F08D9125
:103EF0000190801919F40020B9F7881B990B0895D7
:103F0000FB01DC014150504048F001900D9200202F
:103F1000C9F701C01D9241505040E0F70895F89450
:103F2000FFCF0000010000010000000001000001BF
:103F30000000010101010101010100000100000177
:103F40000000000001000001000001010101010169
:103F5000010100000100000100000000010000015B
:103F60000000010000000000000000000000000050
:103F7000010000000000000000000000000001003F
:103F80000000000000000000000000000100000030
:103F90000000000000000000000001000000000020
:103FA0000000000000000000010000000000000010
:103FB0000000000000000100000000000000000000
:103FC00000000000010000000000000000000000F0
:103FD00000000100000000000000000000000000E0
:103FE00000006A0980004E4F204841592043454C4B
:103FF0002023200000FFFFFFFFFFFFFFFFFF312A0C
:10400000242321324142433033444546003447485B
:104010004900354A4B4C00364D4E4F0037505152F7
:10402000533854555600395758595A31323334356C
:10403000363738392A302300000000330429036F53
:10404000038004E7037E03D90300000000B60729BC
:1040500003CA04C9040D0A00527562656E2032302D
:10406000323131313833350053657267696F203230
:10407000303231303031353400506564726F203267
:104080003031303230363030004A6F736520323094
:104090003139303137353600536562617320323043
:1040A0003139303630383500534520414341424F95
:1040B00020454C205449454D504F004D5543484FE5
:1040C0002043414C4F5220232000456C20757375CE
:1040D0006172696F20796120657869737465002D5C
:1040E0002D2D4E7565766F207573756172696F2D14
:1040F0002D2D002D2D2D2D2D2D2D2D2D2D2D2D2D1D
:104100002D2D2D2D2D2D004D656E75207072696E33
:10411000636970616C0050726573696F6E612061D4
:104120006365707461720020204C6F67696E0020B7
:1041300020526567697374726172003E0020457396
:10414000706572616E646F2020756E6120002020A2
:1041500020636F6E6578696F6E2E2E2E2020004EC4
:104160006F6D6272653A004C204F20472049204E07
:1041700000202D204E4F4D4252453A00436F72723F
:104180006563746F3F202020202020200020202005
:104190002020202020202020202020202000202D32
:1041A00020436F6E747261733A004E414441004186
:1041B000444D494E2A303536343500475255504F1C
:1041C00032310041444D494E006C6F67696E414584
:1041D000006C6F67696E5545006C6F67696E46418C
:1041E0000020204C6F677300202045737461646F5A
:1041F00020537973002020436572726172207365C9
:1042000073696F6E006161610043454C202320207B
:1042100020202020004641494C45442023202020D6
:1042200000494E434944454E542023200041435405
:104230002055534552202320004365727261646FFC
:10424000410020496E677265736F2043656C0020E2
:1042500052657469726F2043656C0020456C696D0E
:10426000696E6172204375656E746100496E746F8A
:1042700064757A63612043454C20656E0020504F81
:10428000532023004D5543484F2043414C4F52206B
:10429000656E00494E47522043454C204641494CEB
:1042A00000494E47522043454C204F4B0043657216
:1042B0007261646F555300456C2075737561726946
:1042C0006F206E6F206578697374650043454C20DC
:1042D000656E2053697374656D61004D656E752060
:1042E00064652072657469726F2E2E2E0055737589
:1042F0006172696F20426F727261646F00524D5635
:104300002055535200524547495354524F00202DD7
:1043100020434F4E5452413A00202D204E554D45DA
:10432000524F3A004C4F47494E00202041706C6973
:10433000636163696F6E00202050616E656C0020C0
:104340002053616C69720052204520472049205358
:1043500020542052204F00202D2043656C756C6145
:10436000723A00416365707461723F202020202002
:1043700020200063616E63656C6172005449504F88
:1043800020444520494E5055543A00232041504C7A
:1043900049434143494F4E002A205445434C414430
:1043A0004F006572726F722070617373776F726401
:1043B0003A006572726F722070617373776F726406
:1043C000004F7063696F6E3A2000524D2043454C98
:1043D000204641494C005265746972652043454C42
:1043E00020656E0053616361646F20230041677232
:1043F000656761722041646D696E00486179206172
:06440000646D696E00000E
:020000040003F7
:10E000000D9489F10D94B2F10D94B2F10D94B2F129
:10E010000D94B2F10D94B2F10D94B2F10D94B2F1F0
:10E020000D94B2F10D94B2F10D94B2F10D94B2F1E0
:10E030000D94B2F10D94B2F10D94B2F10D94B2F1D0
:10E040000D94B2F10D94B2F10D94B2F10D94B2F1C0
:10E050000D94B2F10D94B2F10D94B2F10D94B2F1B0
:10E060000D94B2F10D94B2F10D94B2F10D94B2F1A0
:10E070000D94B2F10D94B2F10D94B2F10D94B2F190
:10E080000D94B2F10D94B2F10D94B2F10D94B2F180
:10E090000D94B2F10D94B2F10D94B2F10D94B2F170
:10E0A0000D94B2F10D94B2F10D94B2F10D94B2F160
:10E0B0000D94B2F10D94B2F10D94B2F10D94B2F150
:10E0C0000D94B2F10D94B2F10D94B2F10D94B2F140
:10E0D0000D94B2F10D94B2F10D94B2F10D94B2F130
:10E0E0000D94B2F141546D656761323536300041AF
:10E0F000726475696E6F206578706C6F72657220DE
:10E1000073746B3530305632206279204D4C530099
:10E11000426F6F746C6F616465723E004875683F52
:10E1200000436F6D70696C6564206F6E203D200048
:10E130004350552054797065202020203D20005FF9
:10E140005F4156525F415243485F5F3D2000415658
:10E1500052204C696243205665723D20004743437C
:10E160002056657273696F6E203D20004350552024
:10E1700049442020202020203D20004C6F7720663D
:10E18000757365202020203D20004869676820665F
:10E190007573652020203D200045787420667573D6
:10E1A00065202020203D20004C6F636B2066757336
:10E1B000652020203D20004D617220203720323024
:10E1C000313300312E362E3800342E332E350056A2
:10E1D00023202020414444522020206F7020636F70
:10E1E00064652020202020696E73747275637469E1
:10E1F0006F6E2061646472202020496E74657272B3
:10E20000757074006E6F20766563746F7200726A49
:10E210006D702020006A6D70200057686174207056
:10E220006F72743A00506F7274206E6F7420737541
:10E2300070706F72746564004D7573742062652030
:10E2400061206C6574746572002000577269747483
:10E25000696E672045450052656164696E672045B7
:10E26000450045452065727220636E743D00504F35
:10E27000525400303D5A65726F2061646472003FF1
:10E280003D43505520737461747300403D454550C3
:10E29000524F4D207465737400423D426C696E6B41
:10E2A000204C454400453D44756D70204545505215
:10E2B0004F4D00463D44756D7020464C415348001B
:10E2C000483D48656C70004C3D4C69737420492F83
:10E2D0004F20506F72747300513D51756974005234
:10E2E0003D44756D702052414D00563D73686F7707
:10E2F00020696E7465727275707420566563746FF0
:10E30000727300593D506F727420626C696E6B00BD
:10E310002A0011241FBECFEFD1E2DEBFCDBF01E046
:10E320000CBF12E0A0E0B2E0EEE1FDEF03E00BBFB6
:10E3300002C007900D92A030B107D9F712E0A0E01B
:10E34000B2E001C01D92AE30B107E1F70F9460F367
:10E350000D948DFE01E20EBF0FEF0DBF11241FBE05
:10E360000D9460F30D9400F020E030E040ED57E0B4
:10E3700005C0FA013197F1F72F5F3F4F2817390792
:10E38000C0F308959C01260F311DC901A0E0B0E043
:10E390002F5F3F4FABBFFC018791882361F08093D3
:10E3A000C6008091C00086FFFCCF8091C0008064D1
:10E3B0008093C000EACF08958DE08093C6008091DD
:10E3C000C00086FFFCCF8091C00080648093C000B5
:10E3D0008AE08093C6008091C00086FFFCCF8091C8
:10E3E000C00080648093C00008950F94C2F10F9420
:10E3F000DCF10895FC019081992359F09093C600B7
:10E400008091C00086FFFCCF8091C0008064809323
:10E41000C0003196992379F70895282F982F929567
:10E420009F70892F805D8A3308F0895F8093C600D2
:10E430008091C00086FFFCCF8091C00080648093F3
:10E44000C000822F8F70982F905D9A3308F0995FEB
:10E450009093C6008091C00086FFFCCF8091C000E1
:10E4600080648093C00008959C01FB01853691056E
:10E470001CF46330710594F0C90164E670E00F94F8
:10E480002EFE605D7F4F6093C6008091C00086FFC6
:10E49000FCCF8091C00080648093C0002B30310598
:10E4A00014F43297B4F0C90164E670E00F942EFEC4
:10E4B0006AE070E00F942EFE605D7F4F6093C600AF
:10E4C0008091C00086FFFCCF8091C0008064809363
:10E4D000C000C9016AE070E00F942EFEC0968093E0
:10E4E000C6008091C00086FFFCCF8091C000806490
:10E4F0008093C00008951F93182F8EE692EE60E07F
:10E500000F94C2F11093C6008091C00086FFFCCF2B
:10E510008091C00080648093C0000F94DCF11F9153
:10E5200008952F923F924F925F926F927F928F92B7
:10E530009F92AF92BF92CF92DF92EF92FF920F9392
:10E540001F93DF93CF93CDB7DEB762970FB6F894E2
:10E55000DEBF0FBECDBF382E622ECA01DB015C01CB
:10E560006D01772420E2222E2E010894411C511CBB
:10E570008BC081E0A81680E0B80681E0C80680E084
:10E58000D80628F0C601AA27BB270F940DF2BB2797
:10E59000AD2D9C2D8B2D0F940DF28A2D0F940DF225
:10E5A0002092C6008091C00086FFFCCF8091C00001
:10E5B00080648093C0009DE29093C6008091C0006B
:10E5C00086FFFCCF8091C00080648093C0002092C1
:10E5D000C6008091C00086FFFCCF8091C00080649F
:10E5E0008093C00019828601750188249924A1E0D6
:10E5F0003A1651F03A1620F0B2E03B1661F409C029
:10E600000BBFF701779007C0C7010F9477FE782EF4
:10E6100002C0F7017080872D0F940DF22092C60082
:10E620008091C00086FFFCCF8091C0008064809301
:10E63000C000872D8052F401EF70F0708F3520F408
:10E64000E40DF51D708204C0E40DF51D8EE280839B
:10E650000894E11CF11C011D111D0894811C911CE2
:10E6600090E18916910409F0C2CF80E190E0A0E02A
:10E67000B0E0A80EB91ECA1EDB1E198AC2010F9493
:10E68000FAF10F94DCF16A94662009F072CF629679
:10E690000FB6F894DEBF0FBECDBFCF91DF911F91B3
:10E6A0000F91FF90EF90DF90CF90BF90AF909F9031
:10E6B0008F907F906F905F904F903F902F90089534
:10E6C0002F923F924F925F926F927F928F929F9282
:10E6D000AF92BF92CF92DF92EF92FF920F931F9370
:10E6E000DF93CF93CDB7DEB7CD53D1400FB6F894BB
:10E6F000DEBF0FBECDBF01E20EBF0FEF0DBF94B75F
:10E70000F894A89514BE80916000886180936000A1
:10E7100010926000789493FF05C0E0910002F091A0
:10E7200001021995279A2F9A8091C00082608093E8
:10E73000C00080E18093C40088E18093C1000000A4
:10E74000EE24FF24870144E0A42EB12CCC24DD2448
:10E7500024C0C5010197F1F70894E11CF11C011DCB
:10E76000111D21E2E2162EE4F20620E0020720E06D
:10E77000120718F031E0C32ED12CC801B70127ECE5
:10E780003BE140E050E00F9441FE611571058105C9
:10E79000910519F485B1805885B98091C00087FD35
:10E7A00003C0C114D104A9F2A6014F5F5F4FC25E3E
:10E7B000DE4F59834883CE51D140C25EDE4F8881FF
:10E7C0009981CE51D140019711F00D9410FEC05D9A
:10E7D000DE4F19821882C053D14060E0C15DDE4F28
:10E7E0001882CF52D14088249924C35DDE4F19820C
:10E7F0001882CD52D140C05EDE4F188219821A8233
:10E800001B82C052D140CE5CDE4F188219821A8220
:10E810001B82C253D140EE24FF2487010BBFF701B6
:10E8200007911691C45CDE4F19830883CC53D14005
:10E830000D940BFEC25EDE4F28813981CE51D1404E
:10E840002130310509F52091C600C25EDE4F1982E4
:10E850001882CE51D14022C02F5F3F4F4F4F5F4FA4
:10E86000213082E138078AE7480780E0580780F0C6
:10E87000C45CDE4FE881F981CC53D140EF5FFF4F9C
:10E8800019F0EE27FF27099420E030E040E050E047
:10E890008091C00087FFE0CF2091C600C35DDE4FAE
:10E8A00048815981CD52D1404F5F5F4FC35DDE4FEC
:10E8B00059834883CD52D140213209F063C64A3092
:10E8C000510508F05FC60894811C911C53E0851621
:10E8D000910409F059C600E010E018C081E280936D
:10E8E000C6008091C00086FFFCCF8091C00080648C
:10E8F0008093C0002F5F3F4F2931310579F70F9486
:10E90000DCF10F5F1F4F0530110519F020E030E0FA
:10E91000E5CF10920A0210920B0210920C02109294
:10E920000D02109206021092070210920802109235
:10E930000902109202021092030210920402109235
:10E9400005028FEE90EE60E00F94F5F180E191EE1C
:10E9500060E00F94C2F18091C00087FFFCCF9091DE
:10E96000C600903608F09F759032B8F09093C600BC
:10E970008091C00086FFFCCF8091C00080648093AE
:10E98000C000A0E2A093C6008091C00086FFFCCF2B
:10E990008091C00080648093C000983409F4D7C18E
:10E9A0009934B8F4923409F459C1933458F490333B
:10E9B00019F1903308F4E3C59F33A1F1903409F0C5
:10E9C000DEC5BDC0953409F470C1963409F0D7C5D1
:10E9D00098C1923509F42BC2933538F49C3409F46C
:10E9E000F5C1913509F0CBC518C2963509F445C279
:10E9F000993509F0C4C567C483E792EE62E00F94CD
:10EA0000F5F110920602109207021092080210927D
:10EA1000090210920A0210920B0210920C0210923C
:10EA20000D0213C18FE792EE62E00F94F5F18FEEC5
:10EA300090EE60E00F94F5F181E291EE60E00F94CA
:10EA4000C2F187EB91EE60E00F94F5F180E391EE77
:10EA500060E00F94C2F184EE90EE60E00F94F5F167
:10EA60008FE391EE60E00F94C2F186E090E061E008
:10EA700070E00F9434F20F94DCF18DE591EE60E0DC
:10EA80000F94C2F189EC91EE60E00F94F5F18EE401
:10EA900091EE60E00F94C2F183EC91EE60E00F9490
:10EAA000F5F18CE691EE60E00F94C2F18EE10F94E7
:10EAB0000DF288E90F940DF281E00F940DF20F949E
:10EAC000DCF18BE791EE60E00F94C2F119E0E0E039
:10EAD000F0E010935700E4918E2F0F940DF20F94F5
:10EAE000DCF18AE891EE60E00F94C2F1E3E0F0E03F
:10EAF00010935700E4918E2F0F940DF20F94DCF1D8
:10EB000089E991EE60E00F94C2F1E2E0F0E0109349
:10EB10005700E4918E2F0F940DF20F94DCF188EAE8
:10EB200091EE60E00F94C2F1E1E0F0E01093570045
:10EB30001491812F0F940DF20F94DCF107CF8BE825
:10EB400092EE62E00F94F5F18BE492EE60E00F94A8
:10EB5000F5F10F94DCF100E010E019C0C8016F2D51
:10EB60000F947FFEFF2031F489E492EE60E00F9471
:10EB7000C2F10BC0F092C6008091C00086FFFCCFAE
:10EB80008091C00080648093C0000F5F1F4FC80158
:10EB900081519F41A0E0B0E0ABBFFC01F790BAE229
:10EBA000FB1621F0E2E000301E07C1F60F94DCF105
:10EBB0000F94DCF187E592EE60E00F94F5F10F948D
:10EBC000DCF1CC24DD2400E010E01EC0C8010F946D
:10EBD00077FEF82E882331F489E492EE60E00F94FA
:10EBE000C2F10BC08093C6008091C00086FFFCCFAD
:10EBF0008091C00080648093C000FE1419F00894D6
:10EC0000C11CD11C0F5F1F4FC80181519F41A0E063
:10EC1000B0E0ABBFFC01E790FAE2EF1621F022E092
:10EC20000030120799F60F94DCF10F94DCF182E6C4
:10EC300092EE60E00F94C2F1C60161E070E00F94C3
:10EC400034F20F94DCF10F94DCF110920202109276
:10EC50000302109204021092050278CE89E992EE26
:10EC600062E00F94F5F1279A2F9A16C02F9880E052
:10EC700090E0E0EDF7E03197F1F7019684369105E9
:10EC8000C1F72F9A80E090E0E0EDF7E03197F1F7DF
:10EC9000019684369105C1F78091C00087FFE6CFC9
:10ECA0008091C00087FFFCCF64C485EA92EE62E0E9
:10ECB0000F94F5F140910202509103026091040219
:10ECC0007091050281E020E10F9491F2809102029F
:10ECD00090910302A0910402B091050280509F4FD1
:10ECE000AF4FBF4F8093020290930302A0930402A0
:10ECF000B093050280509041A040B04008F426CE69
:10ED0000A4CF83EB92EE62E00F94F5F140910602FE
:10ED100050910702609108027091090280E020E1A1
:10ED20000F9491F28091060290910702A09108023F
:10ED3000B091090280509F4FAF4FBF4F80930602A2
:10ED400090930702A0930802B0930902FFCD80ECD4
:10ED500092EE62E00F94F5F183E792EE60E00F949B
:10ED6000F5F18FE792EE60E00F94F5F18BE892EE0B
:10ED700060E00F94F5F189E992EE60E00F94F5F10F
:10ED800085EA92EE60E00F94F5F183EB92EE60E09D
:10ED90000F94F5F180EC92EE60E00F94F5F187ECC2
:10EDA00092EE60E00F94F5F188ED92EE60E00F9442
:10EDB000F5F18FED92EE60E00F94F5F18AEE92EEB0
:10EDC00060E00F94F5F183E093EEBDCD87EC92EE19
:10EDD00062E00F94F5F181E40F947BF282E40F94EA
:10EDE0007BF283E40F947BF284E40F947BF285E45E
:10EDF0000F947BF286E40F947BF287E40F947BF20E
:10EE000088E40F947BF28AE40F947BF28BE40F94F6
:10EE10007BF28CE40F947BF299CD88ED92EE62E068
:10EE20000F94F5F1772473948824992409C48FED05
:10EE300092EE62E00F94F5F140910A0250910B02BC
:10EE400060910C0270910D0282E020E10F9491F22A
:10EE500080910A0290910B02A0910C02B0910D02D8
:10EE600080509F4FAF4FBF4F80930A0290930B0289
:10EE7000A0930C02B0930D0269CD8AEE92EE62E08F
:10EE80000F94F5F184EE90EE60E00F94F5F18FECC5
:10EE900091EE60E00F94F5F1662477244301CC5D98
:10EEA000DE4F19821882C452D140D401C301B695F5
:10EEB000A79597958795CA5DDE4F88839983AA8326
:10EEC000BB83C652D140CC5DDE4FA881B981C4520C
:10EED000D1401196CC5DDE4FB983A883C452D14096
:10EEE000CD0162E070E00F9434F2B0E2B093C6005E
:10EEF0008091C00086FFFCCF8091C0008064809329
:10EF0000C000EDE2E093C6008091C00086FFFCCF18
:10EF10008091C00080648093C000F0E2F093C6004E
:10EF20008091C00086FFFCCF8091C00080648093F8
:10EF3000C000CA5DDE4FE880F9800A811B81C6529D
:10EF4000D140BB27A12F902F8F2D0F940DF2CA5DBA
:10EF5000DE4F8881C652D1400F940DF2B0E2FB2EF5
:10EF6000F092C6008091C00086FFFCCF8091C00067
:10EF700080648093C0000DE30093C6008091C000C0
:10EF800086FFFCCF8091C00080648093C00010E2B7
:10EF90001093C6008091C00086FFFCCF8091C00016
:10EFA00080648093C0008BBEF3012791C65DDE4F65
:10EFB0002883CA52D140A22EBB24CC24DD2408943D
:10EFC000611C711C811C911C8BBEF3018791282E42
:10EFD0003324442455240894611C711C811C911C09
:10EFE0008BBEF3013791C55DDE4F3883CB52D140E4
:10EFF0000894611C711C811C911C8BBEF30147910C
:10F00000C45DDE4F4883CC52D140ADEFEA2EAFEF66
:10F01000FA2EAFEF0A2FAFEF1A2F6E0C7F1C801E57
:10F02000911E142D032DF22CEE24EA0CFB1C0C1D5A
:10F030001D1D0F940DF220E22093C6008091C000A8
:10F0400086FFFCCF8091C00080648093C000C65DC5
:10F05000DE4F8881CA52D1400F940DF230E23093D6
:10F06000C6008091C00086FFFCCF8091C000806404
:10F070008093C000C45DDE4F8881CC52D1400F9494
:10F080000DF240E24093C6008091C00086FFFCCFA5
:10F090008091C00080648093C000C55DDE4F888190
:10F0A000CB52D1400F940DF250E25093C6008091A4
:10F0B000C00086FFFCCF8091C00080648093C000B8
:10F0C0008FEFE8168FEFF80680E0080780E018075A
:10F0D00031F484E092EE60E00F94C2F1DFC0D80119
:10F0E000C7018070907CA070B0708050904CA040A0
:10F0F000B040D1F52FEF3FE340E050E0E222F322B1
:10F1000004231523CA5DDE4FA880B980CA80DB8046
:10F11000C652D140AE0CBF1CC01ED11EAA0CBB1CD7
:10F12000CC1CDD1C8EE092EE60E00F94C2F1BB2798
:10F13000A12F902F8F2D0F940DF28E2D0F940DF285
:10F1400030E23093C6008091C00086FFFCCF8091F2
:10F15000C00080648093C0004EE34093C60080915D
:10F16000C00086FFFCCF87C08EE09EEFA0E0B0E03D
:10F17000E822F9220A231B239CE0E91694E9F90608
:10F1800090E0090790E0190709F088C0C45DDE4FE0
:10F19000A881CC52D140EA2EFF2400E010E0102FCD
:10F1A0000F2DFE2CEE24C55DDE4FB881CB52D14031
:10F1B000EB0EF11C011D111DD601C501817090706F
:10F1C000A070B070DC0199278827E80EF91E0A1F8D
:10F1D0001B1F20EF30E040E050E0A222B322C42207
:10F1E000D52241E1AA0CBB1CCC1CDD1C4A95D1F7F1
:10F1F000EA0CFB1C0C1D1D1D81E090E0A0E0B0E0BE
:10F20000282239224A225B2235E1220C331C441C7D
:10F21000551C3A95D1F7E20CF31C041D151D57013E
:10F220006801AA0CBB1CCC1CDD1C85E192EE60E0E1
:10F230000F94C2F1C801AA27BB270F940DF2BB2778
:10F24000A12F902F8F2D0F940DF28E2D0F940DF274
:10F2500090E29093C6008091C00086FFFCCF809121
:10F26000C00080648093C000AEE3A093C60080918C
:10F27000C00086FFFCCF8091C00080648093C000F6
:10F28000C601AA27BB270F940DF2BB27AD2D9C2DDD
:10F290008B2D0F940DF28A2D0F940DF20F94DCF14B
:10F2A000CC5DDE4FE881F981C452D140F99709F471
:10F2B0004DCBF4E0EF2EF12C012D112D6E0C7F1CA7
:10F2C000801E911EF2CD83E093EE62E00F94F5F183
:10F2D0008AE192EE60E00F94C2F18091C00087FF56
:10F2E000FCCF1091C6001F751093C6008091C0001E
:10F2F00086FFFCCF8091C00080648093C0000F9493
:10F30000DCF1812F81548A3108F036C1163409F4BA
:10F3100095C0173490F4133409F44EC0143430F40B
:10F320001134F1F0123409F01DC130C0143409F465
:10F3300059C0153409F016C16BC01A3409F4C4C0A1
:10F340001B3438F4173409F48FC0183409F00AC19B
:10F35000A1C01B3409F4D2C01C3409F003C1E8C0B9
:10F360008FEF81B90DC082B1809582B980E090E0C5
:10F37000E0EDF7E03197F1F70196883C9105C1F790
:10F380008091C00087FFEFCF12B8EFC08FEF84B934
:10F390000DC085B1809585B980E090E0E0EDF7E0A3
:10F3A0003197F1F70196883C9105C1F78091C00033
:10F3B00087FFEFCF15B8D9C08FEF87B90DC088B1DF
:10F3C000809588B980E090E0E0EDF7E03197F1F7C3
:10F3D0000196883C9105C1F78091C00087FFEFCF6F
:10F3E00018B8C3C08FEF8AB90DC08BB180958BB9A7
:10F3F00080E090E0E0EDF7E03197F1F70196883C8E
:10F400009105C1F78091C00087FFEFCF1BB8ADC059
:10F410008FEF8DB90DC08EB180958EB980E090E0F0
:10F42000E0EDF7E03197F1F70196883C9105C1F7DF
:10F430008091C00087FFEFCF1EB897C08FEF80BBD1
:10F440000DC081B3809581BB80E090E0E0EDF7E0F6
:10F450003197F1F70196883C9105C1F78091C00082
:10F4600087FFEFCF11BA81C08FEF83BB0DC084B38C
:10F47000809584BB80E090E0E0EDF7E03197F1F714
:10F480000196883C9105C1F78091C00087FFEFCFBE
:10F4900014BA6BC08FEF809301010FC080910201FD
:10F4A00080958093020180E090E0E0EDF7E03197F5
:10F4B000F1F70196883C9105C1F78091C00087FF64
:10F4C000EDCF1092020151C08FEF809304010FC065
:10F4D0008091050180958093050180E090E0E0ED4A
:10F4E000F7E03197F1F70196883C9105C1F78091DB
:10F4F000C00087FFEDCF1092050137C08FEF8093DA
:10F5000007010FC08091080180958093080180E079
:10F5100090E0E0EDF7E03197F1F70196883C910536
:10F52000C1F78091C00087FFEDCF109208011DC088
:10F530008FEF80930A010FC080910B01809580931B
:10F540000B0180E090E0E0EDF7E03197F1F70196F4
:10F55000883C9105C1F78091C00087FFEDCF1092E4
:10F560000B0103C085E292EEEEC98091C00087FFD7
:10F57000FCCF8091C600EAC988E392EEE4C98CE131
:10F5800091EEE1C988249924933011F1943028F444
:10F59000913089F09230B8F408C0953061F195301F
:10F5A000F0F0963009F048C043C02B3109F042C951
:10F5B00091E06BE13FC96227C15DDE4F2883CF52E6
:10F5C000D14092E037C9B22FA0E0622793E032C960
:10F5D000822F90E0A82BB92B622794E02BC92E3004
:10F5E00009F039C3622795E0C05DDE4F19821882A9
:10F5F000C053D1401FC9E1E0F0E0EC0FFD1FC05D3A
:10F60000DE4F08811981C053D140E00FF11F2083E4
:10F610000F5F1F4FC05DDE4F19830883C053D14079
:10F6200062270A171B0709F005C9D80196E002C92D
:10F63000261709F010C303C0973009F0FBC87724E0
:10F640009981933109F412C19431C8F4963009F4C8
:10F65000D8C0973050F4923009F406C1933009F4C1
:10F660006DC0913009F059C253C0913109F477C08F
:10F67000923108F0BBC0903109F04FC2F5C098310B
:10F6800009F487C0993150F4953109F4EFC09531F0
:10F6900008F4C6C1963109F040C2C2C19A3109F4DA
:10F6A0006CC09A3108F491C09B3109F45BC09D3164
:10F6B00009F033C29D81903359F48F81882311F46E
:10F6C0009EE11CC0813011F091E018C098E916C08D
