:020000040000FA
:100000000C947B010C94AC010C94AC010C94AC01ED
:100010000C94AC010C94AC010C94AC010C94AC01AC
:100020000C94AC010C94AC010C94AC010C94AC019C
:100030000C94AC010C94AC010C94AC010C94AC018C
:100040000C94AC010C94AC010C94AC010C94AC017C
:100050000C94AC010C94AC010C94AC010C941B19E5
:100060000C94AC010C94371A0C940D1A0C94AC013E
:100070000C94AC010C94AC010C94AC010C94AC014C
:100080000C94AC010C94AC010C94AC010C94AC013C
:100090000C94AC010C94AC010C94AC010C94AC012C
:1000A0000C94AC010C94AC010C94AC010C94AC011C
:1000B0000C94AC010C94AC010C94AC010C94AC010C
:1000C0000C94AC010C94AC010C94AC010C94E319AD
:1000D0000C94B9190C94AC010C948F190C946519FB
:1000E0000C94AC010C94CE040C9438020C94BD100A
:1000F0000C9474030C9441160C94611A0C948705AB
:100100000C9451160C9429120C94A5120C940713FC
:100110000C9478050C94DE030C94F9010C94EC0318
:100120000C9433020C9438160C9460130C948303D3
:100130000C9445160C94E00D0C9418020C94730565
:100140000C945D0D0C9485040C948A050C94260285
:100150000C9412020C94CA160C949C0F0C9434024A
:100160000C9438040C9484050C942A020C94050217
:100170000C947B160C946F160C942E020C94721631
:100180000C94C6160C94130E0C94FD010C94551689
:100190000C940E020C944D160C948D050C941C02BC
:1001A0000C947D050C943D160C947B050C94200258
:1001B0000C94BB070C94F3010C9401020C94D00C2A
:1001C0000C9449160C942E030C9408020C94CF0442
:1001D0000C94810500002100240027002A002D0036
:1001E0003000330001010000040107010A01000092
:1001F0002200250028002B002E00310034000201CF
:100200000000050108010B0100002000230026006A
:1002100029002C002F00320000010000030106011C
:10022000090105050505070508080808020202027C
:100230000A0A080804040404010101010101010182
:100240000303030303030303040707070C0C0C0C4D
:100250000C0C0C0C02020202060606060606060636
:100260000B0B0B0B0B0B0B0B0102102020080810C3
:100270002040102040800201020108040201010216
:1002800004081020408080402010080402018004EF
:10029000020180402010080402010804020101024A
:1002A0000408102040800102040810204080000053
:1002B0000A0B02090C0D0E080703040100000000E0
:1002C000000000000000000000000000000000002E
:1002D00000000000000000000000121110000000EB
:1002E000000000000000000000000000000000000E
:1002F00000000000611A11241FBECFEFD1E2DEBF63
:10030000CDBF00E00CBF29E0A8EAB6E001C01D9215
:10031000AE32B207E1F716E0A0E0B2E0E6E4FDE3BA
:1003200000E00BBF02C007900D92A83AB107D9F7C1
:1003300011E0CBE7D1E000E006C021970109802F52
:10034000FE010E944E1DCA37D10780E00807A9F7B9
:100350000E94B91B0C94A11E0C940000FC01A08902
:10036000B18982E08C93A485B5851C92A685B7855A
:100370008FEC8C93108EA489B58986E08C93A2892A
:10038000B3898C9180618C93A289B3898C918860A8
:100390008C93A289B3898C9180688C930288F389AD
:1003A000E02D80818F7D808308958150823108F017
:1003B0005AC0E82FF0E08827EF51FE4F8F4F0C9482
:1003C0004E1D01020502F301F901FD01330208028D
:1003D0000E02120218021C02200226022A02330216
:1003E0002E0234023802809180008F778093800043
:1003F0000895809180008F7DF9CF80918000877F64
:10040000F5CF84B58F7784BD089584B58F7DFBCFFC
:100410008091B0008F778093B00008958091B000F4
:100420008F7DF9CF809190008F7780939000089511
:10043000809190008F7DF9CF80919000877FF5CFDC
:100440008091A0008F778093A00008958091A000F4
:100450008F7DF9CF8091A000877FF5CF809120011B
:100460008F77809320010895809120018F7DF9CFAF
:1004700080912001877FF5CFCF93DF93282F30E045
:10048000F901E255FD4F8491F901E859FD4FD491EE
:10049000F901EE5DFD4FC491CC23A1F081110E94C2
:1004A000D501EC2FF0E0EE0FFF1FE85FFD4FA591A7
:1004B000B491EC91ED2381E090E009F480E0DF91CC
:1004C000CF91089580E090E0FACF1F93CF93DF9310
:1004D000282F30E0F901E255FD4F8491F901E859E8
:1004E000FD4FD491F901EE5DFD4FC491CC23A9F0ED
:1004F000162F81110E94D501EC2FF0E0EE0FFF1FA7
:10050000E251FE4FA591B4918FB7F894EC9111117F
:1005100008C0D095DE23DC938FBFDF91CF911F9170
:100520000895DE2BF8CFCF93DF9390E0FC01E859DC
:10053000FD4F24918E5D9D4FFC0184918823D1F065
:1005400090E0880F991FFC01EC52FE4FA591B491E9
:10055000FC01E251FE4FC591D49161110EC09FB7CD
:10056000F8948C91E22FE0958E238C932881E223DE
:10057000E8839FBFDF91CF9108958FB7F894EC91F6
:10058000E22BEC938FBFF6CF3FB7F8948091D20661
:100590009091D306A091D406B091D50626B5A89B1C
:1005A00005C02F3F19F00196A11DB11D3FBFBA2F05
:1005B000A92F982F8827BC01CD01620F711D811DC5
:1005C000911D42E0660F771F881F991F4A95D1F74A
:1005D00008958F929F92AF92BF92CF92DF92EF9247
:1005E000FF924B015C010E94C4026B017C010E94DE
:1005F000C4026C197D098E099F09683E734081050C
:100600009105A8F321E0821A9108A108B10888EEAB
:10061000C80E83E0D81EE11CF11C81149104A104D2
:10062000B10429F7FF90EF90DF90CF90BF90AF908B
:100630009F908F9008952FB7F8946091CE06709197
:10064000CF068091D0069091D1062FBF0895DC018E
:10065000ED91FC910190F081E02D1994AF92BF9241
:10066000CF92DF92EF92FF920F931F93CF93DF937E
:100670006C017B018B01040F151FEB015E01AE18AD
:10068000BF08C017D10759F06991D601ED91FC91CF
:100690000190F081E02DC6011995892B79F7C501EC
:1006A000DF91CF911F910F91FF90EF90DF90CF904E
:1006B000BF90AF900895FC01A089B1898C91A68963
:1006C000B78982FD0FC09C91818D8F5F8F73228DC2
:1006D000821749F0A18DAE0FBF2FB11D5D969C937F
:1006E000818F08958C910895FC01538D448D252FA1
:1006F00030E0842F90E0821B930B541710F0CF96BC
:10070000089501970895FC01918D828D981761F0ED
:10071000A28DAE0FBF2FB11D5D968C91928D9F5F04
:100720009F73928F90E008958FEF9FEF08958F92BF
:100730009F92AF92BF92CF92DF92EF92FF920F9370
:100740001F93CF93DF937C016A018B01D0E0C0E05F
:100750000E941B03F7016087718782879387C70117
:100760000E94830397FF22C00E941B03F70180842D
:100770009184A284B384681979098A099B098480C9
:100780009580A680B780681579058A059B0538F3A2
:10079000CE01DF91CF911F910F91FF90EF90DF90ED
:1007A000CF90BF90AF909F908F900895F801819364
:1007B0008F012196CC16DD0659F6EACFFC01918D0A
:1007C000828D981731F0828DE80FF11D858D90E0B4
:1007D00008958FEF9FEF0895FC01918D228D892F51
:1007E00090E0805C9F4F821B91098F739927089539
:1007F00083EE96E00E94EC0321E0892B09F420E0CF
:10080000822F089580E897E00E94EC0321E0892B75
:1008100009F420E0822F08958DE198E00E94EC0316
:1008200021E0892B09F420E0822F0895FC01A48D9A
:10083000A80FB92FB11DA35ABF4F2C91848D90E002
:1008400001968F739927848FA689B7892C93A089E5
:10085000B1898C91837080648C93938D848D98136F
:1008600006C00288F389E02D80818F7D8083089502
:10087000EF92FF920F931F93CF93DF93EC0181E0F0
:10088000888F9B8D8C8D98131AC0E889F989808197
:1008900085FF15C09FB7F894EE89FF896083E889CA
:1008A000F98980818370806480839FBF81E090E0BC
:1008B000DF91CF911F910F91FF90EF900895F62E49
:1008C0000B8D10E00F5F1F4F0F731127E02E8C8DE3
:1008D0008E110CC00FB607FCFACFE889F989808128
:1008E00085FFF5CFCE010E941604F1CFEB8DEC0F02
:1008F000FD2FF11DE35AFF4FF0829FB7F8940B8F45
:10090000EA89FB8980818062CFCFCF93DF93EC01AE
:10091000888D8823B9F0AA89BB89E889F9898C91E7
:1009200085FD03C0808186FD0DC00FB607FCF7CFA3
:100930008C9185FFF2CF808185FFEDCFCE010E94A3
:100940001604E9CFDF91CF91089580E090E0892BE4
:1009500029F00E940C0481110E94000080E090E0C8
:10096000892B49F080E090E0892B29F00E9400005B
:1009700081110E94000080E090E0892B29F00E9404
:10098000020481110E94000080E090E0892B29F090
:100990000E94F80381110C9400000895089590E0DE
:1009A00080E00895CF92DF92EF92FF92CF93DF9392
:1009B0000E941B03EB010E941B030E941B036B019F
:1009C0008DE198E00E94EC03892B29F08DE198E0FD
:1009D0000E948303F5CFCC1ADD0A88EEC81683E0A7
:1009E000D8065CF38DE198E00E94EC03892B29F78F
:1009F000DF91CF91FF90EF90DF90CF90089582E04C
:100A00000E943C02892B41F062ED70E080E090E0B2
:100A10000E94E90281E0089583E00E943C02892B54
:100A200071F362ED70E080E090E00E94E90280E006
:100A30000895FF920F931F93CF93DF93C8E0D0E008
:100A4000FC2E61E08C2F0E94650204E010E0802FF4
:100A50000E943C020197B1F460E08F2D0E94650274
:100A600004501109C801880F991F080F191FC00FE2
:100A7000D11FCE50DD4F8881DF91CF911F910F9113
:100A8000FF9008950F5F1F4F0830110501F760E0D8
:100A90008F2D0E9465022196CB30D10589F680E228
:100AA000EBCF0E941B036093AA067093AB06809362
:100AB000AC069093AD060895CF93DF93EB01DA0176
:100AC000893098F4E82FF0E08827E659FA4F8F4FE5
:100AD0000C944E1D730578057B057D058105840505
:100AE00087058A058D0518821C92DF91CF910895A4
:100AF00083E08883F9CF86E0FCCF188283E08C9373
:100B0000F4CF83E08883FBCF86E08883F7CF188219
:100B100086E0F5CF83E08883FBCF86E0F3CFCF92EA
:100B2000DF92EF92FF920F931F93CF93DF931F9269
:100B30001F92CDB7DEB769834A83880F991F009152
:100B4000100910911109000F111FEAEBF8E09F0145
:100B50002A5B38402017310714F41192F8CF29810D
:100B6000FC01E654F74F21838A81808360E0809105
:100B70000E090E9465021016110604F501501109B4
:100B8000F801E654F74FE080D0900C09C0900A09B4
:100B900088E0F82E6E2D661F6627661F8C2D0E943A
:100BA0006502EE0C61E08D2D0E94650260E08D2DE6
:100BB0000E946502FA94F110EDCFDDCF61E08091E3
:100BC0000E090F900F90DF91CF911F910F91FF9021
:100BD000EF90DF90CF900C946502EF92FF920F930D
:100BE0001F93CF937C018C0183E0000F111F8A9526
:100BF000E1F70653174FC1E0F80111928F0140E071
:100C00006C2FC7010E948F05CF5FC930A9F7CF9124
:100C10001F910F91FF90EF900895AF92BF92CF92E6
:100C2000DF92EF92FF920F931F93CF93DF93CAEB64
:100C3000D8E080E0C82E82E0D82EB12C90E8E92ED2
:100C4000F12C10E000E0AA24A394AB0C80911009D1
:100C50009091110918161906E4F488E0B816C9F045
:100C600008301105B1F0C701002E02C09595879597
:100C70000A94E2F72889F601E00FF11F308133234F
:100C800001F1822B888B48896A2D90E080E00E94D8
:100C90008F050F5F1F4F09301105C1F6B3942196E0
:100CA00088E0C80ED11C89E0B812CBCFDF91CF917C
:100CB0001F910F91FF90EF90DF90CF90BF90AF907A
:100CC000089580958223DECFCF93DF93EC0160E01F
:100CD0008E810E94650261E08E810E94650260E063
:100CE0008E810E9465028BE891E00197F1F7DF9118
:100CF000CF910895CF92DF92EF92FF920F931F93BF
:100D0000CF93DF936C017C0187E0E80EF11CD0E00B
:100D1000C0E0062F10E0B8010C2E02C07595679553
:100D20000A94E2F76170F70181917F010E946502E8
:100D30002196C430D10579F7C601DF91CF911F917B
:100D40000F91FF90EF90DF90CF900C946406CF92BC
:100D5000DF92EF92FF920F931F93CF93DF93EC01FB
:100D6000F62E642F8C810E9465028D818F3F19F0D1
:100D700060E00E9465020F2D10E08F8584FF25C082
:100D80006E0187E0C80ED11CF12CE12CB8010E2CAD
:100D900002C0759567950A94E2F76170F60181913A
:100DA0006F010E946502FFEFEF1AFF0A88E0E81664
:100DB000F10461F7CE01DF91CF911F910F91FF9068
:100DC000EF90DF90CF900C946406B80184E07595A5
:100DD00067958A95E1F7CE010E947A066F2DCE01C4
:100DE000DF91CF911F910F91FF90EF90DF90CF9007
:100DF0000C947A0640E0682F82E199E00C94A706F3
:100E000081E00E94FA068BE39FE10197F1F70895D4
:100E1000CF93DF93813029F09091210998609093CE
:100E20002109809325091092260980E480932709DF
:100E300080E18093280980E58093290961E0809111
:100E400016090E949302809117098F3F19F061E003
:100E50000E94930261E0809118090E949302C2E10E
:100E6000D9E09E01225139408091210984FD0BC0B7
:100E700084E090E021962817390744F461E08E81E0
:100E80000E949302EECF88E090E0F4CF8BE39DE0E8
:100E90000197F1F760E0809116090E94650260E019
:100EA000809118090E946502809117098F3F19F0FF
:100EB00060E00E9465028091210984FD34C063E0F6
:100EC00082E199E00E947A06CBE4D6E4CE01019754
:100ED000F1F763E082E199E00E947A062197F1F749
:100EE00063E082E199E00E947A0683E592E001974F
:100EF000F1F762E082E199E00E947A06809121098F
:100F000080620E94FA0684E0809322098CE00E94AD
:100F1000FA060E94000782E08093230986E0DF91B1
:100F2000CF910C94FA0680620E94FA068BE496E454
:100F30000197F1F78091210980620E94FA0683E50A
:100F400092E00197F1F78091210980620E94FA06F0
:100F5000D5CF643008F063E090912509691710F04F
:100F60006FEF690FE62FF0E0EE5EF64F9489890F80
:100F700080680C94FA0641E00E94A70681E090E0A8
:100F80000895CF92DF92EF92FF920F931F93CF932A
:100F9000DF93EB017B0120E1E20EF11C8B016C0180
:100FA000C61AD70AC601800F911F0E94161DF801AC
:100FB00081938F01EE15FF05A9F7CE01DF91CF9147
:100FC0001F910F91FF90EF90DF90CF900895CF92F7
:100FD000DF92EF92FF920F931F93CF93DF93EB017A
:100FE0007B0123E2E20EF11C8B016C01C61AD70AC9
:100FF000C601800F911F0E94161DF80181938F0179
:10100000EE15FF05A9F7CE01DF91CF911F910F914A
:10101000FF90EF90DF90CF900895FB0101900020AA
:10102000E9F73197AF01461B570BDC01ED91FC91BD
:101030000280F381E02D19948F929F92AF92BF921C
:10104000EF92FF920F931F93CF93DF93CDB7DEB74D
:10105000A1970FB6F894DEBF0FBECDBF7C01FA0199
:10106000CB0119A2223008F42AE08E010F5D1F4F38
:10107000822E912CB12CA12CBF01A50194010E94BC
:101080002C1DF901CA016A300CF5605DD8016E9320
:101090008D01232B242B252B79F790E080E01097EE
:1010A00021F0BD01C7010E940D08A1960FB6F8946A
:1010B000DEBF0FBECDBFDF91CF911F910F91FF908B
:1010C000EF90BF90AF909F908F900895695CDECFB6
:1010D000462F50E070E060E02AE00C941C080F936B
:1010E0001F93CF93DF93EC010E9468088C0164E2A8
:1010F00073E0CE010E940D08800F911FDF91CF9108
:101100001F910F9108950F931F93CF93DF93EC01DD
:101110000E940D088C0164E273E0CE010E940D086C
:10112000800F911FDF91CF911F910F9108951F9311
:10113000CF93DF9300D0CDB7DEB7BC018DE198E04F
:101140000E94830810E08DE198E00E94EC03892B57
:1011500059F042E050E0BE016F5F7F4F8DE198E0B3
:101160000E94970311E0EFCF112369F38DE198E01E
:101170000E94EC03892B39F70F900F900F90DF91AD
:10118000CF911F9108950E94000760E080E00E94C7
:10119000A90767E273E082E199E00E94830861E0B9
:1011A00080E00E94A90767E373E082E199E00E9472
:1011B000830862E080E00E94A90768E473E082E1AE
:1011C00099E00E94830863E080E00E94A90768E537
:1011D00073E082E199E00E94830864EF71E080E0AF
:1011E00090E00E94E9020E94000760E080E00E9417
:1011F000A90767E673E082E199E00E94830864EF43
:1012000071E080E090E00C94E9020F931F930E943C
:101210001B030091AA061091AB062091AC063091F9
:10122000AD06601B710B820B930B613E73498F4FB0
:101230009F4F70F067E773E08DE198E00E948308AC
:101240001092CC061092CB0680E01F910F9108956A
:1012500081E0FBCF6115710511F00C940D0890E051
:1012600080E00895CF93DF9300D01F92CDB7DEB713
:101270008983605D6A83BE016F5F7F4F83EE96E076
:101280000E942A0941E050E0BE016D5F7F4F83EE6E
:1012900096E00E94970381E09B81913309F080E002
:1012A0000F900F900F900F90DF91CF910895FF92C4
:1012B0000F931F93CF93DF938C01FC0101900020CB
:1012C000E9F73197FE2EF81A8DE090E00E94561D46
:1012D000EC014CE050E0B8010E94921EBE01DE011C
:1012E0002C2F98E78A2F8C1B8F1568F099E7862F93
:1012F000821B8F1580F4FB018191BF01DF011197E3
:1013000089278C93F4CF8D91AD01415051098927E4
:10131000FA018083E7CFCE01DF91CF911F910F912A
:10132000FF900895CF92DF92EF92FF920F931F9359
:10133000CF93DF93CDB7DEB7A3970FB6F894DEBF98
:101340000FBECDBF8C0186ED96E00E9457096C015F
:10135000C8010E9457097C0104E810E0BE016F5FDC
:101360007F4FC8010E94E707B601CE0101960E9497
:101370007B1E892BE9F4B701CE010E960E947B1EDD
:10138000892BB1F4C6010E94F21DC7010E94F21D13
:1013900081E0A3960FB6F894DEBF0FBECDBFDF91FC
:1013A000CF911F910F91FF90EF90DF90CF90089514
:1013B0000D5D1F4F003D89E0180781F6C6010E94B0
:1013C000F21DC7010E94F21D80E0E3CFEF92FF9271
:1013D0000F931F93CF93DF93CDB7DEB7A3970FB6CD
:1013E000F894DEBF0FBECDBF0E9457097C0104E810
:1013F00010E0BE016F5F7F4FC8010E94E707B70191
:10140000CE0101960E947B1E892B89F4C7010E94A0
:10141000F21D81E0A3960FB6F894DEBF0FBECDBFDC
:10142000DF91CF911F910F91FF90EF9008950D5D87
:101430001F4F003D89E01807E1F6C7010E94F21D29
:1014400080E0E8CFFF920F931F93CF93DF93EC01DF
:10145000F62E08811981C8010E94161DF81621F088
:101460006F2DC8010E941E1DCE01DF91CF911F91EB
:101470000F91FF9008950F931F93CF93DF931F92C7
:101480001F92CDB7DEB78B019A838983FB01608100
:10149000CE0101960E94220AC8010F900F90DF91A1
:1014A000CF911F910F910895EF92FF920F931F9389
:1014B000CF93DF931F921F92CDB7DEB78230910595
:1014C00069F18330910581F1019711F18091AE06A8
:1014D000680F6093AE068EEAE82E86E0F82E00E8EC
:1014E00010E01A830983F70161917F01CE01019613
:1014F0000E94220A0F5F1F4F0438110591F70F90C9
:101500000F90DF91CF911F910F91FF90EF90089571
:101510008091AF06680F6093AF06DDCF8091B00673
:10152000680F6093B006D7CF8091B106680F6093C3
:10153000B106D1CFAF92BF92CF92DF92EF92FF92DE
:101540000F931F93CF93DF93CDB7DEB762970FB69C
:10155000F894DEBF0FBECDBF5C016AE873E08DE199
:1015600098E00E942A09B5018DE198E00E94830865
:1015700080ECE82E89E0F82ED12CC7010E94161DC0
:101580008D1118C0D39480E1E80EF11CE4E6DE1260
:10159000F4CF62960FB6F894DEBF0FBECDBFDF91D9
:1015A000CF911F910F91FF90EF90DF90CF90BF9060
:1015B000AF9008958E010F5F1F4F80E1F8011192E7
:1015C0008A95E9F7D9824FE050E0B501CE01029645
:1015D0000E94921E6E01F1E1CF0ED11CE01AF10AB9
:1015E000C701800F911F9A8B898BF80161918F0140
:1015F000C6010E94220AC016D10691F7CACF2F92C7
:101600003F924F925F926F927F928F929F92AF9292
:10161000BF92CF92DF92EF92FF920F931F93CF93DF
:10162000DF93CDB7DEB7CA56D1090FB6F894DEBF47
:101630000FBECDBF8C017B013A010E94E6098823D1
:1016400009F161E973E08DE198E00E94830880E090
:10165000C659DF4F0FB6F894DEBF0FBECDBFDF9186
:10166000CF911F910F91FF90EF90DF90CF90BF909F
:10167000AF909F908F907F906F905F904F903F9032
:101680002F900895C8010E9457094C01C7010E947C
:1016900057095C0104E810E0BE016C5D7F4FC80192
:1016A0000E94E707C8010E94161D780193E2E90E27
:1016B000F11C882309F471C08701E0EDEE16E9E022
:1016C000FE0651F74DE050E0B401CE01895B9F4F1B
:1016D0000E94921E4DE050E0B50187E490E08C0F2F
:1016E0009D1F0D960E94921E49E050E0B30187E4D1
:1016F00090E08C0F9D1F4A960E94921E87E4282E30
:10170000312C2C0E3D1EF3E22F0E311C8E01095B95
:101710001F4F2701401A510ACE0101966C01C201E8
:10172000800F911F9A838983F80161918F01C6010F
:101730000E94220A0215130591F7F3E2EF0EF11C45
:10174000B601C7010E94E707F60101900020E9F702
:1017500031970E2F0C198DE090E00E94561D182F26
:10176000592E4CE050E0B6010E94921E612F752D5B
:10177000A12FB52D412F99E78A2F811B801778F073
:1017800098E7862F841B801790F4FB018191BF019D
:10179000DF01119789278C93F4CF780193CF8D9136
:1017A0009D01215031098927F9018083E5CF812FDF
:1017B000952D0E94E609882329F0F0ECEF16F9E058
:1017C000FF0648F4AB961FAEAB97BE0166597F4F3C
:1017D000C7010E943B0A66EA73E08DE198E00E942F
:1017E0008308B4018DE198E00E942A0961E674E063
:1017F0008DE198E00E942A09B5018DE198E00E94F0
:101800002A0961E674E08DE198E00E942A09B3019B
:101810008DE198E00E942A0966E273E08DE198E08C
:101820000E9483086AEB73E08DE198E00E948308D0
:10183000C4010E94F21DC5010E94F21D61E070E02A
:1018400083E090E00E94540A81E002CFEF92FF9281
:101850000F931F93CF93DF9300D01F92CDB7DEB7C6
:101860008B01AE014C5F5F4FBE016D5F7F4F0E94E9
:101870005C058C812B8190E030E0AC01E3E0440F0B
:10188000551FEA95E1F740505E4FFA01E20FF31F52
:101890000130110509F040C061E0608373E0880FFA
:1018A000991F7A95E1F7885F9D4FFC01E20FF31FC6
:1018B00060832F5F3F4F420F531FFA016083820FF7
:1018C000931FFC0160830E940D061982BE016F5FA9
:1018D0007F4F90E080E00E943B0A80E4E82E82E0A7
:1018E000F82E01E010E01A830983F70161917F016E
:1018F000CE0101960E94220A0F5F1F4F0F3711057C
:1019000091F70F900F900F900F90DF91CF911F9153
:101910000F91FF90EF900895108263E0880F991F58
:101920006A95E1F7885F9D4FFC01E20FF31F10827B
:101930002F5F3F4F420F531FFA011082820F931FF8
:10194000FC011082C0CF7F928F929F92AF92BF9284
:10195000CF92DF92EF92FF920F931F93CF93DF937B
:10196000CDB7DEB7E3970FB6F894DEBF0FBECDBF9D
:10197000E091CB06F091CC06EA30F10508F069C0A1
:101980008827EA53F34F8F4F0C944E1DD00C07134A
:10199000A512E00D130E5D0D6013BD109C0F2912F2
:1019A0000E94000760E080E00E94A9076EEC73E0EF
:1019B00082E199E00E942A0961E080E00E94A90783
:1019C0006DED73E082E199E00E942A0962E080E017
:1019D0000E94A9076EEE73E082E199E00E942A0955
:1019E00063E080E00E94A90766EF73E082E199E07E
:1019F0000E942A096091CA066E5F80E00E94A907D2
:101A00006FE873E082E199E00E942A090E941905BB
:101A1000823381F462ED70E080E090E00E94E902A0
:101A20008091CA0681508093CA068F3F91F410922C
:101A3000CA060FC0883319F562ED70E080E090E0CF
:101A40000E94E9028091CA068F5F8230B0F48093D1
:101A5000CA06E3960FB6F894DEBF0FBECDBFDF9186
:101A6000CF911F910F91FF90EF90DF90CF90BF909B
:101A7000AF909F908F907F90089581E0E8CF82E0B3
:101A80000E943C028C01019709F662ED70E080E053
:101A900090E00E94E9028091CA06882339F08130E3
:101AA00031F61093CC060093CB06C1CF84E090E0D2
:101AB0009093CC068093CB06BACF80EC99E00E943D
:101AC000161DE82E0E9400076E2D80E897E00E9408
:101AD0006F08D12C10E000E081EC882E89E0982E70
:101AE000B12CA12CF12CAE14BF040CF04DC0D110C0
:101AF0004BC0BE016F5F7F4FC4010E94C107602FC2
:101B000082E00E94A907698180E897E00E946F083F
:101B1000BE016E5F7F4F82E199E00E942A09602F2B
:101B200080E00E94A907698182E199E00E9468082B
:101B300020E1820E911C0F5F1F4F8FEFA81AB80A89
:101B40000430110581F682E00E943C02019751F4B5
:101B500066EE70E080E090E00E94E9020E940007DB
:101B600010E000E083E00E943C02019749F766EE36
:101B700070E080E090E00E94E9020E940007DD240E
:101B8000D39410E000E0AFCF0115110591F0D11012
:101B900010C082E00E943C02019729F083E00E947D
:101BA0003C02019789F766EE70E080E090E00E94C9
:101BB000E90288E090E09093CC068093CB0649CF71
:101BC0000E94D2040E94000762E074E082E199E082
:101BD0000E942A0961E080E00E94A90763E174E0A5
:101BE00082E199E00E942A0910E08DE198E00E94CC
:101BF000EC03892B59F042E050E0BE016F5F7F4F4C
:101C00008DE198E00E94970311E0EFCF112369F373
:101C10008DE198E00E94EC03892B39F78091C8068A
:101C20009091C906C8CF8BE0E6EDF6E0DF01282FE2
:101C30001D922A95E9F7EBEBF6E0DF011D928A95FC
:101C4000E9F7E2EBF6E089E0DF011D928A95E9F71A
:101C5000A6EDCA2EA6E0DA2EBBE0EB2E0E94D2043F
:101C600084E294E00E949708F6012E2D11922A95A5
:101C7000E9F70E9400076CE274E082E199E00E94BB
:101C80002A0961E080E00E94A90766E374E082E12E
:101C900099E00E942A0962E080E00E94A9070E9460
:101CA0001B034B015C010E941B030E94D20410E045
:101CB00000E0F12C8DE198E00E94EC03892B69F0A3
:101CC0008DE198E00E948303F801EA52F94F808386
:101CD0000F5F1F4FFF24F394EDCFFF2009F46BC07B
:101CE0000E941B03681979098A099B09643F7140A6
:101CF00081059105FCF266ED76E082E199E00E94B3
:101D00002A0963E080E00E94A90761E474E082E1AF
:101D100099E00E942A0964EF71E080E090E00E945F
:101D2000E9020E94FF04F82E882309F44BC0EBEB74
:101D3000CE2EE6E0DE2EFBE07F2E0E94D20486E669
:101D400094E00E949708F601272D11922A95E9F751
:101D50000E9400076CE274E082E199E00E942A0987
:101D600061E080E00E94A90763E674E082E199E007
:101D70000E942A0962E080E00E94A9070E941B03DA
:101D80004B015C010E941B030E94D20410E000E0A2
:101D9000E12C8DE198E00E94EC03892B41F18DE16B
:101DA00098E00E948303F801E554F94F80830F5FA8
:101DB0001F4FEF2CEECF0E941B034B015C010E94D2
:101DC0001B0378CF62E080E00E94A90762E574E01F
:101DD00082E199E00E942A0963E080E00E94A9075D
:101DE00062E574E082E199E00E942A0937CFEE2093
:101DF000C1F00E941B03681979098A099B09643F95
:101E00007140810591052CF20BEB16E0F8018191F0
:101E10008F01882369F06AE282E199E00E94BB07A2
:101E2000F5CF0E941B034B015C010E941B03B1CF45
:101E300063E080E00E94A90761E474E082E199E038
:101E40000E942A0964EF71E080E090E00E94E902BC
:101E50000E94FF04811114C062E00E94A90762E59C
:101E600074E082E199E00E942A0963E080E00E9428
:101E7000A90762E574E082E199E00E942A095DCF3A
:101E80008FE694E00E9497088BEB96E00E949209FF
:101E9000182F0E94000764E774E086ED96E00E9428
:101EA0007B1E892B29F56BE774E08BEB96E00E9493
:101EB0007B1E892BE9F460E874E082E199E00E94DE
:101EC0002A0962E370E080E090E00E94E90288E085
:101ED00090E09093CC068093CB0686E894E00E9435
:101EE0009A0A60ED77E080E090E00E94E902B1CDCF
:101EF000112349F087E090E09093CC068093CB06C5
:101F00008EE894E0ECCF66ED76E082E199E00E9405
:101F10002A096BEB76E082E199E00E942A0962E3EC
:101F200070E080E090E00E94E9021092CC061092EE
:101F3000CB0686E994E0D3CF0E94000760E080E002
:101F40000E94A9076DED73E082E199E00E942A09E1
:101F500061E080E00E94A9076EE974E082E199E007
:101F60000E942A0962E080E00E94A90765EA74E005
:101F700082E199E00E942A0963E080E00E94A907BB
:101F800062EB74E082E199E00E942A096091CA063E
:101F90006F5F80E00E94A9076FE873E082E199E03B
:101FA0000E942A090E941905823309F433CD88332F
:101FB00081F462ED70E080E090E00E94E90280919F
:101FC000CA068F5F8093CA06833008F442CD82E050
:101FD0003ECD82E00E943C02019721F762ED70E065
:101FE00080E090E00E94E9028091CA06813009F405
:101FF0007CC060F0823009F01ACD1092CC061092AD
:10200000CB068FEE94E00E949A0A11CD62EC74E048
:102010008DE198E00E9483080E9400076E01F4E2BF
:10202000CF0ED11C80E1D6011D928A95E9F770ECA4
:10203000E72E79E0F72E10E0612F8DE198E00E9405
:102040006F08043070F082E00E943C02019729F58D
:1020500064E670E080E090E00E94E9020E940007E0
:1020600000E0C7010E94161D81130EC0BE016F5F04
:102070007F4FC7010E94C1074FE050E0BE016E5F75
:102080007F4FC6010E94921E8CA1811112C083E075
:102090000E943C020197D9F705C083E00E943C02F0
:1020A000019789F664E670E080E090E00E94E90222
:1020B000BECC602F80E00E94A907B60182E199E0C2
:1020C0000E94830880E0F601E80FF11D90819923BA
:1020D00019F010828F5FF7CF0F5F1F5FB0E1EB0E3B
:1020E000F11C143609F0A8CFA2CC0E94000760E0D2
:1020F00080E00E94A90766EC74E082E199E00E940A
:102100002A096091AE0682E199E00E94680861E0C8
:1021100080E00E94A9076DEC74E082E199E00E94E2
:102120002A096091AF0682E199E00E94680862E0A6
:1021300080E00E94A90767ED74E082E199E00E94C7
:102140002A096091B00682E199E00E94680863E084
:1021500080E00E94A90763EE74E082E199E00E94AA
:102160002A096091B10682E199E00E94680883E043
:102170000E943C020197D9F795CF0E94000760E0CA
:1021800080E00E94A90768EF74E082E199E00E9474
:102190002A0961E080E00E94A90765E075E082E11C
:1021A00099E00E942A0962E080E00E94A90763EB9F
:1021B00074E082E199E00E942A0963E080E00E94D5
:1021C000A90761E175E082E199E00E942A09609126
:1021D000CA0680E00E94A9076FE873E082E199E0F7
:1021E0000E942A090E941905823309F413CC88330E
:1021F00071F462ED70E080E090E00E94E90280916D
:10220000CA068F5F843008F422CC83E020CC82E0C1
:102210000E943C02019731F762ED70E080E090E0AF
:102220000E94E9028091CA06813009F4C1C0A8F079
:10223000823009F48FC0833009F0F9CB86ED96E047
:102240000E94E60900E412E081118BC06DE675E0A2
:102250008DE198E00E948308EACBE0E4F2E010E030
:1022600000E08081882309F46DC0F02E60E3E62E43
:10227000E00E0E94000760E080E00E94A90762E291
:1022800075E082E199E00E94830861E080E00E94AD
:10229000A90763E375E082E199E00E942A096E2DA7
:1022A00082E199E00E9427036F2D82E40E943209A7
:1022B0008111FACF0E94000760E080E00E94A90728
:1022C0006AE375E082E199E00E94830861E080E0C2
:1022D0000E94A90763E375E082E199E00E942A0960
:1022E0006E2D82E199E00E9427036F2D84E50E9404
:1022F00032098111FACF0E94F916811103C089E4D5
:1023000095E081CE2EE0209FC001219F900D1124E9
:10231000FC01E05CFD4F10824CE050E066ED76E0A1
:102320008F5B9D4F0E94921E61E070E08F2D0E9496
:10233000260C61E070E090E080E00E94540A87E59E
:1023400095E061CE0F5F1F4F3E960930110509F0F1
:1023500088CF6DCB1092CC061092CB0683E695E029
:1023600052CEF8018081811126C04CE050E0B801C6
:102370006F5F7F4F86ED96E00E94841E892BD9F413
:102380000E94000760E080E00E94A90762E875E013
:1023900082E199E00E94830861E975E082E199E0B9
:1023A0000E94830860E971E080E090E00E94E90209
:1023B0000E94F1173CCB025F1F4FF2E00E3B1F075C
:1023C00081F686ED96E00E9457096C0104E810E062
:1023D000BE016F5F7F4FC8010E94E707B601CE01C3
:1023E00001960E947B1E892B51F5F12CE12C1CA239
:1023F000BE016C5D7F4FC701800F911F0E943B0A99
:102400002FEFE21AF20A82E2E816F10481F763EA9A
:1024100075E08DE198E00E948308C6010E94F21DDC
:1024200083EB95E00E949A0A6FEF7FEF83E090E0E4
:102430000E94540A1092CC061092CB06F8CA0D5D89
:102440001F4F003D99E0190719F6C6010E94F21DC1
:10245000EECA0E94000760E080E00E94A90760EFDA
:1024600073E082E199E00E942A0961E080E00E9425
:10247000A90766E374E082E199E00E942A09DE017F
:1024800011967D0180E1FD0111928A95E9F762E0E4
:10249000CD010E94F4158823B1F068EE73E080E06E
:1024A00090E00E94E9020E9400076BEB75E082E178
:1024B00099E00E942A0968EE73E080E090E00E94B3
:1024C000E9020E9400070E94000760E080E00E948D
:1024D000A90760EF73E082E199E00E942A0961E0B8
:1024E00080E00E94A90762EC75E082E199E00E9419
:1024F0002A098E010C5D1F4F80E1D8011D928A953B
:10250000E9F762E0C8010E94F415882309F4A1CA22
:1025100068EE73E080E090E00E94E9020E9400070C
:10252000B70182E199E00E942A09B80182E199E0AD
:102530000E942A0968EE73E080E090E00E94E902C0
:102540000E94000787E090E036CB0E94000760E021
:1025500080E00E94A9076DED73E082E199E00E949E
:102560002A0961E080E00E94A9076DEC75E082E134
:1025700099E00E942A0962E080E00E94A9076AEDC2
:1025800075E082E199E00E942A0963E080E00E9400
:10259000A90762EE75E082E199E00E942A09609144
:1025A000CA066F5F80E00E94A9076FE873E082E1CE
:1025B00099E00E942A090E941905823309F42ACA67
:1025C000883309F4F6CC82E00E943C02019799F727
:1025D00062ED70E080E090E00E94E9028091CA061E
:1025E000813091F020F0823009F424CF20CA83E0BA
:1025F00090E09093CC068093CB0684E090E090939B
:10260000C9068093C80613CA89E090E051CA0E94A7
:10261000000760E080E00E94A9076DED73E082E1B1
:1026200099E00E942A0961E080E00E94A9076DEC10
:1026300075E082E199E00E942A0962E080E00E9450
:10264000A9076AED75E082E199E00E942A0963E03A
:1026500080E00E94A90762EE75E082E199E00E94A5
:102660002A096091CA066F5F80E00E94A9076FE89F
:1026700073E082E199E00E942A090E9419058233E1
:1026800009F4C8C9883309F494CC82E00E943C0262
:10269000019799F762ED70E080E090E00E94E90216
:1026A0008091CA06813009F4AFCF08F09CCF83E057
:1026B00090E09093CC068093CB0686E090E09FCF8D
:1026C0008DE0E6EDF6E0DF01282F1D922A95E9F76F
:1026D000EBEBF6E0DF011D928A95E9F7E2EBF6E01D
:1026E00089E0DF011D928A95E9F746EDC42E46E0A8
:1026F000D42E5DE0752E0E94D20484E294E00E9404
:102700009708F601272D11922A95E9F70E940007F4
:102710006AEE75E082E199E00E942A0961E080E0BA
:102720000E94A90766E374E082E199E00E942A0909
:1027300062E080E00E94A9070E941B034B015C013C
:102740000E941B030E94D20410E000E0F12C8DE1F6
:1027500098E00E94EC03892B69F08DE198E00E94DB
:102760008303F801EA52F94F80830F5F1F4FFF2464
:10277000F394EDCFFF2009F46BC00E941B0368198E
:1027800079098A099B09643F714081059105FCF232
:1027900066ED76E082E199E00E942A0963E080E03C
:1027A0000E94A90761E474E082E199E00E942A098D
:1027B00064EF71E080E090E00E94E9020E94FF0473
:1027C000E82E882309F44BC022EBC22E26E0D22E3D
:1027D00039E0732E0E94D2048DEF95E00E94970895
:1027E000F601272D11922A95E9F70E9400076AEE5B
:1027F00075E082E199E00E942A0961E080E00E9490
:10280000A9076AEF75E082E199E00E942A0962E077
:1028100080E00E94A9070E941B034B015C010E94FB
:102820001B030E94D20410E000E0F12C8DE198E03F
:102830000E94EC03892B41F18DE198E00E94830313
:10284000F801EE54F94F80830F5F1F4FFE2CEECF3F
:102850000E941B034B015C010E941B0378CF62E0C6
:1028600080E00E94A90762E574E082E199E00E949D
:102870002A0963E080E00E94A90762E574E082E132
:1028800099E00E942A0937CFFF2009F46BC00E940B
:102890001B03681979098A099B09643F7140810506
:1028A000910524F262EB76E082E199E00E942A0928
:1028B00063E080E00E94A90761E474E082E199E0AE
:1028C0000E942A0964EF71E080E090E00E94E90232
:1028D0000E94FF04F82E882309F44BC08BEBC82E0E
:1028E00086E0D82E9DE0792E0E94D20486E694E000
:1028F0000E949708F601272D11922A95E9F70E9468
:1029000000076AEE75E082E199E00E942A0961E021
:1029100080E00E94A90763E674E082E199E00E94EA
:102920002A0962E080E00E94A9070E941B034B0174
:102930005C010E941B030E94D20410E000E0E12C25
:102940008DE198E00E94EC03892B41F18DE198E044
:102950000E948303F801E554F94F80830F5F1F4FF6
:10296000EF2CEECF0E941B034B015C010E941B0366
:102970005DCF62E080E00E94A90762E574E082E139
:1029800099E00E942A0963E080E00E94A90762E5BD
:1029900074E082E199E00E942A091CCFEE20C1F088
:1029A0000E941B03681979098A099B09643F7140D9
:1029B000810591052CF20BEB16E0F80181918F0156
:1029C000882369F06AE282E199E00E94BB07F5CFB3
:1029D0000E941B034B015C010E941B03B1CF63E00B
:1029E00080E00E94A90761E474E082E199E00E941E
:1029F0002A0964EF71E080E090E00E94E9020E9401
:102A0000FF04811114C062E00E94A90762E574E02E
:102A100082E199E00E942A0963E080E00E94A90710
:102A200062E574E082E199E00E942A095DCF42EB01
:102A300056E06BEB76E086ED96E00E94FF0A882375
:102A400009F407C81092CC061092CB0602C87F92F8
:102A50008F929F92AF92BF92CF92DF92EF92FF92AE
:102A60000F931F93CF93DF9300D0CDB7DEB78C01C8
:102A70006B010E94D2040E94000762E074E082E1D0
:102A800099E00E942A0961E080E00E94A90763E1C1
:102A900074E082E199E00E942A098DE198E00E94A9
:102AA000EC03892BD1F38091CB069091CC0607974C
:102AB00031F40E940509811102C00E94A30C42E07A
:102AC00050E0BE016F5F7F4F8DE198E00E94970359
:102AD0000E9451058091CB069091CC06079731F466
:102AE0000E940509811102C00E94A30C0E941B03D1
:102AF0004B015C010E941B030E94D204C6010E948C
:102B000097080E94000760E080E00E94A907B601D4
:102B100082E199E00E948308F12CE12C712C8DE177
:102B200098E00E94EC03892B71F08DE198E00E94FF
:102B30008303F801EE0DFF1D8083C70101967C0120
:102B400077247394ECCF7720A1F10E941B036819BE
:102B500079098A099B09643F714081059105FCF25E
:102B60000E94510561E080E00E94A907B80182E15E
:102B700099E00E94830862E080E00E94A90766E075
:102B800076E082E199E00E942A0964EF71E080E03A
:102B900090E00E94E9020E94FF04811111C0F80137
:102BA000E80FF11D9081992309F494CF10828F5F73
:102BB000F6CF0E941B034B015C010E941B03AFCFA9
:102BC0000E94510581E00F900F900F90DF91CF91FF
:102BD0001F910F91FF90EF90DF90CF90BF90AF903B
:102BE0009F908F907F900895BF92CF92DF92EF9247
:102BF000FF920F931F93CF93DF937C01B62E80E05B
:102C00000E94A907D12CC0E085E0C82E6B2D80E082
:102C10000E94A9070E941905D82F64E670E080E0A1
:102C200090E00E94E902EDEDED0FE73108F063C09E
:102C30000E2E000CFF0B8827EF5DF94E8F4F0C9482
:102C40004E1D6F167B167B167B167B167B167B162E
:102C500055167B167B167B167B167B167216C616D0
:102C6000CA1638163D164116451649164D16511608
:102C7000D0E010E002E0C0E01AC0D0E010E003E0D5
:102C8000FACFD0E010E004E0F6CFD0E010E005E0AD
:102C9000F2CFD0E010E006E0EECFD0E010E007E0A9
:102CA000EACFD0E010E008E0E6CFD1E010E00E94EB
:102CB0005105802F90E0112309F470C0C43069F0F1
:102CC000C89EF001C99EF00D1124E353FD4FEC0F97
:102CD000F11D2181CF5F211166C0C0E064C0D0E04A
:102CE00011E0E5CFF701ED0DF11D8081882309F496
:102CF0008DCFD3948BCF82E00E943C020197C9F420
:102D000066EE73E08DE198E00E94830864E670E06F
:102D100080E090E00E94E9020E94510581E0DF918D
:102D2000CF911F910F91FF90EF90DF90CF90BF90C8
:102D3000089583E00E943C020197D1F466E176E0B9
:102D40008DE198E00E94830880E0F701E80FF11D13
:102D50009081992319F010828F5FF7CF64E670E0BD
:102D600080E090E00E94E9020E94510580E0D7CF08
:102D70008091CB069091CC06079709F047CF0E942F
:102D80000509811143CF0E94A30C40CFD0E010E091
:102D900000E071CFD0E010E001E06DCFDD2319F04D
:102DA000CC23D1F0C150C89EF001C99EF00D112472
:102DB000E353FD4FEC0FF11D8081F701ED0DF11D87
:102DC0008083B70182E199E00E948308B7018DE119
:102DD00098E00E9483081ACFC89EF001C99EF00DAA
:102DE0001124E353FD4F2481C4E02111DCCFC3E063
:102DF000DACF0F931F93CF93DF93CDB7DEB76097F2
:102E00000FB6F894DEBF0FBECDBF0E9451050E94E1
:102E1000000760E080E00E94A9076FE176E082E1B0
:102E200099E00E94830861E080E00E94A9076EE2B9
:102E300076E082E199E00E94830862E080E00E94EF
:102E4000A9076BE376E082E199E00E948308809114
:102E5000CB069091CC06079731F40E9405098111A9
:102E600002C00E94A30C0E941905182F64E670E0AE
:102E700080E090E00E94E9028091CB069091CC0620
:102E80001A3209F04CC021E030E03093A9062093BB
:102E9000A806079711F40E9451050E9400078E01B1
:102EA0000F5F1F4F80E1F80111928A95E9F70E94A8
:102EB000000760E080E00E94A9078091A806909139
:102EC000A9060197A1F56BE476E082E199E00E9402
:102ED000830861E0C8010E94F4152091A806309192
:102EE000A906232B29F46BE576E0C8010E9427157B
:102EF0008823E9F2B8018DE198E00E9483080E94DE
:102F00000007C8010E949209811137C0F801E80F3B
:102F1000F11D9081992369F010828F5FF7CF1332F2
:102F200009F095CF1092A9061092A806B2CF80E0C2
:102F3000D4CF0E94000760E080E00E94A907809142
:102F4000A8069091A906019709F049C065E476E0CA
:102F500082E199E00E94830861E0C8010E94F415B3
:102F60002091A8063091A906232B29F465E576E087
:102F7000C8010E9427158823E1F261E070E081E03A
:102F800090E00E94540AC8010E949209082F811102
:102F90001AC01092CC061092CB061AE00E940007CD
:102FA00060E080E00E94A907612F82E199E00E9421
:102FB0006F0868EE73E080E090E00E94E902115033
:102FC00069F70E94C308802F60960FB6F894DEBFA1
:102FD0000FBECDBFDF91CF911F910F91089580E07B
:102FE000BFCFCF92DF92EF92FF920F931F93CF93B9
:102FF000DF9300D000D000D0CDB7DEB789E0E4EC9D
:10300000F2E0DE01119601900D928A95E1F790E4CD
:10301000E92E92E0F92E10E000E0D12CD7018C913E
:10302000811113C04CE050E0B7016F5F7F4F86ED18
:1030300096E00E94841E892B41F4E1E0F0E0EC0F61
:10304000FD1FE00FF11F0083D3940F5F1F4FBEE001
:10305000EB0EF11C0930110509F7DD2009F4DCC085
:103060000E940007FE0131967F0110E000E003306E
:1030700011F0063029F41F5F612F80E00E94A9073C
:10308000D7016D917D016F3F59F0605D82E199E05C
:103090000E94270364E273E082E199E00E940D0838
:1030A0000F5F093021F71F5F612F80E00E94A907A1
:1030B00064E676E082E199E00E942A09612F87E0C8
:1030C0000E94A90761E674E082E199E00E942A0962
:1030D000612F87E00E94A9070E941905082F64E666
:1030E00070E080E090E00E94E902003239F30A3299
:1030F00029F3033219F3602F82E199E00E9427033C
:1031000080EDF82EF00E68EC70E080E090E00E9418
:10311000E902CF2CD12CE1E0F0E0EC0FFD1FEC0D2B
:10312000FD1D80818F3F51F2BFEFFB1639F20E94E7
:10313000F916811112C08DE696E029960FB6F89423
:10314000DEBF0FBECDBFDF91CF911F910F91FF90DA
:10315000EF90DF90CF900C949A0A0E94000760E0F5
:1031600080E00E94A90769E776E082E199E00E9489
:10317000830861E080E00E94A90763E375E082E1D3
:1031800099E00E942A09602F82E199E00E942703BA
:103190006F2D82E40E9432098823D1F38EE08C9D4A
:1031A000F0018D9DF00D1124E05CFD4FDF011D92BB
:1031B0008A95E9F781E0808370E060E08F2D0E94BE
:1031C000260C0E94000760E080E00E94A90767E8E3
:1031D00076E082E199E00E942A09602F82E199E07D
:1031E0000E9427036FEF7FEF90E080E00E94540A77
:1031F0006AEF70E080E090E029960FB6F894DEBFA9
:103200000FBECDBFDF91CF911F910F91FF90EF9037
:10321000DF90CF900C94E90229960FB6F894DEBFA8
:103220000FBECDBFDF91CF911F910F91FF90EF9017
:10323000DF90CF9008951F920F920FB60F92112436
:103240002F933F938F939F93AF93BF938091CE061D
:103250009091CF06A091D006B091D1063091CD06C5
:1032600023E0230F2D3758F50196A11DB11D2093A2
:10327000CD068093CE069093CF06A093D006B09350
:10328000D1068091D2069091D306A091D406B09138
:10329000D5060196A11DB11D8093D2069093D30649
:1032A000A093D406B093D506BF91AF919F918F9113
:1032B0003F912F910F900FBE0F901F90189526E809
:1032C000230F0296A11DB11DD2CF1F920F920FB6F0
:1032D0000F9211240BB60F922F933F934F935F934E
:1032E0006F937F938F939F93AF93BF93EF93FF93CE
:1032F00083EE96E00E941604FF91EF91BF91AF918B
:103300009F918F917F916F915F914F913F912F91FD
:103310000F900BBE0F900FBE0F901F9018951F922D
:103320000F920FB60F9211240BB60F922F933F936B
:103330004F935F936F937F938F939F93AF93BF93BD
:10334000EF93FF9383EE96E00E945B03FF91EF9172
:10335000BF91AF919F918F917F916F915F914F91AD
:103360003F912F910F900BBE0F900FBE0F901F90AB
:1033700018951F920F920FB60F9211240BB60F9251
:103380002F933F934F935F936F937F938F939F936D
:10339000AF93BF93EF93FF9380E897E00E941604EA
:1033A000FF91EF91BF91AF919F918F917F916F911D
:1033B0005F914F913F912F910F900BBE0F900FBED9
:1033C0000F901F9018951F920F920FB60F92112415
:1033D0000BB60F922F933F934F935F936F937F930F
:1033E0008F939F93AF93BF93EF93FF9380E897E002
:1033F0000E945B03FF91EF91BF91AF919F918F91DD
:103400007F916F915F914F913F912F910F900BBEE4
:103410000F900FBE0F901F9018951F920F920FB62E
:103420000F9211240BB60F922F933F934F935F93FC
:103430006F937F938F939F93AF93BF93EF93FF937C
:103440008DE198E00E941604FF91EF91BF91AF913A
:103450009F918F917F916F915F914F913F912F91AC
:103460000F900BBE0F900FBE0F901F9018951F92DC
:103470000F920FB60F9211240BB60F922F933F931A
:103480004F935F936F937F938F939F93AF93BF936C
:10349000EF93FF938DE198E00E945B03FF91EF9122
:1034A000BF91AF919F918F917F916F915F914F915C
:1034B0003F912F910F900BBE0F900FBE0F901F905A
:1034C0001895CF93DF931092E6061092E50648EE2A
:1034D00053E060E070E04093E7065093E8066093A5
:1034E000E9067093EA068AE093E09093E4068093FD
:1034F000E30625E331E03093F0062093EF0624E362
:1035000031E03093F2062093F10620E331E030936E
:10351000F4062093F30621E331E03093F60620937E
:10352000F50622E331E03093F8062093F70626E310
:1035300031E03093FA062093F9061092FC061092BF
:10354000FD061092FE061092FF061092830710925D
:103550008207409384075093850760938607709392
:103560008707909381078093800725ED30E03093A3
:103570008D0720938C0724ED30E030938F07209344
:103580008E0720ED30E0309391072093900721EDD6
:1035900030E0309393072093920722ED30E0309390
:1035A00095072093940726ED30E0309397072093FA
:1035B00096071092990710929A0710929B07109203
:1035C0009C071092200810921F08409321085093E6
:1035D0002208609323087093240890931E08809318
:1035E0001D0885EC90E090932A088093290884ECCC
:1035F00090E090932C0880932B0880EC90E09093BF
:103600002E0880932D0881EC90E0909330088093F1
:103610002F0882EC90E0909332088093310886EC7A
:1036200090E09093340880933308109236081092FB
:103630003708109238081092390810921509109224
:1036400014098CE193E0909313098093120986E1A9
:10365000809316098FEF8093170987E180931809EB
:1036600088E18093190989E180931A098AE180939E
:103670001B098BE180931C0910921D0910921E09F1
:1036800010921F09109220091092210981E00E94D6
:103690000807CCE1D0E0D0930B09C0930A098EE172
:1036A00090E090930D0980930C098DE190E0909348
:1036B0000F0980930E0981E090E0909311098093A7
:1036C000100961E08CE10E94930261E080910C0995
:1036D0000E94930261E080910E090E94930261E0D2
:1036E00080910E090E946502D0930B09C0930A09CC
:1036F000EAECF8E0119289E0EA30F807D9F7D0E077
:10370000C0E08091100990911109C817D90774F58C
:1037100040E06FE0CE010E948F05809110099091EA
:103720001109C817D9072CF447E06BE0CE010E94BD
:103730008F0540E069E0CE010E948F05809110095D
:1037400090911109C817D9071CF4CE010E94ED050C
:103750008091100990911109C817D9072CF440E005
:103760006CE0CE010E948F052196CBCFDF91CF91E7
:103770000895CF93DF931F921F92CDB7DEB7789451
:1037800084B5826084BD84B5816084BD85B5826066
:1037900085BD85B5816085BD80916E008160809317
:1037A0006E00109281008091810082608093810080
:1037B0008091810081608093810080918000816090
:1037C000809380008091B10084608093B1008091EB
:1037D000B00081608093B0008091910082608093FE
:1037E0009100809191008160809391008091900080
:1037F0008160809390008091A10082608093A100FD
:103800008091A10081608093A1008091A0008160DF
:103810008093A0008091210182608093210180919A
:10382000210181608093210180912001816080933A
:10383000200180917A00846080937A0080917A00E0
:10384000826080937A0080917A00816080937A0010
:1038500080917A00806880937A001092C10080E89D
:1038600097E00E94AE0180E897E00E94AE018DE1F2
:1038700098E00E94AE0183EE96E00E94AE01809136
:103880001009909111091816190634F441E06CE002
:1038900090E080E00E948F058091100990911109BD
:1038A0001816190634F448E06AE090E080E00E94BF
:1038B0008F0580911009909111091816190624F4AA
:1038C00090E080E00E94ED0584E00E94080712E08D
:1038D00060E0812F0E9493021F5F1830C9F761E0FA
:1038E00088E00E94930261E089E00E94930261E017
:1038F0008AE00E9493020E94C30884E794E00E9439
:10390000E60981118CC060E976E08DE198E00E94C3
:1039100083081982BE016F5F7F4F84E890E00E94A8
:103920003B0A4BE754E0BA0184E794E00E94FF0AA7
:1039300090E080E00E94161DF82E811163C000E423
:1039400012E05801CC24C394D12CC6010E94161D4C
:10395000F50181935F01FFEFCF1ADF0A8FE7C816E9
:10396000D10499F761E472E08DE198E00E94830848
:103970004091400250E070E060E02AE08DE198E084
:103980000E941C0864E273E08DE198E00E940D083B
:10399000EE24E394F801808181112EC0AE014F5FC7
:1039A0005F4FBE016E5F7F4F8F2D0E945C05898146
:1039B00090E02A8130E0AC0163E0440F551F6A9526
:1039C000E1F740505E4FFA01E20FF31FE08273E02F
:1039D000880F991F7A95E1F7885F9D4FFC01E20FF0
:1039E000F31FE0822F5F3F4F420F531FFA01E08227
:1039F000820F931FFC01E082F394025F1F4FF9E0F6
:103A0000FF12C8CF0E940D0688E090E09093CC068C
:103A10008093CB060E94A30C0E94A504FBCF6EE905
:103A200076E08DE198E00E94830882CFF999FECF7D
:103A300092BD81BDF89A992780B50895262FF999EE
:103A4000FECF1FBA92BD81BD20BD0FB6F894FA9A81
:103A5000F99A0FBE01960895A1E21A2EAA1BBB1B6C
:103A6000FD010DC0AA1FBB1FEE1FFF1FA217B3074A
:103A7000E407F50720F0A21BB30BE40BF50B661F60
:103A8000771F881F991F1A9469F760957095809524
:103A900090959B01AC01BD01CF010895EE0FFF1F72
:103AA000881F8BBF0790F691E02D19940F931F93F9
:103AB000CF93DF938230910510F482E090E0E091A3
:103AC0002C09F0912D0930E020E0B0E0A0E0309723
:103AD00099F42115310509F44AC0281B390B24300B
:103AE0003105D8F58A819B816115710589F1FB014A
:103AF00093838283FE0111C0408151810281138131
:103B000048175907E0F04817590799F4109761F0E2
:103B100012960C93129713961C933296CF01DF9155
:103B2000CF911F910F91089500932C0910932D09A7
:103B3000F4CF2115310551F04217530738F0A90190
:103B4000DB019A01BD01DF01F801C1CFEF01F9CF1F
:103B500090932D0980932C09CDCFFE01E20FF31F26
:103B6000819391932250310939832883D7CF2091B3
:103B70002A0930912B09232B41F42091C002309166
:103B8000C10230932B0920932A092091BE02309163
:103B9000BF022115310541F42DB73EB74091C20255
:103BA0005091C302241B350BE0912A09F0912B0997
:103BB000E217F307A0F42E1B3F0B2817390778F004
:103BC000AC014E5F5F4F2417350748F04E0F5F1F63
:103BD00050932B0940932A09819391939FCFF0E052
:103BE000E0E09CCFCF93DF930097E9F0FC013297A0
:103BF00013821282A0912C09B0912D09ED0130E0C1
:103C000020E01097A1F420813181820F931F209131
:103C10002A0930912B092817390709F061C0F09360
:103C20002B09E0932A09DF91CF910895EA01CE177D
:103C3000DF07E8F54A815B819E0141155105B1F727
:103C4000E901FB83EA8349915991C40FD51FEC1711
:103C5000FD0761F4808191810296840F951FE9012F
:103C600099838883828193819B838A83F0E0E0E05B
:103C700012968D919C9113970097B9F52D913C91D7
:103C80001197CD010296820F931F20912A0930913E
:103C90002B092817390739F6309751F510922D095D
:103CA00010922C09B0932B09A0932A09BCCFD3837F
:103CB000C28340815181840F951FC817D90761F4D1
:103CC0004E5F5F4F88819981480F591F5183408310
:103CD0008A819B81938382832115310509F0B0CFBE
:103CE000F0932D09E0932C099ECFFD01DC01C0CF9C
:103CF00013821282D7CFFB01DC018D9101908019D4
:103D00000110D9F3990B0895FB01DC01415050409B
:103D100030F08D910190801919F40020B9F7881BBB
:103D2000990B0895FB01DC014150504048F001908F
:103D30000D920020C9F701C01D9241505040E0F79C
:103D40000895F894FFCF000001000001000000007A
:103D50000100000100000101010101010101000059
:103D6000010000010000000001000001000001014D
:103D7000010101010101000001000001000000003B
:103D80000100000100000100000000000000000030
:103D90000000000001000000000000000000000022
:103DA0000000010000000000000000000000000012
:103DB0000100000000000000000000000000010001
:103DC00000000000000000000000000001000000F2
:103DD00000000000000000000000010000000000E2
:103DE00000000000000000000100000000000000D2
:103DF00000000000000001000000000000000000C2
:103E00000000000000002E098000FFFFFFFFFFFF01
:103E1000FFFFFF312A2423213241424330334445FE
:103E200046003447484900354A4B4C00364D4E4F0A
:103E30000037505152533854555600395758595A33
:103E40003132333435363738392A30230000000018
:103E500038042E0374038504EC038303DE0300009F
:103E60000000BB072E03CF04CE040D0A005275627A
:103E7000656E20323032313131383335005365725E
:103E800067696F2032303231313138333500506557
:103E900064726F20323032313131383335004A6F3D
:103EA0007365203230313930313735360053656231
:103EB000617320323032313131383335005345208F
:103EC000414341424F20454C205449454D504F00FD
:103ED0002D2D2D2D2D3E00456C2075737561726959
:103EE0006F20796120657869737465002D2D2D4EE2
:103EF0007565766F207573756172696F2D2D2D0054
:103F00002D2D2D2D2D2D2D2D2D2D2D2D2D2D2D2DE1
:103F10002D2D2D004D656E75207072696E63697070
:103F2000616C0050726573696F6E612061636570CA
:103F30007461720020204C6F67696E00202052650A
:103F40006769737472617200204573706572616E87
:103F5000646F2020756E612000202020636F6E65E5
:103F600078696F6E2E2E2E2020004E6F6D62726566
:103F70003A004C204F20472049204E00202D204E53
:103F80004F4D4252453A00436F72726563746F3F02
:103F90002020202020202000202020202020202041
:103FA000202020202020202000202D20436F6E7410
:103FB0007261733A004E4144410061646D696E3133
:103FC00000313233340041444D494E006C6F676913
:103FD0006E4145006C6F67696E5545006C6F67698F
:103FE0006E46410020204C6F67730020204573749B
:103FF00061646F205379730020204365727261728F
:1040000020736573696F6E006161610043454C20E8
:104010002320004641494C454420232000494E437B
:104020004944454E542023200041435420555345D4
:1040300052202320004365727261646F4100204961
:104040006E677265736F2043656C002052657469FA
:10405000726F2043656C0020456C696D696E6172FA
:10406000204375656E746100496E746F64757A6380
:10407000612043454C20656E0020504F53202300A3
:104080004D5543484F2043414C4F5220656E0049E7
:104090004E47522043454C204641494C00494E472B
:1040A000522043454C204F4B004365727261646F50
:1040B000555300456C207573756172696F206E6F82
:1040C000206578697374650043454C20656E205304
:1040D000697374656D61004D656E7520646520724D
:1040E000657469726F2E2E2E005573756172696F3B
:1040F00020426F727261646F00524D5620555352C8
:104100000053495555555500202D20434F4E5452CC
:10411000413A00202041706C69636163696F6E00F1
:10412000202050616E656C00202053616C69720024
:1041300052204520472049205320542052204F0030
:10414000202D2043656C756C61723A004163657087
:104150007461723F202020202020200063616E6364
:10416000656C6172005449504F20444520494E50BF
:1041700055543A00232041504C49434143494F4E46
:10418000002A205445434C41444F006572726F72BF
:104190002070617373776F72643A006572726F7228
:1041A0002070617373776F7264004F7063696F6E14
:1041B0003A2000524D2043454C204641494C005284
:1041C00065746972652043454C20656E00536163D8
:1041D00061646F20230041677265676172204164EA
:0E41E0006D696E004861792061646D696E0042
:020000040003F7
:10E000000D9489F10D94B2F10D94B2F10D94B2F129
:10E010000D94B2F10D94B2F10D94B2F10D94B2F1F0
:10E020000D94B2F10D94B2F10D94B2F10D94B2F1E0
:10E030000D94B2F10D94B2F10D94B2F10D94B2F1D0
:10E040000D94B2F10D94B2F10D94B2F10D94B2F1C0
:10E050000D94B2F10D94B2F10D94B2F10D94B2F1B0
:10E060000D94B2F10D94B2F10D94B2F10D94B2F1A0
:10E070000D94B2F10D94B2F10D94B2F10D94B2F190
:10E080000D94B2F10D94B2F10D94B2F10D94B2F180
:10E090000D94B2F10D94B2F10D94B2F10D94B2F170
:10E0A0000D94B2F10D94B2F10D94B2F10D94B2F160
:10E0B0000D94B2F10D94B2F10D94B2F10D94B2F150
:10E0C0000D94B2F10D94B2F10D94B2F10D94B2F140
:10E0D0000D94B2F10D94B2F10D94B2F10D94B2F130
:10E0E0000D94B2F141546D656761323536300041AF
:10E0F000726475696E6F206578706C6F72657220DE
:10E1000073746B3530305632206279204D4C530099
:10E11000426F6F746C6F616465723E004875683F52
:10E1200000436F6D70696C6564206F6E203D200048
:10E130004350552054797065202020203D20005FF9
:10E140005F4156525F415243485F5F3D2000415658
:10E1500052204C696243205665723D20004743437C
:10E160002056657273696F6E203D20004350552024
:10E1700049442020202020203D20004C6F7720663D
:10E18000757365202020203D20004869676820665F
:10E190007573652020203D200045787420667573D6
:10E1A00065202020203D20004C6F636B2066757336
:10E1B000652020203D20004D617220203720323024
:10E1C000313300312E362E3800342E332E350056A2
:10E1D00023202020414444522020206F7020636F70
:10E1E00064652020202020696E73747275637469E1
:10E1F0006F6E2061646472202020496E74657272B3
:10E20000757074006E6F20766563746F7200726A49
:10E210006D702020006A6D70200057686174207056
:10E220006F72743A00506F7274206E6F7420737541
:10E2300070706F72746564004D7573742062652030
:10E2400061206C6574746572002000577269747483
:10E25000696E672045450052656164696E672045B7
:10E26000450045452065727220636E743D00504F35
:10E27000525400303D5A65726F2061646472003FF1
:10E280003D43505520737461747300403D454550C3
:10E29000524F4D207465737400423D426C696E6B41
:10E2A000204C454400453D44756D70204545505215
:10E2B0004F4D00463D44756D7020464C415348001B
:10E2C000483D48656C70004C3D4C69737420492F83
:10E2D0004F20506F72747300513D51756974005234
:10E2E0003D44756D702052414D00563D73686F7707
:10E2F00020696E7465727275707420566563746FF0
:10E30000727300593D506F727420626C696E6B00BD
:10E310002A0011241FBECFEFD1E2DEBFCDBF01E046
:10E320000CBF12E0A0E0B2E0EEE1FDEF03E00BBFB6
:10E3300002C007900D92A030B107D9F712E0A0E01B
:10E34000B2E001C01D92AE30B107E1F70F9460F367
:10E350000D948DFE01E20EBF0FEF0DBF11241FBE05
:10E360000D9460F30D9400F020E030E040ED57E0B4
:10E3700005C0FA013197F1F72F5F3F4F2817390792
:10E38000C0F308959C01260F311DC901A0E0B0E043
:10E390002F5F3F4FABBFFC018791882361F08093D3
:10E3A000C6008091C00086FFFCCF8091C0008064D1
:10E3B0008093C000EACF08958DE08093C6008091DD
:10E3C000C00086FFFCCF8091C00080648093C000B5
:10E3D0008AE08093C6008091C00086FFFCCF8091C8
:10E3E000C00080648093C00008950F94C2F10F9420
:10E3F000DCF10895FC019081992359F09093C600B7
:10E400008091C00086FFFCCF8091C0008064809323
:10E41000C0003196992379F70895282F982F929567
:10E420009F70892F805D8A3308F0895F8093C600D2
:10E430008091C00086FFFCCF8091C00080648093F3
:10E44000C000822F8F70982F905D9A3308F0995FEB
:10E450009093C6008091C00086FFFCCF8091C000E1
:10E4600080648093C00008959C01FB01853691056E
:10E470001CF46330710594F0C90164E670E00F94F8
:10E480002EFE605D7F4F6093C6008091C00086FFC6
:10E49000FCCF8091C00080648093C0002B30310598
:10E4A00014F43297B4F0C90164E670E00F942EFEC4
:10E4B0006AE070E00F942EFE605D7F4F6093C600AF
:10E4C0008091C00086FFFCCF8091C0008064809363
:10E4D000C000C9016AE070E00F942EFEC0968093E0
:10E4E000C6008091C00086FFFCCF8091C000806490
:10E4F0008093C00008951F93182F8EE692EE60E07F
:10E500000F94C2F11093C6008091C00086FFFCCF2B
:10E510008091C00080648093C0000F94DCF11F9153
:10E5200008952F923F924F925F926F927F928F92B7
:10E530009F92AF92BF92CF92DF92EF92FF920F9392
:10E540001F93DF93CF93CDB7DEB762970FB6F894E2
:10E55000DEBF0FBECDBF382E622ECA01DB015C01CB
:10E560006D01772420E2222E2E010894411C511CBB
:10E570008BC081E0A81680E0B80681E0C80680E084
:10E58000D80628F0C601AA27BB270F940DF2BB2797
:10E59000AD2D9C2D8B2D0F940DF28A2D0F940DF225
:10E5A0002092C6008091C00086FFFCCF8091C00001
:10E5B00080648093C0009DE29093C6008091C0006B
:10E5C00086FFFCCF8091C00080648093C0002092C1
:10E5D000C6008091C00086FFFCCF8091C00080649F
:10E5E0008093C00019828601750188249924A1E0D6
:10E5F0003A1651F03A1620F0B2E03B1661F409C029
:10E600000BBFF701779007C0C7010F9477FE782EF4
:10E6100002C0F7017080872D0F940DF22092C60082
:10E620008091C00086FFFCCF8091C0008064809301
:10E63000C000872D8052F401EF70F0708F3520F408
:10E64000E40DF51D708204C0E40DF51D8EE280839B
:10E650000894E11CF11C011D111D0894811C911CE2
:10E6600090E18916910409F0C2CF80E190E0A0E02A
:10E67000B0E0A80EB91ECA1EDB1E198AC2010F9493
:10E68000FAF10F94DCF16A94662009F072CF629679
:10E690000FB6F894DEBF0FBECDBFCF91DF911F91B3
:10E6A0000F91FF90EF90DF90CF90BF90AF909F9031
:10E6B0008F907F906F905F904F903F902F90089534
:10E6C0002F923F924F925F926F927F928F929F9282
:10E6D000AF92BF92CF92DF92EF92FF920F931F9370
:10E6E000DF93CF93CDB7DEB7CD53D1400FB6F894BB
:10E6F000DEBF0FBECDBF01E20EBF0FEF0DBF94B75F
:10E70000F894A89514BE80916000886180936000A1
:10E7100010926000789493FF05C0E0910002F091A0
:10E7200001021995279A2F9A8091C00082608093E8
:10E73000C00080E18093C40088E18093C1000000A4
:10E74000EE24FF24870144E0A42EB12CCC24DD2448
:10E7500024C0C5010197F1F70894E11CF11C011DCB
:10E76000111D21E2E2162EE4F20620E0020720E06D
:10E77000120718F031E0C32ED12CC801B70127ECE5
:10E780003BE140E050E00F9441FE611571058105C9
:10E79000910519F485B1805885B98091C00087FD35
:10E7A00003C0C114D104A9F2A6014F5F5F4FC25E3E
:10E7B000DE4F59834883CE51D140C25EDE4F8881FF
:10E7C0009981CE51D140019711F00D9410FEC05D9A
:10E7D000DE4F19821882C053D14060E0C15DDE4F28
:10E7E0001882CF52D14088249924C35DDE4F19820C
:10E7F0001882CD52D140C05EDE4F188219821A8233
:10E800001B82C052D140CE5CDE4F188219821A8220
:10E810001B82C253D140EE24FF2487010BBFF701B6
:10E8200007911691C45CDE4F19830883CC53D14005
:10E830000D940BFEC25EDE4F28813981CE51D1404E
:10E840002130310509F52091C600C25EDE4F1982E4
:10E850001882CE51D14022C02F5F3F4F4F4F5F4FA4
:10E86000213082E138078AE7480780E0580780F0C6
:10E87000C45CDE4FE881F981CC53D140EF5FFF4F9C
:10E8800019F0EE27FF27099420E030E040E050E047
:10E890008091C00087FFE0CF2091C600C35DDE4FAE
:10E8A00048815981CD52D1404F5F5F4FC35DDE4FEC
:10E8B00059834883CD52D140213209F063C64A3092
:10E8C000510508F05FC60894811C911C53E0851621
:10E8D000910409F059C600E010E018C081E280936D
:10E8E000C6008091C00086FFFCCF8091C00080648C
:10E8F0008093C0002F5F3F4F2931310579F70F9486
:10E90000DCF10F5F1F4F0530110519F020E030E0FA
:10E91000E5CF10920A0210920B0210920C02109294
:10E920000D02109206021092070210920802109235
:10E930000902109202021092030210920402109235
:10E9400005028FEE90EE60E00F94F5F180E191EE1C
:10E9500060E00F94C2F18091C00087FFFCCF9091DE
:10E96000C600903608F09F759032B8F09093C600BC
:10E970008091C00086FFFCCF8091C00080648093AE
:10E98000C000A0E2A093C6008091C00086FFFCCF2B
:10E990008091C00080648093C000983409F4D7C18E
:10E9A0009934B8F4923409F459C1933458F490333B
:10E9B00019F1903308F4E3C59F33A1F1903409F0C5
:10E9C000DEC5BDC0953409F470C1963409F0D7C5D1
:10E9D00098C1923509F42BC2933538F49C3409F46C
:10E9E000F5C1913509F0CBC518C2963509F445C279
:10E9F000993509F0C4C567C483E792EE62E00F94CD
:10EA0000F5F110920602109207021092080210927D
:10EA1000090210920A0210920B0210920C0210923C
:10EA20000D0213C18FE792EE62E00F94F5F18FEEC5
:10EA300090EE60E00F94F5F181E291EE60E00F94CA
:10EA4000C2F187EB91EE60E00F94F5F180E391EE77
:10EA500060E00F94C2F184EE90EE60E00F94F5F167
:10EA60008FE391EE60E00F94C2F186E090E061E008
:10EA700070E00F9434F20F94DCF18DE591EE60E0DC
:10EA80000F94C2F189EC91EE60E00F94F5F18EE401
:10EA900091EE60E00F94C2F183EC91EE60E00F9490
:10EAA000F5F18CE691EE60E00F94C2F18EE10F94E7
:10EAB0000DF288E90F940DF281E00F940DF20F949E
:10EAC000DCF18BE791EE60E00F94C2F119E0E0E039
:10EAD000F0E010935700E4918E2F0F940DF20F94F5
:10EAE000DCF18AE891EE60E00F94C2F1E3E0F0E03F
:10EAF00010935700E4918E2F0F940DF20F94DCF1D8
:10EB000089E991EE60E00F94C2F1E2E0F0E0109349
:10EB10005700E4918E2F0F940DF20F94DCF188EAE8
:10EB200091EE60E00F94C2F1E1E0F0E01093570045
:10EB30001491812F0F940DF20F94DCF107CF8BE825
:10EB400092EE62E00F94F5F18BE492EE60E00F94A8
:10EB5000F5F10F94DCF100E010E019C0C8016F2D51
:10EB60000F947FFEFF2031F489E492EE60E00F9471
:10EB7000C2F10BC0F092C6008091C00086FFFCCFAE
:10EB80008091C00080648093C0000F5F1F4FC80158
:10EB900081519F41A0E0B0E0ABBFFC01F790BAE229
:10EBA000FB1621F0E2E000301E07C1F60F94DCF105
:10EBB0000F94DCF187E592EE60E00F94F5F10F948D
:10EBC000DCF1CC24DD2400E010E01EC0C8010F946D
:10EBD00077FEF82E882331F489E492EE60E00F94FA
:10EBE000C2F10BC08093C6008091C00086FFFCCFAD
:10EBF0008091C00080648093C000FE1419F00894D6
:10EC0000C11CD11C0F5F1F4FC80181519F41A0E063
:10EC1000B0E0ABBFFC01E790FAE2EF1621F022E092
:10EC20000030120799F60F94DCF10F94DCF182E6C4
:10EC300092EE60E00F94C2F1C60161E070E00F94C3
:10EC400034F20F94DCF10F94DCF110920202109276
:10EC50000302109204021092050278CE89E992EE26
:10EC600062E00F94F5F1279A2F9A16C02F9880E052
:10EC700090E0E0EDF7E03197F1F7019684369105E9
:10EC8000C1F72F9A80E090E0E0EDF7E03197F1F7DF
:10EC9000019684369105C1F78091C00087FFE6CFC9
:10ECA0008091C00087FFFCCF64C485EA92EE62E0E9
:10ECB0000F94F5F140910202509103026091040219
:10ECC0007091050281E020E10F9491F2809102029F
:10ECD00090910302A0910402B091050280509F4FD1
:10ECE000AF4FBF4F8093020290930302A0930402A0
:10ECF000B093050280509041A040B04008F426CE69
:10ED0000A4CF83EB92EE62E00F94F5F140910602FE
:10ED100050910702609108027091090280E020E1A1
:10ED20000F9491F28091060290910702A09108023F
:10ED3000B091090280509F4FAF4FBF4F80930602A2
:10ED400090930702A0930802B0930902FFCD80ECD4
:10ED500092EE62E00F94F5F183E792EE60E00F949B
:10ED6000F5F18FE792EE60E00F94F5F18BE892EE0B
:10ED700060E00F94F5F189E992EE60E00F94F5F10F
:10ED800085EA92EE60E00F94F5F183EB92EE60E09D
:10ED90000F94F5F180EC92EE60E00F94F5F187ECC2
:10EDA00092EE60E00F94F5F188ED92EE60E00F9442
:10EDB000F5F18FED92EE60E00F94F5F18AEE92EEB0
:10EDC00060E00F94F5F183E093EEBDCD87EC92EE19
:10EDD00062E00F94F5F181E40F947BF282E40F94EA
:10EDE0007BF283E40F947BF284E40F947BF285E45E
:10EDF0000F947BF286E40F947BF287E40F947BF20E
:10EE000088E40F947BF28AE40F947BF28BE40F94F6
:10EE10007BF28CE40F947BF299CD88ED92EE62E068
:10EE20000F94F5F1772473948824992409C48FED05
:10EE300092EE62E00F94F5F140910A0250910B02BC
:10EE400060910C0270910D0282E020E10F9491F22A
:10EE500080910A0290910B02A0910C02B0910D02D8
:10EE600080509F4FAF4FBF4F80930A0290930B0289
:10EE7000A0930C02B0930D0269CD8AEE92EE62E08F
:10EE80000F94F5F184EE90EE60E00F94F5F18FECC5
:10EE900091EE60E00F94F5F1662477244301CC5D98
:10EEA000DE4F19821882C452D140D401C301B695F5
:10EEB000A79597958795CA5DDE4F88839983AA8326
:10EEC000BB83C652D140CC5DDE4FA881B981C4520C
:10EED000D1401196CC5DDE4FB983A883C452D14096
:10EEE000CD0162E070E00F9434F2B0E2B093C6005E
:10EEF0008091C00086FFFCCF8091C0008064809329
:10EF0000C000EDE2E093C6008091C00086FFFCCF18
:10EF10008091C00080648093C000F0E2F093C6004E
:10EF20008091C00086FFFCCF8091C00080648093F8
:10EF3000C000CA5DDE4FE880F9800A811B81C6529D
:10EF4000D140BB27A12F902F8F2D0F940DF2CA5DBA
:10EF5000DE4F8881C652D1400F940DF2B0E2FB2EF5
:10EF6000F092C6008091C00086FFFCCF8091C00067
:10EF700080648093C0000DE30093C6008091C000C0
:10EF800086FFFCCF8091C00080648093C00010E2B7
:10EF90001093C6008091C00086FFFCCF8091C00016
:10EFA00080648093C0008BBEF3012791C65DDE4F65
:10EFB0002883CA52D140A22EBB24CC24DD2408943D
:10EFC000611C711C811C911C8BBEF3018791282E42
:10EFD0003324442455240894611C711C811C911C09
:10EFE0008BBEF3013791C55DDE4F3883CB52D140E4
:10EFF0000894611C711C811C911C8BBEF30147910C
:10F00000C45DDE4F4883CC52D140ADEFEA2EAFEF66
:10F01000FA2EAFEF0A2FAFEF1A2F6E0C7F1C801E57
:10F02000911E142D032DF22CEE24EA0CFB1C0C1D5A
:10F030001D1D0F940DF220E22093C6008091C000A8
:10F0400086FFFCCF8091C00080648093C000C65DC5
:10F05000DE4F8881CA52D1400F940DF230E23093D6
:10F06000C6008091C00086FFFCCF8091C000806404
:10F070008093C000C45DDE4F8881CC52D1400F9494
:10F080000DF240E24093C6008091C00086FFFCCFA5
:10F090008091C00080648093C000C55DDE4F888190
:10F0A000CB52D1400F940DF250E25093C6008091A4
:10F0B000C00086FFFCCF8091C00080648093C000B8
:10F0C0008FEFE8168FEFF80680E0080780E018075A
:10F0D00031F484E092EE60E00F94C2F1DFC0D80119
:10F0E000C7018070907CA070B0708050904CA040A0
:10F0F000B040D1F52FEF3FE340E050E0E222F322B1
:10F1000004231523CA5DDE4FA880B980CA80DB8046
:10F11000C652D140AE0CBF1CC01ED11EAA0CBB1CD7
:10F12000CC1CDD1C8EE092EE60E00F94C2F1BB2798
:10F13000A12F902F8F2D0F940DF28E2D0F940DF285
:10F1400030E23093C6008091C00086FFFCCF8091F2
:10F15000C00080648093C0004EE34093C60080915D
:10F16000C00086FFFCCF87C08EE09EEFA0E0B0E03D
:10F17000E822F9220A231B239CE0E91694E9F90608
:10F1800090E0090790E0190709F088C0C45DDE4FE0
:10F19000A881CC52D140EA2EFF2400E010E0102FCD
:10F1A0000F2DFE2CEE24C55DDE4FB881CB52D14031
:10F1B000EB0EF11C011D111DD601C501817090706F
:10F1C000A070B070DC0199278827E80EF91E0A1F8D
:10F1D0001B1F20EF30E040E050E0A222B322C42207
:10F1E000D52241E1AA0CBB1CCC1CDD1C4A95D1F7F1
:10F1F000EA0CFB1C0C1D1D1D81E090E0A0E0B0E0BE
:10F20000282239224A225B2235E1220C331C441C7D
:10F21000551C3A95D1F7E20CF31C041D151D57013E
:10F220006801AA0CBB1CCC1CDD1C85E192EE60E0E1
:10F230000F94C2F1C801AA27BB270F940DF2BB2778
:10F24000A12F902F8F2D0F940DF28E2D0F940DF274
:10F2500090E29093C6008091C00086FFFCCF809121
:10F26000C00080648093C000AEE3A093C60080918C
:10F27000C00086FFFCCF8091C00080648093C000F6
:10F28000C601AA27BB270F940DF2BB27AD2D9C2DDD
:10F290008B2D0F940DF28A2D0F940DF20F94DCF14B
:10F2A000CC5DDE4FE881F981C452D140F99709F471
:10F2B0004DCBF4E0EF2EF12C012D112D6E0C7F1CA7
:10F2C000801E911EF2CD83E093EE62E00F94F5F183
:10F2D0008AE192EE60E00F94C2F18091C00087FF56
:10F2E000FCCF1091C6001F751093C6008091C0001E
:10F2F00086FFFCCF8091C00080648093C0000F9493
:10F30000DCF1812F81548A3108F036C1163409F4BA
:10F3100095C0173490F4133409F44EC0143430F40B
:10F320001134F1F0123409F01DC130C0143409F465
:10F3300059C0153409F016C16BC01A3409F4C4C0A1
:10F340001B3438F4173409F48FC0183409F00AC19B
:10F35000A1C01B3409F4D2C01C3409F003C1E8C0B9
:10F360008FEF81B90DC082B1809582B980E090E0C5
:10F37000E0EDF7E03197F1F70196883C9105C1F790
:10F380008091C00087FFEFCF12B8EFC08FEF84B934
:10F390000DC085B1809585B980E090E0E0EDF7E0A3
:10F3A0003197F1F70196883C9105C1F78091C00033
:10F3B00087FFEFCF15B8D9C08FEF87B90DC088B1DF
:10F3C000809588B980E090E0E0EDF7E03197F1F7C3
:10F3D0000196883C9105C1F78091C00087FFEFCF6F
:10F3E00018B8C3C08FEF8AB90DC08BB180958BB9A7
:10F3F00080E090E0E0EDF7E03197F1F70196883C8E
:10F400009105C1F78091C00087FFEFCF1BB8ADC059
:10F410008FEF8DB90DC08EB180958EB980E090E0F0
:10F42000E0EDF7E03197F1F70196883C9105C1F7DF
:10F430008091C00087FFEFCF1EB897C08FEF80BBD1
:10F440000DC081B3809581BB80E090E0E0EDF7E0F6
:10F450003197F1F70196883C9105C1F78091C00082
:10F4600087FFEFCF11BA81C08FEF83BB0DC084B38C
:10F47000809584BB80E090E0E0EDF7E03197F1F714
:10F480000196883C9105C1F78091C00087FFEFCFBE
:10F4900014BA6BC08FEF809301010FC080910201FD
:10F4A00080958093020180E090E0E0EDF7E03197F5
:10F4B000F1F70196883C9105C1F78091C00087FF64
:10F4C000EDCF1092020151C08FEF809304010FC065
:10F4D0008091050180958093050180E090E0E0ED4A
:10F4E000F7E03197F1F70196883C9105C1F78091DB
:10F4F000C00087FFEDCF1092050137C08FEF8093DA
:10F5000007010FC08091080180958093080180E079
:10F5100090E0E0EDF7E03197F1F70196883C910536
:10F52000C1F78091C00087FFEDCF109208011DC088
:10F530008FEF80930A010FC080910B01809580931B
:10F540000B0180E090E0E0EDF7E03197F1F70196F4
:10F55000883C9105C1F78091C00087FFEDCF1092E4
:10F560000B0103C085E292EEEEC98091C00087FFD7
:10F57000FCCF8091C600EAC988E392EEE4C98CE131
:10F5800091EEE1C988249924933011F1943028F444
:10F59000913089F09230B8F408C0953061F195301F
:10F5A000F0F0963009F048C043C02B3109F042C951
:10F5B00091E06BE13FC96227C15DDE4F2883CF52E6
:10F5C000D14092E037C9B22FA0E0622793E032C960
:10F5D000822F90E0A82BB92B622794E02BC92E3004
:10F5E00009F039C3622795E0C05DDE4F19821882A9
:10F5F000C053D1401FC9E1E0F0E0EC0FFD1FC05D3A
:10F60000DE4F08811981C053D140E00FF11F2083E4
:10F610000F5F1F4FC05DDE4F19830883C053D14079
:10F6200062270A171B0709F005C9D80196E002C92D
:10F63000261709F010C303C0973009F0FBC87724E0
:10F640009981933109F412C19431C8F4963009F4C8
:10F65000D8C0973050F4923009F406C1933009F4C1
:10F660006DC0913009F059C253C0913109F477C08F
:10F67000923108F0BBC0903109F04FC2F5C098310B
:10F6800009F487C0993150F4953109F4EFC09531F0
:10F6900008F4C6C1963109F040C2C2C19A3109F4DA
:10F6A0006CC09A3108F491C09B3109F45BC09D3164
:10F6B00009F033C29D81903359F48F81882311F46E
:10F6C0009EE11CC0813011F091E018C098E916C08D
:10F6D000892F807591F0903539F4E0E0F0E089E011
:10F6E0008093570094910AC0983539F4E3E0F0E034
:10F6F00089E080935700949101C090E01A821B82A8
:10F700008D818C831D829E831F8227E030E009C299
:10F710001A8288E08B8381E48C8386E58D8382E581
:10F720008E8389E48F8383E5888780E589878FE5E9
:10F730008A8782E38B872BE030E0F3C18A818139AD
:10F7400041F0823941F0803911F48FE005C080E04A
:10F7500003C082E001C08AE01A828B8344C0772410
:10F76000739482C08D81882311F48EE12CC0813086
:10F7700011F081E028C088E926C01A82E1E0F0E0BB
:10F7800089E08093570084918B831C8224E030E0D1
:10F79000C8C18B81803589F48C81883039F4E2E0EE
:10F7A000F0E089E08093570084910DC0E0E0F0E044
:10F7B00089E080935700849106C0E3E0F0E089E09F
:10F7C0008093570084911A82DFCF8D81836C99E0FA
:10F7D000E1E0F0E0082E90935700E89507B600FCB2
:10F7E000FDCF1A821B8223E030E09BC180EC8A832C
:10F7F000CE5CDE4F188219821A821B82C253D1401E
:10F800008EC18A8190E0A0E0B0E0582F44273327D2
:10F8100022278B8190E0A0E0B0E0DC0199278827C7
:10F82000282B392B4A2B5B2B8D8190E0A0E0B0E098
:10F83000282B392B4A2B5B2B8C8190E0A0E0B0E089
:10F84000BA2FA92F982F8827282B392B4A2B5B2BCF
:10F85000220F331F441F551FC05EDE4F288339839C
:10F860004A835B83C052D1401A8259C13A81C95C34
:10F87000DE4F3883C753D140CA5CDE4F1882C6536F
:10F88000D1408B81C82EDD24CA5CDE4F488159816E
:10F89000C653D140C42AD52A933109F082C0CE5C28
:10F8A000DE4F88819981AA81BB81C253D1408050AB
:10F8B000904CA340B04030F583E0CE5CDE4FE88052
:10F8C000F9800A811B81C253D140F70100935B008C
:10F8D00080935700E89507B600FCFDCFCE5CDE4F65
