:100000000C947B010C94AC010C94AC010C94AC01ED
:100010000C94AC010C94AC010C94AC010C94AC01AC
:100020000C94AC010C94AC010C94AC010C94AC019C
:100030000C94AC010C94AC010C94AC010C94AC018C
:100040000C94AC010C94AC010C94AC010C94AC017C
:100050000C94AC010C94AC010C94AC010C94970F73
:100060000C94AC010C94B3100C9489100C94AC015A
:100070000C94AC010C94AC010C94AC010C94AC014C
:100080000C94AC010C94AC010C94AC010C94AC013C
:100090000C94AC010C94AC010C94AC010C94AC012C
:1000A0000C94AC010C94AC010C94AC010C94AC011C
:1000B0000C94AC010C94AC010C94AC010C94AC010C
:1000C0000C94AC010C94AC010C94AC010C945F103A
:1000D0000C9435100C94AC010C940B100C94E10FA3
:1000E0000C94AC010C94FD010C94FA160C9472095A
:1000F0000C947C050C9438040C94A9090C9474039A
:100100000C9468050C9426020C9498090C947205C2
:100110000C9434020C94F3010C9485040C940802A2
:100120000C9421090C9430180C9430090C942A0971
:100130000C9438020C9483030C94DE030C94790520
:100140000C9412150C9439090C94F9010C941C02AE
:100150000C946D050C948F160C94CF040C94E11440
:100160000C9470050C9412020C9424090C94A709A9
:100170000C9408190C942E030C9418020C942E0263
:100180000C9461190C9405020C94B0070C94280986
:100190000C9426090C9445140C94A6180C94C713BF
:1001A0000C9476050C9401020C9420020C942A0203
:1001B0000C94EC030C940E020C9433020C947F0507
:1001C0000C942C090C94CE040C942E090C948205EA
:1001D0000C94DD1000002100240027002A002D00CF
:1001E0003000330001010000040107010A01000092
:1001F0002200250028002B002E00310034000201CF
:100200000000050108010B0100002000230026006A
:1002100029002C002F00320000010000030106011C
:10022000090105050505070508080808020202027C
:100230000A0A080804040404010101010101010182
:100240000303030303030303040707070C0C0C0C4D
:100250000C0C0C0C02020202060606060606060636
:100260000B0B0B0B0B0B0B0B0102102020080810C3
:100270002040102040800201020108040201010216
:1002800004081020408080402010080402018004EF
:10029000020180402010080402010804020101024A
:1002A0000408102040800102040810204080000053
:1002B0000A0B02090C0D0E080703040100000000E0
:1002C000000000000000000000000000000000002E
:1002D00000000000000000000000121110000000EB
:1002E000000000000000000000000000000000000E
:1002F00000000000DD1011241FBECFEFD1E2DEBFF1
:10030000CDBF00E00CBF28E0AAE3B6E001C01D921B
:10031000A83BB207E1F716E0A0E0B2E0E4E4F9E3BD
:1003200000E00BBF02C007900D92AA33B107D9F7C6
:1003300011E0CBE7D1E000E006C021970109802F52
:10034000FE010E944D1BCA37D10780E00807A9F7BC
:100350000E9435120C94A01C0C940000FC01A08992
:10036000B18982E08C93A485B5851C92A685B7855A
:100370008FEC8C93108EA489B58986E08C93A2892A
:10038000B3898C9180618C93A289B3898C918860A8
:100390008C93A289B3898C9180688C930288F389AD
:1003A000E02D80818F7D808308958150823108F017
:1003B0005AC0E82FF0E08827EF51FE4F8F4F0C9482
:1003C0004D1B01020502F301F901FD013302080290
:1003D0000E02120218021C02200226022A02330216
:1003E0002E0234023802809180008F778093800043
:1003F0000895809180008F7DF9CF80918000877F64
:10040000F5CF84B58F7784BD089584B58F7DFBCFFC
:100410008091B0008F778093B00008958091B000F4
:100420008F7DF9CF809190008F7780939000089511
:10043000809190008F7DF9CF80919000877FF5CFDC
:100440008091A0008F778093A00008958091A000F4
:100450008F7DF9CF8091A000877FF5CF809120011B
:100460008F77809320010895809120018F7DF9CFAF
:1004700080912001877FF5CFCF93DF93282F30E045
:10048000F901E255FD4F8491F901E859FD4FD491EE
:10049000F901EE5DFD4FC491CC23A1F081110E94C2
:1004A000D501EC2FF0E0EE0FFF1FE85FFD4FA591A7
:1004B000B491EC91ED2381E090E009F480E0DF91CC
:1004C000CF91089580E090E0FACF1F93CF93DF9310
:1004D000282F30E0F901E255FD4F8491F901E859E8
:1004E000FD4FD491F901EE5DFD4FC491CC23A9F0ED
:1004F000162F81110E94D501EC2FF0E0EE0FFF1FA7
:10050000E251FE4FA591B4918FB7F894EC9111117F
:1005100008C0D095DE23DC938FBFDF91CF911F9170
:100520000895DE2BF8CFCF93DF9390E0FC01E859DC
:10053000FD4F24918E5D9D4FFC0184918823D1F065
:1005400090E0880F991FFC01EC52FE4FA591B491E9
:10055000FC01E251FE4FC591D49161110EC09FB7CD
:10056000F8948C91E22FE0958E238C932881E223DE
:10057000E8839FBFDF91CF9108958FB7F894EC91F6
:10058000E22BEC938FBFF6CF3FB7F89480915C06D7
:1005900090915D06A0915E06B0915F0626B5A89B7E
:1005A00005C02F3F19F00196A11DB11D3FBFBA2F05
:1005B000A92F982F8827BC01CD01620F711D811DC5
:1005C000911D42E0660F771F881F991F4A95D1F74A
:1005D00008958F929F92AF92BF92CF92DF92EF9247
:1005E000FF924B015C010E94C4026B017C010E94DE
:1005F000C4026C197D098E099F09683E734081050C
:100600009105A8F321E0821A9108A108B10888EEAB
:10061000C80E83E0D81EE11CF11C81149104A104D2
:10062000B10429F7FF90EF90DF90CF90BF90AF908B
:100630009F908F9008952FB7F8946091580670910D
:10064000590680915A0690915B062FBF0895DC01F0
:10065000ED91FC910190F081E02D1994AF92BF9241
:10066000CF92DF92EF92FF920F931F93CF93DF937E
:100670006C017B018B01040F151FEB015E01AE18AD
:10068000BF08C017D10759F06991D601ED91FC91CF
:100690000190F081E02DC6011995892B79F7C501EC
:1006A000DF91CF911F910F91FF90EF90DF90CF904E
:1006B000BF90AF900895FC01A089B1898C91A68963
:1006C000B78982FD0FC09C91818D8F5F8F73228DC2
:1006D000821749F0A18DAE0FBF2FB11D5D969C937F
:1006E000818F08958C910895FC01538D448D252FA1
:1006F00030E0842F90E0821B930B541710F0CF96BC
:10070000089501970895FC01918D828D981761F0ED
:10071000A28DAE0FBF2FB11D5D968C91928D9F5F04
:100720009F73928F90E008958FEF9FEF08958F92BF
:100730009F92AF92BF92CF92DF92EF92FF920F9370
:100740001F93CF93DF937C016A018B01D0E0C0E05F
:100750000E941B03F7016087718782879387C70117
:100760000E94830397FF22C00E941B03F70180842D
:100770009184A284B384681979098A099B098480C9
:100780009580A680B780681579058A059B0538F3A2
:10079000CE01DF91CF911F910F91FF90EF90DF90ED
:1007A000CF90BF90AF909F908F900895F801819364
:1007B0008F012196CC16DD0659F6EACFFC01918D0A
:1007C000828D981731F0828DE80FF11D858D90E0B4
:1007D00008958FEF9FEF0895FC01918D228D892F51
:1007E00090E0805C9F4F821B91098F739927089539
:1007F0008DE696E00E94EC0321E0892B09F420E0CD
:10080000822F08958AE097E00E94EC0321E0892B73
:1008100009F420E0822F089587EA97E00E94EC0314
:1008200021E0892B09F420E0822F0895FC01A48D9A
:10083000A80FB92FB11DA35ABF4F2C91848D90E002
:1008400001968F739927848FA689B7892C93A089E5
:10085000B1898C91837080648C93938D848D98136F
:1008600006C00288F389E02D80818F7D8083089502
:10087000EF92FF920F931F93CF93DF93EC0181E0F0
:10088000888F9B8D8C8D98131AC0E889F989808197
:1008900085FF15C09FB7F894EE89FF896083E889CA
:1008A000F98980818370806480839FBF81E090E0BC
:1008B000DF91CF911F910F91FF90EF900895F62E49
:1008C0000B8D10E00F5F1F4F0F731127E02E8C8DE3
:1008D0008E110CC00FB607FCFACFE889F989808128
:1008E00085FFF5CFCE010E941604F1CFEB8DEC0F02
:1008F000FD2FF11DE35AFF4FF0829FB7F8940B8F45
:10090000EA89FB8980818062CFCFCF93DF93EC01AE
:10091000888D8823B9F0AA89BB89E889F9898C91E7
:1009200085FD03C0808186FD0DC00FB607FCF7CFA3
:100930008C9185FFF2CF808185FFEDCFCE010E94A3
:100940001604E9CFDF91CF91089580E090E0892BE4
:1009500029F00E940C0481110E94000080E090E0C8
:10096000892B49F080E090E0892B29F00E9400005B
:1009700081110E94000080E090E0892B29F00E9404
:10098000020481110E94000080E090E0892B29F090
:100990000E94F80381110C9400000895089590E0DE
:1009A00080E00895CF92DF92EF92FF92CF93DF9392
:1009B0000E941B03EB010E941B030E941B036B019F
:1009C00087EA97E00E94EC03892B29F087EA97E0F9
:1009D0000E948303F5CFCC1ADD0A88EEC81683E0A7
:1009E000D8065CF387EA97E00E94EC03892B29F78D
:1009F000DF91CF91FF90EF90DF90CF90089582E04C
:100A00000E943C02892B41F062ED70E080E090E0B2
:100A10000E94E90281E0089583E00E943C02892B54
:100A200071F362ED70E080E090E00E94E90280E006
:100A30000895FF920F931F93CF93DF93C8E0D0E008
:100A4000FC2E61E08C2F0E94650204E010E0802FF4
:100A50000E943C020197B1F460E08F2D0E94650274
:100A600004501109C801880F991F080F191FC00FE2
:100A7000D11FCE50DD4F8881DF91CF911F910F9113
:100A8000FF9008950F5F1F4F0830110501F760E0D8
:100A90008F2D0E9465022196CB30D10589F680E228
:100AA000EBCFCF93DF93EB01DA01893098F4E82F95
:100AB000F0E08827E15AFA4F8F4F0C944D1B6805E0
:100AC0006D0570057205760579057C057F05820543
:100AD00018821C92DF91CF91089583E08883F9CF2B
:100AE00086E0FCCF188283E08C93F4CF83E0888388
:100AF000FBCF86E08883F7CF188286E0F5CF83E0CE
:100B00008883FBCF86E0F3CFCF92DF92EF92FF9204
:100B10000F931F93CF93DF931F921F92CDB7DEB732
:100B200069834A83880F991F00919A0810919B0846
:100B3000000F111FE4E4F8E09F012454384020170F
:100B4000310714F41192F8CF2981FC01EC5BF74FC7
:100B500021838A81808360E0809198080E946502E9
:100B60001016110604F501501109F801EC5BF74F5E
:100B7000E080D0909608C090940888E0F82E6E2D02
:100B8000661F6627661F8C2D0E946502EE0C61E0D1
:100B90008D2D0E94650260E08D2D0E946502FA9401
:100BA000F110EDCFDDCF61E0809198080F900F90AC
:100BB000DF91CF911F910F91FF90EF90DF90CF9039
:100BC0000C946502EF92FF920F931F93CF937C01D9
:100BD0008C0183E0000F111F8A95E1F70C5A174F23
:100BE000C1E0F80111928F0140E06C2FC7010E9413
:100BF0008405CF5FC930A9F7CF911F910F91FF9066
:100C0000EF900895AF92BF92CF92DF92EF92FF9252
:100C10000F931F93CF93DF93C4E4D8E080E0C82EF6
:100C200082E0D82EB12C90E8E92EF12C10E000E003
:100C3000AA24A394AB0C80919A0890919B08181653
:100C40001906E4F488E0B816C9F008301105B1F0CF
:100C5000C701002E02C0959587950A94E2F728896E
:100C6000F601E00FF11F3081332301F1822B888BD5
:100C700048896A2D90E080E00E9484050F5F1F4F35
:100C800009301105C1F6B394219688E0C80ED11C35
:100C900089E0B812CBCFDF91CF911F910F91FF90D8
:100CA000EF90DF90CF90BF90AF9008958095822312
:100CB000DECFCF93DF93EC0160E08E810E9465026E
:100CC00061E08E810E94650260E08E810E94650273
:100CD0008BE891E00197F1F7DF91CF910895CF92E2
:100CE000DF92EF92FF920F931F93CF93DF936C01EC
:100CF0007C0187E0E80EF11CD0E0C0E0062F10E098
:100D0000B8010C2E02C0759567950A94E2F76170E0
:100D1000F70181917F010E9465022196C430D105BF
:100D200079F7C601DF91CF911F910F91FF90EF905E
:100D3000DF90CF900C945906CF92DF92EF92FF9202
:100D40000F931F93CF93DF93EC01F62E642F8C81CA
:100D50000E9465028D818F3F19F060E00E9465025C
:100D60000F2D10E08F8584FF25C06E0187E0C80E2F
:100D7000D11CF12CE12CB8010E2C02C075956795A1
:100D80000A94E2F76170F60181916F010E94650299
:100D9000FFEFEF1AFF0A88E0E816F10461F7CE01D1
:100DA000DF91CF911F910F91FF90EF90DF90CF9047
:100DB0000C945906B80184E0759567958A95E1F71A
:100DC000CE010E946F066F2DCE01DF91CF911F9152
:100DD0000F91FF90EF90DF90CF900C946F0640E062
:100DE000682F8CE998E00C949C0681E00E94EF0645
:100DF0008BE39FE10197F1F70895CF93DF93813063
:100E000029F09091AB0898609093AB088093AF085D
:100E10001092B00880E48093B10880E18093B2081A
:100E200080E58093B30861E08091A0080E9493025E
:100E30008091A1088F3F19F061E00E94930261E068
:100E40008091A2080E949302CCE9D8E09E012C591F
:100E500038408091AB0884FD0BC084E090E021967F
:100E60002817390744F461E08E810E949302EECF87
:100E700088E090E0F4CF8BE39DE00197F1F760E02C
:100E80008091A0080E94650260E08091A2080E9403
:100E900065028091A1088F3F19F060E00E94650211
:100EA0008091AB0884FD34C063E08CE998E00E9437
:100EB0006F06CBE4D6E4CE010197F1F763E08CE94D
:100EC00098E00E946F062197F1F763E08CE998E0C3
:100ED0000E946F0683E592E00197F1F762E08CE9EA
:100EE00098E00E946F068091AB0880620E94EF0636
:100EF00084E08093AC088CE00E94EF060E94F50627
:100F000082E08093AD0886E0DF91CF910C94EF06EC
:100F100080620E94EF068BE496E40197F1F78091DE
:100F2000AB0880620E94EF0683E592E00197F1F73B
:100F30008091AB0880620E94EF06D5CF643008F044
:100F400063E09091AF08691710F06FEF690FE62F1B
:100F5000F0E0E456F74F9489890F80680C94EF060F
:100F600041E00E949C0681E090E00895CF93DF93DA
:100F7000EC018FEB99E00E94151B8883CE01DF9175
:100F8000CF910895CF92DF92EF92FF920F931F932C
:100F9000CF93DF93EB017B0123E2E20EF11C8B0187
:100FA0006C01C61AD70AC601800F911F0E94151B3B
:100FB000F80181938F01EE15FF05A9F7CE01DF91AE
:100FC000CF911F910F91FF90EF90DF90CF900895F8
:100FD000FB0101900020E9F73197AF01461B570B49
:100FE000DC01ED91FC910280F381E02D19948F9248
:100FF0009F92AF92BF92EF92FF920F931F93CF9366
:10100000DF93CDB7DEB7A1970FB6F894DEBF0FBE62
:10101000CDBF7C01FA01CB0119A2223008F42AE0ED
:101020008E010F5D1F4F822E912CB12CA12CBF0180
:10103000A50194010E942B1BF901CA016A300CF52D
:10104000605DD8016E938D01232B242B252B79F71E
:1010500090E080E0109721F0BD01C7010E94E807F1
:10106000A1960FB6F894DEBF0FBECDBFDF91CF9132
:101070001F910F91FF90EF90BF90AF909F908F9036
:101080000895695CDECF0F931F93CF93DF93EC013C
:10109000462F50E070E060E02AE00E94F7078C01E4
:1010A00064E273E0CE010E94E807800F911FDF9198
:1010B000CF911F910F9108950F931F93CF93DF93BB
:1010C000EC010E94E8078C0164E273E0CE010E940B
:1010D000E807800F911FDF91CF911F910F91089525
:1010E0001F93CF93DF9300D0CDB7DEB7BC0187EA63
:1010F00097E00E945C0810E087EA97E00E94EC030A
:10110000892B59F042E050E0BE016F5F7F4F87EAC4
:1011100097E00E94970311E0EFCF112369F387EA6C
:1011200097E00E94EC03892B39F70F900F900F90F6
:10113000DF91CF911F9108950E94F50660E080E055
:101140000E949E0767E273E08CE998E00E945C08C9
:1011500061E080E00E949E0767E373E08CE998E01D
:101160000E945C0862E080E00E949E0768E473E0F1
:101170008CE998E00E945C0863E080E00E949E0792
:1011800068E573E08CE998E00E945C0864EF71E028
:1011900080E090E00E94E9020E94F50660E080E0B5
:1011A0000E949E0767E673E08CE998E00E945C0865
:1011B00064EF71E080E090E00C94E902CF92DF925E
:1011C000EF92FF920F931F93CF93DF937C01C62E74
:1011D00080E00E949E0700E0C0E085E0D82E6C2DE4
:1011E00080E00E949E070E941905182F64E670E0B7
:1011F00080E090E00E94E902EDEDE10FE73108F0B8
:1012000038C00E2E000CFF0B8827E65FF64F8F4F7D
:101210000C944D1B72093909390939093909390901
:101220003909980939093909390939093909300958
:101230002109A909A7092409260928092A092C092D
:101240002E09D0E0C0E05DC0D3E0FCCFD4E0FACFFF
:10125000D5E0F8CFD6E0F6CFD7E0F4CFD8E0F2CFA4
:10126000F701E00FF11D8081882309F4B8CF0F5FEB
:10127000B6CF82E00E943C020197B1F468EA74E0C4
:1012800087EA97E00E945C0864E670E080E090E006
:101290000E94E90281E0DF91CF911F910F91FF90B1
:1012A000EF90DF90CF90089583E00E943C02019779
:1012B00009F095CF67E773E087EA97E00E945C0842
:1012C00080E0F701E80FF11D9081992319F0108259
:1012D0008F5FF7CF64E670E080E090E00E94E90263
:1012E00080E0D9CFC43009F4ADCFDD9EF0011124E8
:1012F000E353FD4FEC0FF11D8181CF5F882309F48B
:10130000A1CFDD9EF0011124E353FD4FEC0FF11D41
:101310008081F701E00FF11D8083B7018CE998E02F
:101320000E945C08B70187EA97E00E945C0857CFEB
:10133000CC2311F0C150E5CFDD9EF0011124E35321
:10134000FD4F8481C4E08111DCCFC3E0DACFD2E06D
:1013500079CFD1E077CF6115710511F00C94E807D2
:1013600090E080E00895CF93DF9300D01F92CDB737
:10137000DEB792E49B83805D8C83BE016D5F7F4FFF
:101380008DE696E00E94AB0941E050E0BE016F5F40
:101390007F4F8DE696E00E94970381E0998191331B
:1013A00009F080E00F900F900F900F90DF91CF9198
:1013B00008957F928F929F92AF92BF92CF92DF92C9
:1013C000EF92FF920F931F93CF93DF9300D0CDB78F
:1013D000DEB78C016B010E94D2040E94F50660E822
:1013E00073E08CE998E00E94AB0961E080E00E9424
:1013F0009E0761E973E08CE998E00E94AB0987EAF7
:1014000097E00E94EC03892BD1F342E050E0BE014B
:101410006F5F7F4F87EA97E00E9497030E941B034C
:101420004B015C010E941B030E94D204C6010E9472
:1014300070080E94F50660E080E00E949E07B601F9
:101440008CE998E00E945C08F12CE12C712C87EA71
:1014500097E00E94EC03892B71F087EA97E00E94E5
:101460008303F801EE0DFF1D8083C70101967C0107
:1014700077247394ECCF772091F10E941B036819B5
:1014800079098A099B09643F714081059105FCF245
:1014900061E080E00E949E07B8018CE998E00E941C
:1014A0005C0862E080E00E949E0762EA73E08CE9DB
:1014B00098E00E94AB0964EF71E080E090E00E9448
:1014C000E9020E94FF04811111C0F801E80FF11D2B
:1014D0009081992309F4A2CF10828F5FF6CF0E94EA
:1014E0001B034B015C010E941B03B1CF81E00F90F5
:1014F0000F900F90DF91CF911F910F91FF90EF9080
:10150000DF90CF90BF90AF909F908F907F90089585
:10151000FF920F931F93CF93DF938C01FC010190F7
:101520000020E9F73197FE2EF81A8DE090E00E9436
:10153000551BEC014CE050E0B8010E94911CBE012B
:10154000DE012C2F98E78A2F8C1B8F1568F099E706
:10155000862F821B8F1580F4FB018191BF01DF0173
:10156000119789278C93F4CF8D91AD01415051098A
:101570008927FA018083E7CFCE01DF91CF911F91B8
:101580000F91FF900895CF92DF92EF92FF920F9309
:101590001F93CF93DF93CDB7DEB7A3970FB6F89421
:1015A000DEBF0FBECDBF8C0180E696E00E94880AA8
:1015B0006C01C8010E94880A7C010FE710E0BE019F
:1015C0006F5F7F4FC8010E94C207B601CE0101962E
:1015D0000E947A1C892BE9F4B701CE010E960E9475
:1015E0007A1C892BB1F4C6010E94F11BC7010E942D
:1015F000F11B81E0A3960FB6F894DEBF0FBECDBFFE
:10160000DF91CF911F910F91FF90EF90DF90CF90DE
:1016100008950D5D1F4F0B3C89E0180781F6C60148
:101620000E94F11BC7010E94F11B80E0E3CF0F93E2
:101630001F93CF93DF93CDB7DEB760970FB6F894C3
:10164000DEBF0FBECDBF0E94F50660E080E00E94C5
:101650009E0762EB73E08CE998E00E945C0861E011
:1016600080E00E949E0761EC73E08CE998E00E94A4
:101670005C0862E080E00E949E076EEC73E08CE9FB
:1016800098E00E945C080E941905182F64E670E03B
:1016900080E090E00E94E9021A3209F048C081E03F
:1016A00090E090933B0680933A060E94F5068E01E7
:1016B0000F5F1F4F80E1F80111928A95E9F70E94B0
:1016C000F50660E080E00E949E0780913A069091C6
:1016D0003B060197A1F56EED73E08CE998E00E945E
:1016E0005C0861E0C8010E94DE0820913A06309152
:1016F0003B06232B29F46EEE73E0C8010E94D90942
:101700008823E9F2B80187EA97E00E945C080E940A
:10171000F506C8010E94C30A811137C0F801E80F1D
:10172000F11D9081992369F010828F5FF7CF1332FA
:1017300009F0A9CF10923B0610923A06B6CF80E08E
:10174000D4CF0E94F50660E080E00E949E07809161
:101750003A0690913B06019709F043C068ED73E0AB
:101760008CE998E00E945C0861E0C8010E94DE08F4
:1017700020913A0630913B06232B29F468EE73E062
:10178000C8010E94D9098823E1F2C8010E94C30A56
:10179000082F81111AC010925606109255061AE0B1
:1017A0000E94F50660E080E00E949E07612F8CE9B0
:1017B00098E00E94430868EE73E080E090E00E94A9
:1017C000E902115069F70E949C08802F60960FB6BD
:1017D000F894DEBF0FBECDBFDF91CF911F910F9167
:1017E000089580E0C5CFEF92FF920F931F93CF93A0
:1017F000DF93CDB7DEB7A3970FB6F894DEBF0FBE69
:10180000CDBF0E94880A7C010FE710E0BE016F5F28
:101810007F4FC8010E94C207B701CE0101960E9406
:101820007A1C892B89F4C7010E94F11B81E0A396E1
:101830000FB6F894DEBF0FBECDBFDF91CF911F91E1
:101840000F91FF90EF9008950D5D1F4F0B3C89E0C5
:101850001807E1F6C7010E94F11B80E0E8CFFF9274
:101860000F931F93CF93DF93EC01F62E088119811C
:10187000C8010E94151BF81621F06F2DC8010E94A7
:101880001D1BCE01DF91CF911F910F91FF90089505
:101890000F931F93CF93DF931F921F92CDB7DEB7A5
:1018A0008B019A838983FB016081CE0101960E949E
:1018B0002F0CC8010F900F90DF91CF911F910F91C6
:1018C0000895AF92BF92CF92DF92EF92FF920F9363
:1018D0001F93CF93DF93CDB7DEB763970FB6F8941E
:1018E000DEBF0FBECDBF6C011B8ACE0143960E94A6
:1018F000B6071B89143609F464C0E12EF12C8CE97B
:10190000E80EF11C94E0EE0CFF1C9A95E1F74FE015
:1019100050E0B601CE0102960E94911C61E0610F79
:101920006B8B69838AE097E00E9443085E01E1E1E6
:10193000AE0EB11C8E010F5F1F4FE01AF10AC701F6
:10194000800F911F9A8B898BF80161918F01C501DE
:101950000E942F0C0A151B0591F7BE016D5E7F4F8B
:101960008FEB99E00E94480C67EF73E08AE097E004
:101970000E945C08BE016E5F7F4F8AE097E00E9484
:101980005C0869818AE097E00E94430868E074E09F
:101990008AE097E00E945C08C6010E94F11B81E08A
:1019A00063960FB6F894DEBF0FBECDBFDF91CF9127
:1019B0001F910F91FF90EF90DF90CF90BF90AF906D
:1019C000089580ECE82E89E0F82E10E0A0CF2F9249
:1019D0003F924F925F926F927F928F929F92AF92BF
:1019E000BF92CF92DF92EF92FF920F931F93CF930C
:1019F000DF93CDB7DEB7CA56D1090FB6F894DEBF74
:101A00000FBECDBF8C017B013A010E94F30B8823EE
:101A100009F16CE174E087EA97E00E945C0880E0DD
:101A2000C659DF4F0FB6F894DEBF0FBECDBFDF91B2
:101A3000CF911F910F91FF90EF90DF90CF90BF90CB
:101A4000AF909F908F907F906F905F904F903F905E
:101A50002F900895C8010E94880A4C01C7010E9476
:101A6000880A5C010FE710E0BE016C5D7F4FC80182
:101A70000E94C207C8010E94151B780193E2E90E7B
:101A8000F11C882309F471C08701EBECEE16E9E044
:101A9000FE0651F74DE050E0B401CE01895B9F4F47
:101AA0000E94911C4DE050E0B50187E490E08C0F5E
:101AB0009D1F0D960E94911C49E050E0B30187E400
:101AC00090E08C0F9D1F4A960E94911C87E4282E5F
:101AD000312C2C0E3D1EF3E22F0E311C8E01095BC2
:101AE0001F4F2701401A510ACE0101966C01C20115
:101AF000800F911F9A838983F80161918F01C6013C
:101B00000E942F0C0215130591F7F3E2EF0EF11C62
:101B1000B601C7010E94C207F60101900020E9F753
:101B200031970E2F0C198DE090E00E94551B182F55
:101B3000592E4CE050E0B6010E94911C612F752D8A
:101B4000A12FB52D412F99E78A2F811B801778F09F
:101B500098E7862F841B801790F4FB018191BF01C9
:101B6000DF01119789278C93F4CF780193CF8D9162
:101B70009D01215031098927F9018083E5CF812F0B
:101B8000952D0E94F30B882329F0FFEBEF16F9E067
:101B9000FF0648F4AB961FAEAB97BE0166597F4F68
:101BA000C7010E94480C61E374E087EA97E00E9455
:101BB0005C08B40187EA97E00E94AB0963E075E036
:101BC00087EA97E00E94AB09B50187EA97E00E9497
:101BD000AB0963E075E087EA97E00E94AB09B301C7
:101BE00087EA97E00E94AB0966E273E087EA97E034
:101BF0000E945C0868E074E087EA97E00E945C0855
:101C0000C4010E94F11BC5010E94F11B81E008CFB5
:101C1000EF92FF920F931F93CF93DF9300D01F9209
:101C2000CDB7DEB78B01AE014C5F5F4FBE016D5F7C
:101C30007F4F0E9451058C812B8190E030E0AC01F8
:101C4000E3E0440F551FEA95E1F740505E4FFA017B
:101C5000E20FF31F0130110509F040C061E060831D
:101C600073E0880F991F7A95E1F7885F9D4FFC011B
:101C7000E20FF31F60832F5F3F4F420F531FFA01A4
:101C80006083820F931FFC0160830E940206198209
:101C9000BE016F5F7F4F90E080E00E94480C80E4BF
:101CA000E82E82E0F82E01E010E01A830983F701A4
:101CB00061917F01CE0101960E942F0C0F5F1F4F93
:101CC0000F37110591F70F900F900F900F90DF9144
:101CD000CF911F910F91FF90EF900895108263E0D4
:101CE000880F991F6A95E1F7885F9D4FFC01E20F0D
:101CF000F31F10822F5F3F4F420F531FFA011082D4
:101D0000820F931FFC011082C0CFCF92DF92EF921F
:101D1000FF920F931F93CF93DF9300D000D000D09A
:101D2000CDB7DEB789E0E4ECF2E0DE011196019078
:101D30000D928A95E1F790E4E92E92E0F92E10E0F9
:101D400000E0D12CD7018C91811113C04CE050E000
:101D5000B7016F5F7F4F80E696E00E94831C892B5E
:101D600041F4E1E0F0E0EC0FFD1FE00FF11F008314
:101D7000D3940F5F1F4FBEE0EB0EF11C093011052D
:101D800009F7DD2009F4C4C00E94F506FE01319672
:101D90007F0110E000E0033011F0063029F41F5FEE
:101DA000612F80E00E949E07D7016D917D016F3FFA
:101DB00059F0605D8CE998E00E94270364E273E0CB
:101DC0008CE998E00E94E8070F5F093021F71F5F58
:101DD000612F80E00E949E0765E474E08CE998E042
:101DE0000E94AB09612F87E00E949E0763E075E0C7
:101DF0008CE998E00E94AB09612F87E00E949E0762
:101E00000E941905082F64E670E080E090E00E94CF
:101E1000E902003239F30A3229F3033219F3602F51
:101E20008CE998E00E94270380EDF82EF00E68EC14
:101E300070E080E090E00E94E902CF2CD12CE1E03C
:101E4000F0E0EC0FFD1FEC0DFD1D80818F3F51F286
:101E5000BFEFFB1639F20E94170B882309F458C014
:101E60000E94F50660E080E00E949E076EE474E048
:101E70008CE998E00E945C0861E080E00E949E0787
:101E80006CE574E08CE998E00E94AB09602F8CE966
:101E900098E00E9427038F2D0E94B3098823D9F36D
:101EA0008EE08C9DF0018D9DF00D1124E05CFD4FC6
:101EB000DF011D928A95E9F781E0808370E060E0A0
:101EC0008F2D0E94080E0E94F50660E080E00E94BF
:101ED0009E0763E674E08CE998E00E94AB09602FEE
:101EE0008CE998E00E9427036AEF70E080E090E0C0
:101EF00029960FB6F894DEBF0FBECDBFDF91CF910C
:101F00001F910F91FF90EF90DF90CF900C94E9021A
:101F100029960FB6F894DEBF0FBECDBFDF91CF91EB
:101F20001F910F91FF90EF90DF90CF9008951F9237
:101F30000F920FB60F9211242F933F938F939F937D
:101F4000AF93BF938091580690915906A0915A067D
:101F5000B0915B063091570623E0230F2D3758F5DB
:101F60000196A11DB11D20935706809358069093AA
:101F70005906A0935A06B0935B0680915C06909137
:101F80005D06A0915E06B0915F060196A11DB11D90
:101F900080935C0690935D06A0935E06B0935F0607
:101FA000BF91AF919F918F913F912F910F900FBE55
:101FB0000F901F90189526E8230F0296A11DB11DC2
:101FC000D2CF1F920F920FB60F9211240BB60F9221
:101FD0002F933F934F935F936F937F938F939F9331
:101FE000AF93BF93EF93FF938DE696E00E941604A4
:101FF000FF91EF91BF91AF919F918F917F916F91E1
:102000005F914F913F912F910F900BBE0F900FBE9C
:102010000F901F9018951F920F920FB60F921124D8
:102020000BB60F922F933F934F935F936F937F93D2
:102030008F939F93AF93BF93EF93FF938DE696E0BB
:102040000E945B03FF91EF91BF91AF919F918F91A0
:102050007F916F915F914F913F912F910F900BBEA8
:102060000F900FBE0F901F9018951F920F920FB6F2
:102070000F9211240BB60F922F933F934F935F93C0
:102080006F937F938F939F93AF93BF93EF93FF9340
:102090008AE097E00E941604FF91EF91BF91AF9103
:1020A0009F918F917F916F915F914F913F912F9170
:1020B0000F900BBE0F900FBE0F901F9018951F92A0
:1020C0000F920FB60F9211240BB60F922F933F93DE
:1020D0004F935F936F937F938F939F93AF93BF9330
:1020E000EF93FF938AE097E00E945B03FF91EF91EB
:1020F000BF91AF919F918F917F916F915F914F9120
:102100003F912F910F900BBE0F900FBE0F901F901D
:1021100018951F920F920FB60F9211240BB60F92C3
:102120002F933F934F935F936F937F938F939F93DF
:10213000AF93BF93EF93FF9387EA97E00E94160453
:10214000FF91EF91BF91AF919F918F917F916F918F
:102150005F914F913F912F910F900BBE0F900FBE4B
:102160000F901F9018951F920F920FB60F92112487
:102170000BB60F922F933F934F935F936F937F9381
:102180008F939F93AF93BF93EF93FF9387EA97E06B
:102190000E945B03FF91EF91BF91AF919F918F914F
:1021A0007F916F915F914F913F912F910F900BBE57
:1021B0000F900FBE0F901F901895CF93DF93109242
:1021C000700610926F0648EE53E060E070E04093B6
:1021D00071065093720660937306709374068AE0DA
:1021E00093E090936E0680936D0625E331E0309383
:1021F0007A062093790624E331E030937C0620931D
:102200007B0620E331E030937E0620937D0621E3B8
:1022100031E03093800620937F0622E331E0309353
:1022200082062093810626E331E0309384062093D2
:1022300083061092860610928706109288061092E6
:10224000890610920D0710920C0740930E075093C9
:102250000F07609310077093110790930B078093FB
:102260000A0725ED30E0309317072093160724ED79
:1022700030E0309319072093180720ED30E03093B9
:102280001B0720931A0721ED30E030931D072093A0
:102290001C0722ED30E030931F0720931E0726ED28
:1022A00030E03093210720932007109223071092EB
:1022B000240710922507109226071092AA07109261
:1022C000A9074093AB075093AC076093AD07709399
:1022D000AE079093A8078093A70785EC90E09093B2
:1022E000B4078093B30784EC90E09093B607809393
:1022F000B50780EC90E09093B8078093B70781EC26
:1023000090E09093BA078093B90782EC90E09093A5
:10231000BC078093BB0786EC90E09093BE07809348
:10232000BD071092C0071092C1071092C207109209
:10233000C30710929F0810929E088CE193E090933F
:102340009D0880939C0886E18093A0088FEF80937E
:10235000A10887E18093A20888E18093A30889E11E
:102360008093A4088AE18093A5088BE18093A60856
:102370001092A7081092A8081092A9081092AA0813
:102380001092AB0881E00E94FD06CCE1D0E0D09332
:102390009508C09394088EE190E0909397088093FD
:1023A00096088DE190E0909399088093980881E0D9
:1023B00090E090939B0880939A0861E08CE10E94E2
:1023C000930261E0809196080E94930261E08091FF
:1023D00098080E94930261E0809198080E9465022B
:1023E000D0939508C0939408E4E5F8E0119288E052
:1023F000E439F807D9F7D0E0C0E080919A089091CD
:102400009B08C817D90774F540E06FE0CE010E9421
:10241000840580919A0890919B08C817D9072CF4DD
:1024200047E06BE0CE010E94840540E069E0CE0108
:102430000E94840580919A0890919B08C817D9073B
:102440001CF4CE010E94E20580919A0890919B08AD
:10245000C817D9072CF440E06CE0CE010E94840537
:102460002196CBCFDF91CF910895CF93DF93CDB756
:10247000DEB7C654D1090FB6F894DEBF0FBECDBF8C
:10248000789484B5826084BD84B5816084BD85B54F
:10249000826085BD85B5816085BD80916E0081605B
:1024A00080936E0010928100809181008260809301
:1024B0008100809181008160809381008091800003
:1024C0008160809380008091B10084608093B1002E
:1024D0008091B00081608093B00080919100826013
:1024E0008093910080919100816080939100809110
:1024F00090008160809390008091A1008260809321
:10250000A1008091A10081608093A1008091A00032
:1025100081608093A00080912101826080932101DD
:10252000809121018160809321018091200181604F
:102530008093200180917A00846080937A0080915A
:102540007A00826080937A0080917A008160809323
:102550007A0080917A00806880937A001092C1009E
:102560008AE097E00E94AE0187EA97E00E94AE0100
:102570008DE696E00E94AE0180919A0890919B08AA
:102580001816190634F441E06CE090E080E00E94F7
:10259000840580919A0890919B081816190634F4C6
:1025A00048E06AE090E080E00E94840580919A080B
:1025B00090919B081816190624F490E080E00E9480
:1025C000E20584E00E94FD0612E060E0812F0E9497
:1025D00093021F5F1830C9F761E088E00E94930200
:1025E00061E089E00E94930261E08AE00E94930228
:1025F0000E949C088CE694E00E94F30B8111C0C0FD
:1026000063E774E087EA97E00E945C081982BE01E4
:102610006F5F7F4F8FE790E00E94480C8FEB99E04F
:102620009A83898360E0CE0101960E942F0C80EC92
:1026300099E09A83898360E0CE0101960E942F0C75
:1026400041E854E0BA018CE694E00E94E70C90E087
:1026500080E00E94151BF82E811163C000E412E097
:102660005801CC24C394D12CC6010E94151BD5015E
:102670008D935D01BFEFCB1ADB0AEFE7CE16D104D5
:1026800099F761E472E087EA97E00E945C08409164
:10269000400250E070E060E02AE087EA97E00E94A4
:1026A000F70764E273E087EA97E00E94E807EE2408
:1026B000E394D8018C9181112EC0AE014F5F5F4F22
:1026C000BE016C5D7F4F8F2D0E945105898190E086
:1026D0002CA130E0AC0163E0440F551F6A95E1F78F
:1026E00040505E4FFA01E20FF31FE08273E0880F63
:1026F000991F7A95E1F7885F9D4FFC01E20FF31F68
:10270000E0822F5F3F4F420F531FFA01E082820F9A
:10271000931FDC01EC92F394025F1F4FB9E0FB12B0
:10272000C8CF0E94020630E6232E36E0332E6E011B
:10273000E4E2CE0ED11CCE0101967C012E0194E381
:10274000490E511CD20150962796BFAFAEAF2797C6
:10275000E0915506F0915606EA30F10508F074C094
:102760008827EA54FC4E8F4F0C944D1BC713081951
:10277000A618E114121545146119FA168F163018AF
:1027800066E874E087EA97E00E945C0860CF0E94E8
:10279000F50660E080E00E949E0760E974E08CE945
:1027A00098E00E94AB0961E080E00E949E076FE91B
:1027B00074E08CE998E00E94AB0962E080E00E943E
:1027C0009E0760EB74E08CE998E00E94AB0963E03F
:1027D00080E00E949E0768EB74E08CE998E00E941C
:1027E000AB09609154066E5F80E00E949E0764EC26
:1027F00074E08CE998E00E94AB090E9419058233CD
:1028000081F462ED70E080E090E00E94E902809146
:1028100054068150809354068F3FB1F410925406B1
:1028200013C08833A1F462ED70E080E090E00E9474
:10283000E902809154068F5F823018F48093540629
:1028400003C0B1E0B09354060E94A50481CF82E09A
:102850000E943C028C01019781F662ED70E080E0FD
:1028600090E00E94E90280915406882339F081307B
:10287000A9F61093560600935506D0CF84E090E059
:102880009093560680935506C9CF1982C7010E94BE
:10289000B6070E94F50669818AE097E00E94430826
:1028A00080EC99E03C016418750825961FAE2597C9
:1028B00010E000E0912C812C89818815190409F021
:1028C0000CF460C02596EFAD2597E1115BC0520175
:1028D000C3018A0D9B1D0E94151BD5018D935D01BF
:1028E0002796EEADFFAD2797EA17FB0789F7602F14
:1028F00082E00E949E076CA98AE097E00E9443084C
:10290000BE016B5C7F4F8CE998E00E94AB09602FA1
:1029100080E00E949E074CA950E070E060E02AE051
:102920008CE998E00E94F7070F5F1F4FFFEF8F1AA7
:102930009F0A0430110511F582E00E943C020197C4
:1029400051F466EE70E080E090E00E94E9020E949F
:10295000F50610E000E083E00E943C02019749F791
:1029600066EE70E080E090E00E94E9020E94F506C9
:1029700021E025962FAF259710E000E080E1680E5A
:10298000711C9ACF01151105A9F025969FAD2597C9
:10299000911110C082E00E943C02019729F083E06F
:1029A0000E943C02019771F766EE70E080E090E0D3
:1029B0000E94E90288E090E09093560680935506C5
:1029C00043CF0E94D2040E94F50660E873E08CE9D0
:1029D00098E00E94AB0961E080E00E949E0761E9F7
:1029E00073E08CE998E00E94AB0910E087EA97E079
:1029F0000E94EC03892B49F042E050E0B70187EADE
:102A000097E00E94970311E0F1CF112379F387EA51
:102A100097E00E94EC03892B49F780915206909130
:102A20005306CACF8BE0D101E82F1D92EA95E9F752
:102A3000E5E4F6E0DF011D928A95E9F7ECE3F6E0C4
:102A400089E0DF011D928A95E9F72BE0622E0E9452
:102A5000D20486EC94E00E947008F101262D1192B8
:102A60002A95E9F70E94F5066EEC74E08CE998E08F
:102A70000E94AB0961E080E00E949E0768ED74E06F
:102A80008CE998E00E94AB0962E080E00E949E071A
:102A90000E941B034B015C010E941B030E94D20495
:102AA00010E000E0712C87EA97E00E94EC03892B8C
:102AB00069F087EA97E00E948303F801E05AF94F32
:102AC00080830F5F1F4F77247394EDCF7720D9F168
:102AD0000E941B03681979098A099B09643F7140A8
:102AE0008105910504F360E676E08CE998E00E94A8
:102AF000AB0963E080E00E949E0763EE74E08CE91E
:102B000098E00E94AB0964EF71E080E090E00E94E1
:102B1000E9020E94FF04782E811165C062E080E026
:102B20000E949E0764EF74E08CE998E00E94AB0974
:102B300063E080E00E949E0764EF74E08CE998E017
:102B40000E94AB0984CF0E941B034B015C010E94D1
:102B50001B03A9CF6620C9F00E941B0368197909DD
:102B60008A099B09643F7140810591050CF468C096
:102B700005E416E0F80181918F01882369F06AE28B
:102B80008CE998E00E94B007F5CF0E941B034B012F
:102B90005C010E941B0354C063E080E00E949E071A
:102BA00063EE74E08CE998E00E94AB0964EF71E099
:102BB00080E090E00E94E9020E94FF04811153C06E
:102BC00062E00E949E0764EF74E08CE998E00E9446
:102BD000AB0963E080E00E949E0764EF74E08CE93B
:102BE00098E00E94AB090E94D20488E095E00E9420
:102BF0007008E5E4F6E02BE011922A95E9F70E94CF
:102C0000F5066EEC74E08CE998E00E94AB0961E097
:102C100080E00E949E0765E075E08CE998E00E94E4
:102C2000AB0962E080E00E949E070E941B034B01FB
:102C30005C010E941B030E94D20410E000E0612CA2
:102C400087EA97E00E94EC03892B09F483CF87EA97
:102C500097E00E948303F801EB5BF94F80830F5FDD
:102C60001F4F672CEDCF81E195E00E94700885E44D
:102C700096E00E94C30A182F0E94F5066CE674E0E5
:102C800080E696E00E947A1C892B29F561E874E0C1
:102C900085E496E00E947A1C892BE9F466E175E0F0
:102CA0008CE998E00E94AB0962E370E080E090E07C
:102CB0000E94E90288E090E09093560680935506C2
:102CC0008CE195E00E94610C60ED77E080E090E09F
:102CD0000E94E902B9CD112349F087E090E090937A
:102CE00056068093550684E295E0ECCF60E676E0E8
:102CF0008CE998E00E94AB0965E476E08CE998E005
:102D00000E94AB0962E370E080E090E00E94E9027B
:102D100010925606109255068CE295E0D3CF0E9491
:102D2000F50660E080E00E949E076FE974E08CE9A0
:102D300098E00E94AB0961E080E00E949E0764E396
:102D400075E08CE998E00E94AB0962E080E00E94A7
:102D50009E076BE375E08CE998E00E94AB0963E0A5
:102D600080E00E949E076BE475E08CE998E00E9489
:102D7000AB09609154066F5F80E00E949E0764EC8F
:102D800074E08CE998E00E94AB090E941905823337
:102D900009F437CD883381F462ED70E080E090E093
:102DA0000E94E902809154068F5F8093540683301D
:102DB00008F44ACD82E042CD82E00E943C020197B5
:102DC00021F762ED70E080E090E00E94E9028091DE
:102DD0005406882361F0823009F020CD1092560607
:102DE000109255068BE595E00E94610C17CD85E0A9
:102DF00090E046CD0E94F50660E080E00E949E07CC
:102E000064E675E08CE998E00E94AB0961E080E03F
:102E10000E949E0761E775E08CE998E00E94AB098B
:102E200062E080E00E949E076CE475E08CE998E027
:102E30000E94AB0963E080E00E949E076DE775E0A9
:102E40008CE998E00E94AB096091540680E00E94F2
:102E50009E0764EC74E08CE998E00E94AB090E9444
:102E60001905823309F4CDCC883371F462ED70E03A
:102E700080E090E00E94E902809154068F5F8430E8
:102E800008F4DCCC83E0DACC82E00E943C020197BB
:102E900031F762ED70E080E090E00E94E9028091FD
:102EA0005406813009F49BC098F0823009F463C065
:102EB000833009F0B3CC80E696E00E94F30B8111D9
:102EC00061C069EA75E087EA97E00E945C08A6CCD9
:102ED00090E4A92E92E0B92E10E000E00E94F506E1
:102EE00060E080E00E949E076EE875E08CE998E063
:102EF0000E945C0861E080E00E949E076CE574E03F
:102F00008CE998E00E94AB09902E60E3600F8CE999
:102F100098E00E942703D5018C91882311F1892D17
:102F20000E94B3098111FBCF0E94170B882309F47B
:102F300075CC2EE0209FC001219F900D1124FC0133
:102F4000E05CFD4F10824CE050E060E676E08F5B85
:102F50009D4F0E94911C61E070E0892D0E94080E37
:102F60005DCC0F5F1F4FBEE0AB0EB11C09301105E9
:102F700009F0B4CF53CC10925606109255068FE943
:102F800095E032CF00E412E08EEBA82E82E0B82E5E
:102F9000F8018081811126C04CE050E0B8016F5FDC
:102FA0007F4F80E696E00E94831C892BD9F40E9413
:102FB000F50660E080E00E949E076EEB75E08CE90C
:102FC00098E00E945C086DEC75E08CE998E00E9446
:102FD0005C0860E971E080E090E00E94E9020E94F4
:102FE000850E1CCC025F1F4FA016B10689F680E645
:102FF00096E00E94880A4C010FE710E0B701C80173
:103000000E94C207B401C7010E947A1C892BF1F407
:10301000B12CA12C1CA2B601C8018A0D9B1D0E94D7
:10302000480CFFEFAF1ABF0A22E2A216B10491F7D3
:103030006FED75E087EA97E00E945C08C4010E948A
:10304000F11B1092560610925506E8CB0D5D1F4FEE
:103050000B3C89E0180791F6C4010E94F11BDECBFE
:103060000E94F50660E080E00E949E0762EB74E03B
:103070008CE998E00E94AB0961E080E00E949E0725
:1030800068ED74E08CE998E00E94AB0980E1D6011C
:103090001D928A95E9F762E0C6010E94DE08882346
:1030A000B1F068EE73E080E090E00E94E9020E94D7
:1030B000F5066FEE75E08CE998E00E94AB0968EECA
:1030C00073E080E090E00E94E9020E94F5060E9411
:1030D000F50660E080E00E949E0762EB74E08CE9F8
:1030E00098E00E94AB0961E080E00E949E0766EFD5
:1030F00075E08CE998E00E94AB0980E1F70111923C
:103100008A95E9F762E0C7010E94DE08882309F486
:103110009BCB68EE73E080E090E00E94E9020E94A1
:10312000F506B6018CE998E00E94AB09B7018CE97D
:1031300098E00E94AB0968EE73E080E090E00E94A6
:10314000E9020E94F50687E090E036CC0E94F50681
:1031500060E080E00E949E076FE974E08CE998E0EF
:103160000E94AB0961E080E00E949E0761E076E08A
:103170008CE998E00E94AB0962E080E00E949E0723
:103180006EE076E08CE998E00E94AB0963E080E0B5
:103190000E949E0766E176E08CE998E00E94AB0908
:1031A000609154066F5F80E00E949E0764EC74E0BB
:1031B0008CE998E00E94AB090E941905823309F45A
:1031C00020CB883309F4E8CD82E00E943C020197CD
:1031D00099F762ED70E080E090E00E94E902809152
:1031E0005406813091F020F0823009F42ACF16CBBA
:1031F00083E090E0909356068093550684E090E03B
:10320000909353068093520609CB89E090E038CB27
:103210000E94F50660E080E00E949E076FE974E07E
:103220008CE998E00E94AB0961E080E00E949E0773
:1032300061E076E08CE998E00E94AB0962E080E012
:103240000E949E076EE076E08CE998E00E94AB0950
:1032500063E080E00E949E0766E176E08CE998E0FA
:103260000E94AB09609154066F5F80E00E949E0748
:1032700064EC74E08CE998E00E94AB090E941905A7
:10328000823309F4BECA883309F486CD82E00E94F5
:103290003C02019799F762ED70E080E090E00E94B7
:1032A000E90280915406813009F4AFCF08F09CCF39
:1032B00083E090E0909356068093550686E090E078
:1032C0009FCF8DE0D101E82F1D92EA95E9F7E5E463
:1032D000F6E0DF011D928A95E9F7ECE3F6E089E07C
:1032E000DF011D928A95E9F70E94D20486EC94E0F2
:1032F0000E947008F1012DE011922A95E9F70E94D1
:10330000F5066EE176E08CE998E00E94AB0961E099
:1033100080E00E949E0768ED74E08CE998E00E94CE
:10332000AB0962E080E00E949E070E941B034B01F4
:103330005C010E941B030E94D20410E000E0712C8B
:1033400087EA97E00E94EC03892B69F087EA97E00F
:103350000E948303F801E05AF94F80830F5F1F4FEB
:1033600077247394EDCF7720D9F10E941B0368195D
:1033700079098A099B09643F71408105910504F32D
:1033800060E676E08CE998E00E94AB0963E080E0BB
:103390000E949E0763EE74E08CE998E00E94AB09FE
:1033A00064EF71E080E090E00E94E9020E94FF0477
:1033B000682E81115AC062E080E00E949E0764EF8F
:1033C00074E08CE998E00E94AB0963E080E00E9421
:1033D0009E0764EF74E08CE998E00E94AB0984CF0B
:1033E0000E941B034B015C010E941B03A9CF7720A5
:1033F00009F47BC00E941B03681979098A099B099B
:10340000643F7140810591050CF45CC06CE376E08B
:103410008CE998E00E94AB0963E080E00E949E077F
:1034200063EE74E08CE998E00E94AB0964EF71E010
:1034300080E090E00E94E9020E94FF04782E811152
:10344000A4C062E080E00E949E0764EF74E08CE913
:1034500098E00E94AB0963E080E00E949E0764EF61
:1034600074E08CE998E00E94AB090E94D20481E3E9
:1034700096E00E947008ECE3F6E029E011922A95AC
:10348000E9F70E94F5066EE176E08CE998E00E948B
:10349000AB0961E080E00E949E076EE276E08CE975
:1034A00098E00E94AB0962E080E00E949E070E94C3
:1034B0001B034B015C010E941B030E94D20410E01D
:1034C00000E0712C87EA97E00E94EC03892B09F455
:1034D0008ECF87EA97E00E948303F801E45CF94FFE
:1034E00080830F5F1F4F762CEDCF0E941B034B0193
:1034F0005C010E941B03E6CF6620C9F00E941B03FB
:10350000681979098A099B09643F71408105910511
:103510000CF468C005E416E0F80181918F0188235E
:1035200069F06AE28CE998E00E94B007F5CF0E944A
:103530001B034B015C010E941B0354C063E080E04D
:103540000E949E0763EE74E08CE998E00E94AB094C
:1035500064EF71E080E090E00E94E9020E94FF04C5
:10356000811153C062E00E949E0764EF74E08CE911
:1035700098E00E94AB0963E080E00E949E0764EF40
:1035800074E08CE998E00E94AB090E94D20488E0C4
:1035900095E00E947008E5E4F6E02DE011922A958E
:1035A000E9F70E94F5066EE176E08CE998E00E946A
:1035B000AB0961E080E00E949E0765E075E08CE960
:1035C00098E00E94AB0962E080E00E949E070E94A2
:1035D0001B034B015C010E941B030E94D20410E0FC
:1035E00000E0612C87EA97E00E94EC03892B09F444
:1035F00083CF87EA97E00E948303F801EB5BF94FE2
:1036000080830F5F1F4F672CEDCF4CE356E065E4DE
:1036100076E080E696E00E94E70C882309F414C95E
:1036200010925606109255060FC9F999FECF92BD19
:1036300081BDF89A992780B50895262FF999FECF74
:103640001FBA92BD81BD20BD0FB6F894FA9AF99ABF
:103650000FBE01960895A1E21A2EAA1BBB1BFD0105
:103660000DC0AA1FBB1FEE1FFF1FA217B307E40761
:10367000F50720F0A21BB30BE40BF50B661F771FB9
:10368000881F991F1A9469F7609570958095909599
:103690009B01AC01BD01CF010895EE0FFF1F881FF4
:1036A0008BBF0790F691E02D19940F931F93CF9342
:1036B000DF938230910510F482E090E0E091B6084B
:1036C000F091B70830E020E0B0E0A0E0309799F446
:1036D0002115310509F44AC0281B390B2430310566
:1036E000D8F58A819B816115710589F1FB0193836E
:1036F0008283FE0111C040815181028113814817EC
:103700005907E0F04817590799F4109761F012969D
:103710000C93129713961C933296CF01DF91CF91A1
:103720001F910F9108950093B6081093B708F4CF36
:103730002115310551F04217530738F0A901DB017B
:103740009A01BD01DF01F801C1CFEF01F9CF9093DC
:10375000B7088093B608CDCFFE01E20FF31F819327
:1037600091932250310939832883D7CF2091B4080F
:103770003091B508232B41F42091C0023091C10251
:103780003093B5082093B4082091BE023091BF0257
:103790002115310541F42DB73EB74091C202509139
:1037A000C302241B350BE091B408F091B508E21771
:1037B000F307A0F42E1B3F0B2817390778F0AC0154
:1037C0004E5F5F4F2417350748F04E0F5F1F509331
:1037D000B5084093B408819391939FCFF0E0E0E067
:1037E0009CCFCF93DF930097E9F0FC0132971382CF
:1037F0001282A091B608B091B708ED0130E020E048
:103800001097A1F420813181820F931F2091B40879
:103810003091B5082817390709F061C0F093B50851
:10382000E093B408DF91CF910895EA01CE17DF0746
:10383000E8F54A815B819E0141155105B1F7E90127
:10384000FB83EA8349915991C40FD51FEC17FD07FB
:1038500061F4808191810296840F951FE90199831B
:103860008883828193819B838A83F0E0E0E01296D3
:103870008D919C9113970097B9F52D913C911197DB
:10388000CD010296820F931F2091B4083091B508A4
:103890002817390739F6309751F51092B70810926A
:1038A000B608B093B508A093B408BCCFD383C28345
:1038B00040815181840F951FC817D90761F44E5F6D
:1038C0005F4F88819981480F591F518340838A81B6
:1038D0009B81938382832115310509F0B0CFF0934A
:1038E000B708E093B6089ECFFD01DC01C0CF13827C
:1038F0001282D7CFFB01DC018D910190801901105C
:10390000D9F3990B0895FB01DC014150504030F090
:103910008D910190801919F40020B9F7881B990B3B
:103920000895FB01DC014150504048F001900D9298
:103930000020C9F701C01D9241505040E0F70895A2
:04394000F894FFCF29
:10394400000001000001000000000100000100006F
:103954000101010101010101000001000001000059
:103964000000010000010000010101010101010149
:10397400000001000001000000000100000100003F
:103984000100000000000000000000000000010031
:103994000000000000000000000000000100000022
:1039A4000000000000000000000001000000000012
:1039B4000000000000000000010000000000000002
:1039C40000000000000001000000000000000000F2
:1039D40000000000010000000000000000000000E2
:1039E40000000100000000000000000000000000D2
:1039F40001000000000000000000000000000000C2
:103A0400B8088000FFFFFFFFFFFFFFFFFF312A24FC
:103A14002321324142433033444546003447484928
:103A240000354A4B4C00364D4E4F003750515253DF
:103A34003854555600395758595A3132333435367B
:103A44003738392A30230000000038042E03740369
:103A54008504EC038303DE0300000000B0072E039B
:103A6400CF04CE040D0A00527562656E20323032E6
:103A74003131313833350053657267696F20323024
:103A84003231313138333500506564726F20323051
:103A940032313131383335004A6F73652032303179
:103AA4003930313735360053656261732032303234
:103AB4003131313833350063616E63656C61720096
:103AC400204573706572616E646F2020756E61208D
:103AD40000202020636F6E6578696F6E2E2E2E2075
:103AE4002000416365707461723F202020202020F3
:103AF40020005449504F20444520494E5055543AD3
:103B040000232041504C49434143494F4E002A2051
:103B14005445434C41444F006572726F722070618A
:103B24007373776F72643A006572726F722070619A
:103B34007373776F7264002D2D2D4E7565766F202B
:103B44004C6F67732D2D2D002D2D2D2D2D2D2D2DED
:103B54002D2D2D2D2D2D2D2D2D2D2D00456C20752C
:103B640073756172696F2079612065786973746512
:103B7400002D2D2D4E7565766F20757375617269F4
:103B84006F2D2D2D004F7063696F6E3A20005265C2
:103B9400746972652043454C20656E0020504F5374
:103BA40020230053616361646F20230061646D69A5
:103BB4006E3100416772656761722041646D696EA0
:103BC4000031323334004861792061646D696E00DC
:103BD4004D656E75207072696E636970616C00501A
:103BE400726573696F6E61206163657074617200E0
:103BF40020204C6F67696E002020526567697374DA
:103C0400726172003E004E6F6D6272653A004C2024
:103C14004F20472049204E00202D204E4F4D425228
:103C2400453A00436F72726563746F3F2020202011
:103C340020202000202020202020202020202020A0
:103C44002020202000202D20436F6E747261733A6F
:103C5400004E4144410041444D494E006C6F676938
:103C64006E4145006C6F67696E5545006C6F6769FE
:103C74006E46410020204C6F67730020204163632F
:103C8400696F6E2041444D494E32002020436572D5
:103C940072617220736573696F6E0043657272613D
:103CA400646F410020496E677265736F2043656CD1
:103CB400002052657469726F2043656C0020456C66
:103CC400696D696E6172204375656E746100496E39
:103CD400746F64757A63612043454C20656E0043BC
:103CE40065727261646F555300456C20757375611C
:103CF40072696F206E6F206578697374650043453F
:103D04004C20656E2053697374656D61004D656E5A
:103D1400752064652072657469726F2E2E2E0055AD
:103D240073756172696F20426F727261646F0053C0
:103D3400495555555500202D20434F4E5452413A74
:103D440000202041706C69636163696F6E002020FC
:103D540050616E656C00202053616C6972005220C2
:103D64004520472049205320542052204F00202D25
:0A3D74002043656C756C61723A0023
:00000001FF
