:020000040000FA
:100000000C944B010C947C010C947C010C947C01AD
:100010000C947C010C947C010C947C010C947C016C
:100020000C947C010C947C010C947C010C947C015C
:100030000C947C010C947C010C947C010C947C014C
:100040000C947C010C947C010C947C010C947C013C
:100050000C947C010C947C010C947C010C9437076B
:100060000C947C010C94AB070C9481070C947C01DC
:100070000C947C010C947C010C947C010C947C010C
:100080000C947C010C947C010C947C010C947C01FC
:100090000C947C010C947C010C947C010C947C01EC
:1000A0000C947C010C947C010C947C010C947C01DC
:1000B0000C947C010C947C010C947C010C947C01CC
:1000C0000C947C010C947C010C947C010C947C01BC
:1000D0000C947C010C947C010C947C010C947C01AC
:1000E0000C947C010C944F040C94C9010C94D00224
:1000F0000C949C0C0C94250A0C94AE010C949C015D
:100100000C94FE030C94E1010C94C80A0C94490C65
:100110000C94730A0C94D10C0C94E1070C94D30149
:100120000C94A6010C94CF010C946B030C94210D3C
:100130000C94B7010C9479030C949A0A0C94AA01BC
:100140000C94FD020C94B1030C9450040C940C0319
:100150000C94DD010C94DC010C94A6060C94D701E0
:100160000C94C1010C94B1010C94BB010C94A2013C
:100170000C94C50100002100240027002A002D0056
:100180003000330001010000040107010A010000F2
:100190002200250028002B002E003100340002012F
:1001A0000000050108010B010000200023002600CB
:1001B00029002C002F00320000010000030106017D
:1001C00009010505050507050808080802020202DD
:1001D0000A0A0808040404040101010101010101E3
:1001E0000303030303030303040707070C0C0C0CAE
:1001F0000C0C0C0C02020202060606060606060697
:100200000B0B0B0B0B0B0B0B010210202008081023
:100210002040102040800201020108040201010276
:10022000040810204080804020100804020180044F
:1002300002018040201008040201080402010102AA
:1002400004081020408001020408102040800000B3
:100250000A0B02090C0D0E08070304010000000040
:10026000000000000000000000000000000000008E
:10027000000000000000000000001211100000004B
:10028000000000000000000000000000000000006E
:1002900000000000E10711241FBECFEFD1E2DEBF56
:1002A000CDBF00E00CBF24E0ACEBB3E001C01D9279
:1002B000A63FB207E1F713E0A0E0B2E0E2E3FEE11F
:1002C00000E00BBF02C007900D92AC3BB107D9F71D
:1002D00011E0CBE4D1E000E006C021970109802FB6
:1002E000FE010E94FF0ECA34D10780E00807A9F77B
:1002F0000E94C1080C94170F0C94000081508231A9
:1003000008F05AC0E82FF0E08827E657FE4F8F4FDD
:100310000C94FF0EAA01AE019C01A201A601DC0112
:10032000B101B701BB01C101C501C901CF01D301B1
:10033000DC01D701DD01E101809180008F7780939E
:1003400080000895809180008F7DF9CF809180009A
:10035000877FF5CF84B58F7784BD089584B58F7D71
:10036000FBCF8091B0008F778093B000089580918B
:10037000B0008F7DF9CF809190008F7780939000AF
:100380000895809190008F7DF9CF80919000877FB4
:10039000F5CF8091A0008F778093A0000895809181
:1003A000A0008F7DF9CF8091A000877FF5CF80914D
:1003B00020018F77809320010895809120018F7D07
:1003C000F9CF80912001877FF5CFCF93DF93282F3E
:1003D00030E0F901E25BFD4F8491F901E85FFD4FE8
:1003E000D491F901EE53FE4FC491CC23A1F08111B9
:1003F0000E947E01EC2FF0E0EE0FFF1FE855FE4F4C
:10040000A591B491EC91ED2381E090E009F480E0B6
:10041000DF91CF91089580E090E0FACF1F93CF93C2
:10042000DF93282F30E0F901E25BFD4F8491F90161
:10043000E85FFD4FD491F901EE53FE4FC491CC23F8
:10044000A9F0162F81110E947E01EC2FF0E0EE0F33
:10045000FF1FE257FE4FA591B4918FB7F894EC912E
:10046000111108C0D095DE23DC938FBFDF91CF91AF
:100470001F910895DE2BF8CFCF93DF9390E0FC011E
:10048000E85FFD4F24918E539E4FFC018491882399
:10049000D1F090E0880F991FFC01EC58FE4FA59118
:1004A000B491FC01E257FE4FC591D49161110EC089
:1004B0009FB7F8948C91E22FE0958E238C9328813E
:1004C000E223E8839FBFDF91CF9108958FB7F8941F
:1004D000EC91E22BEC938FBFF6CF3FB7F89480916D
:1004E000E5039091E603A091E703B091E80326B5F8
:1004F000A89B05C02F3F19F00196A11DB11D3FBF5C
:10050000BA2FA92F982F8827BC01CD01620F711D2A
:10051000811D911D42E0660F771F881F991F4A9524
:10052000D1F708958F929F92AF92BF92CF92DF92B0
:10053000EF92FF924B015C010E946D026B017C0106
:100540000E946D026C197D098E099F09683E7340F7
:1005500081059105A8F321E0821A9108A108B1084C
:1005600088EEC80E83E0D81EE11CF11C81149104B2
:10057000A104B10429F7FF90EF90DF90CF90BF90D6
:10058000AF909F908F9008952FB7F8946091E103FA
:100590007091E2038091E3039091E4032FBF0895EB
:1005A000AF92BF92CF92DF92EF92FF920F931F9381
:1005B000CF93DF936C017B018B01040F151FEB01BF
:1005C0005E01AE18BF08C017D10759F06991D60176
:1005D000ED91FC910190F081E02DC6011995892BD8
:1005E00079F7C501DF91CF911F910F91FF90EF90A7
:1005F000DF90CF90BF90AF900895FC01538D448D54
:10060000252F30E0842F90E0821B930B541710F0BD
:10061000CF96089501970895FC01918D828D9817CA
:1006200061F0A28DAE0FBF2FB11D5D968C91928DA2
:100630009F5F9F73928F90E008958FEF9FEF0895D3
:10064000CF92DF92EF92FF920F931F93CF93DF939E
:100650008C01D0E0C0E00E94C4026093F10370936B
:10066000F2038093F3039093F40389EE93E00E94E6
:100670000C0397FF28C00E94C402C090F103D090E1
:10068000F203E090F303F090F4036C197D098E09F6
:100690009F09C090ED03D090EE03E090EF03F0903F
:1006A000F0036C157D058E059F05F8F2CE01DF91F4
:1006B000CF911F910F91FF90EF90DF90CF90089511
:1006C000C2E0D0E0F3CFF80181938F012197C1F30D
:1006D000C1E0D0E0C0CFFC01918D828D981731F040
:1006E000828DE80FF11D858D90E008958FEF9FEFCB
:1006F0000895FC01918D228D892F90E0805C9F4FA1
:10070000821B91098F739927089589EE93E00E94C7
:10071000790321E0892B09F420E0822F0895FC0160
:10072000A48DA80FB92FB11DA35ABF4F2C91848D52
:1007300090E001968F739927848FA689B7892C93AF
:10074000A089B1898C91837080648C93938D848D02
:10075000981306C00288F389E02D80818F7D808305
:100760000895EF92FF920F931F93CF93DF93EC01C5
:1007700081E0888F9B8D8C8D98131AC0E889F98948
:10078000808185FF15C09FB7F894EE89FF8960834B
:10079000E889F98980818370806480839FBF81E0CC
:1007A00090E0DF91CF911F910F91FF90EF9008950E
:1007B000F62E0B8D10E00F5F1F4F0F731127E02EE9
:1007C0008C8D8E110CC00FB607FCFACFE889F98921
:1007D000808185FFF5CFCE010E948F03F1CFEB8D95
:1007E000EC0FFD2FF11DE35AFF4FF0829FB7F894F5
:1007F0000B8FEA89FB8980818062CFCFCF93DF9313
:10080000EC01888D8823B9F0AA89BB89E889F98928
:100810008C9185FD03C0808186FD0DC00FB607FC5D
:10082000F7CF8C9185FFF2CF808185FFEDCFCE0190
:100830000E948F03E9CFDF91CF91089580E090E08F
:10084000892B29F00E94850381110E94000080E01D
:1008500090E0892B49F080E090E0892B29F00E94FC
:10086000000081110E94000080E090E0892B49F097
:1008700080E090E0892B29F00E94000081110E9405
:10088000000080E090E0892B49F080E090E0892B27
:1008900029F00E94000081110C9400000895089531
:1008A00090E080E00895CF92DF92EF92FF92CF9395
:1008B000DF930E94C402EB010E94C4020E94C402A2
:1008C0006B0189EE93E00E947903892B29F089EE70
:1008D00093E00E940C03F5CFCC1ADD0A88EEC8160F
:1008E00083E0D8065CF389EE93E00E947903892BBC
:1008F00029F7DF91CF91FF90EF90DF90CF9008958F
:1009000082E00E94E501892B41F062ED70E080E019
:1009100090E00E94920281E0089583E00E94E50148
:10092000892B71F362ED70E080E090E00E9492020A
:1009300080E00895FF920F931F93CF93DF93C8E059
:10094000D0E0FC2E61E08C2F0E940E0204E010E04B
:10095000802F0E94E5010197B1F460E08F2D0E9485
:100960000E0204501109C801880F991F080F191FA2
:10097000C00FD11FC850DE4F8881DF91CF911F91EA
:100980000F91FF9008950F5F1F4F0830110501F779
:1009900060E08F2D0E940E022196CB30D10589F6A2
:1009A00080E2EBCFCF92DF92EF92FF920F931F93F3
:1009B000CF93DF931F921F92CDB7DEB769834A832F
:1009C000880F991F0091DC041091DD04000F111FA6
:1009D000E6E8F4E09F01265834402017310714F46C
:1009E0001192F8CF2981FC01EA57FB4F21838A81BC
:1009F000808360E08091DA040E940E0210161106D6
:100A000004F501501109F801EA57FB4FE080D0903E
:100A1000D804C090D60488E0F82E6E2D661F662795
:100A2000661F8C2D0E940E02EE0C61E08D2D0E943F
:100A30000E0260E08D2D0E940E02FA94F110EDCFAF
:100A4000DDCF61E08091DA040F900F90DF91CF91BC
:100A50001F910F91FF90EF90DF90CF900C940E02BA
:100A6000EF92FF920F931F93CF937C018C0183E051
:100A7000000F111F8A95E1F70A561B4FC1E0F801DC
:100A800011928F0140E06C2FC7010E94D204CF5F0A
:100A9000C930A9F7CF911F910F91FF90EF90089562
:100AA000CF93DF93EC0160E08E810E940E0261E043
:100AB0008E810E940E0260E08E810E940E028BE801
:100AC00091E00197F1F7DF91CF910895CF92DF92F6
:100AD000EF92FF920F931F93CF93DF936C017C01F2
:100AE00087E0E80EF11CD0E0C0E0062F10E0B8016E
:100AF0000C2E02C0759567950A94E2F76170F701B4
:100B000081917F010E940E022196C430D10579F7B0
:100B1000C601DF91CF911F910F91FF90EF90DF9071
:100B2000CF900C945005CF92DF92EF92FF920F93EB
:100B30001F93CF93DF93EC01F62E642F8C810E94DC
:100B40000E028D818F3F19F060E00E940E020F2D82
:100B500010E08F8584FF25C06E0187E0C80ED11C90
:100B6000F12CE12CB8010E2C02C0759567950A9402
:100B7000E2F76170F60181916F010E940E02FFEFB2
:100B8000EF1AFF0A88E0E816F10461F7CE01DF9161
:100B9000CF911F910F91FF90EF90DF90CF900C9429
:100BA0005005B80184E0759567958A95E1F7CE0107
:100BB0000E9466056F2DCE01DF91CF911F910F919D
:100BC000FF90EF90DF90CF900C94660540E0682F87
:100BD0008EED94E00C94930581E00E94E6058BE392
:100BE0009FE10197F1F70895CF93DF93813029F0CA
:100BF0009091ED0498609093ED048093F10410922D
:100C0000F20480E48093F30480E18093F40480E5AF
:100C10008093F50461E08091E2040E943C0280919F
:100C2000E3048F3F19F061E00E943C0261E0809193
:100C3000E4040E943C02CEEDD4E09E012E5D3440DF
:100C40008091ED0484FD0BC084E090E0219628178C
:100C5000390744F461E08E810E943C02EECF88E0C7
:100C600090E0F4CF8BE39DE00197F1F760E0809195
:100C7000E2040E940E0260E08091E4040E940E02F1
:100C80008091E3048F3F19F060E00E940E02809192
:100C9000ED0484FD34C063E08EED94E00E946605AF
:100CA000CBE4D6E4CE010197F1F763E08EED94E05A
:100CB0000E9466052197F1F763E08EED94E00E94B3
:100CC000660583E592E00197F1F762E08EED94E02E
:100CD0000E9466058091ED0480620E94E60584E032
:100CE0008093EE048CE00E94E6050E94EC0582E011
:100CF0008093EF0486E0DF91CF910C94E60580624B
:100D00000E94E6058BE496E40197F1F78091ED04EB
:100D100080620E94E60583E592E00197F1F78091F9
:100D2000ED0480620E94E605D5CF843008F083E0B0
:100D30009091F104891710F08FEF890FE82FF0E000
:100D4000E252FB4F848980680C94E60541E00E94E2
:100D5000930581E090E00895CF93DF93EC0190E05C
:100D600080E00E94E90E8883CE01DF91CF91089543
:100D70009F92AF92BF92CF92DF92EF92FF920F932A
:100D80001F93CF93DF935C017B018B01D0E0C0E028
:100D9000F80191908F016501CC0EDD1EC6010E9405
:100DA000E90E981621F0692DC6010E94F10E2196D8
:100DB000CF31D10569F7C701DF91CF911F910F9115
:100DC000FF90EF90DF90CF90BF90AF909F900895ED
:100DD000FB0101900020E9F73197AF01461B570B4B
:100DE000DC01ED91FC910280F381E02D1994BC01AE
:100DF0008EED94E00C94E8060F931F93CF93DF934E
:100E0000EC010E94E8068C016AE272E0CE010E94C9
:100E1000E806800F911FDF91CF911F910F910895E8
:100E20001F93CF93DF9300D0CDB7DEB7BC0189EE1F
:100E300093E00E94FC0610E089EE93E00E947903A3
:100E4000892B31F0CE0101960E94200311E0F4CFEE
:100E5000112391F389EE93E00E947903892B61F7C6
:100E60000F900F900F90DF91CF911F9108951F92D7
:100E70000F920FB60F9211242F933F938F939F934E
:100E8000AF93BF938091E1039091E203A091E303BC
:100E9000B091E4033091E00323E0230F2D3758F5A0
:100EA0000196A11DB11D2093E0038093E10390936F
:100EB000E203A093E303B093E4038091E5039091F0
:100EC000E603A091E703B091E8030196A11DB11DCF
:100ED0008093E5039093E603A093E703B093E803C0
:100EE000BF91AF919F918F913F912F910F900FBE26
:100EF0000F901F90189526E8230F0296A11DB11D93
:100F0000D2CF1F920F920FB60F9211240BB60F92F1
:100F10002F933F934F935F936F937F938F939F9301
:100F2000AF93BF93EF93FF9389EE93E00E948F03FB
:100F3000FF91EF91BF91AF919F918F917F916F91B1
:100F40005F914F913F912F910F900BBE0F900FBE6D
:100F50000F901F9018951F920F920FB60F921124A9
:100F60000BB60F922F938F939F93EF93FF93E09184
:100F7000F903F091FA038081E091FF03F0910004FE
:100F800082FD1DC09081809102048F5F8F7320913C
:100F90000304821741F0E0910204F0E0E751FC4FB6
:100FA000958F80930204FF91EF919F918F912F91E4
:100FB0000F900BBE0F900FBE0F901F901895808161
:100FC000F2CFCF93DF931092EC031092EB0388EEF5
:100FD00093E0A0E0B0E08093ED039093EE03A09344
:100FE000EF03B093F00380E192E09093EA038093E3
:100FF000E90385EC90E09093F6038093F50384EC8D
:1010000090E09093F8038093F70380EC90E0909346
:10101000FA038093F90381EC90E09093FC038093B2
:10102000FB0382EC90E09093FE038093FD0386EC3B
:1010300090E0909300048093FF03109202041092BA
:10104000030410920404109205041092E10410921B
:10105000E00482E292E09093DF048093DE0486E174
:101060008093E2048FEF8093E30487E18093E404AC
:1010700088E18093E50489E18093E6048AE1809326
:10108000E7048BE18093E8041092E9041092EA04EB
:101090001092EB041092EC041092ED0481E00E9497
:1010A000F405CCE1D0E0D093D704C093D6048EE110
:1010B00090E09093D9048093D8048DE190E09093D0
:1010C000DB048093DA0481E090E09093DD04809368
:1010D000DC0461E08CE10E943C0261E08091D80474
:1010E0000E943C0261E08091DA040E943C0261E0CF
:1010F0008091DA040E940E02D093D704C093D604E4
:10110000E6E9F4E0119284E0E63DF807D9F7D0E093
:10111000C0E08091DC049091DD04C817D90774F514
:1011200040E06FE0CE010E94D2048091DC049091F7
:10113000DD04C817D9072CF447E06BE0CE010E940C
:10114000D20440E069E0CE010E94D2048091DC0428
:101150009091DD04C817D9071CF4CE010E94300518
:101160008091DC049091DD04C817D9072CF440E08D
:101170006CE0CE010E94D2042196CBCFDF91CF91BB
:101180000895CF93DF93CDB7DEB7C154D1090FB621
:10119000F894DEBF0FBECDBF789484B5826084BD65
:1011A00084B5816084BD85B5826085BD85B581606B
:1011B00085BD80916E00816080936E0010928100E9
:1011C00080918100826080938100809181008160A4
:1011D0008093810080918000816080938000809165
:1011E000B10084608093B1008091B00081608093F1
:1011F000B000809191008260809391008091910075
:101200008160809391008091900081608093900034
:101210008091A10082608093A1008091A1008160F3
:101220008093A1008091A00081608093A0008091B4
:10123000210182608093210180912101816080934E
:1012400021018091200181608093200180917A00AA
:10125000846080937A0080917A00826080937A0023
:1012600080917A00816080937A0080917A00806812
:1012700080937A001092C100E091F903F091FA0393
:1012800082E08083E091F503F091F6031082E09113
:10129000F703F091F8038FEC808310920104E09142
:1012A000FD03F091FE0386E08083E091FB03F09163
:1012B000FC03808180618083E091FB03F091FC035B
:1012C000808188608083E091FB03F091FC03808142
:1012D00080688083E091FB03F091FC0380818F7D27
:1012E00080838091DC049091DD041816190634F493
:1012F00041E06CE090E080E00E94D2048091DC0448
:101300009091DD041816190634F448E06AE090E084
:1013100080E00E94D2048091DC049091DD041816D4
:10132000190624F490E080E00E94300584E00E94D9
:10133000F40512E060E0812F0E943C021F5F18302C
:10134000C9F761E088E00E943C0261E089E00E9408
:101350003C0261E08AE00E943C0280E00E94950627
:101360006DE272E08EED94E00E94FC0681E00E9446
:1013700095066DE372E08EED94E00E94FC0682E03B
:101380000E9495066EE472E08EED94E00E94FC06E9
:1013900083E00E9495066EE572E08EED94E00E9477
:1013A000FC0664EF71E080E090E00E9492020E94EF
:1013B000EC0580E00E9495066DE672E08EED94E00B
:1013C0000E94FC0664EF71E080E090E00E949202CF
:1013D0006DE772E08E010F5F1F4FC8010E94100F72
:1013E00064E872E0CE010C960E94100F64E872E08F
:1013F000CE0147960E94100FB80188EE93E00E943C
:10140000B80660ED262E63E0362E75ECC72E73E02D
:10141000D72ECE01809622969FAF8EAF2297E09175
:10142000DE03F091DF03E830F10508F05CC08827A7
:10143000E35EF54F8F4F0C94FF0E250AD10C9A0AEC
:10144000C80A730A210D9C0C490C0E94EC0580E02F
:101450000E94950689E892E00E94F70681E00E94CA
:10146000950688E992E00E94F70682E00E949506C0
:1014700089EA92E00E94F70683E00E94950681EBDC
:1014800092E00E94F7068091DD038E5F0E94950630
:101490008DEB92E00E94F7060E949A04823381F459
:1014A00062ED70E080E090E00E9492028091DD03A6
:1014B00081508093DD038F3FB1F41092DD0313C0A0
:1014C0008833A1F462ED70E080E090E00E94920227
:1014D0008091DD038F5F823018F48093DD0303C0B9
:1014E00091E09093DD030E941E0499CF82E00E9458
:1014F000E5017C01019781F662ED70E080E090E00B
:101500000E9492028091DD03882339F08130A9F690
:10151000F092DF03E092DE03D0CF82E090E0909380
:10152000DF038093DE0383E090E09093DC038093FD
:10153000DB03C3CF0E9453040E94EC058FEB92E0C3
:101540000E94F70681E00E94950680ED92E00E94DD
:10155000F706F12C89EE93E00E947903892B39F08C
:10156000CE0180960E942003FF24F394F3CFFF2046
:1015700089F389EE93E00E947903892B59F78091D2
:10158000DB039091DC039093DF038093DE03ABCF0A
:101590008BE0F101282F11922A95E9F7F6011192BB
:1015A0008A95E9F789E0ECEBF3E011928A95E9F787
:1015B0005BE0652E0E94530481EE92E00E941007CA
:1015C000F101262D11922A95E9F70E94EC0589EE8A
:1015D00092E00E94F70681E00E94950683EF92E078
:1015E0000E94F70682E00E9495060E94C4024B0109
:1015F0005C010E94C4020E945304F12CE12C712C66
:1016000089EE93E00E947903892B71F089EE93E0D3
:101610000E940C03F701E053FC4F8083C701019641
:101620007C0177247394ECCF772081F10E94C4026F
:10163000681979098A099B09643F71408105910500
:10164000FCF280ED93E00E94F70683E00E9495068D
:101650008EEF92E00E94F70664EF71E080E090E088
:101660000E9492020E948004982E81115AC082E04A
:101670000E9495068FE093E00E94F70683E00E94A7
:1016800095068FE093E00E94F70694CF0E94C40273
:101690004B015C010E94C402B3CF8820D9F00E94A4
:1016A000C4026419750986099709643F7140810570
:1016B00091050CF45CC045ECE42E43E0F42EF701F8
:1016C00081917F01882369F06AE28EED94E00E94A7
:1016D000A606F5CF0E94C4022B013C010E94C40261
:1016E00046C083E00E9495068EEF92E00E94F706C6
:1016F00064EF71E080E090E00E9492020E9480041A
:10170000782E811149C082E00E9495068FE093E017
:101710000E94F70683E00E9495068FE093E00E9406
:10172000F7060E94530483E293E00E941007F6013B
:101730002BE011922A95E9F70E94EC0589EE92E0E0
:101740000E94F70681E00E94950680E293E00E94E5
:10175000F70682E00E9495060E94C4022B013C011C
:101760000E94C4020E945304F12CE12C812C89EECA
:1017700093E00E9479035C01892B09F48ECF89EEF6
:1017800093E00E940C03F701EB53FC4F8083C701E9
:1017900001967C01892CEBCF8CE293E00E9410072C
:1017A00018A2CE0180960E94AC0681E090E07C01F8
:1017B000E01AF10A612C88A18A151B0449F144F151
:1017C0004801C4018E0D9F1D0E94E90EF401819312
:1017D0004F0122968EAD9FAD2297E817F90789F742
:1017E000B80180ED93E00E94070F892B51F4BE01F0
:1017F000645F7F4F85EC93E00E94070F892B09F40B
:10180000672C9FEFA91AB90AEFE1EE0EF11CD3CFB6
:101810000E94EC056DE772E080ED93E00E94070FF7
:10182000892BF9F464E872E085EC93E00E94070FDD
:10183000892BB9F48AE393E00E94F70662E370E033
:1018400080E090E00E94920287E090E09093DF03B6
:101850008093DE0360ED77E080E090E00E949202EA
:1018600042CE662019F086E090E0F0CF80ED93E064
:101870000E94F70685EC93E00E94F70662E370E0B1
:1018800080E090E00E9492021092DF031092DE034B
:10189000E1CF0E94EC0580E00E94950688E992E085
:1018A0000E94F70681E00E94950681E393E00E9482
:1018B000F70682E00E94950680E493E00E94F70616
:1018C00083E00E94950680E593E00E94F7068091F0
:1018D000DD038F5F0E9495068DEB92E00E94F70674
:1018E0000E949A04823309F4DBCD883381F462EDDF
:1018F00070E080E090E00E9492028091DD038F5FB3
:101900008093DD03833008F4EECD82E0E6CD82E003
:101910000E94E501019721F762ED70E080E090E020
:101920000E9492028091DD03823009F0C6CD1092B0
:10193000DF031092DE03C1CD0E94EC0580E00E941F
:10194000950688E992E00E94F70681E00E949506DC
:1019500080E693E00E94F70682E00E94950681E708
:1019600093E00E94F70683E00E94950680E593E0ED
:101970000E94F7068091DD038F5F0E9495068DEB34
:1019800092E00E94F7060E949A04823309F488CDFF
:10199000883309F4ACCF82E00E94E501019799F702
:1019A000BBCF0E94EC0580E00E94950688E992E09A
:1019B0000E94F70681E00E94950683E893E00E946A
:1019C000F70682E00E94950680E993E00E94F70600
:1019D00083E00E94950688E993E00E94F7068091D3
:1019E000DD038F5F0E9495068DEB92E00E94F70663
:1019F0000E949A04823309F453CD883309F477CFD7
:101A000082E00E94E501019799F762ED70E080E0C5
:101A100090E00E9492028091DD03813059F008F03D
:101A200083CF82E090E09093DF038093DE0385E034
:101A300090E07BCD88E090E09093DF038093DE031D
:101A40003CCD8BE0F101282F11922A95E9F7F601A0
:101A500011928A95E9F789E0ECEBF3E011928A950F
:101A6000E9F73BE0532E0E94530481EE92E00E947E
:101A70001007F101252D11922A95E9F70E94EC0536
:101A800080EA93E00E94F70681E00E94950683EFCA
:101A900092E00E94F70682E00E9495060E94C4022E
:101AA0004B015C010E94C4020E945304F12CE12C02
:101AB000712C89EE93E00E947903892B71F089EEF5
:101AC00093E00E940C03F701E053FC4F8083C701B1
:101AD00001967C0177247394ECCF772009F45EC0E3
:101AE0000E94C402681979098A099B09643F714000
:101AF00081059105F4F280ED93E00E94F70683E002
:101B00000E9495068EEF92E00E94F70664EF71E066
:101B100080E090E00E9492020E948004682E882358
:101B200009F443C029E0522E0E94530483EB93E052
:101B30000E941007ECEBF3E0252D11922A95E9F7AE
:101B40000E94EC0580EA93E00E94F70681E00E9483
:101B5000950680EB93E00E94F70682E00E949506CE
:101B60000E94C4024B015C010E94C4020E94530403
:101B7000F12CE12C712C89EE93E00E947903892BE2
:101B800019F189EE93E00E940C03F701E454FC4F35
:101B90008083C70101967C01762CEDCF0E94C402A0
:101BA0004B015C010E94C40284CF82E00E94950632
:101BB0008FE093E00E94F70683E00E9495068FE095
:101BC00093E00E94F7064FCF772009F45DC00E9492
:101BD000C402681979098A099B09643F714081052B
:101BE00091054CF28CEB93E00E94F70683E00E9493
:101BF00095068EEF92E00E94F70664EF71E080E0B8
:101C000090E00E9492020E948004782E882309F4BA
:101C100042C09BE0592E0E94530483E293E00E944D
:101C20001007F601252D11922A95E9F70E94EC057F
:101C300080EA93E00E94F70681E00E94950680E228
:101C400093E00E94F70682E00E9495060E94C4027B
:101C50004B015C010E94C4020E945304F12CE12C50
:101C6000612C89EE93E00E947903892B19F189EEAA
:101C700093E00E940C03F701EB53FC4F8083C701F4
:101C800001967C01672CEDCF0E94C4024B015C01E0
:101C90000E94C40270CF82E00E9495068FE093E01C
:101CA0000E94F70683E00E9495068FE093E00E9471
:101CB000F7063ACF6620D1F00E94C402681979096C
:101CC0008A099B09643F71408105910554F285ECB6
:101CD000E82E83E0F82EF70181917F01882369F0D7
:101CE0006AE28EED94E00E94A606F5CF0E94C4023F
:101CF0004B015C010E94C402B4CF83E00E949506B0
:101D00008EEF92E00E94F70664EF71E080E090E0D1
:101D10000E9492020E94800481110FC082E00E9402
:101D200095068FE093E00E94F70683E00E949506F7
:101D30008FE093E00E94F7066ECF8CE293E00E9462
:101D400010078BE0E0EDF3E0DE01909601900D923C
:101D50008A95E1F789E0ECEBF3E0DE01D69601909D
:101D60000D928A95E1F78BE0E5ECF3E0DE019B96BE
:101D700001900D928A95E1F71FAECE01CF960E9499
:101D8000AC068FADFFE18F9FC0011124BE01605EE4
:101D90007F4F01960E94B806FFACF394FFAE90E02F
:101DA00080E00E94E90EF81629F06F2D90E080E0A7
:101DB0000E94F10E62E370E080E090E00E949202E7
:101DC00081E090E09093DF038093DE030E94EC05B6
:101DD0008ACBF999FECF92BD81BDF89A992780B53B
:101DE0000895262FF999FECF1FBA92BD81BD20BD5F
:101DF0000FB6F894FA9AF99A0FBE01960895EE0F6D
:101E0000FF1F881F8BBF0790F691E02D1994FB01EF
:101E1000DC018D91019080190110D9F3990B08957F
:101E2000FB01DC0101900D920020E1F70895F89488
:101E3000FFCF3132333435363738392A302300007A
:101E40000000B103D002FD02FE0379030C036B0313
:101E500000000000A606D00250044F040D0A0052F4
:101E60007562656E2032303231313138333500538E
:101E7000657267696F203230323131313833350065
:101E8000506564726F203230323131313833350071
:101E90004A6F736520323032313131383335005377
:101EA000656261732032303231313138333500614F
:101EB000646D696E310031323334004D656E7520CA
:101EC0007072696E636970616C0050726573696FDE
:101ED0006E6120616365707461720020204C6F67D1
:101EE000696E002020526567697374726172003EEA
:101EF00000204573706572616E646F2020756E619D
:101F00002000202020636F6E6578696F6E2E2E2E64
:101F10002020004E6F6D6272653A004C204F2047C2
:101F20002049204E00202D204E4F4D4252453A0070
:101F3000436F72726563746F3F2020202020202041
:101F400000202020202020202020202020202020B1
:101F50002000202D20436F6E747261733A004E4151
:101F60004441002020416363696F6E2041444D4924
:101F70004E002020416363696F6E2041444D494EFD
:101F80003200202043657272617220736573696F3D
:101F90006E002020416363696F6E20557375617216
:101FA000696F002020416363696F6E20557375610E
:101FB00072696F3200202041706C69636163696FE0
:101FC0006E00202050616E656C00202053616C69AA
:101FD000720052204520472049205320542052208F
:0E1FE0004F00202D2043656C756C61723A0035
:020000040003F7
:10E000000D9489F10D94B2F10D94B2F10D94B2F129
:10E010000D94B2F10D94B2F10D94B2F10D94B2F1F0
:10E020000D94B2F10D94B2F10D94B2F10D94B2F1E0
:10E030000D94B2F10D94B2F10D94B2F10D94B2F1D0
:10E040000D94B2F10D94B2F10D94B2F10D94B2F1C0
:10E050000D94B2F10D94B2F10D94B2F10D94B2F1B0
:10E060000D94B2F10D94B2F10D94B2F10D94B2F1A0
:10E070000D94B2F10D94B2F10D94B2F10D94B2F190
:10E080000D94B2F10D94B2F10D94B2F10D94B2F180
:10E090000D94B2F10D94B2F10D94B2F10D94B2F170
:10E0A0000D94B2F10D94B2F10D94B2F10D94B2F160
:10E0B0000D94B2F10D94B2F10D94B2F10D94B2F150
:10E0C0000D94B2F10D94B2F10D94B2F10D94B2F140
:10E0D0000D94B2F10D94B2F10D94B2F10D94B2F130
:10E0E0000D94B2F141546D656761323536300041AF
:10E0F000726475696E6F206578706C6F72657220DE
:10E1000073746B3530305632206279204D4C530099
:10E11000426F6F746C6F616465723E004875683F52
:10E1200000436F6D70696C6564206F6E203D200048
:10E130004350552054797065202020203D20005FF9
:10E140005F4156525F415243485F5F3D2000415658
:10E1500052204C696243205665723D20004743437C
:10E160002056657273696F6E203D20004350552024
:10E1700049442020202020203D20004C6F7720663D
:10E18000757365202020203D20004869676820665F
:10E190007573652020203D200045787420667573D6
:10E1A00065202020203D20004C6F636B2066757336
:10E1B000652020203D20004D617220203720323024
:10E1C000313300312E362E3800342E332E350056A2
:10E1D00023202020414444522020206F7020636F70
:10E1E00064652020202020696E73747275637469E1
:10E1F0006F6E2061646472202020496E74657272B3
:10E20000757074006E6F20766563746F7200726A49
:10E210006D702020006A6D70200057686174207056
:10E220006F72743A00506F7274206E6F7420737541
:10E2300070706F72746564004D7573742062652030
:10E2400061206C6574746572002000577269747483
:10E25000696E672045450052656164696E672045B7
:10E26000450045452065727220636E743D00504F35
:10E27000525400303D5A65726F2061646472003FF1
:10E280003D43505520737461747300403D454550C3
:10E29000524F4D207465737400423D426C696E6B41
:10E2A000204C454400453D44756D70204545505215
:10E2B0004F4D00463D44756D7020464C415348001B
:10E2C000483D48656C70004C3D4C69737420492F83
:10E2D0004F20506F72747300513D51756974005234
:10E2E0003D44756D702052414D00563D73686F7707
:10E2F00020696E7465727275707420566563746FF0
:10E30000727300593D506F727420626C696E6B00BD
:10E310002A0011241FBECFEFD1E2DEBFCDBF01E046
:10E320000CBF12E0A0E0B2E0EEE1FDEF03E00BBFB6
:10E3300002C007900D92A030B107D9F712E0A0E01B
:10E34000B2E001C01D92AE30B107E1F70F9460F367
:10E350000D948DFE01E20EBF0FEF0DBF11241FBE05
:10E360000D9460F30D9400F020E030E040ED57E0B4
:10E3700005C0FA013197F1F72F5F3F4F2817390792
:10E38000C0F308959C01260F311DC901A0E0B0E043
:10E390002F5F3F4FABBFFC018791882361F08093D3
:10E3A000C6008091C00086FFFCCF8091C0008064D1
:10E3B0008093C000EACF08958DE08093C6008091DD
:10E3C000C00086FFFCCF8091C00080648093C000B5
:10E3D0008AE08093C6008091C00086FFFCCF8091C8
:10E3E000C00080648093C00008950F94C2F10F9420
:10E3F000DCF10895FC019081992359F09093C600B7
:10E400008091C00086FFFCCF8091C0008064809323
:10E41000C0003196992379F70895282F982F929567
:10E420009F70892F805D8A3308F0895F8093C600D2
:10E430008091C00086FFFCCF8091C00080648093F3
:10E44000C000822F8F70982F905D9A3308F0995FEB
:10E450009093C6008091C00086FFFCCF8091C000E1
:10E4600080648093C00008959C01FB01853691056E
:10E470001CF46330710594F0C90164E670E00F94F8
:10E480002EFE605D7F4F6093C6008091C00086FFC6
:10E49000FCCF8091C00080648093C0002B30310598
:10E4A00014F43297B4F0C90164E670E00F942EFEC4
:10E4B0006AE070E00F942EFE605D7F4F6093C600AF
:10E4C0008091C00086FFFCCF8091C0008064809363
:10E4D000C000C9016AE070E00F942EFEC0968093E0
:10E4E000C6008091C00086FFFCCF8091C000806490
:10E4F0008093C00008951F93182F8EE692EE60E07F
:10E500000F94C2F11093C6008091C00086FFFCCF2B
:10E510008091C00080648093C0000F94DCF11F9153
:10E5200008952F923F924F925F926F927F928F92B7
:10E530009F92AF92BF92CF92DF92EF92FF920F9392
:10E540001F93DF93CF93CDB7DEB762970FB6F894E2
:10E55000DEBF0FBECDBF382E622ECA01DB015C01CB
:10E560006D01772420E2222E2E010894411C511CBB
:10E570008BC081E0A81680E0B80681E0C80680E084
:10E58000D80628F0C601AA27BB270F940DF2BB2797
:10E59000AD2D9C2D8B2D0F940DF28A2D0F940DF225
:10E5A0002092C6008091C00086FFFCCF8091C00001
:10E5B00080648093C0009DE29093C6008091C0006B
:10E5C00086FFFCCF8091C00080648093C0002092C1
:10E5D000C6008091C00086FFFCCF8091C00080649F
:10E5E0008093C00019828601750188249924A1E0D6
:10E5F0003A1651F03A1620F0B2E03B1661F409C029
:10E600000BBFF701779007C0C7010F9477FE782EF4
:10E6100002C0F7017080872D0F940DF22092C60082
:10E620008091C00086FFFCCF8091C0008064809301
:10E63000C000872D8052F401EF70F0708F3520F408
:10E64000E40DF51D708204C0E40DF51D8EE280839B
:10E650000894E11CF11C011D111D0894811C911CE2
:10E6600090E18916910409F0C2CF80E190E0A0E02A
:10E67000B0E0A80EB91ECA1EDB1E198AC2010F9493
:10E68000FAF10F94DCF16A94662009F072CF629679
:10E690000FB6F894DEBF0FBECDBFCF91DF911F91B3
:10E6A0000F91FF90EF90DF90CF90BF90AF909F9031
:10E6B0008F907F906F905F904F903F902F90089534
:10E6C0002F923F924F925F926F927F928F929F9282
:10E6D000AF92BF92CF92DF92EF92FF920F931F9370
:10E6E000DF93CF93CDB7DEB7CD53D1400FB6F894BB
:10E6F000DEBF0FBECDBF01E20EBF0FEF0DBF94B75F
:10E70000F894A89514BE80916000886180936000A1
:10E7100010926000789493FF05C0E0910002F091A0
:10E7200001021995279A2F9A8091C00082608093E8
:10E73000C00080E18093C40088E18093C1000000A4
:10E74000EE24FF24870144E0A42EB12CCC24DD2448
:10E7500024C0C5010197F1F70894E11CF11C011DCB
:10E76000111D21E2E2162EE4F20620E0020720E06D
:10E77000120718F031E0C32ED12CC801B70127ECE5
:10E780003BE140E050E00F9441FE611571058105C9
:10E79000910519F485B1805885B98091C00087FD35
:10E7A00003C0C114D104A9F2A6014F5F5F4FC25E3E
:10E7B000DE4F59834883CE51D140C25EDE4F8881FF
:10E7C0009981CE51D140019711F00D9410FEC05D9A
:10E7D000DE4F19821882C053D14060E0C15DDE4F28
:10E7E0001882CF52D14088249924C35DDE4F19820C
:10E7F0001882CD52D140C05EDE4F188219821A8233
:10E800001B82C052D140CE5CDE4F188219821A8220
:10E810001B82C253D140EE24FF2487010BBFF701B6
:10E8200007911691C45CDE4F19830883CC53D14005
:10E830000D940BFEC25EDE4F28813981CE51D1404E
:10E840002130310509F52091C600C25EDE4F1982E4
:10E850001882CE51D14022C02F5F3F4F4F4F5F4FA4
:10E86000213082E138078AE7480780E0580780F0C6
:10E87000C45CDE4FE881F981CC53D140EF5FFF4F9C
:10E8800019F0EE27FF27099420E030E040E050E047
:10E890008091C00087FFE0CF2091C600C35DDE4FAE
:10E8A00048815981CD52D1404F5F5F4FC35DDE4FEC
:10E8B00059834883CD52D140213209F063C64A3092
:10E8C000510508F05FC60894811C911C53E0851621
:10E8D000910409F059C600E010E018C081E280936D
:10E8E000C6008091C00086FFFCCF8091C00080648C
:10E8F0008093C0002F5F3F4F2931310579F70F9486
:10E90000DCF10F5F1F4F0530110519F020E030E0FA
:10E91000E5CF10920A0210920B0210920C02109294
:10E920000D02109206021092070210920802109235
:10E930000902109202021092030210920402109235
:10E9400005028FEE90EE60E00F94F5F180E191EE1C
:10E9500060E00F94C2F18091C00087FFFCCF9091DE
:10E96000C600903608F09F759032B8F09093C600BC
:10E970008091C00086FFFCCF8091C00080648093AE
:10E98000C000A0E2A093C6008091C00086FFFCCF2B
:10E990008091C00080648093C000983409F4D7C18E
:10E9A0009934B8F4923409F459C1933458F490333B
:10E9B00019F1903308F4E3C59F33A1F1903409F0C5
:10E9C000DEC5BDC0953409F470C1963409F0D7C5D1
:10E9D00098C1923509F42BC2933538F49C3409F46C
:10E9E000F5C1913509F0CBC518C2963509F445C279
:10E9F000993509F0C4C567C483E792EE62E00F94CD
:10EA0000F5F110920602109207021092080210927D
:10EA1000090210920A0210920B0210920C0210923C
:10EA20000D0213C18FE792EE62E00F94F5F18FEEC5
:10EA300090EE60E00F94F5F181E291EE60E00F94CA
:10EA4000C2F187EB91EE60E00F94F5F180E391EE77
:10EA500060E00F94C2F184EE90EE60E00F94F5F167
:10EA60008FE391EE60E00F94C2F186E090E061E008
:10EA700070E00F9434F20F94DCF18DE591EE60E0DC
:10EA80000F94C2F189EC91EE60E00F94F5F18EE401
:10EA900091EE60E00F94C2F183EC91EE60E00F9490
:10EAA000F5F18CE691EE60E00F94C2F18EE10F94E7
:10EAB0000DF288E90F940DF281E00F940DF20F949E
:10EAC000DCF18BE791EE60E00F94C2F119E0E0E039
:10EAD000F0E010935700E4918E2F0F940DF20F94F5
:10EAE000DCF18AE891EE60E00F94C2F1E3E0F0E03F
:10EAF00010935700E4918E2F0F940DF20F94DCF1D8
:10EB000089E991EE60E00F94C2F1E2E0F0E0109349
:10EB10005700E4918E2F0F940DF20F94DCF188EAE8
:10EB200091EE60E00F94C2F1E1E0F0E01093570045
:10EB30001491812F0F940DF20F94DCF107CF8BE825
:10EB400092EE62E00F94F5F18BE492EE60E00F94A8
:10EB5000F5F10F94DCF100E010E019C0C8016F2D51
:10EB60000F947FFEFF2031F489E492EE60E00F9471
:10EB7000C2F10BC0F092C6008091C00086FFFCCFAE
:10EB80008091C00080648093C0000F5F1F4FC80158
:10EB900081519F41A0E0B0E0ABBFFC01F790BAE229
:10EBA000FB1621F0E2E000301E07C1F60F94DCF105
:10EBB0000F94DCF187E592EE60E00F94F5F10F948D
:10EBC000DCF1CC24DD2400E010E01EC0C8010F946D
:10EBD00077FEF82E882331F489E492EE60E00F94FA
:10EBE000C2F10BC08093C6008091C00086FFFCCFAD
:10EBF0008091C00080648093C000FE1419F00894D6
:10EC0000C11CD11C0F5F1F4FC80181519F41A0E063
:10EC1000B0E0ABBFFC01E790FAE2EF1621F022E092
:10EC20000030120799F60F94DCF10F94DCF182E6C4
:10EC300092EE60E00F94C2F1C60161E070E00F94C3
:10EC400034F20F94DCF10F94DCF110920202109276
:10EC50000302109204021092050278CE89E992EE26
:10EC600062E00F94F5F1279A2F9A16C02F9880E052
:10EC700090E0E0EDF7E03197F1F7019684369105E9
:10EC8000C1F72F9A80E090E0E0EDF7E03197F1F7DF
:10EC9000019684369105C1F78091C00087FFE6CFC9
:10ECA0008091C00087FFFCCF64C485EA92EE62E0E9
:10ECB0000F94F5F140910202509103026091040219
:10ECC0007091050281E020E10F9491F2809102029F
:10ECD00090910302A0910402B091050280509F4FD1
:10ECE000AF4FBF4F8093020290930302A0930402A0
:10ECF000B093050280509041A040B04008F426CE69
:10ED0000A4CF83EB92EE62E00F94F5F140910602FE
:10ED100050910702609108027091090280E020E1A1
:10ED20000F9491F28091060290910702A09108023F
:10ED3000B091090280509F4FAF4FBF4F80930602A2
:10ED400090930702A0930802B0930902FFCD80ECD4
:10ED500092EE62E00F94F5F183E792EE60E00F949B
:10ED6000F5F18FE792EE60E00F94F5F18BE892EE0B
:10ED700060E00F94F5F189E992EE60E00F94F5F10F
:10ED800085EA92EE60E00F94F5F183EB92EE60E09D
:10ED90000F94F5F180EC92EE60E00F94F5F187ECC2
:10EDA00092EE60E00F94F5F188ED92EE60E00F9442
:10EDB000F5F18FED92EE60E00F94F5F18AEE92EEB0
:10EDC00060E00F94F5F183E093EEBDCD87EC92EE19
:10EDD00062E00F94F5F181E40F947BF282E40F94EA
:10EDE0007BF283E40F947BF284E40F947BF285E45E
:10EDF0000F947BF286E40F947BF287E40F947BF20E
:10EE000088E40F947BF28AE40F947BF28BE40F94F6
:10EE10007BF28CE40F947BF299CD88ED92EE62E068
:10EE20000F94F5F1772473948824992409C48FED05
:10EE300092EE62E00F94F5F140910A0250910B02BC
:10EE400060910C0270910D0282E020E10F9491F22A
:10EE500080910A0290910B02A0910C02B0910D02D8
:10EE600080509F4FAF4FBF4F80930A0290930B0289
:10EE7000A0930C02B0930D0269CD8AEE92EE62E08F
:10EE80000F94F5F184EE90EE60E00F94F5F18FECC5
:10EE900091EE60E00F94F5F1662477244301CC5D98
:10EEA000DE4F19821882C452D140D401C301B695F5
:10EEB000A79597958795CA5DDE4F88839983AA8326
:10EEC000BB83C652D140CC5DDE4FA881B981C4520C
:10EED000D1401196CC5DDE4FB983A883C452D14096
:10EEE000CD0162E070E00F9434F2B0E2B093C6005E
:10EEF0008091C00086FFFCCF8091C0008064809329
:10EF0000C000EDE2E093C6008091C00086FFFCCF18
:10EF10008091C00080648093C000F0E2F093C6004E
:10EF20008091C00086FFFCCF8091C00080648093F8
:10EF3000C000CA5DDE4FE880F9800A811B81C6529D
:10EF4000D140BB27A12F902F8F2D0F940DF2CA5DBA
:10EF5000DE4F8881C652D1400F940DF2B0E2FB2EF5
:10EF6000F092C6008091C00086FFFCCF8091C00067
:10EF700080648093C0000DE30093C6008091C000C0
:10EF800086FFFCCF8091C00080648093C00010E2B7
:10EF90001093C6008091C00086FFFCCF8091C00016
:10EFA00080648093C0008BBEF3012791C65DDE4F65
:10EFB0002883CA52D140A22EBB24CC24DD2408943D
:10EFC000611C711C811C911C8BBEF3018791282E42
:10EFD0003324442455240894611C711C811C911C09
:10EFE0008BBEF3013791C55DDE4F3883CB52D140E4
:10EFF0000894611C711C811C911C8BBEF30147910C
:10F00000C45DDE4F4883CC52D140ADEFEA2EAFEF66
:10F01000FA2EAFEF0A2FAFEF1A2F6E0C7F1C801E57
:10F02000911E142D032DF22CEE24EA0CFB1C0C1D5A
:10F030001D1D0F940DF220E22093C6008091C000A8
:10F0400086FFFCCF8091C00080648093C000C65DC5
:10F05000DE4F8881CA52D1400F940DF230E23093D6
:10F06000C6008091C00086FFFCCF8091C000806404
:10F070008093C000C45DDE4F8881CC52D1400F9494
:10F080000DF240E24093C6008091C00086FFFCCFA5
:10F090008091C00080648093C000C55DDE4F888190
:10F0A000CB52D1400F940DF250E25093C6008091A4
:10F0B000C00086FFFCCF8091C00080648093C000B8
:10F0C0008FEFE8168FEFF80680E0080780E018075A
:10F0D00031F484E092EE60E00F94C2F1DFC0D80119
:10F0E000C7018070907CA070B0708050904CA040A0
:10F0F000B040D1F52FEF3FE340E050E0E222F322B1
:10F1000004231523CA5DDE4FA880B980CA80DB8046
:10F11000C652D140AE0CBF1CC01ED11EAA0CBB1CD7
:10F12000CC1CDD1C8EE092EE60E00F94C2F1BB2798
:10F13000A12F902F8F2D0F940DF28E2D0F940DF285
:10F1400030E23093C6008091C00086FFFCCF8091F2
:10F15000C00080648093C0004EE34093C60080915D
:10F16000C00086FFFCCF87C08EE09EEFA0E0B0E03D
:10F17000E822F9220A231B239CE0E91694E9F90608
:10F1800090E0090790E0190709F088C0C45DDE4FE0
:10F19000A881CC52D140EA2EFF2400E010E0102FCD
:10F1A0000F2DFE2CEE24C55DDE4FB881CB52D14031
:10F1B000EB0EF11C011D111DD601C501817090706F
:10F1C000A070B070DC0199278827E80EF91E0A1F8D
:10F1D0001B1F20EF30E040E050E0A222B322C42207
:10F1E000D52241E1AA0CBB1CCC1CDD1C4A95D1F7F1
:10F1F000EA0CFB1C0C1D1D1D81E090E0A0E0B0E0BE
:10F20000282239224A225B2235E1220C331C441C7D
:10F21000551C3A95D1F7E20CF31C041D151D57013E
:10F220006801AA0CBB1CCC1CDD1C85E192EE60E0E1
:10F230000F94C2F1C801AA27BB270F940DF2BB2778
:10F24000A12F902F8F2D0F940DF28E2D0F940DF274
:10F2500090E29093C6008091C00086FFFCCF809121
:10F26000C00080648093C000AEE3A093C60080918C
:10F27000C00086FFFCCF8091C00080648093C000F6
:10F28000C601AA27BB270F940DF2BB27AD2D9C2DDD
:10F290008B2D0F940DF28A2D0F940DF20F94DCF14B
:10F2A000CC5DDE4FE881F981C452D140F99709F471
:10F2B0004DCBF4E0EF2EF12C012D112D6E0C7F1CA7
:10F2C000801E911EF2CD83E093EE62E00F94F5F183
:10F2D0008AE192EE60E00F94C2F18091C00087FF56
:10F2E000FCCF1091C6001F751093C6008091C0001E
:10F2F00086FFFCCF8091C00080648093C0000F9493
:10F30000DCF1812F81548A3108F036C1163409F4BA
:10F3100095C0173490F4133409F44EC0143430F40B
:10F320001134F1F0123409F01DC130C0143409F465
:10F3300059C0153409F016C16BC01A3409F4C4C0A1
:10F340001B3438F4173409F48FC0183409F00AC19B
:10F35000A1C01B3409F4D2C01C3409F003C1E8C0B9
:10F360008FEF81B90DC082B1809582B980E090E0C5
:10F37000E0EDF7E03197F1F70196883C9105C1F790
:10F380008091C00087FFEFCF12B8EFC08FEF84B934
:10F390000DC085B1809585B980E090E0E0EDF7E0A3
:10F3A0003197F1F70196883C9105C1F78091C00033
:10F3B00087FFEFCF15B8D9C08FEF87B90DC088B1DF
:10F3C000809588B980E090E0E0EDF7E03197F1F7C3
:10F3D0000196883C9105C1F78091C00087FFEFCF6F
:10F3E00018B8C3C08FEF8AB90DC08BB180958BB9A7
:10F3F00080E090E0E0EDF7E03197F1F70196883C8E
:10F400009105C1F78091C00087FFEFCF1BB8ADC059
:10F410008FEF8DB90DC08EB180958EB980E090E0F0
:10F42000E0EDF7E03197F1F70196883C9105C1F7DF
:10F430008091C00087FFEFCF1EB897C08FEF80BBD1
:10F440000DC081B3809581BB80E090E0E0EDF7E0F6
:10F450003197F1F70196883C9105C1F78091C00082
:10F4600087FFEFCF11BA81C08FEF83BB0DC084B38C
:10F47000809584BB80E090E0E0EDF7E03197F1F714
:10F480000196883C9105C1F78091C00087FFEFCFBE
:10F4900014BA6BC08FEF809301010FC080910201FD
:10F4A00080958093020180E090E0E0EDF7E03197F5
:10F4B000F1F70196883C9105C1F78091C00087FF64
:10F4C000EDCF1092020151C08FEF809304010FC065
:10F4D0008091050180958093050180E090E0E0ED4A
:10F4E000F7E03197F1F70196883C9105C1F78091DB
:10F4F000C00087FFEDCF1092050137C08FEF8093DA
:10F5000007010FC08091080180958093080180E079
:10F5100090E0E0EDF7E03197F1F70196883C910536
:10F52000C1F78091C00087FFEDCF109208011DC088
:10F530008FEF80930A010FC080910B01809580931B
:10F540000B0180E090E0E0EDF7E03197F1F70196F4
:10F55000883C9105C1F78091C00087FFEDCF1092E4
:10F560000B0103C085E292EEEEC98091C00087FFD7
:10F57000FCCF8091C600EAC988E392EEE4C98CE131
:10F5800091EEE1C988249924933011F1943028F444
:10F59000913089F09230B8F408C0953061F195301F
:10F5A000F0F0963009F048C043C02B3109F042C951
:10F5B00091E06BE13FC96227C15DDE4F2883CF52E6
:10F5C000D14092E037C9B22FA0E0622793E032C960
:10F5D000822F90E0A82BB92B622794E02BC92E3004
:10F5E00009F039C3622795E0C05DDE4F19821882A9
:10F5F000C053D1401FC9E1E0F0E0EC0FFD1FC05D3A
:10F60000DE4F08811981C053D140E00FF11F2083E4
:10F610000F5F1F4FC05DDE4F19830883C053D14079
:10F6200062270A171B0709F005C9D80196E002C92D
:10F63000261709F010C303C0973009F0FBC87724E0
:10F640009981933109F412C19431C8F4963009F4C8
:10F65000D8C0973050F4923009F406C1933009F4C1
:10F660006DC0913009F059C253C0913109F477C08F
:10F67000923108F0BBC0903109F04FC2F5C098310B
:10F6800009F487C0993150F4953109F4EFC09531F0
:10F6900008F4C6C1963109F040C2C2C19A3109F4DA
:10F6A0006CC09A3108F491C09B3109F45BC09D3164
:10F6B00009F033C29D81903359F48F81882311F46E
:10F6C0009EE11CC0813011F091E018C098E916C08D
:10F6D000892F807591F0903539F4E0E0F0E089E011
:10F6E0008093570094910AC0983539F4E3E0F0E034
:10F6F00089E080935700949101C090E01A821B82A8
:10F700008D818C831D829E831F8227E030E009C299
:10F710001A8288E08B8381E48C8386E58D8382E581
:10F720008E8389E48F8383E5888780E589878FE5E9
:10F730008A8782E38B872BE030E0F3C18A818139AD
:10F7400041F0823941F0803911F48FE005C080E04A
:10F7500003C082E001C08AE01A828B8344C0772410
:10F76000739482C08D81882311F48EE12CC0813086
:10F7700011F081E028C088E926C01A82E1E0F0E0BB
:10F7800089E08093570084918B831C8224E030E0D1
:10F79000C8C18B81803589F48C81883039F4E2E0EE
:10F7A000F0E089E08093570084910DC0E0E0F0E044
:10F7B00089E080935700849106C0E3E0F0E089E09F
:10F7C0008093570084911A82DFCF8D81836C99E0FA
:10F7D000E1E0F0E0082E90935700E89507B600FCB2
:10F7E000FDCF1A821B8223E030E09BC180EC8A832C
:10F7F000CE5CDE4F188219821A821B82C253D1401E
:10F800008EC18A8190E0A0E0B0E0582F44273327D2
:10F8100022278B8190E0A0E0B0E0DC0199278827C7
:10F82000282B392B4A2B5B2B8D8190E0A0E0B0E098
:10F83000282B392B4A2B5B2B8C8190E0A0E0B0E089
:10F84000BA2FA92F982F8827282B392B4A2B5B2BCF
:10F85000220F331F441F551FC05EDE4F288339839C
:10F860004A835B83C052D1401A8259C13A81C95C34
:10F87000DE4F3883C753D140CA5CDE4F1882C6536F
:10F88000D1408B81C82EDD24CA5CDE4F488159816E
:10F89000C653D140C42AD52A933109F082C0CE5C28
:10F8A000DE4F88819981AA81BB81C253D1408050AB
:10F8B000904CA340B04030F583E0CE5CDE4FE88052
:10F8C000F9800A811B81C253D140F70100935B008C
:10F8D00080935700E89507B600FCFDCFCE5CDE4F65
:10F8E000088119812A813B81C253D14000501F4FAA
:10F8F0002F4F3F4FCE5CDE4F088319832A833B8313
:10F90000C253D140C05EDE4F488159816A817B81FC
:10F91000C052D140DE011B9631E08C9111962C91A2
:10F9200011971296C75CDE4F2883C953D140C85C3B
:10F93000DE4F1882C853D14090E0C85CDE4FE881AA
:10F94000F981C853D1408E2B9F2B0C01FA01609393
:10F950005B0030935700E89511244E5F5F4F6F4F67
:10F960007F4F0EEFE02E0FEFF02ECE0CDF1CC114F8
:10F97000D10499F685E0C05EDE4F088119812A81A5
:10F980003B81C052D140F80120935B008093570027
:10F99000E89507B600FCFDCF81E180935700E8951C
:10F9A00035C0C05EDE4F88819981AA81BB81C0527B
:10F9B000D140B695A795979587957C018601ABE0D8
:10F9C000AA2EB12CAC0EBD1E0BC0D5016D915D01F0
:10F9D000C7010F947FFE0894E11CF11C01501040F8
:10F9E0000115110591F7A60160E070E0440F551F65
:10F9F000661F771FC05EDE4FE880F9800A811B8199
:10FA0000C052D1404E0D5F1D601F711F1A82C05E33
:10FA1000DE4F488359836A837B83C052D1407FC0C5
:10FA2000FA80C55CDE4FF882CB53D140C65CDE4F16
:10FA30001882CA53D1408B81C82EDD24C65CDE4FAC
:10FA400008811981CA53D140C02AD12A1A828981DA
:10FA5000BE016D5F7F4F843121F59601C05EDE4FA0
:10FA6000E880F9800A811B81C052D1400BBFF701A9
:10FA700087919691DB018C9311969C936E5F7F4FDB
:10FA8000D801C7010296A11DB11DC05EDE4F88835B
:10FA90009983AA83BB83C052D14022503040F1F6F3
:10FAA00036C0C05EDE4F288139814A815B81C052F9
:10FAB000D1400894C108D108760100E010E0089414
:10FAC000C11CD11C0894E11CF11C011D111DE20E8A
:10FAD000F31E041F151F21BDBB27A52F942F832FB5
:10FAE00082BD2F5F3F4F4F4F5F4FF89A80B5DB01CC
:10FAF0008D93BD012E153F054007510761F7C05E8C
:10FB0000DE4F288339834A835B83C052D1409601FC
:10FB10002D5F3F4FFB01108204C080EC8A8322E0FE
:10FB200030E08BE18093C6008091C00086FFFCCF5F
:10FB30008091C00080648093C000C15DDE4FF88179
:10FB4000CF52D140F093C6008091C00086FFFCCF19
:10FB50008091C00080648093C000432F3093C60022
:10FB60008091C00086FFFCCF8091C00080648093AC
:10FB7000C000922F2093C6008091C00086FFFCCF6A
:10FB80008091C00080648093C0008EE08093C600A6
:10FB90008091C00086FFFCCF8091C000806480937C
:10FBA000C00065E1C15DDE4FE880CF52D1406E25D7
:10FBB00069276427FE01319610C090819093C6009A
:10FBC0008091C00086FFFCCF31968091C000806498
:10FBD0008093C0006927215030402115310569F715
:10FBE0006093C6008091C00086FFFCCF8091C0006A
:10FBF00080648093C00085B1805885B9772081F4F6
:10FC0000C15DDE4F0881CF52D1400F5FC15DDE4F35
:10FC10000883CF52D14090E0A0E0B0E00D941AF4F8
:10FC200027982F9880E090E020ED37E0F901319798
:10FC3000F1F7019684369105C9F700008091C00064
:10FC40008D7F8093C00081E180935700E895EE2777
:10FC5000FF270994FFCF90E00D941AF497FB092E2B
:10FC600007260AD077FD04D02ED006D000201AF443
:10FC7000709561957F4F0895F6F7909581959F4F08
:10FC80000895A1E21A2EAA1BBB1BFD010DC0AA1FDD
:10FC9000BB1FEE1FFF1FA217B307E407F50720F0F5
:10FCA000A21BB30BE40BF50B661F771F881F991F70
:10FCB0001A9469F760957095809590959B01AC01B9
:10FCC000BD01CF010895AA1BBB1B51E107C0AA1FAC
:10FCD000BB1FA617B70710F0A61BB70B881F991FED
:10FCE0005A95A9F780959095BC01CD010895F99991
:10FCF000FECF92BD81BDF89A992780B50895262F31
:10FD0000F999FECF1FBA92BD81BD20BD0FB6F89400
:0EFD1000FA9AF99A0FBE01960895F894FFCF63
:00000001FF
