:100000000C947B010C94AC010C94AC010C94AC01ED
:100010000C94AC010C94AC010C94AC010C94AC01AC
:100020000C94AC010C94AC010C94AC010C94AC019C
:100030000C94AC010C94AC010C94AC010C94AC018C
:100040000C94AC010C94AC010C94AC010C94AC017C
:100050000C94AC010C94AC010C94AC010C940919F7
:100060000C94AC010C94251A0C94FB190C94AC0163
:100070000C94AC010C94AC010C94AC010C94AC014C
:100080000C94AC010C94AC010C94AC010C94AC013C
:100090000C94AC010C94AC010C94AC010C94AC012C
:1000A0000C94AC010C94AC010C94AC010C94AC011C
:1000B0000C94AC010C94AC010C94AC010C94AC010C
:1000C0000C94AC010C94AC010C94AC010C94D119BF
:1000D0000C94A7190C94AC010C947D190C94531931
:1000E0000C94AC010C947A050C9438020C944116D3
:1000F0000C944F1A0C947E040C9451160C947405B5
:100100000C946B160C94C70C0C9402130C946C0595
:100110000C94B4070C94540D0C94F9010C94330214
:100120000C9445160C9418020C9480050C9426022D
:100130000C94A0120C9412020C94C7040C940A0E96
:100140000C9439160C9424120C94BC100C943402A8
:100150000C942A020C94C8040C9405020C947C03A1
:100160000C942E020C946E160C94E5030C94C61697
:100170000C94D70D0C94C2160C94FD010C947716B8
:100180000C940E020C944D160C945B130C949B0F64
:100190000C941C020C947D050C9431040C943D16B7
:1001A0000C94D7030C9471050C9427030C94200233
:1001B0000C94F3010C9401020C9449160C946D03F9
:1001C0000C9476050C9408020C9434160C94830558
:1001D0000C94860500002100240027002A002D0031
:1001E0003000330001010000040107010A01000092
:1001F0002200250028002B002E00310034000201CF
:100200000000050108010B0100002000230026006A
:1002100029002C002F00320000010000030106011C
:10022000090105050505070508080808020202027C
:100230000A0A080804040404010101010101010182
:100240000303030303030303040707070C0C0C0C4D
:100250000C0C0C0C02020202060606060606060636
:100260000B0B0B0B0B0B0B0B0102102020080810C3
:100270002040102040800201020108040201010216
:1002800004081020408080402010080402018004EF
:10029000020180402010080402010804020101024A
:1002A0000408102040800102040810204080000053
:1002B0000A0B02090C0D0E080703040100000000E0
:1002C000000000000000000000000000000000002E
:1002D00000000000000000000000121110000000EB
:1002E000000000000000000000000000000000000E
:1002F000000000004F1A11241FBECFEFD1E2DEBF75
:10030000CDBF00E00CBF29E0A0EBB6E001C01D921C
:10031000A633B207E1F716E0A0E0B2E0EAEEFCE3B4
:1003200000E00BBF02C007900D92A03BB107D9F7C8
:1003300011E0CBE7D1E000E006C021970109802F52
:10034000FE010E94201DCA37D10780E00807A9F7E7
:100350000E94A71B0C94731E0C940000FC01A08942
:10036000B18982E08C93A485B5851C92A685B7855A
:100370008FEC8C93108EA489B58986E08C93A2892A
:10038000B3898C9180618C93A289B3898C918860A8
:100390008C93A289B3898C9180688C930288F389AD
:1003A000E02D80818F7D808308958150823108F017
:1003B0005AC0E82FF0E08827EF51FE4F8F4F0C9482
:1003C000201D01020502F301F901FD0133020802BB
:1003D0000E02120218021C02200226022A02330216
:1003E0002E0234023802809180008F778093800043
:1003F0000895809180008F7DF9CF80918000877F64
:10040000F5CF84B58F7784BD089584B58F7DFBCFFC
:100410008091B0008F778093B00008958091B000F4
:100420008F7DF9CF809190008F7780939000089511
:10043000809190008F7DF9CF80919000877FF5CFDC
:100440008091A0008F778093A00008958091A000F4
:100450008F7DF9CF8091A000877FF5CF809120011B
:100460008F77809320010895809120018F7DF9CFAF
:1004700080912001877FF5CFCF93DF93282F30E045
:10048000F901E255FD4F8491F901E859FD4FD491EE
:10049000F901EE5DFD4FC491CC23A1F081110E94C2
:1004A000D501EC2FF0E0EE0FFF1FE85FFD4FA591A7
:1004B000B491EC91ED2381E090E009F480E0DF91CC
:1004C000CF91089580E090E0FACF1F93CF93DF9310
:1004D000282F30E0F901E255FD4F8491F901E859E8
:1004E000FD4FD491F901EE5DFD4FC491CC23A9F0ED
:1004F000162F81110E94D501EC2FF0E0EE0FFF1FA7
:10050000E251FE4FA591B4918FB7F894EC9111117F
:1005100008C0D095DE23DC938FBFDF91CF911F9170
:100520000895DE2BF8CFCF93DF9390E0FC01E859DC
:10053000FD4F24918E5D9D4FFC0184918823D1F065
:1005400090E0880F991FFC01EC52FE4FA591B491E9
:10055000FC01E251FE4FC591D49161110EC09FB7CD
:10056000F8948C91E22FE0958E238C932881E223DE
:10057000E8839FBFDF91CF9108958FB7F894EC91F6
:10058000E22BEC938FBFF6CF3FB7F8948091DA0659
:100590009091DB06A091DC06B091DD0626B5A89B04
:1005A00005C02F3F19F00196A11DB11D3FBFBA2F05
:1005B000A92F982F8827BC01CD01620F711D811DC5
:1005C000911D42E0660F771F881F991F4A95D1F74A
:1005D00008958F929F92AF92BF92CF92DF92EF9247
:1005E000FF924B015C010E94C4026B017C010E94DE
:1005F000C4026C197D098E099F09683E734081050C
:100600009105A8F321E0821A9108A108B10888EEAB
:10061000C80E83E0D81EE11CF11C81149104A104D2
:10062000B10429F7FF90EF90DF90CF90BF90AF908B
:100630009F908F9008952FB7F8946091D60670918F
:10064000D7068091D8069091D9062FBF0895AF9212
:10065000BF92CF92DF92EF92FF920F931F93CF93AF
:10066000DF936C017B018B01040F151FEB015E0111
:10067000AE18BF08C017D10759F06991D601ED91A6
:10068000FC910190F081E02DC6011995892B79F735
:10069000C501DF91CF911F910F91FF90EF90DF90F7
:1006A000CF90BF90AF900895FC01A089B1898C9143
:1006B000A689B78982FD0FC09C91818D8F5F8F7352
:1006C000228D821749F0A18DAE0FBF2FB11D5D960F
:1006D0009C93818F08958C910895FC01538D448DD6
:1006E000252F30E0842F90E0821B930B541710F0DD
:1006F000CF96089501970895FC01918D828D9817EA
:1007000061F0A28DAE0FBF2FB11D5D968C91928DC1
:100710009F5F9F73928F90E008958FEF9FEF0895F2
:100720008F929F92AF92BF92CF92DF92EF92FF9201
:100730000F931F93CF93DF937C016A018B01D0E06D
:10074000C0E00E941B03F70160877187828793874F
:10075000C7010E947C0397FF22C00E941B03F70180
:1007600080849184A284B384681979098A099B09D9
:1007700084809580A680B780681579058A059B05D9
:1007800038F3CE01DF91CF911F910F91FF90EF9041
:10079000DF90CF90BF90AF909F908F900895F80119
:1007A00081938F012196CC16DD0659F6EACFFC0124
:1007B000918D828D981731F0828DE80FF11D858D16
:1007C00090E008958FEF9FEF0895FC01918D228DA9
:1007D000892F90E0805C9F4F821B91098F7399272E
:1007E00008958BEE96E00E94E50321E0892B09F441
:1007F00020E0822F089588E897E00E94E50321E039
:10080000892B09F420E0822F089585E298E00E9468
:10081000E50321E0892B09F420E0822F0895FC01F3
:10082000A48DA80FB92FB11DA35ABF4F2C91848D51
:1008300090E001968F739927848FA689B7892C93AE
:10084000A089B1898C91837080648C93938D848D01
:10085000981306C00288F389E02D80818F7D808304
:100860000895EF92FF920F931F93CF93DF93EC01C4
:1008700081E0888F9B8D8C8D98131AC0E889F98947
:10088000808185FF15C09FB7F894EE89FF8960834A
:10089000E889F98980818370806480839FBF81E0CB
:1008A00090E0DF91CF911F910F91FF90EF9008950D
:1008B000F62E0B8D10E00F5F1F4F0F731127E02EE8
:1008C0008C8D8E110CC00FB607FCFACFE889F98920
:1008D000808185FFF5CFCE010E940F04F1CFEB8D13
:1008E000EC0FFD2FF11DE35AFF4FF0829FB7F894F4
:1008F0000B8FEA89FB8980818062CFCFCF93DF9312
:10090000EC01888D8823B9F0AA89BB89E889F98927
:100910008C9185FD03C0808186FD0DC00FB607FC5C
:10092000F7CF8C9185FFF2CF808185FFEDCFCE018F
:100930000E940F04E9CFDF91CF91089580E090E00D
:10094000892B29F00E94050481110E94000080E09B
:1009500090E0892B49F080E090E0892B29F00E94FB
:10096000000081110E94000080E090E0892B29F0B6
:100970000E94FB0381110E94000080E090E0892B1F
:1009800029F00E94F10381110C940000089508954C
:1009900090E080E00895CF92DF92EF92FF92CF93A4
:1009A000DF930E941B03EB010E941B030E941B03A9
:1009B0006B0185E298E00E94E503892B29F085E22E
:1009C00098E00E947C03F5CFCC1ADD0A88EEC816A9
:1009D00083E0D8065CF385E298E00E94E503892B6A
:1009E00029F7DF91CF91FF90EF90DF90CF9008959E
:1009F00082E00E943C02892B41F062ED70E080E0D1
:100A000090E00E94E90281E0089583E00E943C02A8
:100A1000892B71F362ED70E080E090E00E94E902C2
:100A200080E00895FF920F931F93CF93DF93C8E068
:100A3000D0E0FC2E61E08C2F0E94650204E010E003
:100A4000802F0E943C020197B1F460E08F2D0E943C
:100A5000650204501109C801880F991F080F191F5A
:100A6000C00FD11FCE50DD4F8881DF91CF911F91F4
:100A70000F91FF9008950F5F1F4F0830110501F788
:100A800060E08F2D0E9465022196CB30D10589F65A
:100A900080E2EBCF0E941B036093B2067093B30613
:100AA0008093B4069093B5060895CF93DF93EB013E
:100AB000DA01893098F4E82FF0E08827ED59FA4FF1
:100AC0008F4F0C94201D6C057105740576057A0511
:100AD0007D0580058305860518821C92DF91CF91E4
:100AE000089583E08883F9CF86E0FCCF188283E005
:100AF0008C93F4CF83E08883FBCF86E08883F7CFA5
:100B0000188286E0F5CF83E08883FBCF86E0F3CFC1
:100B1000CF92DF92EF92FF920F931F93CF93DF93C9
:100B20001F921F92CDB7DEB769834A83880F991F42
:100B30000091180910911909000F111FE2ECF8E05B
:100B40009F01225C38402017310714F41192F8CF2E
:100B50002981FC01EE53F74F21838A81808360E075
:100B6000809116090E9465021016110604F50150C5
:100B70001109F801EE53F74FE080D0901409C090AE
:100B8000120988E0F82E6E2D661F6627661F8C2DD1
:100B90000E946502EE0C61E08D2D0E94650260E00E
:100BA0008D2D0E946502FA94F110EDCFDDCF61E04A
:100BB000809116090F900F90DF91CF911F910F91A7
:100BC000FF90EF90DF90CF900C946502EF92FF9230
:100BD0000F931F93CF937C018C0183E0000F111FB3
:100BE0008A95E1F70E52174FC1E0F80111928F017B
:100BF00040E06C2FC7010E948805CF5FC930A9F77C
:100C0000CF911F910F91FF90EF900895AF92BF92F7
:100C1000CF92DF92EF92FF920F931F93CF93DF93C8
:100C2000C2ECD8E080E0C82E82E0D82EB12C90E84B
:100C3000E92EF12C10E000E0AA24A394AB0C8091E3
:100C400018099091190918161906E4F488E0B816E5
:100C5000C9F008301105B1F0C701002E02C095950A
:100C600087950A94E2F72889F601E00FF11F308199
:100C7000332301F1822B888B48896A2D90E080E034
:100C80000E9488050F5F1F4F09301105C1F6B3940C
:100C9000219688E0C80ED11C89E0B812CBCFDF9135
:100CA000CF911F910F91FF90EF90DF90CF90BF9069
:100CB000AF90089580958223DECFCF93DF93EC0130
:100CC00060E08E810E94650261E08E810E94650273
:100CD00060E08E810E9465028BE891E00197F1F758
:100CE000DF91CF910895CF92DF92EF92FF920F9311
:100CF0001F93CF93DF936C017C0187E0E80EF11C1A
:100D0000D0E0C0E0062F10E0B8010C2E02C07595AF
:100D100067950A94E2F76170F70181917F010E9463
:100D200065022196C430D10579F7C601DF91CF91D4
:100D30001F910F91FF90EF90DF90CF900C945D0684
:100D4000CF92DF92EF92FF920F931F93CF93DF9397
:100D5000EC01F62E642F8C810E9465028D818F3FFD
:100D600019F060E00E9465020F2D10E08F8584FF6E
:100D700025C06E0187E0C80ED11CF12CE12CB80112
:100D80000E2C02C0759567950A94E2F76170F60122
:100D900081916F010E946502FFEFEF1AFF0A88E060
:100DA000E816F10461F7CE01DF91CF911F910F9109
:100DB000FF90EF90DF90CF900C945D06B80184E037
:100DC000759567958A95E1F7CE010E9473066F2DA0
:100DD000CE01DF91CF911F910F91FF90EF90DF90A7
:100DE000CF900C94730640E0682F8AE199E00C9450
:100DF000A00681E00E94F3068BE39FE10197F1F7E3
:100E00000895CF93DF93813029F09091290998605C
:100E10009093290980932D0910922E0980E48093E4
:100E20002F0980E18093300980E58093310961E0EA
:100E300080911E090E94930280911F098F3F19F033
:100E400061E00E94930261E0809120090E94930278
:100E5000CAE1D9E09E012A5139408091290984FDD7
:100E60000BC084E090E021962817390744F461E034
:100E70008E810E949302EECF88E090E0F4CF8BE366
:100E80009DE00197F1F760E080911E090E946502E4
:100E900060E0809120090E94650280911F098F3FC8
:100EA00019F060E00E9465028091290984FD34C038
:100EB00063E08AE199E00E947306CBE4D6E4CE01B8
:100EC0000197F1F763E08AE199E00E9473062197A8
:100ED000F1F763E08AE199E00E94730683E592E00E
:100EE0000197F1F762E08AE199E00E947306809130
:100EF000290980620E94F30684E080932A098CE02D
:100F00000E94F3060E94F90682E080932B0986E096
:100F1000DF91CF910C94F30680620E94F3068BE47C
:100F200096E40197F1F78091290980620E94F30607
:100F300083E592E00197F1F78091290980620E9490
:100F4000F306D5CF643008F063E090912D0969175E
:100F500010F06FEF690FE62FF0E0E65EF64F948930
:100F6000890F80680C94F30641E00E94A00681E09E
:100F700090E0089541E0682F8AE199E00E94A00680
:100F800081E090E00895CF92DF92EF92FF920F936D
:100F90001F93CF93DF93EB017B0120E1E20EF11C65
:100FA0008B016C01C61AD70AC601800F911F0E94DF
:100FB000E81CF80181938F01EE15FF05A9F7CE011A
:100FC000DF91CF911F910F91FF90EF90DF90CF9025
:100FD0000895CF92DF92EF92FF920F931F93CF93DA
:100FE000DF93EB017B0123E2E20EF11C8B016C012C
:100FF000C61AD70AC601800F911F0E94E81CF8018B
:1010000081938F01EE15FF05A9F7CE01DF91CF91F6
:101010001F910F91FF90EF90DF90CF900895FB010B
:1010200001900020E9F73197AF01461B570BDC0117
:10103000ED91FC910280F381E02D19948F929F92A3
:10104000AF92BF92EF92FF920F931F93CF93DF93D4
:10105000CDB7DEB7A1970FB6F894DEBF0FBECDBFF8
:101060007C01262F30E050E040E019A28E010F5D98
:101070001F4F8AE0882E912CA12CB12CCA01B901F6
:10108000A50194010E94FE1C605DF80162938F012E
:10109000211531054105510589F790E080E0309731
:1010A00021F0C701BF010E940F08A1960FB6F89466
:1010B000DEBF0FBECDBFDF91CF911F910F91FF908B
:1010C000EF90BF90AF909F908F9008950F931F93D4
:1010D000CF93DF93EC010E941E088C0164E273E061
:1010E000CE010E940F08800F911FDF91CF911F91B9
:1010F0000F9108950F931F93CF93DF93EC010E94FC
:101100000F088C0164E273E0CE010E940F08800F8B
:10111000911FDF91CF911F910F9108951F93CF934E
:10112000DF9300D0CDB7DEB7BC0185E298E00E9426
:101130007A0810E085E298E00E94E503892B59F0D7
:1011400042E050E0BE016F5F7F4F85E298E00E9471
:10115000900311E0EFCF112369F385E298E00E943C
:10116000E503892B39F70F900F900F90DF91CF9106
:101170001F9108950E94F90660E080E00E94A20796
:1011800067E273E08AE199E00E947A0861E080E01A
:101190000E94A20767E373E08AE199E00E947A085F
:1011A00062E080E00E94A20768E473E08AE199E0CF
:1011B0000E947A0863E080E00E94A20768E573E07D
:1011C0008AE199E00E947A0864EF71E080E090E0A3
:1011D0000E94E9020E94F90660E080E00E94A207F6
:1011E00067E673E08AE199E00E947A0864EF71E0B3
:1011F00080E090E00C94E9020F931F930E941B0380
:101200000091B2061091B3062091B4063091B50654
:10121000601B710B820B930B613E73498F4F9F4F85
:1012200070F067E773E085E298E00E947A08109218
:10123000D4061092D30680E01F910F91089581E0AB
:10124000FBCF6115710511F00C940F0890E080E060
:101250000895CF93DF9300D01F92CDB7DEB7898377
:10126000605D6A83BE016F5F7F4F8BEE96E00E94E8
:10127000210941E050E0BE016D5F7F4F8BEE96E0AB
:101280000E94900381E09B81913309F080E00F90F0
:101290000F900F900F90DF91CF910895FF920F93D1
:1012A0001F93CF93DF938C01FC0101900020E9F79D
:1012B0003197FE2EF81A8DE090E00E94281DEC0177
:1012C0004CE050E0B8010E94641EBE01DE012C2FEC
:1012D00098E78A2F8C1B8F1568F099E7862F821B61
:1012E0008F1580F4FB018191BF01DF0111978927E0
:1012F0008C93F4CF8D91AD01415051098927FA01AA
:101300008083E7CFCE01DF91CF911F910F91FF90A6
:101310000895CF92DF92EF92FF920F931F93CF9396
:10132000DF93CDB7DEB7A3970FB6F894DEBF0FBE3D
:10133000CDBF8C018EED96E00E944E096C01C80174
:101340000E944E097C0104E810E0BE016F5F7F4FF0
:10135000C8010E94E907B601CE0101960E944D1E08
:10136000892BE9F4B701CE010E960E944D1E892B00
:10137000B1F4C6010E94C41DC7010E94C41D81E0D2
:10138000A3960FB6F894DEBF0FBECDBFDF91CF910D
:101390001F910F91FF90EF90DF90CF9008950D5D1A
:1013A0001F4F003D89E0180781F6C6010E94C41D49
:1013B000C7010E94C41D80E0E3CFEF92FF920F931C
:1013C0001F93CF93DF93CDB7DEB7A3970FB6F894F3
:1013D000DEBF0FBECDBF0E944E097C0104E810E0C5
:1013E000BE016F5F7F4FC8010E94E907B701CE01C0
:1013F00001960E944D1E892B89F4C7010E94C41DCD
:1014000081E0A3960FB6F894DEBF0FBECDBFDF918B
:10141000CF911F910F91FF90EF9008950D5D1F4F99
:10142000003D89E01807E1F6C7010E94C41D80E075
:10143000E8CFFF920F931F93CF93DF93EC01F62E2B
:1014400008811981C8010E94E81CF81621F06F2D4F
:10145000C8010E94F01CCE01DF91CF911F910F9126
:10146000FF9008950F931F93CF93DF931F921F92C6
:10147000CDB7DEB78B019A838983FB016081CE01F2
:1014800001960E94190AC8010F900F90DF91CF9129
:101490001F910F910895EF92FF920F931F93CF9397
:1014A000DF931F921F92CDB7DEB78230910569F1AD
:1014B0008330910581F1019711F18091B606680F93
:1014C0006093B60686EBE82E86E0F82E00E810E082
:1014D0001A830983F70161917F01CE0101960E9471
:1014E000190A0F5F1F4F0438110591F70F900F90E5
:1014F000DF91CF911F910F91FF90EF900895809110
:10150000B706680F6093B706DDCF8091B806680F05
:101510006093B806D7CF8091B906680F6093B9067B
:10152000D1CFAF92BF92CF92DF92EF92FF920F9303
:101530001F93CF93DF93CDB7DEB762970FB6F894C2
:10154000DEBF0FBECDBF5C016AE873E085E298E0C4
:101550000E942109B50185E298E00E947A0880EC9A
:10156000E82E89E0F82ED12CC7010E94E81C8D11CD
:1015700018C0D39480E1E80EF11CE4E6DE12F4CF4B
:1015800062960FB6F894DEBF0FBECDBFDF91CF914C
:101590001F910F91FF90EF90DF90CF90BF90AF9091
:1015A00008958E010F5F1F4F80E1F80111928A9517
:1015B000E9F7D9824FE050E0B501CE0102960E94D2
:1015C000641E6E01F1E1CF0ED11CE01AF10AC701D1
:1015D000800F911F9A8B898BF80161918F01C60151
:1015E0000E94190AC016D10691F7CACF2F923F92D6
:1015F0004F925F926F927F928F929F92AF92BF9223
:10160000CF92DF92EF92FF920F931F93CF93DF93CE
:10161000CDB7DEB7CA56D1090FB6F894DEBF0FBEFC
:10162000CDBF8C017B013A010E94DD09882309F1BD
:1016300061E973E085E298E00E947A0880E0C6598B
:10164000DF4F0FB6F894DEBF0FBECDBFDF91CF9155
:101650001F910F91FF90EF90DF90CF90BF90AF90D0
:101660009F908F907F906F905F904F903F902F90C2
:101670000895C8010E944E094C01C7010E944E09FD
:101680005C0104E810E0BE016C5D7F4FC8010E9460
:10169000E907C8010E94E81C780193E2E90EF11CF9
:1016A000882309F471C08701E0EDEE16E9E0FE063B
:1016B00051F74DE050E0B401CE01895B9F4F0E948D
:1016C000641E4DE050E0B50187E490E08C0F9D1F53
:1016D0000D960E94641E49E050E0B30187E490E05B
:1016E0008C0F9D1F4A960E94641E87E4282E312C81
:1016F0002C0E3D1EF3E22F0E311C8E01095B1F4F95
:101700002701401A510ACE0101966C01C201800FD7
:10171000911F9A838983F80161918F01C6010E940C
:10172000190A0215130591F7F3E2EF0EF11CB60149
:10173000C7010E94E907F60101900020E9F73197FF
:101740000E2F0C198DE090E00E94281D182F592EA5
:101750004CE050E0B6010E94641E612F752DA12F50
:10176000B52D412F99E78A2F811B801778F098E7D4
:10177000862F841B801790F4FB018191BF01DF014C
:10178000119789278C93F4CF780193CF8D919D0188
:10179000215031098927F9018083E5CF812F952DCB
:1017A0000E94DD09882329F0F0ECEF16F9E0FF062E
:1017B00048F4AB961FAEAB97BE0166597F4FC70189
:1017C0000E94320A66EA73E085E298E00E947A0895
:1017D000B40185E298E00E94210961E674E085E2A7
:1017E00098E00E942109B50185E298E00E94210954
:1017F00061E674E085E298E00E942109B30185E288
:1018000098E00E94210966E273E085E298E00E9478
:101810007A086AEB73E085E298E00E947A08C401D6
:101820000E94C41DC5010E94C41D61E070E083E0F8
:1018300090E00E944B0A81E002CFEF92FF920F935B
:101840001F93CF93DF9300D01F92CDB7DEB78B01EC
:10185000AE014C5F5F4FBE016D5F7F4F0E9455052B
:101860008C812B8190E030E0AC01E3E0440F551F08
:10187000EA95E1F740505E4FFA01E20FF31F0130A5
:10188000110509F040C061E0608373E0880F991F83
:101890007A95E1F7885F9D4FFC01E20FF31F6083AB
:1018A0002F5F3F4F420F531FFA016083820F931F38
:1018B000FC0160830E9406061982BE016F5F7F4FA4
:1018C00090E080E00E94320A80E4E82E82E0F82E68
:1018D00001E010E01A830983F70161917F01CE01D5
:1018E00001960E94190A0F5F1F4F0F37110591F7DC
:1018F0000F900F900F900F90DF91CF911F910F914C
:10190000FF90EF900895108263E0880F991F6A9509
:10191000E1F7885F9D4FFC01E20FF31F10822F5FFC
:101920003F4F420F531FFA011082820F931FFC0199
:101930001082C0CF7F928F929F92AF92BF92CF9230
:10194000DF92EF92FF920F931F93CF93DF93CDB768
:10195000DEB7E3970FB6F894DEBF0FBECDBFE091C0
:10196000D306F091D406EA30F10508F069C0882763
:10197000E354F34F8F4F0C94201DC70C0213A01299
:10198000D70D0A0E540D5B13BC109B0F24120E943E
:10199000F90660E080E00E94A2076EEC73E08AE145
:1019A00099E00E94210961E080E00E94A2076DEDAC
:1019B00073E08AE199E00E94210962E080E00E94E0
:1019C000A2076EEE73E08AE199E00E94210963E0CC
:1019D00080E00E94A20766EF73E08AE199E00E942E
:1019E00021096091D2066E5F80E00E94A2076FE835
:1019F00073E08AE199E00E9421090E941205823376
:101A000081F462ED70E080E090E00E94E902809154
:101A1000D20681508093D2068F3F91F41092D20665
:101A20000FC0883319F562ED70E080E090E00E940D
:101A3000E9028091D2068F5F8230B0F48093D206A3
:101A4000E3960FB6F894DEBF0FBECDBFDF91CF9106
:101A50001F910F91FF90EF90DF90CF90BF90AF90CC
:101A60009F908F907F90089581E0E8CF82E00E9460
:101A70003C028C01019709F662ED70E080E090E095
:101A80000E94E9028091D206882339F0813031F634
:101A90001093D4060093D306C1CF84E090E09093D6
:101AA000D4068093D306BACF80EC99E00E94E81C5C
:101AB000E82E0E94F9066E2D88E897E00E946608DD
:101AC000D12C10E000E081EC882E89E0982EB12C1A
:101AD000A12CF12CAE14BF040CF04DC0D1104BC0A2
:101AE000BE016F5F7F4FC4010E94C307602F82E079
:101AF0000E94A207698188E897E00E946608BE01FB
:101B00006E5F7F4F8AE199E00E942109602F80E09B
:101B10000E94A20769818AE199E00E941E0820E1E3
:101B2000820E911C0F5F1F4F8FEFA81AB80A043066
:101B3000110581F682E00E943C02019751F466EEA5
:101B400070E080E090E00E94E9020E94F90610E057
:101B500000E083E00E943C02019749F766EE70E0E6
:101B600080E090E00E94E9020E94F906DD24D3940F
:101B700010E000E0AFCF0115110591F0D11010C0B9
:101B800082E00E943C02019729F083E00E943C021F
:101B9000019789F766EE70E080E090E00E94E9022C
:101BA00088E090E09093D4068093D30649CF0E94BA
:101BB000CB040E94F90662E074E08AE199E00E9499
:101BC000210961E080E00E94A20763E174E08AE1FC
:101BD00099E00E94210910E085E298E00E94E50367
:101BE000892B59F042E050E0BE016F5F7F4F85E2E4
:101BF00098E00E94900311E0EFCF112369F385E292
:101C000098E00E94E503892B39F78091D0069091E6
:101C1000D106C8CF8BE0EEEDF6E0DF01282F1D9254
:101C20002A95E9F7E3ECF6E0DF011D928A95E9F7E2
:101C3000EAEBF6E089E0DF011D928A95E9F7AEED67
:101C4000CA2EA6E0DA2EBBE0EB2E0E94CB0484E283
:101C500094E00E948E08F6012E2D11922A95E9F744
:101C60000E94F9066CE274E08AE199E00E94210981
:101C700061E080E00E94A20766E374E08AE199E0F7
:101C80000E94210962E080E00E94A2070E941B03DB
:101C90004B015C010E941B030E94CB0410E000E09A
:101CA000F12C85E298E00E94E503892B69F085E23A
:101CB00098E00E947C03F801E252F94F80830F5FA5
:101CC0001F4FFF24F394EDCFFF2009F46BC00E9457
:101CD0001B03681979098A099B09643F71408105D2
:101CE0009105FCF26EED76E08AE199E00E9421090F
:101CF00063E080E00E94A20761E474E08AE199E079
:101D00000E94210964EF71E080E090E00E94E90206
:101D10000E94F804F82E882309F44BC0E3ECCE2E81
:101D2000E6E0DE2EFBE07F2E0E94CB0486E694E008
:101D30000E948E08F601272D11922A95E9F70E943C
:101D4000F9066CE274E08AE199E00E94210961E001
:101D500080E00E94A20763E674E08AE199E00E94B5
:101D6000210962E080E00E94A2070E941B034B0150
:101D70005C010E941B030E94CB0410E000E0E12CF8
:101D800085E298E00E94E503892B41F185E298E025
:101D90000E947C03F801ED53F94F80830F5F1F4FC2
:101DA000EF2CEECF0E941B034B015C010E941B0332
:101DB00078CF62E080E00E94A20762E574E08AE1E9
:101DC00099E00E94210963E080E00E94A20762E599
:101DD00074E08AE199E00E94210937CFEE20C1F03A
:101DE0000E941B03681979098A099B09643F7140A5
:101DF000810591052CF203EC16E0F80181918F0129
:101E0000882369F06AE28AE199E00E94B407F5CF7D
:101E10000E941B034B015C010E941B03B1CF63E0D6
:101E200080E00E94A20761E474E08AE199E00E94E8
:101E3000210964EF71E080E090E00E94E9020E94D5
:101E4000F804811114C062E00E94A20762E574E008
:101E50008AE199E00E94210963E080E00E94A207E4
:101E600062E574E08AE199E00E9421095DCF8FE686
:101E700094E00E948E0883EC96E00E948909182F56
:101E80000E94F90664E774E08EED96E00E944D1E14
:101E9000892B29F56BE774E083EC96E00E944D1ED8
:101EA000892BE9F460E874E08AE199E00E94210955
:101EB00062E370E080E090E00E94E90288E090E058
:101EC0009093D4068093D30686E894E00E94910A0A
:101ED00060ED77E080E090E00E94E902B1CD11234F
:101EE00049F087E090E09093D4068093D3068EE883
:101EF00094E0ECCF6EED76E08AE199E00E94210952
:101F000063EC76E08AE199E00E94210962E370E0E7
:101F100080E090E00E94E9021092D4061092D3066D
:101F200086E994E00E94910A61E070E081E090E02F
:101F30000E944B0ACDCF0E94F90660E080E00E942B
:101F4000A2076DED73E08AE199E00E94210961E04A
:101F500080E00E94A2076EE974E08AE199E00E94A5
:101F6000210962E080E00E94A20765EA74E08AE14C
:101F700099E00E94210963E080E00E94A20762EBE1
:101F800074E08AE199E00E9421096091D2066F5FB6
:101F900080E00E94A2076FE873E08AE199E00E9466
:101FA00021090E941205823309F42BCD883381F474
:101FB00062ED70E080E090E00E94E9028091D2063C
:101FC0008F5F8093D206833008F43ACD82E036CD1D
:101FD00082E00E943C02019721F762ED70E080E010
:101FE00090E00E94E9028091D206813009F47CC021
:101FF00060F0823009F012CD1092D4061092D30610
:1020000086EF94E00E94910A09CD62EC74E085E2CB
:1020100098E00E947A080E94F9066E01F4E2CF0E61
:10202000D11C80E1D6011D928A95E9F770ECE72E6C
:1020300079E0F72E10E0612F85E298E00E946608B3
:10204000043070F082E00E943C02019729F564E6BA
:1020500070E080E090E00E94E9020E94F90600E052
:10206000C7010E94E81C81130EC0BE016F5F7F4F45
:10207000C7010E94C3074FE050E0BE016E5F7F4F73
:10208000C6010E94641E8CA1811112C083E00E94CF
:102090003C020197D9F705C083E00E943C020197FA
:1020A00089F664E670E080E090E00E94E902B6CC38
:1020B000602F80E00E94A207B6018AE199E00E94A9
:1020C0007A0880E0F601E80FF11D9081992319F05C
:1020D00010828F5FF7CF0F5F1F5FB0E1EB0EF11C37
:1020E000143609F0A8CF9ACC0E94F90660E080E08F
:1020F0000E94A20766EC74E08AE199E00E9421093F
:102100006091B6068AE199E00E941E0861E080E0D5
:102110000E94A20762ED74E08AE199E00E94210921
:102120006091B7068AE199E00E941E0862E080E0B3
:102130000E94A2076EED74E08AE199E00E942109F5
:102140006091B8068AE199E00E941E0863E080E091
:102150000E94A2076AEE74E08AE199E00E942109D8
:102160006091B9068AE199E00E941E0883E00E940E
:102170003C020197D9F795CF0E94F90660E080E014
:102180000E94A2076FEF74E08AE199E00E942109A2
:1021900061E080E00E94A2076CE075E08AE199E0CE
:1021A0000E94210962E080E00E94A20763EB74E0D4
:1021B0008AE199E00E94210963E080E00E94A20781
:1021C00068E175E08AE199E00E9421096091D206F8
:1021D00080E00E94A2076FE873E08AE199E00E9424
:1021E00021090E941205823309F40BCC883371F463
:1021F00062ED70E080E090E00E94E9028091D206FA
:102200008F5F843008F41ACC83E018CC82E00E94FF
:102210003C02019731F762ED70E080E090E00E94AF
:10222000E9028091D206813009F4BDC0A8F0823065
:1022300009F48BC0833009F0F1CB8EED96E00E945B
:10224000DD0900E412E0811187C064E775E085E2F2
:1022500098E00E947A08E2CBE0E4F2E010E000E0CF
:102260008081882309F469C0F02E60E3E62EE00E39
:102270000E94F90660E080E00E94A20769E275E032
:102280008AE199E00E947A0861E080E00E94A2075A
:102290006AE375E08AE199E00E9421098E2D0E948F
:1022A000BA076F2D82E40E9429098111FACF0E949A
:1022B000F90660E080E00E94A20761E475E08AE12F
:1022C00099E00E947A0861E080E00E94A2076AE338
:1022D00075E08AE199E00E9421098E2D0E94BA07DB
:1022E0006F2D84E50E9429098111FACF0E94F5160D
:1022F000811103C080E595E085CE2EE0209FC001CE
:10230000219F900D1124FC01E05CFD4F10824CE0F8
:1023100050E06EED76E08F5B9D4F0E94641E61E0A1
:1023200070E08F2D0E941D0C61E070E090E080E075
:102330000E944B0A8EE595E065CE0F5F1F4F3E96DB
:102340000930110509F08CCF69CB1092D406109298
:10235000D3068AE695E056CEF8018081811126C029
:102360004CE050E0B8016F5F7F4F8EED96E00E9429
:10237000561E892BD9F40E94F90660E080E00E9485
:10238000A20769E875E08AE199E00E947A0868E9A5
:1023900075E08AE199E00E947A0860E971E080E0E6
:1023A00090E00E94E9020E94E71738CB025F1F4FBE
:1023B000F2E00E3B1F0781F68EED96E00E944E097B
:1023C0006C0104E810E0BE016F5F7F4FC8010E94FE
:1023D000E907B601CE0101960E944D1E892B51F5E9
:1023E000F12CE12C1CA2BE016C5D7F4FC701800F58
:1023F000911F0E94320A2FEFE21AF20A82E2E816D7
:10240000F10481F76AEA75E085E298E00E947A08B3
:10241000C6010E94C41D8AEB95E00E94910A6FEFED
:102420007FEF83E090E00E944B0A1092D406109256
:10243000D306F4CA0D5D1F4F003D99E0190719F648
:10244000C6010E94C41DEACA0E94F90660E080E04D
:102450000E94A20760EF73E08AE199E00E942109DF
:1024600061E080E00E94A20766E374E08AE199E0FF
:102470000E942109DE0111967D0180E1FD0111928A
:102480008A95E9F762E0CD010E94F0158823B1F04A
:1024900068EE73E080E090E00E94E9020E94F90695
:1024A00062EC75E08AE199E00E94210968EE73E030
:1024B00080E090E00E94E9020E94F9060E94F9067D
:1024C00060E080E00E94A20760EF73E08AE199E09B
:1024D0000E94210961E080E00E94A20769EC75E09A
:1024E0008AE199E00E9421098E010C5D1F4F80E175
:1024F000D8011D928A95E9F762E0C8010E94F015A3
:10250000882309F49DCA68EE73E080E090E00E94A1
:10251000E9020E94F906B7018AE199E00E942109C7
:10252000B8018AE199E00E94210968EE73E080E039
:1025300090E00E94E9020E94F90687E090E032CB29
:102540000E94F90660E080E00E94A2076DED73E052
:102550008AE199E00E94210961E080E00E94A207DF
:1025600064ED75E08AE199E00E94210962E080E073
:102570000E94A20761EE75E08AE199E00E942109BC
:1025800063E080E00E94A20769EE75E08AE199E0CD
:102590000E9421096091D2066F5F80E00E94A2072D
:1025A0006FE873E08AE199E00E9421090E94120518
:1025B000823309F426CA883309F4FACC82E00E94F7
:1025C0003C02019799F762ED70E080E090E00E9494
:1025D000E9028091D206813091F020F0823009F436
:1025E00024CF1CCA83E090E09093D4068093D30656
:1025F00084E090E09093D1068093D0060FCA89E0E2
:1026000090E04DCA0E94F90660E080E00E94A207B7
:102610006DED73E08AE199E00E94210961E080E0BC
:102620000E94A20764ED75E08AE199E00E94210909
:1026300062E080E00E94A20761EE75E08AE199E025
:102640000E94210963E080E00E94A20769EE75E024
:102650008AE199E00E9421096091D2066F5F80E0D3
:102660000E94A2076FE873E08AE199E00E942109C5
:102670000E941205823309F4C4C9883309F498CC46
:1026800082E00E943C02019799F762ED70E080E0E1
:1026900090E00E94E9028091D206813009F4AFCF28
:1026A00008F09CCF83E090E09093D4068093D3060B
:1026B00086E090E09FCF8DE0EEEDF6E0DF01282F81
:1026C0001D922A95E9F7E3ECF6E0DF011D928A9569
:1026D000E9F7EAEBF6E089E0DF011D928A95E9F778
:1026E0004EEDC42E46E0D42E5DE0752E0E94CB0444
:1026F00084E294E00E948E08F601272D11922A951B
:10270000E9F70E94F90661EF75E08AE199E00E941D
:10271000210961E080E00E94A20766E374E08AE19B
:1027200099E00E94210962E080E00E94A2070E94D5
:102730001B034B015C010E941B030E94CB0410E0B1
:1027400000E0F12C85E298E00E94E503892B69F016
:1027500085E298E00E947C03F801E252F94F808301
:102760000F5F1F4FFF24F394EDCFFF2009F46BC0E0
:102770000E941B03681979098A099B09643F71400B
:1027800081059105FCF26EED76E08AE199E00E9408
:10279000210963E080E00E94A20761E474E08AE11D
:1027A00099E00E94210964EF71E080E090E00E94CE
:1027B000E9020E94F804E82E882309F44BC02AEBB2
:1027C000C22E26E0D22E39E0732E0E94CB0484E084
:1027D00096E00E948E08F601272D11922A95E9F7BE
:1027E0000E94F90661EF75E08AE199E00E942109F3
:1027F00061E080E00E94A20761E076E08AE199E072
:102800000E94210962E080E00E94A2070E941B034F
:102810004B015C010E941B030E94CB0410E000E00E
:10282000F12C85E298E00E94E503892B41F185E2D5
:1028300098E00E947C03F801E654F94F80830F5F13
:102840001F4FFE2CEECF0E941B034B015C010E9428
:102850001B0378CF62E080E00E94A20762E574E08B
:102860008AE199E00E94210963E080E00E94A207CA
:1028700062E574E08AE199E00E94210937CFFF20E8
:1028800009F46BC00E941B03681979098A099B0926
:10289000643F71408105910524F26AEB76E08AE19C
:1028A00099E00E94210963E080E00E94A20761E4B0
:1028B00074E08AE199E00E94210964EF71E080E010
:1028C00090E00E94E9020E94F804F82E882309F49F
:1028D0004BC083ECC82E86E0D82E9DE0792E0E9456
:1028E000CB0486E694E00E948E08F601272D119213
:1028F0002A95E9F70E94F90661EF75E08AE199E00F
:102900000E94210961E080E00E94A20763E674E072
:102910008AE199E00E94210962E080E00E94A2071A
:102920000E941B034B015C010E941B030E94CB040D
:1029300010E000E0E12C85E298E00E94E503892B9D
:1029400041F185E298E00E947C03F801ED53F94FD4
:1029500080830F5F1F4FEF2CEECF0E941B034B01B4
:102960005C010E941B035DCF62E080E00E94A20731
:1029700062E574E08AE199E00E94210963E080E069
:102980000E94A20762E574E08AE199E00E942109B1
:102990001CCFEE20C1F00E941B03681979098A0937
:1029A0009B09643F7140810591052CF203EC16E010
:1029B000F80181918F01882369F06AE28AE199E048
:1029C0000E94B407F5CF0E941B034B015C010E94DB
:1029D0001B03B1CF63E080E00E94A20761E474E0D2
:1029E0008AE199E00E94210964EF71E080E090E0C3
:1029F0000E94E9020E94F804811114C062E00E9462
:102A0000A20762E574E08AE199E00E94210963E08F
:102A100080E00E94A20762E574E08AE199E00E94EA
:102A200021095DCF4AEB56E063EC76E08EED96E04F
:102A30000E94F60A882309F403C81092D406109263
:102A4000D3060C94200D7F928F929F92AF92BF92EB
:102A5000CF92DF92EF92FF920F931F93CF93DF936A
:102A600000D0CDB7DEB78C016B010E94CB040E9471
:102A7000F90662E074E08AE199E00E94210961E0D0
:102A800080E00E94A20763E174E08AE199E00E947D
:102A9000210985E298E00E94E503892BD1F380911A
:102AA000D3069091D406079731F40E94FC08811157
:102AB00002C00E949A0C42E050E0BE016F5F7F4F5F
:102AC00085E298E00E9490030E944A058091D30617
:102AD0009091D406079731F40E94FC08811102C03E
:102AE0000E949A0C0E941B034B015C010E941B0375
:102AF0000E94CB04C6010E948E080E94F90660E085
:102B000080E00E94A207B6018AE199E00E947A085B
:102B1000F12CE12C712C85E298E00E94E503892BD1
:102B200071F085E298E00E947C03F801EE0DFF1D34
:102B30008083C70101967C0177247394ECCF7720C2
:102B4000A1F10E941B03681979098A099B09643F56
:102B5000714081059105FCF20E944A0561E080E028
:102B60000E94A207B8018AE199E00E947A0862E017
:102B700080E00E94A2076DE076E08AE199E00E9481
:102B8000210964EF71E080E090E00E94E9020E9478
:102B9000F804811111C0F801E80FF11D908199230B
:102BA00009F494CF10828F5FF6CF0E941B034B0174
:102BB0005C010E941B03AFCF0E944A0581E00F9089
:102BC0000F900F90DF91CF911F910F91FF90EF9099
:102BD000DF90CF90BF90AF909F908F907F9008959F
:102BE000BF92CF92DF92EF92FF920F931F93CF93FA
:102BF000DF937C01B62E80E00E94A207D12CC0E0BA
:102C000085E0C82E6B2D80E00E94A2070E9412056D
:102C1000D82F64E670E080E090E00E94E902EDEDDC
:102C2000ED0FE73108F063C00E2E000CFF0B882774
:102C3000E35EF94E8F4F0C94201D6B1677167716B6
:102C40007716771677167716511677167716771642
:102C5000771677166E16C216C616341639163D1636
:102C60004116451649164D16D0E010E002E0C0E0CE
:102C70001AC0D0E010E003E0FACFD0E010E004E0AA
:102C8000F6CFD0E010E005E0F2CFD0E010E006E0B3
:102C9000EECFD0E010E007E0EACFD0E010E008E0AF
:102CA000E6CFD1E010E00E944A05802F90E011238A
:102CB00009F470C0C43069F0C89EF001C99EF00DDF
:102CC0001124E353FD4FEC0FF11D2181CF5F211142
:102CD00066C0C0E064C0D0E011E0E5CFF701ED0DC3
:102CE000F11D8081882309F48DCFD3948BCF82E0AE
:102CF0000E943C020197C9F466EE73E085E298E019
:102D00000E947A0864E670E080E090E00E94E902A8
:102D10000E944A0581E0DF91CF911F910F91FF90B2
:102D2000EF90DF90CF90BF90089583E00E943C0227
:102D30000197D1F46DE176E085E298E00E947A088F
:102D400080E0F701E80FF11D9081992319F01082BE
:102D50008F5FF7CF64E670E080E090E00E94E902C8
:102D60000E944A0580E0D7CF8091D3069091D40687
:102D7000079709F047CF0E94FC08811143CF0E94BA
:102D80009A0C40CFD0E010E000E071CFD0E010E02E
:102D900001E06DCFDD2319F0CC23D1F0C150C89EE6
:102DA000F001C99EF00D1124E353FD4FEC0FF11D0E
:102DB0008081F701ED0DF11D8083B7018AE199E073
:102DC0000E947A08B70185E298E00E947A081ACF3B
:102DD000C89EF001C99EF00D1124E353FD4F2481DC
:102DE000C4E02111DCCFC3E0DACF0F931F93CF9360
:102DF000DF93CDB7DEB760970FB6F894DEBF0FBE96
:102E0000CDBF0E944A050E94F90660E080E00E9462
:102E1000A20766E276E08AE199E00E947A0861E022
:102E200080E00E94A20765E376E08AE199E00E94D3
:102E30007A0862E080E00E94A20762E476E08AE11C
:102E400099E00E947A088091D3069091D406079762
:102E500031F40E94FC08811102C00E949A0C0E9469
:102E60001205182F64E670E080E090E00E94E9020D
:102E70008091D3069091D4061A3209F04CC021E01B
:102E800030E03093B1062093B006079711F40E940A
:102E90004A050E94F9068E010F5F1F4F80E1F8017D
:102EA00011928A95E9F70E94F90660E080E00E949D
:102EB000A2078091B0069091B1060197A1F562E555
:102EC00076E08AE199E00E947A0861E0C8010E94F8
:102ED000F0152091B0063091B106232B29F462E65B
:102EE00076E0C8010E9423158823E9F2B80185E243
:102EF00098E00E947A080E94F906C8010E94890998
:102F0000811137C0F801E80FF11D9081992369F014
:102F100010828F5FF7CF133209F095CF1092B10670
:102F20001092B006B2CF80E0D4CF0E94F90660E0E4
:102F300080E00E94A2078091B0069091B1060197AF
:102F400009F043C06CE476E08AE199E00E947A08D7
:102F500061E0C8010E94F0152091B0063091B106E1
:102F6000232B29F46CE576E0C8010E942315882301
:102F7000E1F2C8010E948909082F81111AC010923C
:102F8000D4061092D3061AE00E94F90660E080E0B1
:102F90000E94A207612F8AE199E00E94660868EE0C
:102FA00073E080E090E00E94E902115069F70E940E
:102FB000BA08802F60960FB6F894DEBF0FBECDBF63
:102FC000DF91CF911F910F91089580E0C5CFCF92EF
:102FD000DF92EF92FF920F931F93CF93DF9300D076
:102FE00000D000D0CDB7DEB789E0E4ECF2E0DE013E
:102FF000119601900D928A95E1F790E4E92E92E006
:10300000F92E10E000E0D12CD7018C91811113C072
:103010004CE050E0B7016F5F7F4F8EED96E00E946D
:10302000561E892B41F4E1E0F0E0EC0FFD1FE00FAC
:10303000F11F0083D3940F5F1F4FBEE0EB0EF11C16
:103040000930110509F7DD2009F4D4C00E94F90602
:10305000FE0131967F0110E000E0033011F00630F0
:1030600029F41F5F612F80E00E94A207D7018D9194
:103070007D018F3F49F0805D0E94BA0764E273E0F2
:103080008AE199E00E940F080F5F093031F71F5F56
:10309000612F80E00E94A2076BE676E08AE199E06A
:1030A0000E942109612F87E00E94A20761E674E077
:1030B0008AE199E00E942109612F87E00E94A2071E
:1030C0000E941205082F64E670E080E090E00E9404
:1030D000E902003239F30A3229F3033219F3802F5F
:1030E0000E94BA0780EDF82EF00E68EC70E080E0E8
:1030F00090E00E94E902CF2CD12CE1E0F0E0EC0F4F
:10310000FD1FEC0DFD1D80818F3F61F2BFEFFB16AF
:1031100049F20E94F516811112C084E796E02996C3
:103120000FB6F894DEBF0FBECDBFDF91CF911F91D8
:103130000F91FF90EF90DF90CF900C94910A0E9436
:10314000F90660E080E00E94A20760E876E08AE18C
:1031500099E00E947A0861E080E00E94A2076AE399
:1031600075E08AE199E00E942109802F0E94BA0748
:103170006F2D82E40E9429098823D1F38EE08C9D73
:10318000F0018D9DF00D1124E05CFD4FDF011D92DB
:103190008A95E9F781E0808370E060E08F2D0E94DE
:1031A0001D0C0E94F90660E080E00E94A2076EE814
:1031B00076E08AE199E00E942109802F0E94BA07F7
:1031C0006FEF7FEF90E080E00E944B0A6AEF70E0C3
:1031D00080E090E029960FB6F894DEBF0FBECDBF19
:1031E000DF91CF911F910F91FF90EF90DF90CF90E3
:1031F0000C94E90229960FB6F894DEBF0FBECDBF3E
:10320000DF91CF911F910F91FF90EF90DF90CF90C2
:1032100008951F920F920FB60F9211242F933F9390
:103220008F939F93AF93BF938091D6069091D706CB
:10323000A091D806B091D9063091D50623E0230F8E
:103240002D3758F50196A11DB11D2093D506809309
:10325000D6069093D706A093D806B093D90680914E
:10326000DA069091DB06A091DC06B091DD060196AE
:10327000A11DB11D8093DA069093DB06A093DC06B6
:10328000B093DD06BF91AF919F918F913F912F91A8
:103290000F900FBE0F901F90189526E8230F0296EF
:1032A000A11DB11DD2CF1F920F920FB60F92112404
:1032B0000BB60F922F933F934F935F936F937F9330
:1032C0008F939F93AF93BF93EF93FF938BEE96E013
:1032D0000E940F04FF91EF91BF91AF919F918F9149
:1032E0007F916F915F914F913F912F910F900BBE06
:1032F0000F900FBE0F901F9018951F920F920FB650
:103300000F9211240BB60F922F933F934F935F931D
:103310006F937F938F939F93AF93BF93EF93FF939D
:103320008BEE96E00E945403FF91EF91BF91AF9115
:103330009F918F917F916F915F914F913F912F91CD
:103340000F900BBE0F900FBE0F901F9018951F92FD
:103350000F920FB60F9211240BB60F922F933F933B
:103360004F935F936F937F938F939F93AF93BF938D
:10337000EF93FF9388E897E00E940F04FF91EF918D
:10338000BF91AF919F918F917F916F915F914F917D
:103390003F912F910F900BBE0F900FBE0F901F907B
:1033A00018951F920F920FB60F9211240BB60F9221
:1033B0002F933F934F935F936F937F938F939F933D
:1033C000AF93BF93EF93FF9388E897E00E94540375
:1033D000FF91EF91BF91AF919F918F917F916F91ED
:1033E0005F914F913F912F910F900BBE0F900FBEA9
:1033F0000F901F9018951F920F920FB60F921124E5
:103400000BB60F922F933F934F935F936F937F93DE
:103410008F939F93AF93BF93EF93FF9385E298E0D1
:103420000E940F04FF91EF91BF91AF919F918F91F7
:103430007F916F915F914F913F912F910F900BBEB4
:103440000F900FBE0F901F9018951F920F920FB6FE
:103450000F9211240BB60F922F933F934F935F93CC
:103460006F937F938F939F93AF93BF93EF93FF934C
:1034700085E298E00E945403FF91EF91BF91AF91D4
:103480009F918F917F916F915F914F913F912F917C
:103490000F900BBE0F900FBE0F901F901895CF93FB
:1034A000DF931092EE061092ED0648EE53E060E0D6
:1034B00070E04093EF065093F0066093F10670932E
:1034C000F2068AE093E09093EC068093EB0625E306
:1034D00031E03093F8062093F70624E331E030938F
:1034E000FA062093F90620E331E03093FC0620939E
:1034F000FB0621E331E03093FE062093FD0622E334
:1035000031E0309300072093FF0626E331E030934B
:1035100002072093010710920407109205071092EA
:1035200006071092070710928B0710928A074093A4
:103530008C0750938D0760938E0770938F0790933D
:1035400089078093880725ED30E030939507209315
:10355000940724ED30E0309397072093960720EDF1
:1035600030E0309399072093980721ED30E03093B5
:103570009B0720939A0722ED30E030939D0720931C
:103580009C0726ED30E030939F0720939E07109212
:10359000A1071092A2071092A3071092A4071092FD
:1035A0002808109227084093290850932A0860930E
:1035B0002B0870932C08909326088093250885EC9F
:1035C00090E0909332088093310884EC90E09093DF
:1035D00034088093330880EC90E090933608809311
:1035E000350881EC90E0909338088093370882EC9E
:1035F00090E090933A088093390886EC90E090939D
:103600003C0880933B0810923E0810923F081092AD
:1036100040081092410810921D0910921C098CE17B
:1036200093E090931B0980931A0986E180931E0909
:103630008FEF80931F0987E18093200988E18093B1
:10364000210989E1809322098AE1809323098BE192
:1036500080932409109225091092260910922709B7
:10366000109228091092290981E00E940107CCE1FB
:10367000D0E0D0931309C09312098EE190E09093AB
:103680001509809314098DE190E0909317098093B8
:10369000160981E090E0909319098093180961E080
:1036A0008CE10E94930261E0809114090E949302D0
:1036B00061E0809116090E94930261E080911609F1
:1036C0000E946502D0931309C0931209E2EDF8E05D
:1036D000119289E0E231F807D9F7D0E0C0E080919B
:1036E000180990911909C817D90774F540E06FE0DF
:1036F000CE010E9488058091180990911909C81778
:10370000D9072CF447E06BE0CE010E94880540E029
:1037100069E0CE010E9488058091180990911909ED
:10372000C817D9071CF4CE010E94E605809118093C
:1037300090911909C817D9072CF440E06CE0CE012C
:103740000E9488052196CBCFDF91CF910895CF932A
:10375000DF931F921F92CDB7DEB7789484B5826055
:1037600084BD84B5816084BD85B5826085BD85B525
:10377000816085BD80916E00816080936E001092A3
:10378000810080918100826080938100809181001E
:1037900081608093810080918000816080938000AF
:1037A0008091B10084608093B1008091B00081600D
:1037B0008093B0008091910082608093910080910D
:1037C000910081608093910080919000816080934E
:1037D00090008091A10082608093A1008091A1005F
:1037E00081608093A1008091A00081608093A000FF
:1037F000809121018260809321018091210181606B
:10380000809321018091200181608093200180912B
:103810007A00846080937A0080917A00826080933D
:103820007A0080917A00816080937A0080917A009A
:10383000806880937A001092C10088E897E00E9427
:10384000AE0188E897E00E94AE0185E298E00E9410
:10385000AE018BEE96E00E94AE0180911809909126
:1038600019091816190634F441E06CE090E080E084
:103870000E94880580911809909119091816190657
:1038800034F448E06AE090E080E00E94880580918E
:103890001809909119091816190624F490E080E08F
:1038A0000E94E60584E00E94010712E060E0812F9B
:1038B0000E9493021F5F1830C9F761E088E00E9400
:1038C000930261E089E00E94930261E08AE00E9435
:1038D00093020E94BA0884E794E00E94DD098111F6
:1038E00070C067E976E085E298E00E947A08198264
:1038F000BE016F5F7F4F84E890E00E94320A4BE781
:1039000054E0BA0184E794E00E94F60A90E080E077
:103910000E94E81CF82E81114DC000E412E058010D
:10392000CC24C394D12CC6010E94E81CF5018193DC
:103930005F01FFEFCF1ADF0A8FE7C816D10499F7AE
:10394000EE24E394F801808181112EC0AE014F5F17
:103950005F4FBE016E5F7F4F8F2D0E94550589819D
:1039600090E02A8130E0AC0163E0440F551F6A9576
:10397000E1F740505E4FFA01E20FF31FE08273E07F
:10398000880F991F7A95E1F7885F9D4FFC01E20F40
:10399000F31FE0822F5F3F4F420F531FFA01E08277
:1039A000820F931FFC01E082F394025F1F4FF9E046
:1039B000FF12C8CF0E9406060E949A0C0E949E0425
:1039C000FBCF65EA76E085E298E00E947A089ECF18
:1039D000F999FECF92BD81BDF89A992780B50895D7
:1039E000262FF999FECF1FBA92BD81BD20BD0FB61B
:1039F000F894FA9AF99A0FBE01960895A1E21A2E48
:103A0000AA1BBB1BFD010DC0AA1FBB1FEE1FFF1F82
:103A1000A217B307E407F50720F0A21BB30BE40BD2
:103A2000F50B661F771F881F991F1A9469F7609519
:103A30007095809590959B01AC01BD01CF010895D3
:103A4000EE0FFF1F881F8BBF0790F691E02D199492
:103A50000F931F93CF93DF938230910510F482E090
:103A600090E0E0913409F091350930E020E0B0E0D9
:103A7000A0E0309799F42115310509F44AC0281BBC
:103A8000390B24303105D8F58A819B816115710588
:103A900089F1FB0193838283FE0111C04081518132
:103AA0000281138148175907E0F04817590799F424
:103AB000109761F012960C93129713961C933296FE
:103AC000CF01DF91CF911F910F9108950093340999
:103AD00010933509F4CF2115310551F042175307E2
:103AE00038F0A901DB019A01BD01DF01F801C1CF66
:103AF000EF01F9CF9093350980933409CDCFFE01C2
:103B0000E20FF31F81939193225031093983288367
:103B1000D7CF2091320930913309232B41F42091E2
:103B2000C0023091C10230933309209332092091B1
:103B3000BE023091BF022115310541F42DB73EB7C9
:103B40004091C2025091C302241B350BE09132090F
:103B5000F0913309E217F307A0F42E1B3F0B28174F
:103B6000390778F0AC014E5F5F4F2417350748F0F6
:103B70004E0F5F1F50933309409332098193919305
:103B80009FCFF0E0E0E09CCFCF93DF930097E9F088
:103B9000FC01329713821282A0913409B091350949
:103BA000ED0130E020E01097A1F420813181820FF7
:103BB000931F20913209309133092817390709F0F2
:103BC00061C0F0933309E0933209DF91CF910895FA
:103BD000EA01CE17DF07E8F54A815B819E014115B6
:103BE0005105B1F7E901FB83EA8349915991C40F6B
:103BF000D51FEC17FD0761F4808191810296840F37
:103C0000951FE90199838883828193819B838A83AD
:103C1000F0E0E0E012968D919C9113970097B9F532
:103C20002D913C911197CD010296820F931F209107
:103C30003209309133092817390739F6309751F591
:103C40001092350910923409B0933309A0933209C8
:103C5000BCCFD383C28340815181840F951FC81785
:103C6000D90761F44E5F5F4F88819981480F591FD2
:103C7000518340838A819B819383828321153105FF
:103C800009F0B0CFF0933509E09334099ECFFD01E0
:103C9000DC01C0CF13821282D7CFFB01DC018D91F2
:103CA000019080190110D9F3990B0895FB01DC01F3
:103CB0004150504030F08D910190801919F400204E
:103CC000B9F7881B990B0895FB01DC014150504066
:103CD00048F001900D920020C9F701C01D9241509B
:0A3CE0005040E0F70895F894FFCF7C
:103CEA0000000100000100000000010000010000C6
:103CFA0001010101010101010000010000010000B0
:103D0A00000001000001000001010101010101019F
:103D1A000000010000010000000001000001000095
:103D2A000100000000000000000000000000010087
:103D3A000000000000000000000000000100000078
:103D4A000000000000000000000001000000000068
:103D5A000000000000000000010000000000000058
:103D6A000000000000000100000000000000000048
:103D7A000000000001000000000000000000000038
:103D8A000000010000000000000000000000000028
:103D9A000100000000000000000000000000000018
:103DAA0036098000FFFFFFFFFFFFFFFFFF312A24D4
:103DBA00232132414243303344454600344748497F
:103DCA0000354A4B4C00364D4E4F00375051525336
:103DDA003854555600395758595A313233343536D2
:103DEA003738392A302300000000310427036D03D5
:103DFA007E04E5037C03D70300000000B407270311
:103E0A00C804C7040D0A00527562656E203230324A
:103E1A003131313833350053657267696F2032307A
:103E2A003231313138333500506564726F203230A7
:103E3A0032313131383335004A6F736520323031CF
:103E4A00393031373536005365626173203230328A
:103E5A0031313138333500534520414341424F20F7
:103E6A00454C205449454D504F002D2D2D2D2D3EAA
:103E7A0000456C207573756172696F2079612065E0
:103E8A007869737465002D2D2D4E7565766F2075D2
:103E9A0073756172696F2D2D2D002D2D2D2D2D2DF0
:103EAA002D2D2D2D2D2D2D2D2D2D2D2D2D004D650D
:103EBA006E75207072696E636970616C005072650C
:103ECA0073696F6E6120616365707461720020208E
:103EDA004C6F67696E00202052656769737472615E
:103EEA007200204573706572616E646F2020756E72
:103EFA00612000202020636F6E6578696F6E2E2E18
:103F0A002E2020004E6F6D6272653A004C204F20C1
:103F1A00472049204E00202D204E4F4D4252453A0F
:103F2A0000436F72726563746F3F20202020202047
:103F3A002000202020202020202020202020202097
:103F4A00202000202D20436F6E747261733A004E58
:103F5A004144410061646D696E310031323334008D
:103F6A0041444D494E006C6F67696E4145006C6F64
:103F7A0067696E5545006C6F67696E46410020207F
:103F8A004C6F677300202045737461646F20537906
:103F9A007300202043657272617220736573696FC2
:103FAA006E006161610043454C20232020202020BF
:103FBA0020004641494C4544202320202000494EF8
:103FCA00434944454E54202320004143542055532D
:103FDA004552202320004365727261646F410020BC
:103FEA00496E677265736F2043656C002052657471
:103FFA0069726F2043656C0020456C696D696E615A
:10400A0072204375656E746100496E746F64757AC7
:10401A0063612043454C20656E0020504F53202396
:10402A00004D5543484F2043414C4F5220656E0086
:10403A00494E47522043454C204641494C00494E7F
:10404A0047522043454C204F4B00436572726164CE
:10405A006F555300456C207573756172696F206ED8
:10406A006F206578697374650043454C20656E203E
:10407A0053697374656D61004D656E7520646520C2
:10408A0072657469726F2E2E2E005573756172698E
:10409A006F20426F727261646F00524D5620555301
:1040AA00520053495555555500202D20434F4E5423
:1040BA0052413A00202041706C69636163696F6EF6
:1040CA0000202050616E656C00202053616C69727B
:1040DA000052204520472049205320542052204F87
:1040EA0000202D2043656C756C61723A004163654E
:1040FA00707461723F202020202020200063616EAE
:10410A0063656C6172005449504F20444520494E02
:10411A005055543A00232041504C49434143494F9A
:10412A004E002A205445434C41444F006572726F39
:10413A00722070617373776F72643A006572726F7E
:10414A00722070617373776F7264004F7063696F66
:10415A006E3A2000524D2043454C204641494C00BE
:10416A005265746972652043454C20656E0053613F
:10417A006361646F20230041677265676172204141
:10418A00646D696E004861792061646D696E000032
:00000001FF
