:100000000C9479010C94AA010C94AA010C94AA01F5
:100010000C94AA010C94AA010C94AA010C94AA01B4
:100020000C94AA010C94AA010C94AA010C94AA01A4
:100030000C94AA010C94AA010C94AA010C94AA0194
:100040000C94AA010C94AA010C94AA010C94AA0184
:100050000C94AA010C94AA010C94AA010C94100E01
:100060000C94AA010C94E40E0C94BA0E0C94AA0100
:100070000C94AA010C94AA010C94AA010C94AA0154
:100080000C94AA010C94AA010C94AA010C94AA0144
:100090000C94AA010C94AA010C94AA010C94AA0134
:1000A0000C94AA010C94AA010C94AA010C94AA0124
:1000B0000C94AA010C94AA010C94AA010C94AA0114
:1000C0000C94AA010C94AA010C94AA010C94AA0104
:1000D0000C94AA010C94AA010C94840E0C945A0E50
:1000E0000C94AA010C94EC080C944C060C94250377
:1000F0000C94FF010C9436020C94DF080C94BC03A2
:100100000C9415060C9403020C940C040C94E10856
:100110000C9461030C944B090C94F8110C942C0270
:100120000C945C090C94E3080C944A060C9432027B
:100130000C941A020C94DB080C949D110C9442163A
:100140000C94FB010C9406020C94CA030C94520309
:100150000C9428020C94F1010C94A7040C945904FB
:100160000C9416020C94C7130C94D7080C94E71542
:100170000C941C060C9410020C9444110C941A0F4D
:100180000C94B4070C94F7010C9412060C94180606
:100190000C94D9080C94C2110C94DD080C946913CA
:1001A0000C9448060C941E020C9424020C94A60491
:1001B0000C94D4080C948A150C940C020C94250908
:1001C0000C941A060C945A090C9431020C941415D0
:1001D00000002100240027002A002D0030003300F9
:1001E00001010000040107010A01000022002500AE
:1001F00028002B002E003100340002010000050110
:1002000008010B01000020002300260029002C001B
:100210002F0032000001000003010601090105055D
:100220000505070508080808020202020A0A08086C
:10023000040404040101010101010101030303039A
:1002400003030303040707070C0C0C0C0C0C0C0C29
:100250000202020206060606060606060B0B0B0B3A
:100260000B0B0B0B0102102020080810204010205F
:10027000408002010201080402010102040810206A
:100280004080804020100804020180040201804068
:1002900020100804020108040201010204081020D1
:1002A0004080010204081020408000000A0B02096F
:1002B0000C0D0E0807030401000000000000000000
:1002C000000000000000000000000000000000002E
:1002D00000000000000012111000000000000000EB
:1002E000000000000000000000000000000000000E
:1002F0001A0F11241FBECFEFD1E2DEBFCDBF00E049
:100300000CBF28E0A4E4B6E001C01D92A532B207FC
:10031000E1F716E0A0E0B2E0EEE0F3E300E00BBFAF
:1003200002C007900D92A434B107D9F711E0C9E7D4
:10033000D1E000E006C021970109802FFE010E9454
:100340003218C837D10780E00807A9F70E94361095
:100350000C9485190C940000FC01A089B18982E0FD
:100360008C93A485B5851C92A685B7858FEC8C935C
:10037000108EA489B58986E08C93A289B3898C916B
:1003800080618C93A289B3898C9188608C93A289B7
:10039000B3898C9180688C930288F389E02D8081E9
:1003A0008F7D808308958150823108F05AC0E82FF4
:1003B000F0E08827E152FE4F8F4F0C943218FF0176
:1003C0000302F101F701FB01310206020C021002E7
:1003D00016021A021E022402280231022C023202E4
:1003E0003602809180008F778093800008958091FD
:1003F00080008F7DF9CF80918000877FF5CF84B515
:100400008F7784BD089584B58F7DFBCF8091B00038
:100410008F778093B00008958091B0008F7DF9CFE1
:10042000809190008F778093900008958091900044
:100430008F7DF9CF80919000877FF5CF8091A000CC
:100440008F778093A00008958091A0008F7DF9CFD1
:100450008091A000877FF5CF809120018F778093D6
:1004600020010895809120018F7DF9CF8091200196
:10047000877FF5CFCF93DF93282F30E0F901E65542
:10048000FD4F8491F901EC59FD4FD491F901E25EE1
:10049000FD4FC491CC23A1F081110E94D301EC2F18
:1004A000F0E0EE0FFF1FEC5FFD4FA591B491EC91D2
:1004B000ED2381E090E009F480E0DF91CF91089591
:1004C00080E090E0FACF1F93CF93DF93282F30E0A6
:1004D000F901E655FD4F8491F901EC59FD4FD49196
:1004E000F901E25EFD4FC491CC23A9F0162F8111D2
:1004F0000E94D301EC2FF0E0EE0FFF1FE651FE4FFC
:10050000A591B4918FB7F894EC91111108C0D095D2
:10051000DE23DC938FBFDF91CF911F910895DE2BF7
:10052000F8CFCF93DF9390E0FC01EC59FD4F24917D
:10053000825E9D4FFC0184918823D1F090E0880F6A
:10054000991FFC01E053FE4FA591B491FC01E651C7
:10055000FE4FC591D49161110EC09FB7F8948C9154
:10056000E22FE0958E238C932881E223E8839FBFBE
:10057000DF91CF9108958FB7F894EC91E22BEC9333
:100580008FBFF6CF3FB7F8948091660690916706CB
:10059000A0916806B091690626B5A89B05C02F3FBB
:1005A00019F00196A11DB11D3FBFBA2FA92F982F99
:1005B0008827BC01CD01620F711D811D911D42E094
:1005C000660F771F881F991F4A95D1F708958F925C
:1005D0009F92AF92BF92CF92DF92EF92FF924B0128
:1005E0005C010E94C2026B017C010E94C2026C1974
:1005F0007D098E099F09683E734081059105A8F326
:1006000021E0821A9108A108B10888EEC80E83E0A3
:10061000D81EE11CF11C81149104A104B10429F736
:10062000FF90EF90DF90CF90BF90AF909F908F9012
:1006300008952FB7F89460916206709163068091D7
:100640006406909165062FBF0895AF92BF92CF9236
:10065000DF92EF92FF920F931F93CF93DF936C0182
:100660007B018B01040F151FEB015E01AE18BF0863
:10067000C017D10759F06991D601ED91FC91019015
:10068000F081E02DC6011995892B79F7C501DF911D
:10069000CF911F910F91FF90EF90DF90CF90BF907F
:1006A000AF900895FC01538D448D252F30E0842FA9
:1006B00090E0821B930B541710F0CF96089501978A
:1006C0000895FC01918D828D981761F0A28DAE0F77
:1006D000BF2FB11D5D968C91928D9F5F9F73928FFE
:1006E00090E008958FEF9FEF08958F929F92AF92C1
:1006F000BF92CF92DF92EF92FF920F931F93CF930F
:10070000DF937C016A018B01D0E0C0E00E941903F5
:10071000F7016087718782879387C7010E94610311
:1007200097FF22C00E941903F70180849184A2845C
:10073000B384681979098A099B0984809580A68009
:10074000B780681579058A059B0538F3CE01DF91DE
:10075000CF911F910F91FF90EF90DF90CF90BF90BE
:10076000AF909F908F900895F80181938F0121960B
:10077000CC16DD0659F6EACFFC01918D828D9817D3
:1007800031F0828DE80FF11D858D90E008958FEF97
:100790009FEF0895FC01918D228D892F90E0805C60
:1007A0009F4F821B91098F739927089587E796E0E1
:1007B0000E94CA0321E0892B09F420E0822F0895CA
:1007C00084E197E00E94CA0321E0892B09F420E02C
:1007D000822F0895FC01A48DA80FB92FB11DA35A33
:1007E000BF4F2C91848D90E001968F739927848F51
:1007F000A689B7892C93A089B1898C918370806474
:100800008C93938D848D981306C00288F389E02D14
:1008100080818F7D80830895EF92FF920F931F93C5
:10082000CF93DF93EC0181E0888F9B8D8C8D9813A3
:100830001AC0E889F989808185FF15C09FB7F894AF
:10084000EE89FF896083E889F989808183708064FB
:1008500080839FBF81E090E0DF91CF911F910F9146
:10086000FF90EF900895F62E0B8D10E00F5F1F4F55
:100870000F731127E02E8C8D8E110CC00FB607FC64
:10088000FACFE889F989808185FFF5CFCE010E94F2
:10089000EA03F1CFEB8DEC0FFD2FF11DE35AFF4F73
:1008A000F0829FB7F8940B8FEA89FB898081806280
:1008B000CFCFCF93DF93EC01888D8823B9F0AA893D
:1008C000BB89E889F9898C9185FD03C0808186FD0B
:1008D0000DC00FB607FCF7CF8C9185FFF2CF80815A
:1008E00085FFEDCFCE010E94EA03E9CFDF91CF91E2
:1008F000089580E090E0892B29F00E94E0038111A7
:100900000E94000080E090E0892B49F080E090E0B8
:10091000892B29F00E94000081110E94000080E0D4
:1009200090E0892B49F080E090E0892B29F00E942B
:10093000000081110E94000080E090E0892B29F0E6
:100940000E94D60381110C9400000895089590E050
:1009500080E00895CF92DF92EF92FF92CF93DF93E2
:100960000E941903EB010E9419030E9419036B01F5
:1009700084E197E00E94CA03892B29F084E197E083
:100980000E946103F5CFCC1ADD0A88EEC81683E019
:10099000D8065CF384E197E00E94CA03892B29F70B
:1009A000DF91CF91FF90EF90DF90CF90089582E09C
:1009B0000E943A02892B41F062ED70E080E090E005
:1009C0000E94E70281E0089583E00E943A02892BA9
:1009D00071F362ED70E080E090E00E94E70280E059
:1009E0000895FF920F931F93CF93DF93C8E0D0E059
:1009F000FC2E61E08C2F0E94630204E010E0802F47
:100A00000E943A020197B1F460E08F2D0E946302C8
:100A100004501109C801880F991F080F191FC00F32
:100A2000D11FCD5BDC4F8881DF91CF911F910F915A
:100A3000FF9008950F5F1F4F0830110501F760E028
:100A40008F2D0E9463022196CB30D10589F680E27A
:100A5000EBCFCF92DF92EF92FF920F931F93CF9342
:100A6000DF931F921F92CDB7DEB769834A83880F49
:100A7000991F0091070810910808000F111FE1EB62
:100A8000F7E09F01215B37402017310714F41192E2
:100A9000F8CF2981FC01EF54F84F21838A818083AC
:100AA00060E0809105080E9463021016110604F5AB
:100AB00001501109F801EF54F84FE080D09003087D
:100AC000C090010888E0F82E6E2D661F6627661F0D
:100AD0008C2D0E946302EE0C61E08D2D0E9463025A
:100AE00060E08D2D0E946302FA94F110EDCFDDCF0E
:100AF00061E0809105080F900F90DF91CF911F91D9
:100B00000F91FF90EF90DF90CF900C946302EF92E3
:100B1000FF920F931F93CF937C018C0183E0000F12
:100B2000111F8A95E1F70F53184FC1E0F801119298
:100B30008F0140E06C2FC7010E942905CF5FC930AB
:100B4000A9F7CF911F910F91FF90EF900895AF9269
:100B5000BF92CF92DF92EF92FF920F931F93CF93AA
:100B6000DF93C1EBD7E080E0C82E82E0D82EB12C15
:100B700090E8E92EF12C10E000E0AA24A394AB0C3D
:100B8000809107089091080818161906E4F488E087
:100B9000B816C9F008301105B1F0C701002E02C027
:100BA000959587950A94E2F72889F601E00FF11FE1
:100BB0003081332301F1822B888B48896A2D90E0A4
:100BC00080E00E9429050F5F1F4F09301105C1F613
:100BD000B394219688E0C80ED11C89E0B812CBCF1F
:100BE000DF91CF911F910F91FF90EF90DF90CF9009
:100BF000BF90AF90089580958223DECF982F8930E3
:100C0000E0F4E82FF0E08827E75FF94F8F4F0C946E
:100C100032184C06120615061C0618061A061C0683
:100C200048064A0690E023E008C090E026E005C0B0
:100C300093E0F9CF93E0FACF20E0892F90E030E005
:100C4000AC014F5F5F4FF9013196A3E0880F991F08
:100C5000AA95E1F7B3E0440F551FBA95E1F780502C
:100C60009E4FDC01A20FB31F61307105B9F461E042
:100C70006C9340505E4F240F351FD9016C938E0F3B
:100C80009F1FDC016C93E40FF51F60830C94A70594
:100C900096E0C9CF96E0CACF292FCFCF1C92405003
:100CA0005E4F240F351FD9011C928E0F9F1FDC0150
:100CB0001C92E40FF51F1082E9CFCF93DF93EC0174
:100CC00060E08E810E94630261E08E810E94630277
:100CD00060E08E810E9463028BE891E00197F1F75A
:100CE000DF91CF910895CF92DF92EF92FF920F9311
:100CF0001F93CF93DF936C017C0187E0E80EF11C1A
:100D0000D0E0C0E0062F10E0B8010C2E02C07595AF
:100D100067950A94E2F76170F70181917F010E9463
:100D200063022196C430D10579F7C601DF91CF91D6
:100D30001F910F91FF90EF90DF90CF900C945D0684
:100D4000CF92DF92EF92FF920F931F93CF93DF9397
:100D5000EC01F62E642F8C810E9463028D818F3FFF
:100D600019F060E00E9463020F2D10E08F8584FF70
:100D700025C06E0187E0C80ED11CF12CE12CB80112
:100D80000E2C02C0759567950A94E2F76170F60122
:100D900081916F010E946302FFEFEF1AFF0A88E062
:100DA000E816F10461F7CE01DF91CF911F910F9109
:100DB000FF90EF90DF90CF900C945D06B80184E037
:100DC000759567958A95E1F7CE010E9473066F2DA0
:100DD000CE01DF91CF911F910F91FF90EF90DF90A7
:100DE000CF900C94730640E0682F89E098E00C9453
:100DF000A00681E00E94F3068BE39FE10197F1F7E3
:100E00000895CF93DF93813029F09091180898606E
:100E10009093180880931C0810921D0880E480931A
:100E20001E0880E180931F0880E58093200861E020
:100E300080910D080E94910280910E088F3F19F059
:100E400061E00E94910261E080910F080E9491028E
:100E5000C9E0D8E09E01295038408091180884FDEF
:100E60000BC084E090E021962817390744F461E034
:100E70008E810E949102EECF88E090E0F4CF8BE368
:100E80009DE00197F1F760E080910D080E946302F8
:100E900060E080910F080E94630280910E088F3FEE
:100EA00019F060E00E9463028091180884FD34C04C
:100EB00063E089E098E00E947306CBE4D6E4CE01BB
:100EC0000197F1F763E089E098E00E9473062197AB
:100ED000F1F763E089E098E00E94730683E592E011
:100EE0000197F1F762E089E098E00E947306809133
:100EF000180880620E94F30684E0809319088CE051
:100F00000E94F3060E94F90682E080931A0886E0A8
:100F1000DF91CF910C94F30680620E94F3068BE47C
:100F200096E40197F1F78091180880620E94F30619
:100F300083E592E00197F1F78091180880620E94A2
:100F4000F306D5CF643008F063E090911C08691770
:100F500010F06FEF690FE62FF0E0E75FF74F94892D
:100F6000890F80680C94F30641E00E94A00681E09E
:100F700090E0089541E0682F89E098E00E94A00683
:100F800081E090E00895FF920F931F93CF93DF933A
:100F90008C01EB01F8800E94FA17F81621F06F2DF2
:100FA000C8010E940218CE01DF91CF911F910F91CD
:100FB000FF900895CF92DF92EF92FF920F931F93CD
:100FC000CF93DF93EB017B0123E2E20EF11C8B0157
:100FD0006C01C61AD70AC601800F911F0E94FA172A
:100FE000F80181938F01EE15FF05A9F7CE01DF917E
:100FF000CF911F910F91FF90EF90DF90CF900895C8
:10100000FB0101900020E9F73197AF01461B570B18
:10101000DC01ED91FC910280F381E02D19940F9396
:101020001F93CF93DF93EC010E9400088C0165E7CA
:1010300073E0CE010E940008800F911FDF91CF91D5
:101040001F910F9108951F93CF93DF9300D0CDB7D9
:10105000DEB7BC0184E197E00E940F0810E084E154
:1010600097E00E94CA03892B59F042E050E0BE018C
:101070006F5F7F4F84E197E00E94750311E0EFCF2F
:10108000112369F384E197E00E94CA03892B39F7A1
:101090000F900F900F90DF91CF911F9108950E94B4
:1010A000F90660E080E00E94A20768E773E089E04B
:1010B00098E00E940F0861E080E00E94A20768E8C3
:1010C00073E089E098E00E940F0862E080E00E94EF
:1010D000A20769E973E089E098E00E940F0863E0E5
:1010E00080E00E94A20769EA73E089E098E00E942C
:1010F0000F0864EF71E080E090E00E94E7020E9438
:10110000F90660E080E00E94A20768EB73E089E0E6
:1011100098E00E940F0864EF71E080E090E00C948A
:10112000E702CF92DF92EF92FF920F931F93CF933C
:10113000DF937C01C62E80E00E94A20700E0C0E0A1
:1011400085E0D82E6C2D80E00E94A2070E94F10459
:10115000182F64E670E080E090E00E94E702EDED79
:10116000E10FE73108F038C00E2E000CFF0B882786
:10117000E354F74F8F4F0C9432182509EC08EC0814
:10118000EC08EC08EC08EC084B09EC08EC08EC085F
:10119000EC08EC08E308D4085C095A09D708D90818
:1011A000DB08DD08DF08E108D0E0C0E05DC0D3E087
:1011B000FCCFD4E0FACFD5E0F8CFD6E0F6CFD7E039
:1011C000F4CFD8E0F2CFF701E00FF11D8081882342
:1011D00009F4B8CF0F5FB6CF82E00E943A020197C0
:1011E000B1F463ED74E084E197E00E940F0864E6D7
:1011F00070E080E090E00E94E70281E0DF91CF9113
:101200001F910F91FF90EF90DF90CF90089583E0B2
:101210000E943A02019709F095CF68EC73E084E1EF
:1012200097E00E940F0880E0F701E80FF11D908120
:10123000992319F010828F5FF7CF64E670E080E0A9
:1012400090E00E94E70280E0D9CFC43009F4ADCF2E
:10125000DD9EF0011124E25EFC4FEC0FF11D818157
:10126000CF5F882309F4A1CFDD9EF0011124E25E57
:10127000FC4FEC0FF11D8081F701E00FF11D808321
:10128000B70189E098E00E940F08B70184E197E078
:101290000E940F0857CFCC2311F0C150E5CFDD9E3F
:1012A000F0011124E25EFC4F8481C4E08111DCCFA7
:1012B000C3E0DACFD2E079CFD1E077CF6115710505
:1012C00011F00C94000890E080E008957F928F92D6
:1012D0009F92AF92BF92CF92DF92EF92FF920F93C5
:1012E0001F93CF93DF9300D0CDB7DEB78C016B0196
:1012F0000E94AA040E94F90661ED73E089E098E07B
:101300000E945E0961E080E00E94A20762EE73E045
:1013100089E098E00E945E0984E197E00E94CA0398
:10132000892BD1F342E050E0BE016F5F7F4F84E133
:1013300097E00E9475030E9419034B015C010E9413
:1013400019030E94AA04C6010E9423080E94F906FC
:1013500060E080E00E94A207B60189E098E00E9468
:101360000F08F12CE12C712C84E197E00E94CA0354
:10137000892B71F084E197E00E946103F801EE0D82
:10138000FF1D8083C70101967C0177247394ECCF05
:10139000772091F10E941903681979098A099B093C
:1013A000643F714081059105FCF261E080E00E949C
:1013B000A207B80189E098E00E940F0862E080E08F
:1013C0000E94A20763EF73E089E098E00E945E0943
:1013D00064EF71E080E090E00E94E7020E94D70491
:1013E000811111C0F801E80FF11D9081992309F4D2
:1013F000A2CF10828F5FF6CF0E9419034B015C01D0
:101400000E941903B1CF81E00F900F900F90DF91F0
:10141000CF911F910F91FF90EF90DF90CF90BF90F1
:10142000AF909F908F907F900895FF920F931F939E
:10143000CF93DF938C01FC0101900020E9F73197F5
:10144000FE2EF81A8DE090E00E943A18EC014CE074
:1014500050E0B8010E947619BE01DE012C2F98E7FA
:101460008A2F8C1B8F1568F099E7862F821B8F15AA
:1014700080F4FB018191BF01DF01119789278C93D3
:10148000F4CF8D91AD01415051098927FA01808334
:10149000E7CFCE01DF91CF911F910F91FF9008957B
:1014A000CF92DF92EF92FF920F931F93CF93DF9330
:1014B000CDB7DEB7A3970FB6F894DEBF0FBECDBF92
:1014C0008C018AE696E00E94150A6C01C8010E9410
:1014D000150A7C010FEC10E0BE016F5F7F4FC80161
:1014E0000E94DA07B601CE0101960E945F19892B8E
:1014F000E9F4B701CE010E960E945F19892BB1F471
:10150000C6010E94D618C7010E94D61881E0A39692
:101510000FB6F894DEBF0FBECDBFDF91CF911F9104
:101520000F91FF90EF90DF90CF9008950D5D1F4FCA
:10153000053D89E0180781F6C6010E94D618C7014B
:101540000E94D61880E0E3CF3F924F925F926F9255
:101550007F928F929F92AF92BF92CF92DF92EF9243
:10156000FF920F931F93CF93DF93CDB7DEB7E19731
:101570000FB6F894DEBF0FBECDBF0E94F90660E043
:1015800080E00E94A20763E074E089E098E00E9496
:101590000F0861E080E00E94A20762E174E089E048
:1015A00098E00E940F0862E080E00E94A2076FE1CD
:1015B00074E089E098E00E940F080E94F104182F5F
:1015C00064E670E080E090E00E94E7021A3209F0E1
:1015D00048C081E090E090934506809344060E94C5
:1015E000F9068E010E5D1F4F80E1F80111928A9578
:1015F000E9F70E94F90660E080E00E94A20780916E
:101600004406909145060197A1F56FE274E089E0E8
:1016100098E00E940F0861E0C8010E9491082091A3
:10162000440630914506232B29F46FE374E0C8018A
:101630000E9466098823E9F2B80184E197E00E94DC
:101640000F080E94F906C8010E94500A811137C094
:10165000F801E80FF11D9081992369F010828F5FE6
:10166000F7CF133209F0A9CF109245061092440625
:10167000B6CF80E0D4CF0E94F90660E080E00E94FF
:10168000A2078091440690914506019709F07CC01D
:1016900069E274E089E098E00E940F0861E0C80107
:1016A0000E9491082091440630914506232B29F48D
:1016B00069E374E0C8010E9466098823E1F2C80169
:1016C0000E94500A382E811146C010926006109276
:1016D0005F069AE0C92ED12CE12CF12C2AE0422E93
:1016E000512C612C712C0E94F90660E080E00E9470
:1016F000A20719A2460157018E010F5D1F4FC501B8
:10170000B401A30192010E941018605DF801629378
:101710008F01FAE08F169104A104B104B9F101150B
:10172000110529F0B80189E098E00E94000865E7FA
:1017300073E089E098E00E94000868EE73E080E0C2
:1017400090E00E94E70281E0C81AD108E108F108A0
:1017500051F60E944F08832DE1960FB6F894DEBF34
:101760000FBECDBFDF91CF911F910F91FF90EF90F2
:10177000DF90CF90BF90AF909F908F907F906F90B1
:101780005F904F903F90089580E08CCF812C912CFA
:1017900054018394B4CFCF92DF92EF92FF920F93D4
:1017A0001F93CF93DF9300D000D000D0CDB7DEB72A
:1017B00089E0E5E1F3E0DE01119601900D928A9552
:1017C000E1F790E4E92E92E0F92E10E000E0D12C50
:1017D000D7018C91811113C04CE050E0B7016F5FCD
:1017E0007F4F8AE696E00E946819892B41F4E1E078
:1017F000F0E0EC0FFD1FE00FF11F0083D3940F5FAB
:101800001F4FB7E1EB0EF11C0930110509F7DD2080
:1018100009F49DC00E94F906FE0131967F0110E097
:1018200000E0033011F0063029F41F5F612F80E0E3
:101830000E94A207D7018D917D018F3F49F0805D05
:101840000E94BA0765E773E089E098E00E9400080B
:101850000F5F093031F71F5F612F80E00E94A20700
:1018600068E474E089E098E00E945E09612F87E0F7
:101870000E94A2076EE275E089E098E00E945E098E
:10188000612F87E00E94A2070E94F104082F64E6FE
:1018900070E080E090E00E94E702003239F30A3203
:1018A00029F3033219F3802F0E94BA0780EDF82E36
:1018B000F00E68EC70E080E090E00E94E702CF2C30
:1018C000D12CE1E0F0E0EC0FFD1FEC0DFD1D80815F
:1018D0008F3F61F2BFEFFB1649F20E94A40A8823F2
:1018E000B1F187E18C9DF0018D9DF00D1124E05C3C
:1018F000FD4FDF011D928A95E9F781E0808370E05A
:1019000060E08F2D0E94FE050E94F90660E080E0F5
:101910000E94A20761E574E089E098E00E945E09F8
:10192000802F0E94BA076AEF70E080E090E029966D
:101930000FB6F894DEBF0FBECDBFDF91CF911F91E0
:101940000F91FF90EF90DF90CF900C94E7022996D3
:101950000FB6F894DEBF0FBECDBFDF91CF911F91C0
:101960000F91FF90EF90DF90CF900895EF92FF924C
:101970000F931F93CF93DF93CDB7DEB7A3970FB627
:10198000F894DEBF0FBECDBF0E94150A7C010FEC9C
:1019900010E0BE016F5F7F4FC8010E94DA07B701F8
:1019A000CE0101960E945F19892B89F4C7010E941C
:1019B000D61881E0A3960FB6F894DEBF0FBECDBF58
:1019C000DF91CF911F910F91FF90EF9008950D5DE2
:1019D0001F4F053D89E01807E1F6C7010E94D618A0
:1019E00080E0E8CF3F924F925F926F927F928F920A
:1019F0009F92AF92BF92CF92DF92EF92FF920F939E
:101A00001F93CF93DF93CDB7DEB7CA56D1090FB678
:101A1000F894DEBF0FBECDBF8C017B012A010E946E
:101A2000B60C882301F16AE574E084E197E00E9436
:101A30000F0880E0C659DF4F0FB6F894DEBF0FBE27
:101A4000CDBFDF91CF911F910F91FF90EF90DF906D
:101A5000CF90BF90AF909F908F907F906F905F904E
:101A60004F903F900895C8010E94150A5C01C7017C
:101A70000E94150A6C010FEC10E0BE016C5D7F4FF7
:101A8000C8010E94DA07C8010E94FA17380193E2E0
:101A9000690E711C882309F470C08301E5ED6E1690
:101AA000E9E07E0651F74DE050E0B501CE01895BDB
:101AB0009F4F0E9476194DE050E0B60187E490E018
:101AC0008C0F9D1F0D960E94761949E050E0B201DF
:101AD00087E490E08C0F9D1F4A960E9476198E0134
:101AE000095B1F4FF12CE12CF80131908F0143016C
:101AF0008E0C9F1CC4010E94FA17381621F0632D2A
:101B0000C4010E940218FFEFEF1AFF0A83E2E816F1
:101B1000F10451F793E2690E711C8E010F5F1F4FA4
:101B2000B801C3010E94DA07F80101900020E9F72B
:101B30003197EE2EE01A8DE090E00E943A18F82ED0
:101B4000992E4CE050E0B8010E9476196F2D792D46
:101B5000AF2DB92D4F2D99E78A2F8F198E1578F05B
:101B600098E7862F841B8E1590F4FB018191BF01AD
:101B7000DF01119789278C93F4CF380194CF8D9191
:101B80009D01215031098927F9018083E5CF8F2DEF
:101B9000992D0E94B60C882329F0F0EC6F16F9E01D
:101BA0007F0648F4AB961FAEAB97BE0166597F4FD8
:101BB000C3010E94C3076FE674E084E197E00E94CE
:101BC0000F08B50184E197E00E945E096EE275E0BE
:101BD00084E197E00E945E09B60184E197E00E94EB
:101BE0005E096EE275E084E197E00E945E09B20151
:101BF00084E197E00E945E0967E773E084E197E083
:101C00000E940F0863E874E084E197E00E940F08E7
:101C1000C5010E94D618C6010E94D61881E00ACFDD
:101C20001F920F920FB60F9211242F933F938F9311
:101C30009F93AF93BF938091620690916306A091AA
:101C40006406B09165063091610623E0230F2D37BD
:101C500058F50196A11DB11D20936106809362067F
:101C600090936306A0936406B09365068091660620
:101C700090916706A0916806B09169060196A11D32
:101C8000B11D8093660690936706A0936806B09393
:101C90006906BF91AF919F918F913F912F910F90C6
:101CA0000FBE0F901F90189526E8230F0296A11DD6
:101CB000B11DD2CF1F920F920FB60F9211240BB607
:101CC0000F922F933F934F935F936F937F938F93D5
:101CD0009F93AF93BF93EF93FF9387E796E00E94A4
:101CE000EA03FF91EF91BF91AF919F918F917F9107
:101CF0006F915F914F913F912F910F900BBE0F907D
:101D00000FBE0F901F9018951F920F920FB60F9253
:101D100011240BB60F922F938F939F93EF93FF9302
:101D2000E0918706F09188068081E0918D06F09120
:101D30008E0682FD1DC09081809190068F5F8F730B
:101D400020919106821741F0E0919006F0E0E95869
:101D5000F94F958F80939006FF91EF919F918F910E
:101D60002F910F900BBE0F900FBE0F901F901895E4
:101D70008081F2CF1F920F920FB60F9211240BB6F3
:101D80000F922F933F934F935F936F937F938F9314
:101D90009F93AF93BF93EF93FF9384E197E00E94EB
:101DA000EA03FF91EF91BF91AF919F918F917F9146
:101DB0006F915F914F913F912F910F900BBE0F90BC
:101DC0000FBE0F901F9018951F920F920FB60F9293
:101DD00011240BB60F922F938F939F93EF93FF9342
:101DE000E0912407F09125078081E0912A07F09186
:101DF0002B0782FD1DC0908180912D078F5F8F730F
:101E000020912E07821741F0E0912D07F0E0EC5E63
:101E1000F84F958F80932D07FF91EF919F918F91B0
:101E20002F910F900BBE0F900FBE0F901F90189523
:101E30008081F2CFCF93DF9310927A0610927906C9
:101E400048EE53E060E070E040937B0650937C06E0
:101E500060937D0670937E068BE593E09093780601
:101E60008093770625E331E0309384062093830640
:101E700024E331E0309386062093850620E331E0A9
:101E8000309388062093870621E331E030938A0659
:101E90002093890622E331E030938C0620938B0651
:101EA00026E331E030938E0620938D061092900643
:101EB00010929106109292061092930610921707B4
:101EC00010921607409318075093190760931A074A
:101ED00070931B07909315078093140785EC90E08F
:101EE000909321078093200784EC90E09093230740
:101EF0008093220780EC90E090932507809324073D
:101F000081EC90E0909327078093260782EC90E085
:101F1000909329078093280786EC90E090932B07F5
:101F200080932A0710922D0710922E0710922F07E8
:101F30001092300710920C0810920B088DE693E077
:101F400090930A088093090886E180930D088FEF2B
:101F500080930E0887E180930F0888E18093100832
:101F600089E1809311088AE1809312088BE18093C4
:101F70001308109214081092150810921608109267
:101F800017081092180881E00E940107CCE1D0E008
:101F9000D0930208C09301088EE190E0909304086A
:101FA000809303088DE190E09093060880930508E4
:101FB00081E090E0909308088093070861E08CE14D
:101FC0000E94910261E0809103080E94910261E009
:101FD000809105080E94910261E0809105080E94AD
:101FE0006302D0930208C0930108E1ECF7E011927C
:101FF00088E0E130F807D9F7D0E0C0E08091070829
:1020000090910808C817D90774F540E06FE0CE0139
:102010000E9429058091070890910808C817D907E0
:102020002CF447E06BE0CE010E94290540E069E016
:10203000CE010E9429058091070890910808C817D1
:10204000D9071CF4CE010E94870580910708909162
:102050000808C817D9072CF440E06CE0CE010E94B4
:1020600029052196CBCFDF91CF910895CF93DF93B0
:10207000CDB7DEB7E5970FB6F894DEBF0FBECDBF84
:10208000789484B5826084BD84B5816084BD85B553
:10209000826085BD85B5816085BD80916E0081605F
:1020A00080936E0010928100809181008260809305
:1020B0008100809181008160809381008091800007
:1020C0008160809380008091B10084608093B10032
:1020D0008091B00081608093B00080919100826017
:1020E0008093910080919100816080939100809114
:1020F00090008160809390008091A1008260809325
:10210000A1008091A10081608093A1008091A00036
:1021100081608093A00080912101826080932101E1
:102120008091210181608093210180912001816053
:102130008093200180917A00846080937A0080915E
:102140007A00826080937A0080917A008160809327
:102150007A0080917A00806880937A001092C100A2
:1021600084E197E00E94AC0187E796E00E94AC0111
:1021700080910708909108081816190634F441E078
:102180006CE090E080E00E94290580910708909122
:1021900008081816190634F448E06AE090E080E078
:1021A0000E942905809107089091080818161906C1
:1021B00024F490E080E00E94870584E00E940107FB
:1021C00012E060E0812F0E9491021F5F1830C9F772
:1021D00061E088E00E94910261E089E00E94910242
:1021E00061E08AE00E9491020E944F080E94A705C8
:1021F00087E994E00E94B60C81113FC06EE974E05B
:1022000084E197E00E940F081982BE016F5F7F4F43
:102210008FEC90E00E94C3074CEA54E0BA0187E9D2
:1022200094E00E94F20C7AE6272E76E0372EEFE457
:102230004E2EE6E05E2EF3E06F2E712C7E0124E23E
:10224000E20EF11C8E010F5F1F4FE0915F06F091CF
:102250006006EA30F10508F070C08827ED5CFE4E9C
:102260008F4F0C9432184411E7158A15C211F811DA
:102270009D114216C7136913141561EB74E084E1D4
:1022800097E00E940F08CFCF0E94F90660E080E03F
:102290000E94A2076BEB74E089E098E00E945E095F
:1022A00061E080E00E94A2076AEC74E089E098E0B7
:1022B0000E945E0962E080E00E94A2076BED74E07C
:1022C00089E098E00E945E0963E080E00E94A20736
:1022D00063EE74E089E098E00E945E0960915E061A
:1022E0006E5F80E00E94A2076FEE74E089E098E0E4
:1022F0000E945E090E94F104823381F462ED70E075
:1023000080E090E00E94E70280915E068150809319
:102310005E068F3F91F410925E060FC0883391F4F1
:1023200062ED70E080E090E00E94E70280915E063E
:102330008F5F823028F480935E060E94790485CFF7
:1023400081E0F9CF82E00E943A026C0191E0C91667
:10235000D10481F662ED70E080E090E00E94E70237
:1023600080915E06882339F08130A9F6D09260060C
:10237000C0925F06D0CF82E090E090936006809399
:102380005F06C9CF0E94AA040E94F90661ED73E0BE
:1023900089E098E00E945E0961E080E00E94A20767
:1023A00062EE73E089E098E00E945E09D12C84E13E
:1023B00097E00E94CA03892B51F042E050E0B80137
:1023C00084E197E00E947503DD24D394F0CFDD20F3
:1023D00071F384E197E00E94CA03892B41F7809151
:1023E0005C0690915D069093600680935F06A5CF92
:1023F0008BE0F101282F11922A95E9F7F201119251
:102400008A95E9F789E0E6E4F6E011928A95E9F722
:102410000E94AA0481EF94E00E942308F1012BE0BE
:1024200011922A95E9F70E94F90669EF74E089E0B4
:1024300098E00E945E0961E080E00E94A20763E0EC
:1024400075E089E098E00E945E0962E080E00E9409
:10245000A2070E9419034B015C010E9419030E940C
:10246000AA04D12CC12C1CAA84E197E00E94CA03C3
:10247000892B71F084E197E00E946103F601E6592F
:10248000F94F8083C60101966C0191E09CABECCFC3
:10249000ECA9EE23D1F10E941903681979098A0980
:1024A0009B09643F714081059105F4F26AE676E08C
:1024B00089E098E00E945E0963E080E00E94A20744
:1024C0006EE075E089E098E00E945E0964EF71E0DB
:1024D00080E090E00E94E7020E94D7048DAB81115A
:1024E00067C062E00E94A2076FE175E089E098E0B2
:1024F0000E945E0963E080E00E94A2076FE175E040
:1025000089E098E00E945E0983CF0E9419034B0185
:102510005C010E941903A8CFECA9EE23D9F00E9418
:102520001903681979098A099B09643F714081057B
:1025300091050CF469C06FE4C62E66E0D62EF60154
:1025400081916F01882369F06AE289E098E00E9436
:10255000B407F5CF0E9419034B015C010E941903D7
:1025600053C063E080E00E94A2076EE075E089E05E
:1025700098E00E945E0964EF71E080E090E00E94C4
:10258000E7020E94D704811154C062E00E94A207B2
:102590006FE175E089E098E00E945E0963E080E009
:1025A0000E94A2076FE175E089E098E00E945E0951
:1025B0000E94AA0483E395E00E942308F2012BE025
:1025C00011922A95E9F70E94F90669EF74E089E013
:1025D00098E00E945E0961E080E00E94A20760E34B
:1025E00075E089E098E00E945E0962E080E00E9468
:1025F000A2070E9419034B015C010E9419030E946B
:10260000AA04D12CC12C1CAA84E197E00E94CA0321
:10261000892B09F481CF84E197E00E946103F601E0
:10262000E15BF94F8083C60101966C019DA99CABCB
:10263000EBCF8CE395E00E9423088FE496E00E94A4
:10264000500AD82E0E94F90667E974E08AE696E0FF
:102650000E945F19892B09F56CEA74E08FE496E01B
:102660000E945F19892BC9F46AE475E089E098E05B
:102670000E945E0962E370E080E090E00E94E70261
:1026800088E090E09093600680935F0660ED77E0CD
:1026900080E090E00E94E70250CEDD2019F087E054
:1026A00090E0F0CF6AE676E089E098E00E945E096B
:1026B0006FE476E089E098E00E945E0962E370E0F2
:1026C00080E090E00E94E7021092600610925F06A0
:1026D000DDCF0E94F90660E080E00E94A2076AEC6C
:1026E00074E089E098E00E945E0961E080E00E9469
:1026F000A20761E475E089E098E00E945E0962E06B
:1027000080E00E94A20760E575E089E098E00E9401
:102710005E0963E080E00E94A20760E675E089E060
:1027200098E00E945E0960915E066F5F80E00E9403
:10273000A2076FEE74E089E098E00E945E090E94B3
:10274000F104823309F4DACD883381F462ED70E06C
:1027500080E090E00E94E70280915E068F5F8093A8
:102760005E06833008F4E9CD82E0E5CD82E00E9488
:102770003A02019721F762ED70E080E090E00E945C
:10278000E70280915E06823009F43DC1C4CD0E940B
:10279000F90660E080E00E94A20760E775E089E04A
:1027A00098E00E945E0961E080E00E94A2076DE768
:1027B00075E089E098E00E945E0962E080E00E9496
:1027C000A20761E675E089E098E00E945E0963E097
:1027D00080E00E94A20769E875E089E098E00E9425
:1027E0005E0960915E0680E00E94A2076FEE74E0D1
:1027F00089E098E00E945E090E94F104823309F4A6
:102800007DCD883371F462ED70E080E090E00E944D
:10281000E70280915E068F5F843008F48CCD83E000
:102820008ACD82E00E943A02019731F762ED70E0B2
:1028300080E090E00E94E70280915E06813009F41A
:10284000ACC0B8F0823009F4DEC0833009F063CD4B
:102850008AE696E00E94B60C20E4C22E22E0D22E38
:10286000811174C062EB75E084E197E00E940F086B
:1028700052CD50E4A52E52E0B52ED12CC12C0E9491
:10288000F90660E080E00E94A2076AE975E089E04D
:1028900098E00E940F0861E080E00E94A2076BEAC6
:1028A00075E089E098E00E945E099C2C40E3842E4C
:1028B0008C0C882D0E94BA07F50180818823D1F104
:1028C00032E4B32EBCA28DA2B70187E796E00E9446
:1028D0005E0941E050E0B80187E796E00E94750389
:1028E0008981813379F30E94A40A882309F413CDE6
:1028F00087E18C9D50018D9DB00C1124F501E05CA9
:10290000FD4F10824CE050E06AE676E0C5018F5B37
:102910009D4F0E94761948E050E067E773E0C501DB
:10292000825B9D4F0E94761961E070E0892D0E94C4
:10293000FE05F1CCFFEFCF1ADF0A27E1A20EB11C92
:1029400089E0C816D10409F09ACFE5CCF601808160
:10295000811126C04CE050E0B6016F5F7F4F8AE6E0
:1029600096E00E946819892BD9F40E94F90660E06C
:1029700080E00E94A20767EC75E089E098E00E9481
:102980000F0866ED75E089E098E00E940F0860E9A5
:1029900071E080E090E00E94E7020E94CB0BBBCC8C
:1029A000F7E1CF0ED11C2FE0C21623E0D20671F65C
:1029B0008AE696E00E94150A4C019FECC92ED12CA4
:1029C000B801C6010E94DA07B401C8010E945F196C
:1029D000892BF1F4B12CA12C1CA2B701C5018C0DDF
:1029E0009D1D0E94C3078FEFA81AB80A92E2A9168C
:1029F000B10491F768EE75E084E197E00E940F085A
:102A0000C4010E94D6181092600610925F0683CC13
:102A1000E3E2CE0ED11CF5EDCF16F9E0DF0681F62C
:102A2000C4010E94D61877CC0E94F90660E080E0CD
:102A30000E94A2076DED74E089E098E00E945E09B3
:102A400061E080E00E94A20763E075E089E098E021
:102A50000E945E0980E1F70111928A95E9F762E030
:102A6000C7010E9491088823B1F068EE73E080E00E
:102A700090E00E94E7020E94F90668EF75E089E0A5
:102A800098E00E945E0968EE73E080E090E00E94AA
:102A9000E7020E94F9060E94F90660E080E00E94C9
:102AA000A2076DED74E089E098E00E945E0961E0A4
:102AB00080E00E94A2076FEF75E089E098E00E9435
:102AC0005E0980E1F80111928A95E9F762E0C80198
:102AD0000E949108882309F430CC68EE73E080E00E
:102AE00090E00E94E7020E94F906B70189E098E0B1
:102AF0000E945E09B80189E098E00E945E0968EED4
:102B000073E080E090E00E94E7020E94F90687E00F
:102B100090E069CC0E94F90660E080E00E94A20784
:102B20006AEC74E089E098E00E945E0961E080E070
:102B30000E94A2076AE076E089E098E00E945E09C0
:102B400062E080E00E94A20767E176E089E098E019
:102B50000E945E0963E080E00E94A2076FE176E0D8
:102B600089E098E00E945E0960915E066F5F80E0F8
:102B70000E94A2076FEE74E089E098E00E945E096F
:102B80000E94F104823309F4B9CB883309F4DECD15
:102B900082E00E943A02019799F762ED70E080E0CE
:102BA00090E00E94E70280915E06813069F008F0B3
:102BB000EACD7092600660925F0684E090E09093A8
:102BC0005D0680935C06A7CB89E090E0D6CB0E949F
:102BD000F90660E080E00E94A2076AEC74E089E0F8
:102BE00098E00E945E0961E080E00E94A2076AE02E
:102BF00076E089E098E00E945E0962E080E00E9451
:102C0000A20767E176E089E098E00E945E0963E050
:102C100080E00E94A2076FE176E089E098E00E94E0
:102C20005E0960915E066F5F80E00E94A2076FEE12
:102C300074E089E098E00E945E090E94F10482330A
:102C400009F45CCB883309F481CD82E00E943A021A
:102C5000019799F762ED70E080E090E00E94E70252
:102C600080915E06813009F4AFCF08F08CCD709270
:102C7000600660925F06E6E0F0E0F0935D06E093A8
:102C80005C0649CB8DE0F101282F11922A95E9F7D6
:102C9000F20111928A95E9F789E0E6E4F6E01192F3
:102CA0008A95E9F70E94AA0481EF94E00E94230824
:102CB000F1012DE011922A95E9F70E94F90667E2E9
:102CC00076E089E098E00E945E0961E080E00E9481
:102CD000A20763E075E089E098E00E945E0962E087
:102CE00080E00E94A2070E9419034B015C010E9430
:102CF00019030E94AA04D12CC12C1CAA84E197E0DC
:102D00000E94CA03892B71F084E197E00E9461035D
:102D1000F601E659F94F8083C60101966C0191E0F6
:102D20009CABECCFECA9EE23D1F10E9419036819FA
:102D300079098A099B09643F714081059105F4F284
:102D40006AE676E089E098E00E945E0963E080E050
:102D50000E94A2076EE075E089E098E00E945E099B
:102D600064EF71E080E090E00E94E7020E94D704E7
:102D70008CAB811159C062E00E94A2076FE175E03F
:102D800089E098E00E945E0963E080E00E94A2076B
:102D90006FE175E089E098E00E945E0983CF0E94B0
:102DA00019034B015C010E941903A8CFEDA9EE2382
:102DB00009F47CC00E941903681979098A099B09E2
:102DC000643F7140810591050CF45BC066E476E0D8
:102DD00089E098E00E945E0963E080E00E94A2071B
:102DE0006EE075E089E098E00E945E0964EF71E0B2
:102DF00080E090E00E94E7020E94D7048DAB811131
:102E0000A8C062E00E94A2076FE175E089E098E047
:102E10000E945E0963E080E00E94A2076FE175E016
:102E200089E098E00E945E090E94AA048AE396E085
:102E30000E942308E6E4F6E029E011922A95E9F7DA
:102E40000E94F90667E276E089E098E00E945E0958
:102E500061E080E00E94A20767E376E089E098E005
:102E60000E945E0962E080E00E94A2070E941903AE
:102E70004B015C010E9419030E94AA04D12CC12CB1
:102E80001DAA84E197E00E94CA03892B09F48ECF22
:102E900084E197E00E946103F601EA5BF94F8083C9
:102EA000C60101966C019CA99DABEBCF0E94190352
:102EB0004B015C010E941903E4CFECA9EE23D9F089
:102EC0000E941903681979098A099B09643F7140B6
:102ED000810591050CF469C08FE4C82E86E0D82ED8
:102EE000F60181916F01882369F06AE289E098E038
:102EF0000E94B407F5CF0E9419034B015C010E94A8
:102F0000190353C063E080E00E94A2076EE075E001
:102F100089E098E00E945E0964EF71E080E090E053
:102F20000E94E7020E94D704811154C062E00E940F
:102F3000A2076FE175E089E098E00E945E0963E016
:102F400080E00E94A2076FE175E089E098E00E94AE
:102F50005E090E94AA0483E395E00E942308F2011F
:102F60002DE011922A95E9F70E94F90667E276E0D2
:102F700089E098E00E945E0961E080E00E94A2077B
:102F800060E375E089E098E00E945E0962E080E01D
:102F90000E94A2070E9419034B015C010E941903C1
:102FA0000E94AA04D12CC12C1CAA84E197E00E94A3
:102FB000CA03892B09F481CF84E197E00E94610361
:102FC000F601E15BF94F8083C60101966C019DA972
:102FD0009CABEBCF46E456E06FE476E08AE696E001
:102FE0000E94F20C882309F4A8C91092600610927E
:102FF0005F06A3C9F999FECF92BD81BDF89A9927C2
:1030000080B50895262FF999FECF1FBA92BD81BDD4
:1030100020BD0FB6F894FA9AF99A0FBE019608955A
:10302000A1E21A2EAA1BBB1BFD010DC0AA1FBB1FCC
:10303000EE1FFF1FA217B307E407F50720F0A21B3E
:10304000B30BE40BF50B661F771F881F991F1A94AB
:1030500069F760957095809590959B01AC01BD01D5
:10306000CF010895EE0FFF1F881F8BBF0790F691C9
:10307000E02D19940F931F93CF93DF938230910526
:1030800010F482E090E0E0912308F091240830E011
:1030900020E0B0E0A0E0309799F42115310509F463
:1030A0004AC0281B390B24303105D8F58A819B8111
:1030B0006115710589F1FB0193838283FE0111C0C3
:1030C000408151810281138148175907E0F0481768
:1030D000590799F4109761F012960C931297139672
:1030E0001C933296CF01DF91CF911F910F910895DC
:1030F0000093230810932408F4CF2115310551F0D3
:103100004217530738F0A901DB019A01BD01DF0125
:10311000F801C1CFEF01F9CF9093240880932308E1
:10312000CDCFFE01E20FF31F81939193225031091D
:1031300039832883D7CF2091210830912208232B6F
:1031400041F420911103309112033093220820930F
:10315000210820910F03309110032115310541F40E
:103160002DB73EB74091130350911403241B350B28
:10317000E0912108F0912208E217F307A0F42E1B3A
:103180003F0B2817390778F0AC014E5F5F4F2417CB
:10319000350748F04E0F5F1F5093220840932108D7
:1031A000819391939FCFF0E0E0E09CCFCF93DF93AA
:1031B0000097E9F0FC01329713821282A091230854
:1031C000B0912408ED0130E020E01097A1F42081B7
:1031D0003181820F931F20912108309122082817F6
:1031E000390709F061C0F0932208E0932108DF91CC
:1031F000CF910895EA01CE17DF07E8F54A815B8198
:103200009E0141155105B1F7E901FB83EA8349911C
:103210005991C40FD51FEC17FD0761F4808191818E
:103220000296840F951FE901998388838281938197
:103230009B838A83F0E0E0E012968D919C91139736
:103240000097B9F52D913C911197CD010296820F0F
:10325000931F20912108309122082817390739F649
:10326000309751F51092240810922308B093220849
:10327000A0932108BCCFD383C28340815181840FA6
:10328000951FC817D90761F44E5F5F4F88819981F8
:10329000480F591F518340838A819B819383828386
:1032A0002115310509F0B0CFF0932408E0932308ED
:1032B0009ECFFD01DC01C0CF13821282D7CFFB016C
:1032C000DC018D91019080190110D9F3990B0895BB
:1032D000FB01DC014150504030F08D91019080198C
:1032E00019F40020B9F7881B990B0895FB01DC0144
:1032F0004150504048F001900D920020C9F701C0A4
:0E3300001D9241505040E0F70895F894FFCF21
:10330E0000000100000100000000010000010000AB
:10331E000101010101010101000001000001000095
:10332E000000010000010000010101010101010185
:10333E00000001000001000000000100000100007B
:10334E00010000000000000000000000000000006E
:10335E00000000000000000100000000000000005E
:10336E00000000000000000000000000000001004E
:10337E00000000000000000000000000000000003F
:10338E00000000000001000000000000000000002E
:10339E00000000000000000000000000010000001E
:1033AE00000000000000000000000000000000000F
:1033BE0000000001000000000000000000000000FE
:1033CE0000000000000000000000010000000000EE
:1033DE0000000000000000000000000000000000DF
:1033EE0000010000000000000000000000000000CE
:1033FE0000000000000000000100000000000000BE
:10340E0000000000000000000000000000000000AE
:10341E000025088000FFFFFFFFFFFFFFFFFF312A9F
:10342E002423213241424330334445460034474839
:10343E004900354A4B4C00364D4E4F0037505152D5
:10344E00533854555600395758595A31323334354A
:10345E00363738392A3023000000000C0425035279
:10346E00035904CA036103BC0300000000B407251E
:10347E0003A704A6040D0A00527562656E20323051
:10348E00323131313833350053657267696F20320E
:10349E00303231313138333500506564726F20323D
:1034AE003032313131383335004A6F736520323066
:1034BE003139303137353600536562617320323021
:1034CE00323131313833350063616E63656C617250
:1034DE0000204573706572616E646F2020756E6199
:1034EE002000202020636F6E6578696F6E2E2E2E61
:1034FE00202000416365707461723F2020202020DF
:10350E002020005449504F20444520494E505554D8
:10351E003A00232041504C49434143494F4E002A23
:10352E00205445434C41444F006572726F722070B7
:10353E00617373776F72643A006572726F72207086
:10354E00617373776F7264004F7063696F6E3A20A8
:10355E000053616361646F202300456C20757375A1
:10356E006172696F20796120657869737465002DC9
:10357E002D2D4E7565766F207573756172696F2D81
:10358E002D2D002D2D2D2D2D2D2D2D2D2D2D2D2D8A
:10359E002D2D2D2D2D2D0061646D696E310041672D
:1035AE0072656761722041646D696E003132333429
:1035BE00004861792061646D696E004D656E7520FD
:1035CE007072696E636970616C0050726573696FB9
:1035DE006E6120616365707461720020204C6F67AC
:1035EE00696E002020526567697374726172003EC5
:1035FE00004E6F6D6272653A004C204F2047204995
:10360E00204E00202D204E4F4D4252453A00436F22
:10361E0072726563746F3F202020202020200020CE
:10362E0020202020202020202020202020202000AC
:10363E00202D20436F6E747261733A004E414441E7
:10364E00002020416363696F6E2041444D494E0056
:10365E002020416363696F6E2041444D494E320014
:10366E00202043657272617220736573696F6E00FC
:10367E0020496E677265736F2043656C002052653A
:10368E007469726F2043656C0020456C696D696EBC
:10369E006172204375656E746100496E746F647556
:1036AE007A63612043454C20656E0020504F5320B5
:1036BE002300456C207573756172696F206E6F20E3
:1036CE006578697374650043454C20656E205369B7
:1036DE007374656D61004D656E752064652072654D
:1036EE007469726F2E2E2E005573756172696F207C
:1036FE00426F727261646F005349555555550020E3
:10370E002D20434F4E5452413A00202041706C6997
:10371E00636163696F6E00202050616E656C0020DE
:10372E002053616C69720052204520472049205376
:10373E0020542052204F00202D2043656C756C6163
:04374E00723A0000CB
:00000001FF
