:100000000C947D010C94AE010C94AE010C94AE01E5
:100010000C94AE010C94AE010C94AE010C94AE01A4
:100020000C94AE010C94AE010C94AE010C94AE0194
:100030000C94AE010C94AE010C94AE010C94AE0184
:100040000C94AE010C94AE010C94AE010C94AE0174
:100050000C94AE010C94AE010C94AE010C941D1ADC
:100060000C94AE010C94391B0C940F1B0C94AE0134
:100070000C94AE010C94AE010C94AE010C94AE0144
:100080000C94AE010C94AE010C94AE010C94AE0134
:100090000C94AE010C94AE010C94AE010C94AE0124
:1000A0000C94AE010C94AE010C94AE010C94AE0114
:1000B0000C94AE010C94AE010C94AE010C94AE0104
:1000C0000C94AE010C94AE010C94AE010C94E51AA4
:1000D0000C94BB1A0C94AE010C94911A0C94671AF0
:1000E0000C94AE010C947C050C943A020C943411DF
:1000F0000C94631B0C9480040C9476050C94D61716
:100100000C94D2170C946E050C94B6070C945D17E2
:100110000C94FB010C9435020C944D170C941A02AC
:100120000C9482050C947B170C9428020C941402F6
:100130000C94C9040C947E170C94430D0C94551721
:100140000C9436020C942C020C94CA040C948A0E63
:100150000C9459170C9407020C947E030C943002F3
:100160000C94E7030C9421140C9437130C94FF01A6
:100170000C94D40D0C9410020C9411100C9449178B
:100180000C941E020C947F050C9433040C94D90338
:100190000C9473050C9429030C9422020C94871779
:1001A0000C94F5010C9403020C949E120C945117BC
:1001B0000C946F030C9478050C94BF130C940A02F2
:1001C0000C947C140C9461170C9485050C94880590
:1001D0000C94530E0C9444170000210024002700B7
:1001E0002A002D0030003300010100000401070146
:1001F0000A0100002200250028002B002E003100FB
:10020000340002010000050108010B01000020007C
:100210002300260029002C002F00320000010000DE
:100220000301060109010505050507050808080879
:10023000020202020A0A080804040404010101017E
:100240000101010103030303030303030407070779
:100250000C0C0C0C0C0C0C0C02020202060606061E
:10026000060606060B0B0B0B0B0B0B0B01021020EB
:1002700020080810204010204080020102010804DC
:100280000201010204081020408080402010080470
:1002900002018004020180402010080402010804C9
:1002A000020101020408102040800102040810200D
:1002B000408000000A0B02090C0D0E080703040120
:1002C000000000000000000000000000000000002E
:1002D00000000000000000000000000000001211FB
:1002E00010000000000000000000000000000000FE
:1002F0000000000000000000631B11241FBECFEFB0
:10030000D1E2DEBFCDBF00E00CBF29E0A4EDB6E036
:1003100001C01D92AA35B207E1F716E0A0E0B2E0F5
:10032000E0E2FFE300E00BBF02C007900D92A43DA6
:10033000B107D9F711E0CDE7D1E000E006C0219781
:100340000109802FFE010E94341ECC37D10780E0C6
:100350000807A9F70E94BB1C0C948E1F0C94000088
:10036000FC01A089B18982E08C93A485B5851C929B
:10037000A685B7858FEC8C93108EA489B58986E00D
:100380008C93A289B3898C9180618C93A289B38963
:100390008C9188608C93A289B3898C9180688C93AE
:1003A0000288F389E02D80818F7D808308958150BC
:1003B000823108F05AC0E82FF0E08827ED51FE4F57
:1003C0008F4F0C94341E03020702F501FB01FF015D
:1003D00035020A02100214021A021E022202280228
:1003E0002C023502300236023A02809180008F776B
:1003F000809380000895809180008F7DF9CF809157
:100400008000877FF5CF84B58F7784BD089584B54C
:100410008F7DFBCF8091B0008F778093B0000895DF
:100420008091B0008F7DF9CF809190008F7780937D
:1004300090000895809190008F7DF9CF8091900079
:10044000877FF5CF8091A0008F778093A0000895DB
:100450008091A0008F7DF9CF8091A000877FF5CF9C
:10046000809120018F778093200108958091200151
:100470008F7DF9CF80912001877FF5CFCF93DF93D8
:10048000282F30E0F901EE54FD4F8491F901E45931
:10049000FD4FD491F901EA5DFD4FC491CC23A1F049
:1004A00081110E94D701EC2FF0E0EE0FFF1FE45FF7
:1004B000FD4FA591B491EC91ED2381E090E009F41A
:1004C00080E0DF91CF91089580E090E0FACF1F9314
:1004D000CF93DF93282F30E0F901EE54FD4F849144
:1004E000F901E459FD4FD491F901EA5DFD4FC49142
:1004F000CC23A9F0162F81110E94D701EC2FF0E038
:10050000EE0FFF1FEE50FE4FA591B4918FB7F894F8
:10051000EC91111108C0D095DE23DC938FBFDF91E1
:10052000CF911F910895DE2BF8CFCF93DF9390E00A
:10053000FC01E459FD4F24918A5D9D4FFC0184919B
:100540008823D1F090E0880F991FFC01E852FE4FFC
:10055000A591B491FC01EE50FE4FC591D49161116B
:100560000EC09FB7F8948C91E22FE0958E238C9368
:100570002881E223E8839FBFDF91CF9108958FB751
:10058000F894EC91E22BEC938FBFF6CF3FB7F89441
:100590008091FE069091FF06A0910007B09101079F
:1005A00026B5A89B05C02F3F19F00196A11DB11DCE
:1005B0003FBFBA2FA92F982F8827BC01CD01620F0A
:1005C000711D811D911D42E0660F771F881F991FC5
:1005D0004A95D1F708958F929F92AF92BF92CF9292
:1005E000DF92EF92FF924B015C010E94C6026B0109
:1005F0007C010E94C6026C197D098E099F09683E24
:10060000734081059105A8F321E0821A9108A108A1
:10061000B10888EEC80E83E0D81EE11CF11C8114DD
:100620009104A104B10429F7FF90EF90DF90CF90DF
:10063000BF90AF909F908F9008952FB7F8946091DE
:10064000FA067091FB068091FC069091FD062FBF83
:100650000895AF92BF92CF92DF92EF92FF920F93E5
:100660001F93CF93DF936C017B018B01040F151F48
:10067000EB015E01AE18BF08C017D10759F06991B0
:10068000D601ED91FC910190F081E02DC601199504
:10069000892B79F7C501DF91CF911F910F91FF90C1
:1006A000EF90DF90CF90BF90AF900895FC01A089AC
:1006B000B1898C91A689B78982FD0FC09C91818DEB
:1006C0008F5F8F73228D821749F0A18DAE0FBF2FE0
:1006D000B11D5D969C93818F08958C910895FC01C6
:1006E000538D448D252F30E0842F90E0821B930B97
:1006F000541710F0CF96089501970895FC01918D3D
:10070000828D981761F0A28DAE0FBF2FB11D5D963F
:100710008C91928D9F5F9F73928F90E008958FEFE1
:100720009FEF08958F929F92AF92BF92CF92DF92E8
:10073000EF92FF920F931F93CF93DF937C016A0197
:100740008B01D0E0C0E00E941D03F7016087718734
:1007500082879387C7010E947E0397FF22C00E9471
:100760001D03F70180849184A284B38468197909F8
:100770008A099B0984809580A680B78068157905D1
:100780008A059B0538F3CE01DF91CF911F910F9120
:10079000FF90EF90DF90CF90BF90AF909F908F90A1
:1007A0000895F80181938F012196CC16DD0659F644
:1007B000EACFFC01918D828D981731F0828DE80F80
:1007C000F11D858D90E008958FEF9FEF0895FC0156
:1007D000918D228D892F90E0805C9F4F821B910923
:1007E0008F73992708958FE097E00E94E70321E037
:1007F000892B09F420E0822F08958CEA97E00E946B
:10080000E70321E0892B09F420E0822F089589E491
:1008100098E00E94E70321E0892B09F420E0822F71
:100820000895FC01A48DA80FB92FB11DA35ABF4F85
:100830002C91848D90E001968F739927848FA689DF
:10084000B7892C93A089B1898C91837080648C9333
:10085000938D848D981306C00288F389E02D8081E2
:100860008F7D80830895EF92FF920F931F93CF9314
:10087000DF93EC0181E0888F9B8D8C8D98131AC0DB
:10088000E889F989808185FF15C09FB7F894EE89C2
:10089000FF896083E889F98980818370806480831F
:1008A0009FBF81E090E0DF91CF911F910F91FF906A
:1008B000EF900895F62E0B8D10E00F5F1F4F0F7312
:1008C0001127E02E8C8D8E110CC00FB607FCFACFCD
:1008D000E889F989808185FFF5CFCE010E94110456
:1008E000F1CFEB8DEC0FFD2FF11DE35AFF4FF0829E
:1008F0009FB7F8940B8FEA89FB8980818062CFCF04
:10090000CF93DF93EC01888D8823B9F0AA89BB8946
:10091000E889F9898C9185FD03C0808186FD0DC031
:100920000FB607FCF7CF8C9185FFF2CF808185FF52
:10093000EDCFCE010E941104E9CFDF91CF91089550
:1009400080E090E0892B29F00E94070481110E9429
:10095000000080E090E0892B49F080E090E0892B56
:1009600029F00E94000081110E94000080E090E0C8
:10097000892B29F00E94FD0381110E94000080E074
:1009800090E0892B29F00E94F30381110C94000060
:100990000895089590E080E00895CF92DF92EF925D
:1009A000FF92CF93DF930E941D03EB010E941D0372
:1009B0000E941D036B0189E498E00E94E703892BE4
:1009C00029F089E498E00E947E03F5CFCC1ADD0A75
:1009D00088EEC81683E0D8065CF389E498E00E94AC
:1009E000E703892B29F7DF91CF91FF90EF90DF90FC
:1009F000CF90089582E00E943E02892B41F062ED83
:100A000070E080E090E00E94EB0281E0089583E0D6
:100A10000E943E02892B71F362ED70E080E090E06D
:100A20000E94EB0280E00895FF920F931F93CF93F3
:100A3000DF93C8E0D0E0FC2E61E08C2F0E946702BB
:100A400004E010E0802F0E943E020197B1F460E0C4
:100A50008F2D0E94670204501109C801880F991F49
:100A6000080F191FC00FD11FCF5FDC4F8881DF91A6
:100A7000CF911F910F91FF9008950F5F1F4F083086
:100A8000110501F760E08F2D0E9467022196CB309F
:100A9000D10589F680E2EBCF0E941D036093D60654
:100AA0007093D7068093D8069093D9060895CF9374
:100AB000DF93EB01DA01893098F4E82FF0E0882722
:100AC000EB59FA4F8F4F0C94341E6E057305760563
:100AD00078057C057F0582058505880518821C92AE
:100AE000DF91CF91089583E08883F9CF86E0FCCF32
:100AF000188283E08C93F4CF83E08883FBCF86E079
:100B00008883F7CF188286E0F5CF83E08883FBCF18
:100B100086E0F3CFCF92DF92EF92FF920F931F9375
:100B2000CF93DF931F921F92CDB7DEB769834A83BD
:100B3000880F991F00913C0910913D09000F111F6A
:100B4000E6EEF8E09F01265E38402017310714F4E6
:100B50001192F8CF2981FC01EA51F74F21838A8154
:100B6000808360E080913A090E94670210161106A6
:100B700004F501501109F801EA51F74FE080D090D7
:100B80003809C090360988E0F82E6E2D661F66275A
:100B9000661F8C2D0E946702EE0C61E08D2D0E9475
:100BA000670260E08D2D0E946702FA94F110EDCF8C
:100BB000DDCF61E080913A090F900F90DF91CF91E6
:100BC0001F910F91FF90EF90DF90CF900C946702F0
:100BD000EF92FF920F931F93CF937C018C0183E0E0
:100BE000000F111F8A95E1F70A50174FC1E0F80175
:100BF00011928F0140E06C2FC7010E948A05CF5FE0
:100C0000C930A9F7CF911F910F91FF90EF900895F0
:100C1000AF92BF92CF92DF92EF92FF920F931F930A
:100C2000CF93DF93C6EED8E080E0C82E82E0D82EC6
:100C3000B12C90E8E92EF12C10E000E0AA24A39456
:100C4000AB0C80913C0990913D0918161906E4F40B
:100C500088E0B816C9F008301105B1F0C701002EC0
:100C600002C0959587950A94E2F72889F601E00F6E
:100C7000F11F3081332301F1822B888B48896A2D43
:100C800090E080E00E948A050F5F1F4F0930110538
:100C9000C1F6B394219688E0C80ED11C89E0B81241
:100CA000CBCFDF91CF911F910F91FF90EF90DF900D
:100CB000CF90BF90AF90089580958223DECFCF93E1
:100CC000DF93EC0160E08E810E94670261E08E811B
:100CD0000E94670260E08E810E9467028BE891E0CB
:100CE0000197F1F7DF91CF910895CF92DF92EF92C4
:100CF000FF920F931F93CF93DF936C017C0187E0EA
:100D0000E80EF11CD0E0C0E0062F10E0B8010C2E78
:100D100002C0759567950A94E2F76170F7018191B9
:100D20007F010E9467022196C430D10579F7C60180
:100D3000DF91CF911F910F91FF90EF90DF90CF90B7
:100D40000C945F06CF92DF92EF92FF920F931F9366
:100D5000CF93DF93EC01F62E642F8C810E94670203
:100D60008D818F3F19F060E00E9467020F2D10E027
:100D70008F8584FF25C06E0187E0C80ED11CF12C41
:100D8000E12CB8010E2C02C0759567950A94E2F724
:100D90006170F60181916F010E946702FFEFEF1A07
:100DA000FF0A88E0E816F10461F7CE01DF91CF91E8
:100DB0001F910F91FF90EF90DF90CF900C945F0602
:100DC000B80184E0759567958A95E1F7CE010E9498
:100DD00075066F2DCE01DF91CF911F910F91FF907E
:100DE000EF90DF90CF900C94750640E0682F8EE373
:100DF00099E00C94A20681E00E94F5068BE39FE146
:100E00000197F1F70895CF93DF93813029F0909106
:100E10004D09986090934D098093510910925209A1
:100E200080E48093530980E18093540980E58093A6
:100E3000550961E0809142090E9495028091430921
:100E40008F3F19F061E00E94950261E080914409B2
:100E50000E949502CEE3D9E09E012E533940809145
:100E60004D0984FD0BC084E090E0219628173907D6
:100E700044F461E08E810E949502EECF88E090E01C
:100E8000F4CF8BE39DE00197F1F760E08091420998
:100E90000E94670260E0809144090E94670280918D
:100EA00043098F3F19F060E00E94670280914D096D
:100EB00084FD34C063E08EE399E00E947506CBE4C4
:100EC000D6E4CE010197F1F763E08EE399E00E944A
:100ED00075062197F1F763E08EE399E00E947506AD
:100EE00083E592E00197F1F762E08EE399E00E94DA
:100EF000750680914D0980620E94F50684E080931A
:100F00004E098CE00E94F5060E94FB0682E0809369
:100F10004F0986E0DF91CF910C94F50680620E9424
:100F2000F5068BE496E40197F1F780914D09806214
:100F30000E94F50683E592E00197F1F780914D0953
:100F400080620E94F506D5CF643008F063E090918E
:100F50005109691710F06FEF690FE62FF0E0E25CBE
:100F6000F64F9489890F80680C94F50641E00E9441
:100F7000A20681E090E0089541E0682F8EE399E0B9
:100F80000E94A20681E090E00895CF92DF92EF9256
:100F9000FF920F931F93CF93DF93EB017B0120E12F
:100FA000E20EF11C8B016C01C61AD70AC601800F34
:100FB000911F0E94FC1DF80181938F01EE15FF0522
:100FC000A9F7CE01DF91CF911F910F91FF90EF9084
:100FD000DF90CF900895CF92DF92EF92FF920F9320
:100FE0001F93CF93DF93EB017B0123E2E20EF11C11
:100FF0008B016C01C61AD70AC601800F911F0E948F
:10100000FC1DF80181938F01EE15FF05A9F7CE01B4
:10101000DF91CF911F910F91FF90EF90DF90CF90D4
:101020000895FB0101900020E9F73197AF01461BBD
:10103000570BDC01ED91FC910280F381E02D1994B6
:101040008F929F92AF92BF92EF92FF920F931F9356
:10105000CF93DF93CDB7DEB7A1970FB6F894DEBF7D
:101060000FBECDBF7C01262F30E050E040E019A23A
:101070008E010F5D1F4F8AE0882E912CA12CB12C80
:10108000CA01B901A50194010E94121E605DF80118
:1010900062938F01211531054105510589F790E0D3
:1010A00080E0309721F0C701BF010E941108A1968E
:1010B0000FB6F894DEBF0FBECDBFDF91CF911F9169
:1010C0000F91FF90EF90BF90AF909F908F900895F9
:1010D0000F931F93CF93DF93EC010E9420088C01A4
:1010E00063E373E0CE010E941108800F911FDF912E
:1010F000CF911F910F9108950F931F93CF93DF937B
:10110000EC010E9411088C0163E373E0CE010E94A0
:101110001108800F911FDF91CF911F910F910895BA
:101120001F93CF93DF9300D0CDB7DEB7BC0189E426
:1011300098E00E947C0810E089E498E00E94E703B0
:10114000892B59F042E050E0BE016F5F7F4F89E488
:1011500098E00E94920311E0EFCF112369F389E434
:1011600098E00E94E703892B39F70F900F900F90BA
:10117000DF91CF911F9108950E94FB0660E080E00F
:101180000E94A40766E373E08EE399E00E947C0866
:1011900061E080E00E94A40766E473E08EE399E0DA
:1011A0000E947C0862E080E00E94A40767E573E08B
:1011B0008EE399E00E947C0863E080E00E94A4072F
:1011C00067E673E08EE399E00E947C0864EF71E0CB
:1011D00080E090E00E94EB020E94FB0660E080E06D
:1011E0000E94A40766E773E08EE399E00E947C0802
:1011F00064EF71E080E090E00C94EB020F931F939A
:101200000E941D030091D6061091D7062091D806A2
:101210003091D906601B710B820B930B613E7349B1
:101220008F4F9F4F70F066E873E089E498E00E946A
:101230007C081092F8061092F70680E01F910F913B
:10124000089581E0FBCF6115710511F00C94110830
:1012500090E080E00895CF93DF9300D01F92CDB748
:10126000DEB78983605D6A83BE016F5F7F4F8FE069
:1012700097E00E94230941E050E0BE016D5F7F4F7F
:101280008FE097E00E94920381E09B81913309F007
:1012900080E00F900F900F900F90DF91CF91089505
:1012A000FF920F931F93CF93DF938C01FC0101906A
:1012B0000020E9F73197FE2EF81A8DE090E00E94A9
:1012C0003C1EEC014CE050E0B8010E947F1FBE01C3
:1012D000DE012C2F98E78A2F8C1B8F1568F099E779
:1012E000862F821B8F1580F4FB018191BF01DF01E6
:1012F000119789278C93F4CF8D91AD0141505109FD
:101300008927FA018083E7CFCE01DF91CF911F912A
:101310000F91FF900895EF92FF920F931F93CF9339
:10132000DF93CDB7DEB7A3970FB6F894DEBF0FBE3D
:10133000CDBF0E9450097C0104E810E0BE016F5F40
:101340007F4FC8010E94EB07B701CE0101960E94B2
:10135000611F892B89F4C7010E94D81E81E0A396E2
:101360000FB6F894DEBF0FBECDBFDF91CF911F91B6
:101370000F91FF90EF9008950D5D1F4F003D89E0A4
:101380001807E1F6C7010E94D81E80E0E8CFCF928F
:10139000DF92EF92FF920F931F93CF93DF93CDB71E
:1013A000DEB7A3970FB6F894DEBF0FBECDBF8B019B
:1013B0000E9450096C01C8010E9450097C0104E898
:1013C00010E0BE016F5F7F4FC8010E94EB07B601BE
:1013D000CE0101960E94611F892BE9F4B701CE016D
:1013E0000E960E94611F892BB1F4C6010E94D81E7F
:1013F000C7010E94D81E81E0A3960FB6F894DEBF05
:101400000FBECDBFDF91CF911F910F91FF90EF9055
:10141000DF90CF9008950D5D1F4F003D89E01807C4
:1014200081F6C6010E94D81EC7010E94D81E80E026
:10143000E3CFFF920F931F93CF93DF93EC01F62E30
:1014400008811981C8010E94FC1DF81621F06F2D3A
:10145000C8010E94041ECE01DF91CF911F910F9110
:10146000FF9008950F931F93CF93DF931F921F92C6
:10147000CDB7DEB78B019A838983FB016081CE01F2
:1014800001960E94190AC8010F900F90DF91CF9129
:101490001F910F910895EF92FF920F931F93CF9397
:1014A000DF931F921F92CDB7DEB78230910569F1AD
:1014B0008330910581F1019711F18091DA06680F6F
:1014C0006093DA068AEDE82E86E0F82E00E810E058
:1014D0001A830983F70161917F01CE0101960E9471
:1014E000190A0F5F1F4F0438110591F70F900F90E5
:1014F000DF91CF911F910F91FF90EF900895809110
:10150000DB06680F6093DB06DDCF8091DC06680F99
:101510006093DC06D7CF8091DD06680F6093DD060F
:10152000D1CFAF92BF92CF92DF92EF92FF920F9303
:101530001F93CF93DF93CDB7DEB762970FB6F894C2
:10154000DEBF0FBECDBF5C0180ECE82E89E0F82E37
:10155000D12CC7010E94FC1D8D1118C0D39480E1CD
:10156000E80EF11CE4E6DE12F4CF62960FB6F894B2
:10157000DEBF0FBECDBFDF91CF911F910F91FF90C6
:10158000EF90DF90CF90BF90AF9008958E010F5FE6
:101590001F4F80E1F80111928A95E9F7D9824FE057
:1015A00050E0B501CE0102960E947F1F6E01F1E16D
:1015B000CF0ED11CE01AF10AC701800F911F9A8B40
:1015C000898BF80161918F01C6010E94190AC0162A
:1015D000D10691F7CACFBF92CF92DF92EF92FF92DE
:1015E0000F931F93CF93DF93CDB7DEB72F970FB62F
:1015F000F894DEBF0FBECDBF20E4E22E22E0F22E33
:10160000D12C8E010F5F1F4F6D2D84E50E942B0999
:10161000B82E6D2D82E40E942B09F7019081911163
:1016200048C090E3C92ECD0C882309F18EE0E4EC8C
:10163000F2E0D80101900D928A95E1F71F86F8013A
:1016400001900020E9F73197E01BF10BEC0FFD1F33
:10165000C082B80189E498E00E947C0861E070E0F3
:1016600082E090E00E944B0AC8010E94910ABB20D0
:1016700001F18FE0E9E9F3E0D80101900D928A953C
:10168000E1F7F80101900020E9F73197E01BF10B39
:10169000EC0FFD1FC08261E070E082E090E00E94EC
:1016A0004B0AB80189E498E00E947C08C8010E94B6
:1016B000910AD394FEE0EF0EF11C89E0D812A4CF7A
:1016C0002F960FB6F894DEBF0FBECDBFDF91CF913E
:1016D0001F910F91FF90EF90DF90CF90BF900895F2
:1016E0002F923F924F925F926F927F928F929F9232
:1016F000AF92BF92CF92DF92EF92FF920F931F9320
:10170000CF93DF93CDB7DEB7CA56D1090FB6F894A1
:10171000DEBF0FBECDBF8C017B013A010E948B0959
:10172000882309F168EA73E089E498E00E947C0864
:1017300080E0C659DF4F0FB6F894DEBF0FBECDBFB5
:10174000DF91CF911F910F91FF90EF90DF90CF909D
:10175000BF90AF909F908F907F906F905F904F90D1
:101760003F902F900895C8010E9450094C01C70175
:101770000E9450095C0104E810E0BE016C5D7F4FDF
:10178000C8010E94EB07C8010E94FC1D780193E28A
:10179000E90EF11C882309F471C08701E0EDEE1613
:1017A000E9E0FE0651F74DE050E0B401CE01895B5F
:1017B0009F4F0E947F1F4DE050E0B50187E490E00D
:1017C0008C0F9D1F0D960E947F1F49E050E0B301D2
:1017D00087E490E08C0F9D1F4A960E947F1F87E44C
:1017E000282E312C2C0E3D1EF3E22F0E311C8E01C3
:1017F000095B1F4F2701401A510ACE0101966C0167
:10180000C201800F911F9A838983F80161918F0132
:10181000C6010E94190A0215130591F7F3E2EF0EB3
:10182000F11CB601C7010E94EB07F60101900020F0
:10183000E9F731970E2F0C198DE090E00E943C1EC5
:10184000182F592E4CE050E0B6010E947F1F612FE7
:10185000752DA12FB52D412F99E78A2F811B801758
:1018600078F098E7862F841B801790F4FB01819114
:10187000BF01DF01119789278C93F4CF780193CFB3
:101880008D919D01215031098927F9018083E5CF90
:10189000812F952D0E948B09882329F0F0ECEF16FB
:1018A000F9E0FF0648F4AB961FAEAB97BE01665950
:1018B0007F4FC7010E94320A6DEB73E089E498E024
:1018C0000E947C08B40189E498E00E9423096AE739
:1018D00074E089E498E00E942309B50189E498E066
:1018E0000E9423096AE774E089E498E00E942309D2
:1018F000B30189E498E00E94230965E373E089E479
:1019000098E00E947C0861ED73E089E498E00E9411
:101910007C08C4010E94D81EC5010E94D81E61E047
:1019200070E083E090E00E944B0A81E002CFEF92EA
:10193000FF920F931F93CF93DF9300D01F92CDB7E9
:10194000DEB78B01AE014C5F5F4FBE016D5F7F4F15
:101950000E9457058C812B8190E030E0AC01E3E0E0
:10196000440F551FEA95E1F740505E4FFA01E20F30
:10197000F31F0130110509F040C061E0608373E09E
:10198000880F991F7A95E1F7885F9D4FFC01E20F60
:10199000F31F60832F5F3F4F420F531FFA01608395
:1019A000820F931FFC0160830E9408061982BE010A
:1019B0006F5F7F4F90E080E00E94320A80E4E82E63
:1019C00082E0F82E01E010E01A830983F7016191AB
:1019D0007F01CE0101960E94190A0F5F1F4F0F373A
:1019E000110591F70F900F900F900F90DF91CF910D
:1019F0001F910F91FF90EF900895108263E0880F80
:101A0000991F6A95E1F7885F9D4FFC01E20FF31F74
:101A100010822F5F3F4F420F531FFA011082820F37
:101A2000931FFC011082C0CF7F928F929F92AF9242
:101A3000BF92CF92DF92EF92FF920F931F93CF93BB
:101A4000DF93CDB7DEB7C354D1090FB6F894DEBF2C
:101A50000FBECDBFE091F706F091F806EB30F1052F
:101A600008F05CC08827E85CF24F8F4F0C94341E5E
:101A7000430D2114BF13530E8A0ED40D7C14341160
:101A8000111037139E120E94EB0A0E94FB0660E0C1
:101A900080E00E94A40765EE73E08EE399E00E9467
:101AA000230961E080E00E94A40764EF73E08EE305
:101AB00099E00E94230962E080E00E94A40765E0AB
:101AC00074E08EE399E00E94230963E080E00E94C5
:101AD000A4076DE074E08EE399E00E942309609111
:101AE000F6066E5F80E00E94A40769E174E08EE371
:101AF00099E00E9423090E941405823321F562EDCA
:101B000070E080E090E00E94EB028091F606815048
:101B10008093F6068F3F11F41092F606CD5BDF4FEF
:101B20000FB6F894DEBF0FBECDBFDF91CF911F91EE
:101B30000F91FF90EF90DF90CF90BF90AF909F906C
:101B40008F907F900895883381F462ED70E080E09B
:101B500090E00E94EB028091F6068F5F823018F4CD
:101B60008093F606DBCF81E0FBCF82E00E943E024D
:101B70008C01019709F0BFCF62ED70E080E090E04A
:101B80000E94EB028091F606882339F0813021F61D
:101B90001093F8060093F706BFCF82E090E0909391
:101BA000F8068093F706B8CF80EC99E00E94FC1D00
:101BB000E82E0E94FB066E2D8CEA97E00E946808D2
:101BC000D12C10E000E081EC882E89E0982EB12C19
:101BD000A12CF12CAE14BF040CF04DC0D1104BC0A1
:101BE000BE016F5F7F4FC4010E94C507602F82E076
:101BF0000E94A40769818CEA97E00E946808BE01F0
:101C00006E5F7F4F8EE399E00E942309602F80E092
:101C10000E94A40769818EE399E00E94200820E1D8
:101C2000820E911C0F5F1F4F3FEFA31AB30A0430BF
:101C3000110581F682E00E943E02019751F466EEA2
:101C400070E080E090E00E94EB020E94FB0610E052
:101C500000E083E00E943E02019749F766EE70E0E3
:101C600080E090E00E94EB020E94FB06DD24D3940A
:101C700010E000E0AFCF0115110591F0D11010C0B8
:101C800082E00E943E02019729F083E00E943E021A
:101C9000019789F766EE70E080E090E00E94EB0229
:101CA00088E090E032C00E94CD040E94FB066BE108
:101CB00074E08EE399E00E94230961E080E00E94D5
:101CC000A4076CE274E08EE399E00E94230910E01F
:101CD00089E498E00E94E703892B59F042E050E044
:101CE000BE016F5F7F4F89E498E00E94920311E08C
:101CF000EFCF112369F389E498E00E94E703892B71
:101D000039F78091F4069091F5069093F806809348
:101D1000F70604CF8BE0E2E0F7E0DF01282F1D9209
:101D20002A95E9F7E7EEF6E0DF011D928A95E9F7DB
:101D3000EEEDF6E089E0DF011D928A95E9F7A2E079
:101D4000CA2EA7E0DA2EBBE0EB2E0E94CD048DE375
:101D500094E00E949008F6012E2D11922A95E9F741
:101D60000E94FB0665E474E08EE399E00E9423097B
:101D700061E080E00E94A4076FE474E08EE399E0E4
:101D80000E94230962E080E00E94A4070E941D03D4
:101D90004B015C010E941D030E94CD0410E000E095
:101DA000F12C89E498E00E94E703892B69F089E42B
:101DB00098E00E947E03F801EE5FF84F80830F5F8A
:101DC0001F4FFF24F394EDCFFF2009F46BC00E9456
:101DD0001D03681979098A099B09643F71408105CF
:101DE0009105FCF262E077E08EE399E00E9423091E
:101DF00063E080E00E94A4076AE574E08EE399E066
:101E00000E94230964EF71E080E090E00E94EB0201
:101E10000E94FA04F82E882309F44BC0E7EECE2E78
:101E2000E6E0DE2EFBE07F2E0E94CD048FE794E0FB
:101E30000E949008D601E72D1D92EA95E9F70E94CD
:101E4000FB0665E474E08EE399E00E94230961E0FB
:101E500080E00E94A4076CE774E08EE399E00E94A2
:101E6000230962E080E00E94A4070E941D034B0149
:101E70005C010E941D030E94CD0410E000E0E12CF3
:101E800089E498E00E94E703892B41F189E498E016
:101E90000E947E03F801E951F94F80830F5F1F4FC5
:101EA000EF2CEECF0E941D034B015C010E941D032D
:101EB00078CF62E080E00E94A4076BE674E08EE3D6
:101EC00099E00E94230963E080E00E94A4076BE68A
:101ED00074E08EE399E00E94230937CFEE20C1F031
:101EE0000E941D03681979098A099B09643F7140A2
:101EF000810591052CF207EE16E0D8018D918D0138
:101F0000882369F06AE28EE399E00E94B607F5CF74
:101F10000E941D034B015C010E941D03B1CF63E0D1
:101F200080E00E94A4076AE574E08EE399E00E94D5
:101F3000230964EF71E080E090E00E94EB020E94D0
:101F4000FA04811114C062E00E94A4076BE674E0F9
:101F50008EE399E00E94230963E080E00E94A407D9
:101F60006BE674E08EE399E00E9423095DCF88E878
:101F700094E00E94900867EE76E082E097E00E948D
:101F8000C709182F0E94FB066DE874E082E097E015
:101F90000E94611F892B29F562E974E087EE96E0C3
:101FA0000E94611F892BE9F467E974E08EE399E0F0
:101FB0000E94230962E370E080E090E00E94EB025F
:101FC00088E090E09093F8068093F7068DE994E01E
:101FD0000E94910A60ED77E080E090E00E94EB02C1
:101FE0009DCD112349F087E090E09093F80680930F
:101FF000F70685EA94E0ECCF62E370E080E090E0E1
:102000000E94EB021092F8061092F7068DEA94E017
:102010000E94910A61E070E081E090E00E944B0A2A
:10202000D9CF0E94EB0A0E94FB0660E080E00E948C
:10203000A40764EF73E08EE399E00E94230961E056
:1020400080E00E94A40765EB74E08EE399E00E94B3
:10205000230962E080E00E94A4076CEB74E08EE349
:1020600099E00E94230963E080E00E94A40769ECE4
:1020700074E08EE399E00E9423096091F6066F5F99
:1020800080E00E94A40769E174E08EE399E00E9479
:1020900023090E941405823309F431CD883381F479
:1020A00062ED70E080E090E00E94EB028091F60625
:1020B0008F5F8093F606833008F430CD82E050CDF8
:1020C00082E00E943E02019721F762ED70E080E01D
:1020D00090E00E94EB028091F606813009F47CC00A
:1020E00060F0823009F018CD1092F8061092F706D1
:1020F0008DE095E00E94910A0FCD69ED74E089E4CE
:1021000098E00E947C080E94FB066E01B4E2CB0EB0
:10211000D11C80E1F60111928A95E9F770ECE72E67
:1021200079E0F72E10E0612F89E498E00E946808BA
:10213000043070F082E00E943E02019729F564E6C7
:1021400070E080E090E00E94EB020E94FB0600E05D
:10215000C7010E94FC1D81130EC0BE016F5F7F4F3F
:10216000C7010E94C5074FE050E0BE016E5F7F4F80
:10217000C6010E947F1F8CA1811112C083E00E94C2
:102180003E020197D9F705C083E00E943E02019705
:1021900089F664E670E080E090E00E94EB02BCCC3F
:1021A000602F80E00E94A407B6018EE399E00E94B0
:1021B0007C0880E0F601E80FF11D9081992319F069
:1021C00010828F5FF7CF0F5F1F5FF0E1EF0EF11C02
:1021D000143609F0A8CFA0CC0E94FB0660E080E096
:1021E0000E94A4076DED74E08EE399E00E9423093C
:1021F0006091DA068EE399E00E94200861E080E0B9
:102200000E94A40769EE74E08EE399E00E9423091E
:102210006091DB068EE399E00E94200862E080E096
:102220000E94A40765EF74E08EE399E00E94230901
:102230006091DC068EE399E00E94200863E080E074
:102240000E94A40761E075E08EE399E00E942309F3
:102250006091DD068EE399E00E94200883E00E94F1
:102260003E020197D9F795CF0E94EB0A0E94FB0628
:1022700060E080E00E94A40766E175E08EE399E0EB
:102280000E94230961E080E00E94A40763E275E0F8
:102290008EE399E00E94230962E080E00E94A40797
:1022A0006AEC74E08EE399E00E94230963E080E029
:1022B0000E94A4076FE275E08EE399E00E94230973
:1022C0006091F60680E00E94A40769E174E08EE365
:1022D00099E00E9423090E941405823309F40FCC6F
:1022E000883371F462ED70E080E090E00E94EB02D0
:1022F0008091F6068F5F843008F432CC83E030CCD6
:1023000082E00E943E02019731F762ED70E080E0CA
:1023100090E00E94EB028091F606813009F4BDC086
:10232000A8F0823009F48BC0833009F0F5CB82E04D
:1023300097E00E948B0900E412E0811187C06BE8EE
:1023400075E089E498E00E947C08E6CBE0E4F2E0E6
:1023500010E000E08081882309F469C0F02E60E37A
:10236000E62EE00E0E94FB0660E080E00E94A407DB
:1023700060E475E08EE399E00E947C0861E080E013
:102380000E94A40761E575E08EE399E00E942309AD
:102390008E2D0E94BC076F2D82E40E942B098111B3
:1023A000FACF0E94FB0660E080E00E94A40768E587
:1023B00075E08EE399E00E947C0861E080E00E9475
:1023C000A40761E575E08EE399E00E9423098E2D54
:1023D0000E94BC076F2D84E50E942B098111FACF62
:1023E0000E940518811103C087E695E083CE2EE098
:1023F000209FC001219F900D1124FC01E05CFD4F46
:1024000010824CE050E062E077E08F5B9D4F0E94CD
:102410007F1F61E070E08F2D0E94970C61E070E0FB
:1024200090E080E00E944B0A85E795E063CE0F5F65
:102430001F4F3E960930110509F08CCF6DCB1092DD
:10244000F8061092F70681E895E054CED8018C91F9
:10245000811126C04CE050E0B8016F5F7F4F82E0F1
:1024600097E00E94711F892BD9F40E94FB0660E05F
:1024700080E00E94A40760EA75E08EE399E00E9484
:102480007C086FEA75E08EE399E00E947C0860E9C1
:1024900071E080E090E00E94EB020E94FB183CCBD0
:1024A000025F1F4FB2E00E3B1B0781F682E097E010
:1024B0000E9450096C0104E810E0BE016F5F7F4F7D
:1024C000C8010E94EB07B601CE0101960E94611F70
:1024D000892B51F5F12CE12C1CA2BE016C5D7F4FC4
:1024E000C701800F911F0E94320AEFEFEE1AFE0A19
:1024F000F2E2EF16F10481F761EC75E089E498E00F
:102500000E947C08C6010E94D81E81ED95E00E94C1
:10251000910A6FEF7FEF83E090E00E944B0A1092E8
:10252000F8061092F706F8CA0D5D1F4F003D29E02E
:10253000120719F6C6010E94D81EEECA0E94FB06B9
:1025400060E080E00E94A40769ED75E08EE399E009
:102550000E94230961E080E00E94A4076FE474E018
:102560008EE399E00E94230980E1DE0111967D014E
:10257000FD01282F11922A95E9F78E010C5D1F4F5E
:10258000D801E82F1D92EA95E9F76E01F4E3CF0E2A
:10259000D11CD6011D928A95E9F762E0C7010E941D
:1025A0000017882309F164E670E080E090E00E9463
:1025B000EB02B70182E097E00E946A1F0E94FB06CF
:1025C00060E080E00E94A40769ED75E08EE399E089
:1025D0000E94230961E080E00E94A40762EE75E09A
:1025E0008EE399E00E94230962E0C8010E9400176F
:1025F000882309F164E670E080E090E00E94EB023D
:10260000B80187EE96E00E946A1F0E94FB0660E018
:1026100080E00E94A40769ED75E08EE399E00E94D6
:10262000230961E080E00E94A4076DEE75E08EE36F
:1026300099E00E94230962E0C6010E9400178823E6
:1026400059F064E670E080E090E00E94EB02B8018F
:102650008EED96E00E946A1F4EED56E067EE76E042
:1026600082E097E00E94700B811184C057CA0E94DB
:10267000FB0660E080E00E94A40769ED75E08EE350
:1026800099E00E94230961E080E00E94A4076FE4C2
:1026900074E08EE399E00E94230980E18E010F5FD0
:1026A0001F4FF801282F11922A95E9F77E0134E295
:1026B000E30EF11CD7011D928A95E9F762E0C8018B
:1026C0000E940017882309F164E670E080E090E042
:1026D0000E94EB02B80182E097E00E946A1F0E940C
:1026E000FB0660E080E00E94A40767E074E08EE3F0
:1026F00099E00E94230961E080E00E94A40762EE55
:1027000075E08EE399E00E94230962E0C7010E9410
:102710000017882359F064E670E080E090E00E94A2
:10272000EB02B70187EE96E00E946A1FB701C8016D
:102730000E94C7098823E1F00E94FB0664EF71E064
:1027400080E090E00E94EB026DE874E082E097E0A8
:102750000E94611F892B49F462E974E087EE96E0DC
:102760000E94611F892B09F49BCA87E090E0CDCAC3
:102770000E94FB061092F8061092F706CFC90E943D
:10278000FB0660E080E00E94A40764EF73E08EE344
:1027900099E00E94230961E080E00E94A40768EFAD
:1027A00075E08EE399E00E94230962E080E00E94D8
:1027B000A40765E076E08EE399E00E94230963E0D8
:1027C00080E00E94A4076DE076E08EE399E00E942D
:1027D00023096091F6066F5F80E00E94A40769E11B
:1027E00074E08EE399E00E9423090E94140582336D
:1027F00009F485C9883309F453CC82E00E943E0273
:10280000019799F762ED70E080E090E00E94EB02A2
:102810008091F606813091F020F0823009F47FCE6D
:102820007BC983E090E09093F8068093F70684E0FC
:1028300090E09093F5068093F4066EC989E090E0ED
:10284000AEC90E94FB0660E080E00E94A40764EF2E
:1028500073E08EE399E00E94230961E080E00E942A
:10286000A40768EF75E08EE399E00E94230962E017
:1028700080E00E94A40765E076E08EE399E00E9484
:10288000230963E080E00E94A4076DE076E08EE318
:1028900099E00E9423096091F6066F5F80E00E9434
:1028A000A40769E174E08EE399E00E9423090E9485
:1028B0001405823309F423C9883309F4F1CB82E08B
:1028C0000E943E02019799F762ED70E080E090E08F
:1028D0000E94EB028091F606813059F008F09DCFFE
:1028E00083E090E09093F8068093F70686E090E00E
:1028F000A0CF8AE090E053C98DE0E2E0F7E0DF018D
:10290000282F1D922A95E9F7E7EEF6E0DF011D92E8
:102910008A95E9F7EEEDF6E089E0DF011D928A95F0
:10292000E9F742E0C42E47E0D42E5DE0752E0E9408
:10293000CD048DE394E00E949008F601272D1192BA
:102940002A95E9F70E94FB0665E176E08EE399E0BF
:102950000E94230961E080E00E94A4076FE474E014
:102960008EE399E00E94230962E080E00E94A407C0
:102970000E941D034B015C010E941D030E94CD04B7
:1029800010E000E0F12C89E498E00E94E703892B35
:1029900069F089E498E00E947E03F801EE5FF84F49
:1029A00080830F5F1F4FFF24F394EDCFFF2009F4C6
:1029B0006BC00E941D03681979098A099B09643F4D
:1029C000714081059105FCF262E077E08EE399E0C9
:1029D0000E94230963E080E00E94A4076AE574E096
:1029E0008EE399E00E94230964EF71E080E090E0BB
:1029F0000E94EB020E94FA04E82E882309F44BC0DF
:102A00002EEDC22E26E0D22E39E0732E0E94CD0488
:102A100088E296E00E949008D601E72D1D92EA9583
:102A2000E9F70E94FB0665E176E08EE399E00E94FB
:102A3000230961E080E00E94A40765E276E08EE36E
:102A400099E00E94230962E080E00E94A4070E94AE
:102A50001D034B015C010E941D030E94CD0410E088
:102A600000E0F12C89E498E00E94E703892B41F112
:102A700089E498E00E947E03F801E252F94F8083D6
:102A80000F5F1F4FFE2CEECF0E941D034B015C0118
:102A90000E941D0378CF62E080E00E94A4076BE6ED
:102AA00074E08EE399E00E94230963E080E00E94D5
:102AB000A4076BE674E08EE399E00E94230937CF08
:102AC000FF2009F46BC00E941D03681979098A0967
:102AD0009B09643F71408105910524F26EED76E01B
:102AE0008EE399E00E94230963E080E00E94A4073E
:102AF0006AE574E08EE399E00E94230964EF71E0D7
:102B000080E090E00E94EB020E94FA04F82E8823F5
:102B100009F44BC087EEC82E86E0D82E9DE0792EB2
:102B20000E94CD048FE794E00E949008D601E72D23
:102B30001D92EA95E9F70E94FB0665E176E08EE3D7
:102B400099E00E94230961E080E00E94A4076CE7FD
:102B500074E08EE399E00E94230962E080E00E9425
:102B6000A4070E941D034B015C010E941D030E94EB
:102B7000CD0410E000E0E12C89E498E00E94E70336
:102B8000892B41F189E498E00E947E03F801E95124
:102B9000F94F80830F5F1F4FEF2CEECF0E941D0374
:102BA0004B015C010E941D035DCF62E080E00E944A
:102BB000A4076BE674E08EE399E00E94230963E0CA
:102BC00080E00E94A4076BE674E08EE399E00E9427
:102BD00023091CCFEE20C1F00E941D03681979095A
:102BE0008A099B09643F7140810591052CF207EE2B
:102BF00016E0D8018D918D01882369F06AE28EE399
:102C000099E00E94B607F5CF0E941D034B015C01BD
:102C10000E941D03B1CF63E080E00E94A4076AE533
:102C200074E08EE399E00E94230964EF71E080E094
:102C300090E00E94EB020E94FA0481110DCD62E047
:102C40000E94A4076BE674E08EE399E00E942309DA
:102C500063E080E00E94A4076BE674E08EE399E0F5
:102C60000E9423095DCF7F928F929F92AF92BF9275
:102C7000CF92DF92EF92FF920F931F93CF93DF9348
:102C800000D0CDB7DEB78C016B010E94CD040E944D
:102C9000FB066BE174E08EE399E00E94230961E09A
:102CA00080E00E94A4076CE274E08EE399E00E9449
:102CB000230989E498E00E94E703892BD1F38091EE
:102CC000F7069091F806079731F40E94FE088111EB
:102CD00002C00E94140D42E050E0BE016F5F7F4FC2
:102CE00089E498E00E9492030E944C058091F706C7
:102CF0009091F806079731F40E94FE08811102C0F6
:102D00000E94140D0E941D034B015C010E941D03D3
:102D10000E94CD04C6010E9490080E94FB0660E05C
:102D200080E00E94A407B6018EE399E00E947C082F
:102D3000F12CE12C712C89E498E00E94E703892BA7
:102D400071F089E498E00E947E03F801EE0DFF1D0A
:102D50008083C70101967C0177247394ECCF7720A0
:102D6000A1F10E941D03681979098A099B09643F32
:102D7000714081059105FCF20E944C0561E080E004
:102D80000E94A407B8018EE399E00E947C0862E0EB
:102D900080E00E94A40761E376E08EE399E00E9460
:102DA000230964EF71E080E090E00E94EB020E9452
:102DB000FA04811111C0F801E80FF11D90819923E7
:102DC00009F494CF10828F5FF6CF0E941D034B0150
:102DD0005C010E941D03AFCF0E944C0581E00F9063
:102DE0000F900F90DF91CF911F910F91FF90EF9077
:102DF000DF90CF90BF90AF909F908F907F9008957D
:102E0000BF92CF92DF92EF92FF920F931F93CF93D7
:102E1000DF937C01B62E80E00E94A407D12CC0E095
:102E200085E0C82E6B2D80E00E94A4070E94140547
:102E3000D82F64E670E080E090E00E94EB02EDEDB8
:102E4000ED0FE73108F063C00E2E000CFF0B882752
:102E5000E35DF84E8F4F0C94341E7B17871787174E
:102E60008717871787178717611787178717871798
:102E7000871787177E17D217D617441749174D178C
:102E80005117551759175D17D0E010E002E0C0E068
:102E90001AC0D0E010E003E0FACFD0E010E004E088
:102EA000F6CFD0E010E005E0F2CFD0E010E006E091
:102EB000EECFD0E010E007E0EACFD0E010E008E08D
:102EC000E6CFD1E010E00E944C05802F90E0112366
:102ED00009F470C0C43069F0C89EF001C99EF00DBD
:102EE0001124E452FD4FEC0FF11D2181CF5F211120
:102EF00066C0C0E064C0D0E011E0E5CFF701ED0DA1
:102F0000F11D8081882309F48DCFD3948BCF82E08B
:102F10000E943E020197C9F46DEF73E089E498E0E6
:102F20000E947C0864E670E080E090E00E94EB0282
:102F30000E944C0581E0DF91CF911F910F91FF908E
:102F4000EF90DF90CF90BF90089583E00E943E0203
:102F50000197D1F461E476E089E498E00E947C086E
:102F600080E0F701E80FF11D9081992319F010829C
:102F70008F5FF7CF64E670E080E090E00E94EB02A4
:102F80000E944C0580E0D7CF8091F7069091F8061B
:102F9000079709F047CF0E94FE08811143CF0E9496
:102FA000140D40CFD0E010E000E071CFD0E010E091
:102FB00001E06DCFDD2319F0CC23D1F0C150C89EC4
:102FC000F001C99EF00D1124E452FD4FEC0FF11DEC
:102FD0008081F701ED0DF11D8083B7018EE399E04B
:102FE0000E947C08B70189E498E00E947C081ACF0F
:102FF000C89EF001C99EF00D1124E452FD4F2481BA
:10300000C4E02111DCCFC3E0DACF0F931F93CF933D
:10301000DF93CDB7DEB760970FB6F894DEBF0FBE73
:10302000CDBF0E944C050E94FB0660E080E00E943C
:10303000A4076AE476E08EE399E00E947C0861E0F0
:1030400080E00E94A40769E576E08EE399E00E94A3
:103050007C0862E080E00E94A40766E676E08EE3EA
:1030600099E00E947C088091F7069091F8060797F6
:1030700031F40E94FE08811102C00E94140D0E94CA
:103080001405182F64E670E080E090E00E94EB02E7
:103090008091F7069091F8061A3209F04EC021E0AF
:1030A00030E03093D5062093D406079711F40E94A0
:1030B0004C050E94FB068E010F5F1F4F80E1F80157
:1030C00011928A95E9F70E94FB0660E080E00E9479
:1030D000A4078091D4069091D5060197B1F566E7D3
:1030E00076E08EE399E00E947C0861E0C8010E94CE
:1030F00000172091D4063091D506232B29F466E8D9
:1031000076E0C8010E9433168823E9F2B80189E409
:1031100098E00E947C080E94FB06B80182E097E0DC
:103120000E94C709811137C0F801E80FF11D908195
:10313000992369F010828F5FF7CF133209F093CF94
:103140001092D5061092D406B0CF80E0D2CF0E9464
:10315000FB0660E080E00E94A4078091D406909175
:10316000D506019709F045C060E776E08EE399E067
:103170000E947C0861E0C8010E9400172091D406DB
:103180003091D506232B29F460E876E0C8010E942F
:1031900033168823E1F2B80182E097E00E94C70964
:1031A000082F81111AC01092F8061092F7061AE043
:1031B0000E94FB0660E080E00E94A407612F8EE37E
:1031C00099E00E94680868EE73E080E090E00E9459
:1031D000EB02115069F70E94BC08802F60960FB671
:1031E000F894DEBF0FBECDBFDF91CF911F910F913D
:1031F000089580E0C3CFCF92DF92EF92FF920F93BA
:103200001F93CF93DF9300D000D000D0CDB7DEB7AF
:1032100089E0E3EDF2E0DE01119601900D928A95CE
:10322000E1F790E4E92E92E0F92E10E000E0D12CD5
:10323000D7018C91811113C04CE050E0B7016F5F52
:103240007F4F82E097E00E94711F892B41F4E1E0FB
:10325000F0E0EC0FFD1FE00FF11F0083D3940F5F30
:103260001F4FBEE0EB0EF11C0930110509F7DD2000
:1032700009F4D4C00E94FB06FE0131967F0110E0E4
:1032800000E0033011F0063029F41F5F612F80E069
:103290000E94A407D7018D917D018F3F49F0805D89
:1032A0000E94BC0763E373E08EE399E00E9411087B
:1032B0000F5F093031F71F5F612F80E00E94A40784
:1032C0006FE876E08EE399E00E942309612F87E0A2
:1032D0000E94A4076AE774E08EE399E00E94230944
:1032E000612F87E00E94A4070E941405082F64E65E
:1032F00070E080E090E00E94EB02003239F30A3285
:1033000029F3033219F3802F0E94BC0780EDF82EB9
:10331000F00E68EC70E080E090E00E94EB02CF2CB1
:10332000D12CE1E0F0E0EC0FFD1FEC0DFD1D8081E4
:103330008F3F61F2BFEFFB1649F20E940518811121
:1033400012C088E996E029960FB6F894DEBF0FBE4A
:10335000CDBFDF91CF911F910F91FF90EF90DF9044
:10336000CF900C94910A0E94FB0660E080E00E94DE
:10337000A40764EA76E08EE399E00E947C0861E0AD
:1033800080E00E94A40761E575E08EE399E00E9469
:103390002309802F0E94BC076F2D82E40E942B0915
:1033A0008823D1F38EE08C9DF0018D9DF00D1124CA
:1033B000E05CFD4FDF011D928A95E9F781E0808393
:1033C00070E060E08F2D0E94970C0E94FB0660E089
:1033D00080E00E94A40762EB76E08EE399E00E9411
:1033E0002309802F0E94BC076FEF7FEF90E080E001
:1033F0000E944B0A6AEF70E080E090E029960FB6D9
:10340000F894DEBF0FBECDBFDF91CF911F910F911A
:10341000FF90EF90DF90CF900C94EB0229960FB6BF
:10342000F894DEBF0FBECDBFDF91CF911F910F91FA
:10343000FF90EF90DF90CF9008951F920F920FB6FC
:103440000F9211242F933F938F939F93AF93BF932A
:103450008091FA069091FB06A091FC06B091FD06C2
:103460003091F90623E0230F2D3758F50196A11D61
:10347000B11D2093F9068093FA069093FB06A09362
:10348000FC06B093FD068091FE069091FF06A09188
:103490000007B09101070196A11DB11D8093FE06A2
:1034A0009093FF06A0930007B0930107BF91AF91DF
:1034B0009F918F913F912F910F900FBE0F901F9072
:1034C000189526E8230F0296A11DB11DD2CF1F9299
:1034D0000F920FB60F9211240BB60F922F933F93BA
:1034E0004F935F936F937F938F939F93AF93BF930C
:1034F000EF93FF938FE097E00E941104FF91EF910B
:10350000BF91AF919F918F917F916F915F914F91FB
:103510003F912F910F900BBE0F900FBE0F901F90F9
:1035200018951F920F920FB60F9211240BB60F929F
:103530002F933F934F935F936F937F938F939F93BB
:10354000AF93BF93EF93FF938FE097E00E945603F2
:10355000FF91EF91BF91AF919F918F917F916F916B
:103560005F914F913F912F910F900BBE0F900FBE27
:103570000F901F9018951F920F920FB60F92112463
:103580000BB60F922F933F934F935F936F937F935D
:103590008F939F93AF93BF93EF93FF938CEA97E042
:1035A0000E941104FF91EF91BF91AF919F918F9174
:1035B0007F916F915F914F913F912F910F900BBE33
:1035C0000F900FBE0F901F9018951F920F920FB67D
:1035D0000F9211240BB60F922F933F934F935F934B
:1035E0006F937F938F939F93AF93BF93EF93FF93CB
:1035F0008CEA97E00E945603FF91EF91BF91AF9143
:103600009F918F917F916F915F914F913F912F91FA
:103610000F900BBE0F900FBE0F901F9018951F922A
:103620000F920FB60F9211240BB60F922F933F9368
:103630004F935F936F937F938F939F93AF93BF93BA
:10364000EF93FF9389E498E00E941104FF91EF91BA
:10365000BF91AF919F918F917F916F915F914F91AA
:103660003F912F910F900BBE0F900FBE0F901F90A8
:1036700018951F920F920FB60F9211240BB60F924E
:103680002F933F934F935F936F937F938F939F936A
:10369000AF93BF93EF93FF9389E498E00E945603A2
:1036A000FF91EF91BF91AF919F918F917F916F911A
:1036B0005F914F913F912F910F900BBE0F900FBED6
:1036C0000F901F901895CF93DF93109212071092CE
:1036D000110748EE53E060E070E040931307509309
:1036E0001407609315077093160789E193E0909390
:1036F000100780930F0725E331E030931C072093D8
:103700001B0724E331E030931E0720931D0720E3BD
:1037100031E03093200720931F0721E331E03093FD
:1037200022072093210722E331E0309324072093DE
:10373000230726E331E030932607209325071092D4
:1037400028071092290710922A0710922B0710922F
:10375000AF071092AE074093B0075093B107609344
:10376000B2077093B3079093AD078093AC0725ED34
:1037700030E03093B9072093B80724ED30E0309360
:10378000BB072093BA0720ED30E03093BD072093AC
:10379000BC0721ED30E03093BF072093BE0722ED38
:1037A00030E03093C1072093C00726ED30E030931E
:1037B000C3072093C2071092C5071092C607109244
:1037C000C7071092C80710924C0810924B084093FC
:1037D0004D0850934E0860934F0870935008909393
:1037E0004A088093490885EC90E0909356088093AE
:1037F000550884EC90E0909358088093570880EC2B
:1038000090E090935A088093590881EC90E090934F
:103810005C0880935B0882EC90E090935E08809354
:103820005D0886EC90E09093600880935F081092AA
:103830006208109263081092640810926508109252
:103840004109109240098BE293E090933F098093E5
:103850003E0986E1809342098FEF8093430987E117
:103860008093440988E18093450989E18093460962
:103870008AE1809347098BE18093480910924909B6
:1038800010924A0910924B0910924C0910924D095E
:1038900081E00E940307CCE1D0E0D0933709C093C8
:1038A00036098EE190E090933909809338098DE1D3
:1038B00090E090933B0980933A0981E090E09093E7
:1038C0003D0980933C0961E08CE10E94950261E032
:1038D000809138090E94950261E080913A090E9426
:1038E000950261E080913A090E946702D0933709FE
:1038F000C0933609E6EFF8E0119289E0E633F80765
:10390000D9F7D0E0C0E080913C0990913D09C817FB
:10391000D90774F540E06FE0CE010E948A058091DE
:103920003C0990913D09C817D9072CF447E06BE09A
:10393000CE010E948A0540E069E0CE010E948A051E
:1039400080913C0990913D09C817D9071CF4CE011C
:103950000E94E80580913C0990913D09C817D9075C
:103960002CF440E06CE0CE010E948A052196CBCF7A
:10397000DF91CF910895CF93DF931F921F92CDB720
:10398000DEB7789484B5826084BD84B5816084BDDF
:1039900085B5826085BD85B5816085BD80916E00ED
:1039A000816080936E00109281008091810082601E
:1039B000809381008091810081608093810080915B
:1039C00080008160809380008091B100846080934A
:1039D000B1008091B00081608093B000809191002F
:1039E000826080939100809191008160809391002A
:1039F000809190008160809390008091A10082600E
:103A00008093A1008091A10081608093A1008091AA
:103A1000A00081608093A00080912101826080934A
:103A200021018091210181608093210180912001F9
:103A300081608093200180917A00846080937A0075
:103A400080917A00826080937A0080917A00816010
:103A500080937A0080917A00806880937A00109237
:103A6000C1008CEA97E00E94B0018CEA97E00E94C6
:103A7000B00189E498E00E94B0018FE097E00E94D5
:103A8000B00180913C0990913D091816190634F453
:103A900041E06CE090E080E00E948A0580913C0962
:103AA00090913D091816190634F448E06AE090E058
:103AB00080E00E948A0580913C0990913D0918168A
:103AC000190624F490E080E00E94E80584E00E945A
:103AD000030712E060E0812F0E9495021F5F1830FB
:103AE000C9F761E088E00E94950261E089E00E94E8
:103AF000950261E08AE00E9495020E94BC088DE870
:103B000094E00E948B09811170C06BEB76E089E430
:103B100098E00E947C081982BE016F5F7F4F84E8A5
:103B200090E00E94320A42E954E0BA018DE894E044
:103B30000E94700B90E080E00E94FC1DF82E811125
:103B40004DC000E412E05801CC24C394D12CC6012E
:103B50000E94FC1DF50181935F01FFEFCF1ADF0A80
:103B60008FE7C816D10499F7EE24E394F801808119
:103B700081112EC0AE014F5F5F4FBE016E5F7F4F60
:103B80008F2D0E945705898190E02A8130E0AC0199
:103B900063E0440F551F6A95E1F740505E4FFA010C
:103BA000E20FF31FE08273E0880F991F7A95E1F727
:103BB000885F9D4FFC01E20FF31FE0822F5F3F4FB4
:103BC000420F531FFA01E082820F931FFC01E08233
:103BD000F394025F1F4FF9E0FF12C8CF0E9408065E
:103BE0000E94140D0E94A004FBCF69EC76E089E4EA
:103BF00098E00E947C089ECFF999FECF92BD81BDCE
:103C0000F89A992780B50895262FF999FECF1FBA03
:103C100092BD81BD20BD0FB6F894FA9AF99A0FBEF5
:103C200001960895A1E21A2EAA1BBB1BFD010DC02F
:103C3000AA1FBB1FEE1FFF1FA217B307E407F5075C
:103C400020F0A21BB30BE40BF50B661F771F881F38
:103C5000991F1A9469F760957095809590959B01CE
:103C6000AC01BD01CF010895EE0FFF1F881F8BBF70
:103C70000790F691E02D19940F931F93CF93DF9344
:103C80008230910510F482E090E0E0915809F091C3
:103C9000590930E020E0B0E0A0E0309799F4211518
:103CA000310509F44AC0281B390B24303105D8F5F9
:103CB0008A819B816115710589F1FB019383828360
:103CC000FE0111C0408151810281138148175907BB
:103CD000E0F04817590799F4109761F012960C9389
:103CE000129713961C933296CF01DF91CF911F91BB
:103CF0000F9108950093580910935909F4CF211595
:103D0000310551F04217530738F0A901DB019A0140
:103D1000BD01DF01F801C1CFEF01F9CF909359093F
:103D200080935809CDCFFE01E20FF31F8193919349
:103D30002250310939832883D7CF209156093091F9
:103D40005709232B41F42091C0023091C1023093D6
:103D50005709209356092091BE023091BF022115C8
:103D6000310541F42DB73EB74091C2025091C302D4
:103D7000241B350BE0915609F0915709E217F30720
:103D8000A0F42E1B3F0B2817390778F0AC014E5FCB
:103D90005F4F2417350748F04E0F5F1F50935709A8
:103DA00040935609819391939FCFF0E0E0E09CCF40
:103DB000CF93DF930097E9F0FC01329713821282D0
:103DC000A0915809B0915909ED0130E020E0109719
:103DD000A1F420813181820F931F209156093091E7
:103DE00057092817390709F061C0F0935709E09384
:103DF0005609DF91CF910895EA01CE17DF07E8F564
:103E00004A815B819E0141155105B1F7E901FB83B0
:103E1000EA8349915991C40FD51FEC17FD0761F44E
:103E2000808191810296840F951FE901998388838F
:103E3000828193819B838A83F0E0E0E012968D91EA
:103E40009C9113970097B9F52D913C911197CD0155
:103E50000296820F931F2091560930915709281717
:103E6000390739F6309751F51092590910925809CF
:103E7000B0935709A0935609BCCFD383C283408126
:103E80005181840F951FC817D90761F44E5F5F4FAA
:103E900088819981480F591F518340838A819B8172
:103EA000938382832115310509F0B0CFF09359092E
:103EB000E09358099ECFFD01DC01C0CF138212822E
:103EC000D7CFFB01DC018D91019080190110D9F34E
:103ED000990B0895FB01DC0101900D920020E1F7A0
:103EE0000895FB01DC014150504030F08D9101906C
:103EF000801919F40020B9F7881B990B0895FB016C
:103F0000DC014150504048F001900D920020C9F76B
:103F100001C01D9241505040E0F70895F894FFCF42
:103F2000000001000001000000000100000100008D
:103F30000101010101010101000001000001000077
:103F40000000010000010000010101010101010167
:103F5000000001000001000000000100000100005D
:103F6000010000000000000000000000000001004F
:103F70000000000000000000000000000100000040
:103F80000000000000000000000001000000000030
:103F90000000000000000000010000000000000020
:103FA0000000000000000100000000000000000010
:103FB0000000000001000000000000000000000000
:103FC00000000100000000000000000000000000F0
:103FD00001000000000000000000000000000000E0
:103FE0005A0980004E4F204841592043454C202318
:103FF000200000FFFFFFFFFFFFFFFFFF312A242308
:104000002132414243303344454600344748490059
:10401000354A4B4C00364D4E4F00375051525338B5
:1040200054555600395758595A313233343536378A
:1040300038392A302300000000330429036F03803D
:1040400004E7037E03D90300000000B6072903CA72
:1040500004C9040D0A00527562656E203230323197
:1040600031313833350053657267696F2032303231
:1040700031313138333500506564726F203230325F
:10408000313131383335004A6F7365203230313980
:10409000303137353600536562617320323032314A
:1040A000313138333500534520414341424F20459B
:1040B0004C205449454D504F004D5543484F2043E7
:1040C000414C4F5220232000456C2075737561725E
:1040D000696F20796120657869737465002D2D2DD5
:1040E0004E7565766F207573756172696F2D2D2D14
:1040F000002D2D2D2D2D2D2D2D2D2D2D2D2D2D2D1D
:104100002D2D2D2D004D656E75207072696E6369C1
:1041100070616C0050726573696F6E6120616365D8
:10412000707461720020204C6F67696E002020520D
:104130006567697374726172003E00204573706533
:1041400072616E646F2020756E61200020202063F4
:104150006F6E6578696F6E2E2E2E2020004E6F6D6B
:104160006272653A004C204F20472049204E0020C3
:104170002D204E4F4D4252453A00436F7272656397
:10418000746F3F202020202020200020202020208D
:10419000202020202020202020202000202D20430F
:1041A0006F6E747261733A004E4144410041444D58
:1041B0003100313233340041444D494E006C6F6759
:1041C000696E4145006C6F67696E5545006C6F679D
:1041D000696E46410020204C6F67730020204573B4
:1041E0007461646F2053797300202043657272619B
:1041F0007220736573696F6E006161610043454CA5
:104200002023202020202020004641494C454420E6
:104210002320202000494E434944454E542023206A
:1042200000414354205553455220232000436572DA
:104230007261646F410020496E677265736F20433D
:10424000656C002052657469726F2043656C0020B4
:10425000456C696D696E6172204375656E746100AD
:10426000496E746F64757A63612043454C20656EB6
:104270000020504F532023004D5543484F204341C9
:104280004C4F5220656E00494E47522043454C200A
:104290004641494C00494E47522043454C204F4B24
:1042A000004365727261646F555300456C207573ED
:1042B000756172696F206E6F20657869737465002F
:1042C00043454C20656E2053697374656D61004DE4
:1042D000656E752064652072657469726F2E2E2E6E
:1042E000005573756172696F20426F727261646FFD
:1042F00000524D562055535200524547495354528F
:104300004F00202D20434F4E5452413A00202D2083
:104310004E554D45524F3A00202041706C69636103
:1043200063696F6E00202050616E656C0020205321
:10433000616C697200522045204720492053205467
:104340002052204F00202D2043656C756C61723A1D
:1043500000416365707461723F202020202020207E
:104360000063616E63656C6172005449504F204474
:104370004520494E5055543A00232041504C494362
:104380004143494F4E002A205445434C41444F007D
:104390006572726F722070617373776F72643A0026
:1043A0006572726F722070617373776F7264004F01
:1043B0007063696F6E3A2000524D2043454C204691
:1043C00041494C005265746972652043454C206533
:1043D0006E0053616361646F2023004167726567FB
:1043E00061722041646D696E004861792061646D7D
:0443F000696E0000F2
:00000001FF
