:100000000C9465010C9496010C9496010C94960145
:100010000C9496010C9496010C9496010C94960104
:100020000C9496010C9496010C9496010C949601F4
:100030000C9496010C9496010C9496010C949601E4
:100040000C9496010C9496010C9496010C949601D4
:100050000C9496010C9496010C9496010C94F20861
:100060000C9496010C9466090C943C090C9496012E
:100070000C9496010C9496010C9496010C949601A4
:100080000C9496010C9496010C9496010C94960194
:100090000C9496010C9496010C9496010C94960184
:1000A0000C9496010C9496010C9496010C94960174
:1000B0000C9496010C9496010C9496010C94960164
:1000C0000C9496010C9496010C9496010C94960154
:1000D0000C9496010C9496010C9496010C94960144
:1000E0000C9496010C94C0010C94B6010C94690414
:1000F0000C94D30C0C944F0C0C94CB010C949C09D5
:100100000C94E80C0C94F7010C9418040C94AC0CAF
:100110000C943A0C0C94460C0C94D1010C94400CA9
:100120000C94EA020C9493030C94510C0C94980DCB
:100130000C94F6010C94E3010C9426030C94DB015F
:100140000C94E9010C94490C0C94870F0C94ED016C
:100150000C94CB030C94FB010C94C8010C943D0C43
:100160000C94C0060C94400D0C947D100C941F123E
:100170000C94DF010C9417030C946A040C9485030F
:100180000C944C0C0C94D5010C9423100C94F1019C
:100190000C94F00D0C94BF0D0C94E40F0C94BC0166
:1001A0000C94C4010C94430C00002100240027008F
:1001B0002A002D0030003300010100000401070176
:1001C0000A0100002200250028002B002E0031002B
:1001D000340002010000050108010B0100002000AD
:1001E0002300260029002C002F003200000100000F
:1001F00003010601090105050505070508080808AA
:10020000020202020A0A08080404040401010101AE
:1002100001010101030303030303030304070707A9
:100220000C0C0C0C0C0C0C0C02020202060606064E
:10023000060606060B0B0B0B0B0B0B0B010210201B
:10024000200808102040102040800201020108040C
:1002500002010102040810204080804020100804A0
:1002600002018004020180402010080402010804F9
:10027000020101020408102040800102040810203D
:10028000408000000A0B02090C0D0E080703040150
:10029000000000000000000000000000000000005E
:1002A000000000000000000000000000000012112B
:1002B000100000000000000000000000000000002E
:1002C00000000000000000009C0911241FBECFEFB9
:1002D000D1E2DEBFCDBF00E00CBF25E0A8E6B4E070
:1002E00001C01D92AC3AB207E1F714E0A0E0B2E021
:1002F000EAE1F7E200E00BBF02C007900D92A836DA
:10030000B107D9F711E0C5E6D1E000E006C02197BA
:100310000109802FFE010E943812C436D10780E007
:100320000807A9F70E947C0A0C948B130C94000018
:100330008150823108F05AC0E82FF0E08827EC5550
:10034000FE4F8F4F0C943812C401C801B601BC0196
:10035000C001F601CB01D101D501DB01DF01E301D1
:10036000E901ED01F601F101F701FB018091800047
:100370008F77809380000895809180008F7DF9CFE2
:1003800080918000877FF5CF84B58F7784BD0895F5
:1003900084B58F7DFBCF8091B0008F778093B000C4
:1003A00008958091B0008F7DF9CF809190008F7774
:1003B000809390000895809190008F7DF9CF809177
:1003C0009000877FF5CF8091A0008F778093A00069
:1003D00008958091A0008F7DF9CF8091A000877F44
:1003E000F5CF809120018F7780932001089580912F
:1003F00020018F7DF9CF80912001877FF5CFCF93AA
:10040000DF93282F30E0F901EE57FD4F8491F90179
:10041000E45CFD4FD491F901EA50FE4FC491CC2326
:10042000A1F081110E949801EC2FF0E0EE0FFF1F68
:10043000E452FE4FA591B491EC91ED2381E090E060
:1004400009F480E0DF91CF91089580E090E0FACF49
:100450001F93CF93DF93282F30E0F901EE57FD4F24
:100460008491F901E45CFD4FD491F901EA50FE4F0B
:10047000C491CC23A9F0162F81110E949801EC2F72
:10048000F0E0EE0FFF1FEE53FE4FA591B4918FB732
:10049000F894EC91111108C0D095DE23DC938FBF46
:1004A000DF91CF911F910895DE2BF8CFCF93DF938B
:1004B00090E0FC01E45CFD4F24918A509E4FFC01CA
:1004C00084918823D1F090E0880F991FFC01E855B2
:1004D000FE4FA591B491FC01EE53FE4FC591D4910E
:1004E00061110EC09FB7F8948C91E22FE0958E2396
:1004F0008C932881E223E8839FBFDF91CF910895F9
:100500008FB7F894EC91E22BEC938FBFF6CF3FB707
:10051000F8948091970490919804A0919904B091D7
:100520009A0426B5A89B05C02F3F19F00196A11D7E
:10053000B11D3FBFBA2FA92F982F8827BC01CD012D
:10054000620F711D811D911D42E0660F771F881F8C
:10055000991F4A95D1F708958F929F92AF92BF92BB
:10056000CF92DF92EF92FF924B015C010E948702D3
:100570006B017C010E9487026C197D098E099F091D
:10058000683E734081059105A8F321E0821A910825
:10059000A108B10888EEC80E83E0D81EE11CF11C4A
:1005A00081149104A104B10429F7FF90EF90DF902A
:1005B000CF90BF90AF909F908F9008952FB7F894F1
:1005C00060919304709194048091950490919604A5
:1005D0002FBF0895AF92BF92CF92DF92EF92FF921A
:1005E0000F931F93CF93DF936C017B018B01040F5B
:1005F000151FEB015E01AE18BF08C017D10759F0F7
:100600006991D601ED91FC910190F081E02DC60138
:100610001995892B79F7C501DF91CF911F910F9122
:10062000FF90EF90DF90CF90BF90AF900895FC01C6
:10063000538D448D252F30E0842F90E0821B930B47
:10064000541710F0CF96089501970895FC01918DED
:10065000828D981761F0A28DAE0FBF2FB11D5D96F0
:100660008C91928D9F5F9F73928F90E008958FEF92
:100670009FEF0895CF92DF92EF92FF920F931F9317
:10068000CF93DF938C01D0E0C0E00E94DE02609344
:10069000A3047093A4048093A5049093A6048BE90B
:1006A00094E00E94260397FF28C00E94DE02C090BB
:1006B000A304D090A404E090A504F090A6046C19C3
:1006C0007D098E099F09C0909F04D090A004E090FE
:1006D000A104F090A2046C157D058E059F05F8F22B
:1006E000CE01DF91CF911F910F91FF90EF90DF909E
:1006F000CF900895C2E0D0E0F3CFF80181938F014D
:100700002197C1F3C1E0D0E0C0CFFC01918D828D73
:10071000981731F0828DE80FF11D858D90E00895D6
:100720008FEF9FEF0895FC01918D228D892F90E02E
:10073000805C9F4F821B91098F73992708958BE9E5
:1007400094E00E94930321E0892B09F420E0822F9A
:100750000895FC01A48DA80FB92FB11DA35ABF4F56
:100760002C91848D90E001968F739927848FA689B0
:10077000B7892C93A089B1898C91837080648C9304
:10078000938D848D981306C00288F389E02D8081B3
:100790008F7D80830895EF92FF920F931F93CF93E5
:1007A000DF93EC0181E0888F9B8D8C8D98131AC0AC
:1007B000E889F989808185FF15C09FB7F894EE8993
:1007C000FF896083E889F9898081837080648083F0
:1007D0009FBF81E090E0DF91CF911F910F91FF903B
:1007E000EF900895F62E0B8D10E00F5F1F4F0F73E3
:1007F0001127E02E8C8D8E110CC00FB607FCFACF9E
:10080000E889F989808185FFF5CFCE010E94A9038F
:10081000F1CFEB8DEC0FFD2FF11DE35AFF4FF0826E
:100820009FB7F8940B8FEA89FB8980818062CFCFD4
:10083000CF93DF93EC01888D8823B9F0AA89BB8917
:10084000E889F9898C9185FD03C0808186FD0DC002
:100850000FB607FCF7CF8C9185FFF2CF808185FF23
:10086000EDCFCE010E94A903E9CFDF91CF9108958A
:1008700080E090E0892B29F00E949F0381110E9463
:10088000000080E090E0892B49F080E090E0892B27
:1008900029F00E94000081110E94000080E090E099
:1008A000892B49F080E090E0892B29F00E9400001C
:1008B00081110E94000080E090E0892B49F080E0E7
:1008C00090E0892B29F00E94000081110C94000017
:1008D0000895089590E080E00895CF92DF92EF921E
:1008E000FF92CF93DF930E94DE02EB010E94DE02B3
:1008F0000E94DE026B018BE994E00E949303892B36
:1009000029F08BE994E00E942603F5CFCC1ADD0A8A
:1009100088EEC81683E0D8065CF38BE994E00E9469
:100920009303892B29F7DF91CF91FF90EF90DF9010
:10093000CF90089582E00E94FF01892B41F062ED83
:1009400070E080E090E00E94AC0281E0089583E0D6
:100950000E94FF01892B71F362ED70E080E090E06E
:100960000E94AC0280E00895FF920F931F93CF93F3
:10097000DF93C8E0D0E0FC2E61E08C2F0E942802BB
:1009800004E010E0802F0E94FF010197B1F460E0C5
:100990008F2D0E94280204501109C801880F991F49
:1009A000080F191FC00FD11FC250DE4F8881DF9181
:1009B000CF911F910F91FF9008950F5F1F4F083047
:1009C000110501F760E08F2D0E9428022196CB309F
:1009D000D10589F680E2EBCFCF92DF92EF92FF92C2
:1009E0000F931F93CF93DF931F921F92CDB7DEB764
:1009F00069834A83880F991F00918E0510918F0596
:100A0000000F111FE8E3F5E09F0128533540201740
:100A1000310714F41192F8CF2981FC01E85CFA4FF8
:100A200021838A81808360E080918C050E94280266
:100A30001016110604F501501109F801E85CFA4F8F
:100A4000E080D0908A05C090880588E0F82E6E2D51
:100A5000661F6627661F8C2D0E942802EE0C61E03F
:100A60008D2D0E94280260E08D2D0E942802FA94AC
:100A7000F110EDCFDDCF61E080918C050F900F90EC
:100A8000DF91CF911F910F91FF90EF90DF90CF906A
:100A90000C942802EF92FF920F931F93CF937C0147
:100AA0008C0183E0000F111F8A95E1F7085B1A4F54
:100AB000C1E0F80111928F0140E06C2FC7010E9444
:100AC000EC04CF5FC930A9F7CF911F910F91FF9030
:100AD000EF900895CF93DF93EC0160E08E810E9448
:100AE000280261E08E810E94280260E08E810E94CF
:100AF00028028BE891E00197F1F7DF91CF910895FB
:100B0000CF92DF92EF92FF920F931F93CF93DF93D9
:100B10006C017C0187E0E80EF11CD0E0C0E0062FFC
:100B200010E0B8010C2E02C0759567950A94E2F7A3
:100B30006170F70181917F010E9428022196C430E3
:100B4000D10579F7C601DF91CF911F910F91FF90E9
:100B5000EF90DF90CF900C946A05CF92DF92EF92E6
:100B6000FF920F931F93CF93DF93EC01F62E642F28
:100B70008C810E9428028D818F3F19F060E00E94D5
:100B800028020F2D10E08F8584FF25C06E0187E0BD
:100B9000C80ED11CF12CE12CB8010E2C02C07595A9
:100BA00067950A94E2F76170F60181916F010E94E6
:100BB0002802FFEFEF1AFF0A88E0E816F10461F758
:100BC000CE01DF91CF911F910F91FF90EF90DF90B9
:100BD000CF900C946A05B80184E0759567958A9565
:100BE000E1F7CE010E9480056F2DCE01DF91CF91FC
:100BF0001F910F91FF90EF90DF90CF900C948005A4
:100C000040E0682F80E995E00C94AD0581E00E94FA
:100C100000068BE39FE10197F1F70895CF93DF93EF
:100C2000813029F090919F05986090939F05809363
:100C3000A3051092A40580E48093A50580E180932C
:100C4000A60580E58093A70561E0809194050E9448
:100C50005602809195058F3F19F061E00E9456027F
:100C600061E0809196050E945602C0E9D5E09E01A0
:100C70002059354080919F0584FD0BC084E090E0B1
:100C800021962817390744F461E08E810E945602AC
:100C9000EECF88E090E0F4CF8BE39DE00197F1F791
:100CA00060E0809194050E94280260E080919605A2
:100CB0000E942802809195058F3F19F060E00E9404
:100CC000280280919F0584FD34C063E080E995E0AF
:100CD0000E948005CBE4D6E4CE010197F1F763E0F2
:100CE00080E995E00E9480052197F1F763E080E9B3
:100CF00095E00E94800583E592E00197F1F762E0BC
:100D000080E995E00E94800580919F0580620E94A5
:100D1000000684E08093A0058CE00E9400060E94FB
:100D2000060682E08093A10586E0DF91CF910C94C6
:100D3000000680620E9400068BE496E40197F1F7BA
:100D400080919F0580620E94000683E592E00197F2
:100D5000F1F780919F0580620E940006D5CF843014
:100D600008F083E09091A305891710F08FEF890FA9
:100D7000E82FF0E0E057FA4F848980680C94000671
:100D800041E00E94AD0581E090E00895FF920F934D
:100D90001F93CF93DF938C01EB01F8800E94221206
:100DA000F81621F06F2DC8010E942A12CE01DF91A2
:100DB000CF911F910F91FF900895CF92DF92EF9204
:100DC000FF920F931F93CF93DF93EB017B0123E2FD
:100DD000E20EF11C8B016C01C61AD70AC601800F06
:100DE000911F0E942212F80181938F01EE15FF05D9
:100DF000A9F7CE01DF91CF911F910F91FF90EF9056
:100E0000DF90CF900895FB0101900020E9F7319722
:100E1000AF01461B570BDC01ED91FC910280F38181
:100E2000E02D19940F931F93CF93DF93EC010E9451
:100E300003078C016DE572E0CE010E940307800F6D
:100E4000911FDF91CF911F910F9108951F93CF9321
:100E5000DF9300D0CDB7DEB7BC018BE994E00E94F0
:100E6000120710E08BE994E00E949303892B31F084
:100E7000CE0101960E943A0311E0F4CF112391F3C1
:100E80008BE994E00E949303892B61F70F900F90F8
:100E90000F90DF91CF911F9108956115710511F0A9
:100EA0000C94030790E080E00895DF92EF92FF92A8
:100EB0000F931F93CF93DF937C01FC0101900020DF
:100EC000E9F73197E81BF90BDE2EEF01DD27CE01A4
:100ED0000E944012182F092FAE01B7010E947C1307
:100EE000E12FF02FA12FB02F212F98E78A2F811B00
:100EF0008D1558F099E78E2F821B8D1560F4819126
:100F0000DF01119789278C93F6CF8D91ED01219701
:100F100089278883EBCF812F902FDF91CF911F916D
:100F20000F91FF90EF90DF900895EF92FF920F9353
:100F30001F93CF93DF93CDB7DEB7A3970FB6F89487
:100F4000DEBF0FBECDBF0E9455077C0110E000E060
:100F5000BE016F5F7F4FC8010E94DD064CE050E08C
:100F6000B701CE0101960E946E13892B89F4C70147
:100F70000E94DC1281E0A3960FB6F894DEBF0FBE8C
:100F8000CDBFDF91CF911F910F91FF90EF9008950A
:100F90000D5D1F4F0E3581E01807D1F6C7010E9485
:100FA000DC1280E0E8CF3F924F925F926F927F9287
:100FB0008F929F92AF92BF92CF92DF92EF92FF9269
:100FC0000F931F93CF93DF93CDB7DEB7CA56D109E6
:100FD0000FB6F894DEBF0FBECDBF8C017B012A0196
:100FE0000E949507882301F160E672E08BE994E0A6
:100FF0000E94120780E0C659DF4F0FB6F894DEBF9B
:101000000FBECDBFDF91CF911F910F91FF90EF9059
:10101000DF90CF90BF90AF909F908F907F906F9018
:101020005F904F903F900895C8010E9455075C0162
:10103000C7010E9455076C0110E000E0BE016C5D25
:101040007F4FC8010E94DD06C8010E9422123801AC
:1010500093E2690E711C882309F471C08301EEE5E7
:101060006E16E1E07E0651F74CE050E0B501CE018E
:10107000895B9F4F0E947C134CE050E0B60187E4EF
:1010800090E08C0F9D1F0D960E947C1348E050E06D
:10109000B20187E490E08C0F9D1F4A960E947C135A
:1010A0008E01095B1F4FF12CE12CF80131908F016B
:1010B00043018E0C9F1CC4010E942212381621F09D
:1010C000632DC4010E942A12FFEFEF1AFF0A83E288
:1010D000E816F10451F793E2690E711CFE01319696
:1010E0007F01BF01C3010E94DD06F70101900020CE
:1010F000E9F731978F010E191F09302E1127C8010A
:101100000E944012982E892EA801B7010E947C13DC
:10111000692D782DA92DB82D492D99E78A2F891988
:10112000831578F098E7862F841B831590F4FB01D4
:101130008191BF01DF01119789278C93F4CF38018A
:1011400093CF8D919D01215031098927F901808329
:10115000E5CF892D982D0E949507882329F0FEE57B
:101160006F16F1E07F0648F4AB961FAEAB97BE0159
:1011700066597F4FC3010E94C60665E772E08BE99E
:1011800094E00E941207B5018BE994E00E944D079C
:101190006AEC73E08BE994E00E944D07B6018BE99D
:1011A00094E00E944D076AEC73E08BE994E00E94A2
:1011B0004D07B2018BE994E00E944D076FE572E0A4
:1011C0008BE994E00E94120769E872E08BE994E0F1
:1011D0000E941207C5010E94DC12C6010E94DC12A7
:1011E00081E009CF1F920F920FB60F9211242F9317
:1011F0003F938F939F93AF93BF938091930490916C
:101200009404A0919504B09196043091920423E047
:10121000230F2D3758F50196A11DB11D209392047F
:101220008093930490939404A0939504B0939604B0
:101230008091970490919804A0919904B0919A0498
:101240000196A11DB11D8093970490939804A093DB
:101250009904B0939A04BF91AF919F918F913F9160
:101260002F910F900FBE0F901F90189526E8230F17
:101270000296A11DB11DD2CF1F920F920FB60F92F1
:1012800011240BB60F922F933F934F935F936F935D
:101290007F938F939F93AF93BF93EF93FF938BE9CC
:1012A00094E00E94A903FF91EF91BF91AF919F91AC
:1012B0008F917F916F915F914F913F912F910F90FF
:1012C0000BBE0F900FBE0F901F9018951F920F929C
:1012D0000FB60F9211240BB60F922F938F939F93FB
:1012E000EF93FF93E091AB04F091AC048081E09127
:1012F000B104F091B20482FD1DC090818091B404CC
:101300008F5F8F732091B504821741F0E091B40490
:10131000F0E0E556FB4F958F8093B404FF91EF9179
:101320009F918F912F910F900BBE0F900FBE0F903A
:101330001F9018958081F2CFCF93DF9310929E0477
:1013400010929D0488EE93E0A0E0B0E080939F04AB
:101350009093A004A093A104B093A20483E492E02C
:1013600090939C0480939B0485EC90E09093A80458
:101370008093A70484EC90E09093AA048093A9043E
:1013800080EC90E09093AC048093AB0481EC90E00F
:101390009093AE048093AD0482EC90E09093B004FF
:1013A0008093AF0486EC90E09093B2048093B104F4
:1013B0001092B4041092B5041092B6041092B704BF
:1013C000109293051092920585E592E09093910515
:1013D0008093900586E1809394058FEF8093950527
:1013E00087E18093960588E18093970589E1809352
:1013F00098058AE1809399058BE180939A05109274
:101400009B0510929C0510929D0510929E051092CE
:101410009F0581E00E940E06CCE1D0E0D0938905C3
:10142000C09388058EE190E090938B0580938A05A8
:101430008DE190E090938D0580938C0581E090E0A4
:1014400090938F0580938E0561E08CE10E94560297
:1014500061E080918A050E94560261E080918C05CE
:101460000E94560261E080918C050E942802D09370
:101470008905C0938805E8E4F5E0119285E0E83835
:10148000F807D9F7D0E0C0E080918E0590918F05E4
:10149000C817D90774F540E06FE0CE010E94EC0454
:1014A00080918E0590918F05C817D9072CF447E0DD
:1014B0006BE0CE010E94EC0440E069E0CE010E94A6
:1014C000EC0480918E0590918F05C817D9071CF404
:1014D000CE010E944A0580918E0590918F05C81714
:1014E000D9072CF440E06CE0CE010E94EC04219678
:1014F000CBCFDF91CF910895CF93DF93CDB7DEB7F8
:10150000A3970FB6F894DEBF0FBECDBF789484B515
:10151000826084BD84B5816084BD85B5826085BDEF
:1015200085B5816085BD80916E00816080936E007D
:10153000109281008091810082608093810080916F
:101540008100816080938100809180008160809320
:1015500080008091B10084608093B1008091B000E0
:1015600081608093B00080919100826080939100AF
:1015700080919100816080939100809190008160C2
:10158000809390008091A10082608093A10080915F
:10159000A10081608093A1008091A0008160809370
:1015A000A00080912101826080932101809121011E
:1015B00081608093210180912001816080932001CE
:1015C00080917A00846080937A0080917A008260B2
:1015D00080937A0080917A00816080937A00809174
:1015E0007A00806880937A001092C100E091AB0489
:1015F000F091AC0482E08083E091A704F091A8040C
:101600001082E091A904F091AA048FEC80831092DB
:10161000B304E091AF04F091B00486E08083E091E0
:10162000AD04F091AE04808180618083E091AD04CF
:10163000F091AE04808188608083E091AD04F091E8
:10164000AE04808180688083E091AD04F091AE04A7
:1016500080818F7D808380918E0590918F051816F3
:10166000190634F441E06CE090E080E00E94EC0464
:1016700080918E0590918F051816190634F448E074
:101680006AE090E080E00E94EC0480918E059091E9
:101690008F051816190624F490E080E00E944A0590
:1016A00084E00E940E0612E060E0812F0E94560244
:1016B0001F5F1830C9F761E088E00E94560261E0C0
:1016C00089E00E94560261E08AE00E94560280E0B2
:1016D0000E94AF066DE972E080E995E00E94120772
:1016E00081E00E94AF066DEA72E080E995E00E9419
:1016F000120782E00E94AF066EEB72E080E995E08F
:101700000E94120783E00E94AF066EEC72E080E94F
:1017100095E00E94120764EF71E080E090E00E9483
:10172000AC020E94060680E00E94AF066DED72E0FA
:1017300080E995E00E94120764EF71E080E090E09C
:101740000E94AC0219828E010F5F1F4FB80190E01A
:1017500080E00E94C6064DEE52E0BA0182EF92E0B0
:101760000E94D3070E94060680E00E94AF0669EF40
:1017700072E080E995E00E94120781E00E94AF06C6
:1017800068E073E080E995E00E94120782E00E9421
:10179000AF0665E173E080E995E00E9412070E94C0
:1017A000B404F82E64E670E080E090E00E94AC02A1
:1017B0002AE2F21257C081E090E09093690480938E
:1017C00068040E94060680E1F80111928A95E9F703
:1017D00035E0B32E0E94060680E00E94AF066FE15E
:1017E00073E080E995E00E9412078091680490916F
:1017F0006904019709F0AEC081E00E94AF06C12CD8
:10180000F12C81E00E94AF060E94B404D82E64E659
:1018100070E080E090E00E94AC02EDEDED0DE7316C
:1018200008F03FC00E2E000CFF0B8827E55EF34F3B
:101830008F4F0C943812AC0C510C510C510C510CB4
:10184000510C510CD30C510C510C510C510C510C2E
:101850004F0C3A0C1F12E80C3D0C400C430C460C8C
:10186000490C4C0C83E2F8129ACF10926904109242
:101870006804A7CFE12CF12C7FC023E0E22EFBCF40
:1018800094E0E92EF8CF85E0E82EF5CFB6E0EB2E18
:10189000F2CFA7E0EA2EEFCFF8E0EF2EECCFC39423
:1018A000B0CF82E00E94FF010197C1F56DE473E0C3
:1018B0008BE994E00E94120764E670E080E090E01B
:1018C0000E94AC0281E02091680430916904232BCE
:1018D00009F0D2C00E94DE024B015C010E94DE02D0
:1018E0000E946D048FE293E00E942607F12CE12C08
:1018F000D12C8BE994E00E949303892B09F46BC0EF
:101900008BE994E00E942603F801EE0DFF1D808311
:10191000C70101967C01DD24D394EBCF83E00E94C4
:10192000FF01019709F06DCF66E273E08BE994E067
:101930000E94120780E0F801E80FF11D90819923C1
:1019400019F010828F5FF7CF64E670E080E090E0DE
:101950000E94AC0280E0B7CFF4E0FF1609F48BCF11
:10196000BE9CF0011124EE5EFD4FEF0DF11D818153
:10197000F394882309F47FCFBE9CF0011124EE5E1E
:10198000FD4FEF0DF11D8081F801EC0DF11D8083FD
:10199000B80180E995E00E941207B8018BE994E054
:1019A0000E9412072ECF8E2D90E0FF2011F0FA94A6
:1019B000E3CFB89EF001B99EF00D1124EE5EFD4F0D
:1019C0008481E4E0FE2E8111D7CF63E0F62ED4CFE0
:1019D00072E0E72E50CFDD2009F447C00E94DE02FE
:1019E000681979098A099B09643F7140810591054D
:1019F0000CF47FCF0E94060680E00E94AF066FE1E4
:101A000073E080E995E00E94120783E00E94AF0630
:101A1000B80180E995E00E94120768EB7BE080E066
:101A200090E00E94AC0230E8632E34E0732E43E76E
:101A3000E42E44E0F42E5AE6452E54E0552EE09173
:101A40009004F0919104E830F10508F071C0882706
:101A5000E35DF24F8F4F0C943812400D2310BF0DF1
:101A6000F00D980D7D10E40F870F0E94DE024B01F0
:101A70005C010E94DE023DCF882309F4ABCEBACFD1
:101A80000E94060680E00E94AF0665E373E080E9ED
:101A900095E00E944D0781E00E94AF0664E473E088
:101AA00080E995E00E944D0782E00E94AF0665E55F
:101AB00073E080E995E00E944D0783E00E94AF0645
:101AC0006DE573E080E995E00E944D0780918F04F9
:101AD0008E5F0E94AF0669E673E080E995E00E94A0
:101AE0004D070E94B404823381F462ED70E080E01F
:101AF00090E00E94AC0280918F04815080938F040B
:101B00008F3FB1F410928F0413C08833A1F462EDBB
:101B100070E080E090E00E94AC0280918F048F5FC3
:101B2000823018F480938F0403C0F1E0F0938F04A7
:101B30000E94380484CF82E00E94FF016C0101976B
:101B400081F662ED70E080E090E00E94AC0280914E
:101B50008F04882339F08130A9F6D0929104C09285
:101B60009004D0CF82E090E0909391048093900411
:101B700083E090E090938E0480938D04C3CF0E9405
:101B80006D040E9406066BE673E080E995E00E9412
:101B90004D0781E00E94AF066CE773E080E995E0B5
:101BA0000E944D07D12C8BE994E00E949303892B6E
:101BB00031F0C8010E943A03DD24D394F4CFDD2034
:101BC00091F38BE994E00E949303892B61F7809154
:101BD0008D0490918E049093910480939004A8CFEB
:101BE0008BE0F301282F11922A95E9F7F701119262
:101BF0008A95E9F789E0F20111928A95E9F72BE0DD
:101C0000222E0E946D048DE893E00E942607F301C6
:101C1000222D11922A95E9F70E94060665E973E0E4
:101C200080E995E00E944D0781E00E94AF066FE9D0
:101C300073E080E995E00E944D0782E00E94AF06C4
:101C40000E94DE024B015C010E94DE020E946D04D4
:101C5000D12CC12C312C8BE994E00E949303892B69
:101C600071F08BE994E00E942603F601E058FB4FE7
:101C70008083C60101966C0133243394ECCF33206A
:101C8000C1F10E94DE02681979098A099B09643F43
:101C9000714081059105FCF260E874E080E995E00F
:101CA0000E944D0783E00E94AF066AEA73E080E974
:101CB00095E00E944D0764EF71E080E090E00E94A3
:101CC000AC020E949A04382E811164C082E00E9406
:101CD000AF066BEB73E080E995E00E944D0783E06F
:101CE0000E94AF066BEB73E080E995E00E944D0720
:101CF00088CF0E94DE024B015C010E94DE02ABCF66
:101D00002220D9F00E94DE02681979098A099B090C
:101D1000643F7140810591050CF466C093E7C92EBC
:101D200094E0D92EF60181916F01882369F06AE26F
:101D300080E995E00E94C006F5CF0E94DE024B01CB
:101D40005C010E94DE0250C083E00E94AF066AEA96
:101D500073E080E995E00E944D0764EF71E080E058
:101D600090E00E94AC020E949A04282E811150C07B
:101D700082E00E94AF066BEB73E080E995E00E9481
:101D80004D0783E00E94AF066BEB73E080E995E0BE
:101D90000E944D070E946D048FEC93E00E9426077D
:101DA000F7012BE011922A95E9F70E94060665E9F2
:101DB00073E080E995E00E944D0781E00E94AF0644
:101DC0006CEC73E080E995E00E944D0782E00E9490
:101DD000AF060E94DE024B015C010E94DE020E94FF
:101DE0006D04D12CC12C212C8BE994E00E9493032B
:101DF000892B09F485CF8BE994E00E942603F60134
:101E0000ED58FB4F8083C60101966C01232CECCF6B
:101E100088ED93E00E94260780E894E00E94550731
:101E20004C0183E794E00E9455075C01D12CC12C42
:101E3000B801C6010E94DD06B401C8010E94651305
:101E4000892BC1F5B501CE010E960E946513892B31
:101E500089F1C4010E94DC12C5010E94DC120E94BB
:101E6000060662EF72E080E894E00E946513892B19
:101E700091F56DEE72E083E794E00E946513892B83
:101E800051F566EE73E080E995E00E944D0762E34C
:101E900070E080E090E00E94AC0287E090E09093D8
:101EA00091048093900460ED77E080E090E00E94E0
:101EB000AC023ECEF3E2CF0ED11C2EE5C21621E0DD
:101EC000D20609F0B5CFC4010E94DC12C5010E9400
:101ED000DC12212CC4CF222019F086E090E0DFCF65
:101EE00060E874E080E995E00E944D0763E774E0E4
:101EF00080E995E00E944D0762E370E080E090E0A9
:101F00000E94AC021092910410929004CCCF0E94D7
:101F1000060680E00E94AF0664E473E080E995E085
:101F20000E944D0781E00E94AF066DED73E080E9ED
:101F300095E00E944D0782E00E94AF066CEE73E0D0
:101F400080E995E00E944D0783E00E94AF066CEFA8
:101F500073E080E995E00E944D0780918F048F5FC8
:101F60000E94AF0669E673E080E995E00E944D07A4
:101F70000E94B404823309F4B8CD883381F462ED51
:101F800070E080E090E00E94AC0280918F048F5F4F
:101F900080938F04833008F4CBCD82E0C3CD82E000
:101FA0000E94FF01019721F762ED70E080E090E070
:101FB0000E94AC0280918F04823009F0A3CD109270
:101FC0009104109290049ECD0E94060680E00E942B
:101FD000AF0664E473E080E995E00E944D0781E07C
:101FE0000E94AF066CE074E080E995E00E944D0726
:101FF00082E00E94AF066DE174E080E995E00E9406
:102000004D0783E00E94AF066CEF73E080E995E036
:102010000E944D0780918F048F5F0E94AF0669E692
:1020200073E080E995E00E944D070E94B40482337A
:1020300009F45BCD883309F4A2CF82E00E94FF014E
:10204000019799F7B1CF0E94060680E00E94AF0683
:1020500064E473E080E995E00E944D0781E00E940E
:10206000AF066FE274E080E995E00E944D0782E0E0
:102070000E94AF066CE374E080E995E00E944D0792
:1020800083E00E94AF0664E474E080E995E00E947A
:102090004D0780918F048F5F0E94AF0669E673E061
:1020A00080E995E00E944D070E94B404823309F450
:1020B0001CCD883309F463CF82E00E94FF010197B1
:1020C00099F762ED70E080E090E00E94AC028091B0
:1020D0008F04813059F008F06FCF82E090E0909348
:1020E00091048093900485E090E044CD88E090E0F6
:1020F000909391048093900405CD8DE0F301282FF7
:1021000011922A95E9F7F70111928A95E9F789E08A
:10211000F20111928A95E9F70E946D048DE893E02F
:102120000E942607F3012DE011922A95E9F70E94FB
:1021300006066CE474E080E995E00E944D0781E0BA
:102140000E94AF066FE973E080E995E00E944D07B9
:1021500082E00E94AF060E94DE024B015C010E94F9
:10216000DE020E946D04D12CC12C312C8BE994E04D
:102170000E949303892B71F08BE994E00E9426035F
:10218000F601E058FB4F8083C60101966C013324B1
:102190003394ECCF3320C1F10E94DE026819790933
:1021A0008A099B09643F714081059105FCF260E852
:1021B00074E080E995E00E944D0783E00E94AF063D
:1021C0006AEA73E080E995E00E944D0764EF71E0F0
:1021D00080E090E00E94AC020E949A04282E8111B7
:1021E00055C082E00E94AF066BEB73E080E995E09A
:1021F0000E944D0783E00E94AF066BEB73E080E91D
:1022000095E00E944D0788CF0E94DE024B015C01E1
:102210000E94DE02ABCF332009F476C00E94DE02BA
:10222000681979098A099B09643F71408105910504
:102230000CF456C06AE674E080E995E00E944D0710
:1022400083E00E94AF066AEA73E080E995E00E94AD
:102250004D0764EF71E080E090E00E94AC020E94C4
:102260009A04382E8111A0C082E00E94AF066BEB69
:1022700073E080E995E00E944D0783E00E94AF067D
:102280006BEB73E080E995E00E944D070E946D04BE
:102290008FE594E00E942607F20129E011922A9529
:1022A000E9F70E9406066CE474E080E995E00E947C
:1022B0004D0781E00E94AF066CE574E080E995E08F
:1022C0000E944D0782E00E94AF060E94DE024B0191
:1022D0005C010E94DE020E946D04D12CC12C312CC5
:1022E0008BE994E00E949303892B09F494CF8BE946
:1022F00094E00E942603F601E659FB4F8083C60155
:1023000001966C01322CECCF0E94DE024B015C0185
:102310000E94DE02E5CF2220D9F00E94DE02681979
:1023200079098A099B09643F7140810591050CF484
:1023300065C083E7C82E84E0D82EF60181916F0135
:10234000882369F06AE280E995E00E94C006F5CF33
:102350000E94DE024B015C010E94DE024FC083E05E
:102360000E94AF066AEA73E080E995E00E944D079B
:1023700064EF71E080E090E00E94AC020E949A0459
:10238000811150C082E00E94AF066BEB73E080E9E0
:1023900095E00E944D0783E00E94AF066BEB73E06F
:1023A00080E995E00E944D070E946D048FEC93E058
:1023B0000E942607F7012DE011922A95E9F70E9465
:1023C00006066CE474E080E995E00E944D0781E028
:1023D0000E94AF066CEC73E080E995E00E944D0727
:1023E00082E00E94AF060E94DE024B015C010E9467
:1023F000DE020E946D04D12CC12C212C8BE994E0CB
:102400000E949303892B09F486CF8BE994E00E9404
:102410002603F601ED58FB4F8083C60101966C013F
:10242000232CECCF88ED93E00E94260743E754E08D
:102430006AE674E080E894E00E94D30779CBEE244A
:10244000E39419CAF999FECF92BD81BDF89A9927F4
:1024500080B50895262FF999FECF1FBA92BD81BD90
:1024600020BD0FB6F894FA9AF99A0FBE0196089516
:10247000EE0FFF1F881F8BBF0790F691E02D199478
:102480000F931F93CF93DF938230910510F482E076
:1024900090E0E091AA05F091AB0530E020E0B0E0DB
:1024A000A0E0309799F42115310509F44AC0281BA2
:1024B000390B24303105D8F58A819B81611571056E
:1024C00089F1FB0193838283FE0111C04081518118
:1024D0000281138148175907E0F04817590799F40A
:1024E000109761F012960C93129713961C933296E4
:1024F000CF01DF91CF911F910F9108950093AA050D
:102500001093AB05F4CF2115310551F04217530755
:1025100038F0A901DB019A01BD01DF01F801C1CF4B
:10252000EF01F9CF9093AB058093AA05CDCFFE01C3
:10253000E20FF31F8193919322503109398328834D
:10254000D7CF2091A8053091A905232B41F42091E4
:102550000202309103023093A9052093A80520912F
:102560000002309101022115310541F42DB73EB72B
:102570004091040250910502241B350BE091A805FF
:10258000F091A905E217F307A0F42E1B3F0B2817C3
:10259000390778F0AC014E5F5F4F2417350748F0DC
:1025A0004E0F5F1F5093A9054093A8058193919307
:1025B0009FCFF0E0E0E09CCFCF93DF930097E9F06E
:1025C000FC01329713821282A091AA05B091AB054B
:1025D000ED0130E020E01097A1F420813181820FDD
:1025E000931F2091A8053091A9052817390709F0F4
:1025F00061C0F093A905E093A805DF91CF910895FC
:10260000EA01CE17DF07E8F54A815B819E0141159B
:102610005105B1F7E901FB83EA8349915991C40F50
:10262000D51FEC17FD0761F4808191810296840F1C
:10263000951FE90199838883828193819B838A8393
:10264000F0E0E0E012968D919C9113970097B9F518
:102650002D913C911197CD010296820F931F2091ED
:10266000A8053091A9052817390739F6309751F593
:102670001092AB051092AA05B093A905A093A805E6
:10268000BCCFD383C28340815181840F951FC8176B
:10269000D90761F44E5F5F4F88819981480F591FB8
:1026A000518340838A819B819383828321153105E5
:1026B00009F0B0CFF093AB05E093AA059ECFFD01E2
:1026C000DC01C0CF13821282D7CFFB01DC018D91D8
:1026D000019080190110D9F3990B0895FB01DC01D9
:1026E0004150504030F08D910190801919F4002034
:1026F000B9F7881B990B0895FB01DC01415050404C
:1027000048F001900D920020C9F701C01D92415080
:0A2710005040E0F70895F894FFCF61
:10271A000000AC0580003132333435363738392A77
:10272A003023312A2423213241424300334445468F
:10273A00003447484900354A4B4C00364D4E4F004D
:10274A0037505152533854555600395758595A0030
:10275A00000000CB03EA021703180493032603853B
:10276A000300000000C006EA026A0469040D0A00B8
:10277A00456C207573756172696F2079612065787F
:10278A0069737465002D2D2D4E7565766F207573EE
:10279A00756172696F2D2D2D002D2D2D2D2D2D2D4D
:1027AA002D2D2D2D2D2D2D2D2D2D2D2D00527562DA
:1027BA00656E20323032313131383335005365722B
:1027CA0067696F2032303231313138333500506524
:1027DA0064726F20323032313131383335004A6F0A
:1027EA0073652032303139303137353600536562FE
:1027FA00617320323032313131383335003132337E
:10280A00340061646D696E31005449504F2044456B
:10281A0020494E5055543A00232041504C494341D7
:10282A0043494F4E002A205445434C41444F0074BB
:10283A006578746F3A0063616E63656C61720074E7
:10284A006578746F004D656E75207072696E636984
:10285A0070616C0050726573696F6E6120616365A7
:10286A00707461720020204C6F67696E00202052DC
:10287A006567697374726172003E00204573706502
:10288A0072616E646F2020756E61200020202063C3
:10289A006F6E6578696F6E2E2E2E2020004E6F6D3A
:1028AA006272653A004C204F20472049204E002092
:1028BA002D204E4F4D4252453A00436F7272656366
:1028CA00746F3F202020202020200020202020205C
:1028DA00202020202020202020202000202D2043DE
:1028EA006F6E747261733A004E4144410020204178
:1028FA006363696F6E2041444D494E002020416355
:10290A0063696F6E2041444D494E32002020436571
:10291A007272617220736573696F6E002020416361
:10292A0063696F6E205573756172696F002020416B
:10293A006363696F6E205573756172696F32002027
:10294A002041706C69636163696F6E002020506179
:10295A006E656C00202053616C697200522045201C
:10296A00472049205320542052204F00202D204335
:08297A00656C756C61723A0096
:00000001FF
