:020000040000FA
:100000000C9477010C94A8010C94A8010C94A801FD
:100010000C94A8010C94A8010C94A8010C94A801BC
:100020000C94A8010C94A8010C94A8010C94A801AC
:100030000C94A8010C94A8010C94A8010C94A8019C
:100040000C94A8010C94A8010C94A8010C94A8018C
:100050000C94A8010C94A8010C94A8010C940A0E0D
:100060000C94A8010C94DE0E0C94B40E0C94A80110
:100070000C94A8010C94A8010C94A8010C94A8015C
:100080000C94A8010C94A8010C94A8010C94A8014C
:100090000C94A8010C94A8010C94A8010C94A8013C
:1000A0000C94A8010C94A8010C94A8010C94A8012C
:1000B0000C94A8010C94A8010C94A8010C94A8011C
:1000C0000C94A8010C94A8010C94A8010C94A8010C
:1000D0000C94A8010C94A8010C947E0E0C94540E60
:1000E0000C94A8010C9463080C94EA080C944A063A
:1000F0000C9423030C94FD010C9434020C94BA0369
:100100000C9413060C9401020C940A040C945F03E3
:100110000C942A020C9448060C9430020C94180299
:100120000C94D9080C9497110C94F9010C940402C6
:100130000C94BE150C94C8030C9450030C946608E0
:100140000C9426020C94EF010C943A110C94A50423
:100150000C94E8080C9457040C9414020C946C084A
:100160000C947B080C941A060C940E020C946E08E6
:100170000C94140F0C94B2070C946A080C94700839
:100180000C94F5010C9410060C9416060C94B811FE
:100190000C9468080C9446060C941C020C94B3084A
:1001A0000C945B130C9422020C9467150C940615A6
:1001B0000C94A4040C940A020C9472080C94EF1191
:1001C0000C9418060C94B9130C942F020000210013
:1001D000240027002A002D00300033000101000018
:1001E000040107010A0100002200250028002B005D
:1001F0002E003100340002010000050108010B014E
:10020000000020002300260029002C002F003200CF
:1002100000010000030106010901050505050705A8
:1002200008080808020202020A0A08080404040472
:10023000010101010101010103030303030303039E
:10024000040707070C0C0C0C0C0C0C0C020202022D
:1002500006060606060606060B0B0B0B0B0B0B0B16
:1002600001021020200808102040102040800201C8
:1002700002010804020101020408102040808040AD
:1002800020100804020180040201804020100804AC
:10029000020108040201010204081020408001024A
:1002A00004081020408000000A0B02090C0D0E0803
:1002B000070304010000000000000000000000002F
:1002C000000000000000000000000000000000002E
:1002D00000001211100000000000000000000000EB
:1002E000000000000000000000000000140F1124B6
:1002F0001FBECFEFD1E2DEBFCDBF00E00CBF28E0D4
:10030000A2E3B6E001C01D92A331B207E1F716E007
:10031000A0E0B2E0E2EFF1E300E00BBF02C0079023
:100320000D92A233B107D9F711E0C7E7D1E000E0A1
:1003300006C021970109802FFE010E94A417C6372D
:10034000D10780E00807A9F70E9430100C94F71835
:100350000C940000FC01A089B18982E08C93A485F3
:10036000B5851C92A685B7858FEC8C93108EA489D9
:10037000B58986E08C93A289B3898C9180618C9336
:10038000A289B3898C9188608C93A289B3898C915E
:1003900080688C930288F389E02D80818F7D808333
:1003A00008958150823108F05AC0E82FF0E0882784
:1003B000E352FE4F8F4F0C94A417FD010102EF0191
:1003C000F501F9012F0204020A020E0214021802BA
:1003D0001C02220226022F022A02300234028091DD
:1003E00080008F77809380000895809180008F7DBA
:1003F000F9CF80918000877FF5CF84B58F7784BD5A
:10040000089584B58F7DFBCF8091B0008F77809366
:10041000B00008958091B0008F7DF9CF8091900059
:100420008F77809390000895809190008F7DF9CF11
:1004300080919000877FF5CF8091A0008F77809387
:10044000A00008958091A0008F7DF9CF8091A00039
:10045000877FF5CF809120018F77809320010895C9
:10046000809120018F7DF9CF80912001877FF5CF8A
:10047000CF93DF93282F30E0F901EA55FD4F8491A7
:10048000F901E05AFD4FD491F901E65EFD4FC491A8
:10049000CC23A1F081110E94D101EC2FF0E0EE0FEE
:1004A000FF1FE050FE4FA591B491EC91ED2381E048
:1004B00090E009F480E0DF91CF91089580E090E032
:1004C000FACF1F93CF93DF93282F30E0F901EA553D
:1004D000FD4F8491F901E05AFD4FD491F901E65E98
:1004E000FD4FC491CC23A9F0162F81110E94D10198
:1004F000EC2FF0E0EE0FFF1FEA51FE4FA591B491F3
:100500008FB7F894EC91111108C0D095DE23DC93DD
:100510008FBFDF91CF911F910895DE2BF8CFCF933E
:10052000DF9390E0FC01E05AFD4F2491865E9D4FE1
:10053000FC0184918823D1F090E0880F991FFC0181
:10054000E453FE4FA591B491FC01EA51FE4FC591D1
:10055000D49161110EC09FB7F8948C91E22FE09571
:100560008E238C932881E223E8839FBFDF91CF9174
:1005700008958FB7F894EC91E22BEC938FBFF6CFF0
:100580003FB7F8948091540690915506A091560675
:10059000B091570626B5A89B05C02F3F19F00196CC
:1005A000A11DB11D3FBFBA2FA92F982F8827BC01CD
:1005B000CD01620F711D811D911D42E0660F771FF5
:1005C000881F991F4A95D1F708958F929F92AF92F5
:1005D000BF92CF92DF92EF92FF924B015C010E949B
:1005E000C0026B017C010E94C0026C197D098E095A
:1005F0009F09683E734081059105A8F321E0821AA6
:100600009108A108B10888EEC80E83E0D81EE11C4D
:10061000F11C81149104A104B10429F7FF90EF901B
:10062000DF90CF90BF90AF909F908F9008952FB79D
:10063000F894609150067091510680915206909105
:1006400053062FBF0895AF92BF92CF92DF92EF92E1
:10065000FF920F931F93CF93DF936C017B018B016C
:10066000040F151FEB015E01AE18BF08C017D107BC
:1006700059F06991D601ED91FC910190F081E02D46
:10068000C6011995892B79F7C501DF91CF911F918B
:100690000F91FF90EF90DF90CF90BF90AF900895B3
:1006A000FC01538D448D252F30E0842F90E0821B78
:1006B000930B541710F0CF96089501970895FC01FD
:1006C000918D828D981761F0A28DAE0FBF2FB11D55
:1006D0005D968C91928D9F5F9F73928F90E00895AD
:1006E0008FEF9FEF08958F929F92AF92BF92CF921C
:1006F000DF92EF92FF920F931F93CF93DF937C01D2
:100700006A018B01D0E0C0E00E941703F701608707
:10071000718782879387C7010E945F0397FF22C07A
:100720000E941703F70180849184A284B38468191E
:1007300079098A099B0984809580A680B78068150D
:1007400079058A059B0538F3CE01DF91CF911F9182
:100750000F91FF90EF90DF90CF90BF90AF909F9060
:100760008F900895F80181938F012196CC16DD06B4
:1007700059F6EACFFC01918D828D981731F0828D68
:10078000E80FF11D858D90E008958FEF9FEF08959C
:10079000FC01918D228D892F90E0805C9F4F821B00
:1007A00091098F739927089585E696E00E94C80302
:1007B00021E0892B09F420E0822F089582E097E060
:1007C0000E94C80321E0892B09F420E0822F0895BC
:1007D000FC01A48DA80FB92FB11DA35ABF4F2C91B6
:1007E000848D90E001968F739927848FA689B789AD
:1007F0002C93A089B1898C91837080648C93938DA4
:10080000848D981306C00288F389E02D80818F7D46
:1008100080830895EF92FF920F931F93CF93DF93FE
:10082000EC0181E0888F9B8D8C8D98131AC0E8892C
:10083000F989808185FF15C09FB7F894EE89FF89FB
:100840006083E889F98980818370806480839FBF99
:1008500081E090E0DF91CF911F910F91FF90EF9099
:100860000895F62E0B8D10E00F5F1F4F0F731127A9
:10087000E02E8C8D8E110CC00FB607FCFACFE889E4
:10088000F989808185FFF5CFCE010E94E803F1CF81
:10089000EB8DEC0FFD2FF11DE35AFF4FF0829FB758
:1008A000F8940B8FEA89FB8980818062CFCFCF9348
:1008B000DF93EC01888D8823B9F0AA89BB89E88988
:1008C000F9898C9185FD03C0808186FD0DC00FB62E
:1008D00007FCF7CF8C9185FFF2CF808185FFEDCFAC
:1008E000CE010E94E803E9CFDF91CF91089580E027
:1008F00090E0892B29F00E94DE0381110E94000004
:1009000080E090E0892B49F080E090E0892B29F08D
:100910000E94000081110E94000080E090E0892B7D
:1009200049F080E090E0892B29F00E9400008111BD
:100930000E94000080E090E0892B29F00E94D403FF
:1009400081110C9400000895089590E080E00895CE
:10095000CF92DF92EF92FF92CF93DF930E94170323
:10096000EB010E9417030E9417036B0182E097E0DE
:100970000E94C803892B29F082E097E00E945F0360
:10098000F5CFCC1ADD0A88EEC81683E0D8065CF3F2
:1009900082E097E00E94C803892B29F7DF91CF916D
:1009A000FF90EF90DF90CF90089582E00E94380290
:1009B000892B41F062ED70E080E090E00E94E5025A
:1009C00081E0089583E00E943802892B71F362ED83
:1009D00070E080E090E00E94E50280E00895FF92E0
:1009E0000F931F93CF93DF93C8E0D0E0FC2E61E01C
:1009F0008C2F0E94610204E010E0802F0E943802D8
:100A00000197B1F460E08F2D0E946102045011093A
:100A1000C801880F991F080F191FC00FD11FCA5E88
:100A2000DC4F8881DF91CF911F910F91FF90089546
:100A30000F5F1F4F0830110501F760E08F2D0E94F6
:100A400061022196CB30D10589F680E2EBCFCF92BF
:100A5000DF92EF92FF920F931F93CF93DF931F923A
:100A60001F92CDB7DEB769834A83880F991F009123
:100A7000F5071091F607000F111FEFE9F7E09F014E
:100A80002F5937402017310714F41192F8CF2981DC
:100A9000FC01E156F84F21838A81808360E08091D8
:100AA000F3070E9461021016110604F501501109A6
:100AB000F801E156F84FE080D090F107C090EF07C1
:100AC00088E0F82E6E2D661F6627661F8C2D0E940B
:100AD0006102EE0C61E08D2D0E94610260E08D2DBF
:100AE0000E946102FA94F110EDCFDDCF61E08091B8
:100AF000F3070F900F90DF91CF911F910F91FF900F
:100B0000EF90DF90CF900C946102EF92FF920F93E1
:100B10001F93CF937C018C0183E0000F111F8A95F6
:100B2000E1F70155184FC1E0F80111928F0140E043
:100B30006C2FC7010E942705CF5FC930A9F7CF915D
:100B40001F910F91FF90EF900895AF92BF92CF92B7
:100B5000DF92EF92FF920F931F93CF93DF93CFE932
:100B6000D7E080E0C82E82E0D82EB12C90E8E92EA4
:100B7000F12C10E000E0AA24A394AB0C8091F507BF
:100B80009091F60718161906E4F488E0B816C9F033
:100B900008301105B1F0C701002E02C09595879568
:100BA0000A94E2F72889F601E00FF11F3081332320
:100BB00001F1822B888B48896A2D90E080E00E94A9
:100BC00027050F5F1F4F09301105C1F6B394219619
:100BD00088E0C80ED11C89E0B812CBCFDF91CF914D
:100BE0001F910F91FF90EF90DF90CF90BF90AF904B
:100BF000089580958223DECF982F8930E0F4E82F86
:100C0000F0E08827E95FF94F8F4F0C94A4174A064C
:100C1000100613061A06160618061A064606480691
:100C200090E023E008C090E026E005C093E0F9CF13
:100C300093E0FACF20E0892F90E030E0AC014F5FE5
:100C40005F4FF9013196A3E0880F991FAA95E1F74C
:100C5000B3E0440F551FBA95E1F780509E4FDC0179
:100C6000A20FB31F61307105B9F461E06C9340507D
:100C70005E4F240F351FD9016C938E0F9F1FDC012F
:100C80006C93E40FF51F60830C94A50596E0C9CF23
:100C900096E0CACF292FCFCF1C9240505E4F240F31
:100CA000351FD9011C928E0F9F1FDC011C92E40F8F
:100CB000F51F1082E9CFCF93DF93EC0160E08E81C6
:100CC0000E94610261E08E810E94610260E08E817B
:100CD0000E9461028BE891E00197F1F7DF91CF91DB
:100CE0000895CF92DF92EF92FF920F931F93CF93CD
:100CF000DF936C017C0187E0E80EF11CD0E0C0E0DE
:100D0000062F10E0B8010C2E02C0759567950A9465
:100D1000E2F76170F70181917F010E9461022196E3
:100D2000C430D10579F7C601DF91CF911F910F91A2
:100D3000FF90EF90DF90CF900C945B06CF92DF9204
:100D4000EF92FF920F931F93CF93DF93EC01F62E58
:100D5000642F8C810E9461028D818F3F19F060E0C9
:100D60000E9461020F2D10E08F8584FF25C06E0167
:100D700087E0C80ED11CF12CE12CB8010E2C02C06A
:100D8000759567950A94E2F76170F60181916F019C
:100D90000E946102FFEFEF1AFF0A88E0E816F104F3
:100DA00061F7CE01DF91CF911F910F91FF90EF90EE
:100DB000DF90CF900C945B06B80184E07595679541
:100DC0008A95E1F7CE010E9471066F2DCE01DF9169
:100DD000CF911F910F91FF90EF90DF90CF900C94E7
:100DE000710640E0682F87EF97E00C949E0681E043
:100DF0000E94F1068BE39FE10197F1F70895CF93ED
:100E0000DF93813029F0909106089860909306084E
:100E100080930A0810920B0880E480930C0880E10C
:100E200080930D0880E580930E0861E08091FB07B8
:100E30000E948F028091FC078F3F19F061E00E94B1
:100E40008F0261E08091FD070E948F02C7EFD7E01B
:100E50009E01275F37408091060884FD0BC084E027
:100E600090E021962817390744F461E08E810E94B2
:100E70008F02EECF88E090E0F4CF8BE39DE0019706
:100E8000F1F760E08091FB070E94610260E08091D1
:100E9000FD070E9461028091FC078F3F19F060E01E
:100EA0000E9461028091060884FD34C063E087EFF0
:100EB00097E00E947106CBE4D6E4CE010197F1F7EA
:100EC00063E087EF97E00E9471062197F1F763E0F6
:100ED00087EF97E00E94710683E592E00197F1F7B2
:100EE00062E087EF97E00E947106809106088062B9
:100EF0000E94F10684E0809307088CE00E94F106CE
:100F00000E94F70682E08093080886E0DF91CF9187
:100F10000C94F10680620E94F1068BE496E401973E
:100F2000F1F78091060880620E94F10683E592E065
:100F30000197F1F78091060880620E94F106D5CFF3
:100F4000643008F063E090910A08691710F06FEFC1
:100F5000690FE62FF0E0E950F84F9489890F806817
:100F60000C94F10641E00E949E0681E090E0089515
:100F700041E0682F87EF97E00E949E0681E090E0B5
:100F80000895FF920F931F93CF93DF938C01EB0192
:100F9000F8800E946C17F81621F06F2DC8010E948E
:100FA0007417CE01DF91CF911F910F91FF9008959B
:100FB000CF92DF92EF92FF920F931F93CF93DF9325
:100FC000EB017B0123E2E20EF11C8B016C01C61ADE
:100FD000D70AC601800F911F0E946C17F8018193F8
:100FE0008F01EE15FF05A9F7CE01DF91CF911F917B
:100FF0000F91FF90EF90DF90CF900895FB0101904B
:101000000020E9F73197AF01461B570BDC01ED914A
:10101000FC910280F381E02D19940F931F93CF93DD
:10102000DF93EC010E94FE078C0165E773E0CE01BF
:101030000E94FE07800F911FDF91CF911F910F91AA
:101040000895DF92EF92FF920F931F93CF93DF9358
:101050007C0161E080E00E94A00700E0C0E085E044
:10106000D82E61E080E00E94A0070E94EF04182FB4
:1010700064E670E080E090E00E94E502EDEDE10FB3
:10108000E73108F038C00E2E000CFF0B8827E45B18
:10109000F74F8F4F0C94A417B3087B087B087B088D
:1010A0007B087B087B08D9087B087B087B087B08CA
:1010B0007B0872086308EA08E808660868086A0896
:1010C0006C086E087008D0E0C0E05CC0D3E0FCCFD4
:1010D000D4E0FACFD5E0F8CFD6E0F6CFD7E0F4CF22
:1010E000D8E0F2CFF701E00FF11D8081882309F4E9
:1010F000B8CF0F5FB6CF82E00E9438020197A9F403
:1011000063ED74E082E097E00E940D0864E670E011
:1011100080E090E00E94E50281E0DF91CF911F9195
:101120000F91FF90EF90DF90089583E00E943802C6
:10113000019709F096CF68E773E082E097E00E949C
:101140000D0880E0F701E80FF11D9081992319F057
:1011500010828F5FF7CF64E670E080E090E00E943D
:10116000E50280E0DACFC43009F4AECFDD9EF001B5
:101170001124E65DFC4FEC0FF11D8181CF5F8823C8
:1011800009F4A2CFDD9EF0011124E65DFC4FEC0FC7
:10119000F11D8081F701E00FF11D8083B70187EF1A
:1011A00097E00E940D08B70182E097E00E940D08C9
:1011B00058CFCC2311F0C150E5CFDD9EF0011124B2
:1011C000E65DFC4F8481C4E08111DCCFC3E0DACF5F
:1011D000D2E07ACFD1E078CF1F93CF93DF9300D0C6
:1011E000CDB7DEB7BC0182E097E00E940D0810E0A9
:1011F00082E097E00E94C803892B59F042E050E05A
:10120000BE016F5F7F4F82E097E00E94730311E0A1
:10121000EFCF112369F382E097E00E94C803892B86
:1012200039F70F900F900F90DF91CF911F91089594
:101230000E94F70660E080E00E94A00761E873E08A
:1012400087EF97E00E940D0861E080E00E94A00710
:1012500061E973E087EF97E00E940D0862E080E0AB
:101260000E94A00762EA73E087EF97E00E940D08F2
:1012700063E080E00E94A00762EB73E087EF97E0F5
:101280000E940D0864EF71E080E090E00E94E502AA
:101290000E94F70660E080E00E94A00761EC73E026
:1012A00087EF97E00E940D0864EF71E080E090E026
:1012B0000C94E5026115710511F00C94FE0790E0A5
:1012C00080E008957F928F929F92AF92BF92CF92CB
:1012D000DF92EF92FF920F931F93CF93DF9300D093
:1012E000CDB7DEB78C016B010E94A8040E94F706FF
:1012F00061ED73E087EF97E00E945A0961E080E0BA
:101300000E94A00762EE73E087EF97E00E945A09FF
:1013100082E097E00E94C803892BD1F342E050E0BD
:10132000BE016F5F7F4F82E097E00E9473030E94CF
:1013300017034B015C010E9417030E94A804C60119
:101340000E94EC080E94F70660E080E00E94A0077F
:10135000B60187EF97E00E940D08F12CE12C712C6B
:1013600082E097E00E94C803892B71F082E097E049
:101370000E945F03F801EE0DFF1D8083C7010196F7
:101380007C0177247394ECCF772091F10E941703AE
:10139000681979098A099B09643F714081059105A3
:1013A000FCF261E080E00E94A007B80187EF97E0BF
:1013B0000E940D0862E080E00E94A00763EF73E0E6
:1013C00087EF97E00E945A0964EF71E080E090E0B7
:1013D0000E94E5020E94D504811111C0F801E80FB6
:1013E000F11D9081992309F4A2CF10828F5FF6CF6F
:1013F0000E9417034B015C010E941703B1CF81E0EB
:101400000F900F900F90DF91CF911F910F91FF9050
:10141000EF90DF90CF90BF90AF909F908F907F9094
:101420000895FF920F931F93CF93DF938C01FC01DC
:1014300001900020E9F73197FE2EF81A8DE090E038
:101440000E94AC17EC014CE050E0B8010E94E81893
:10145000BE01DE012C2F98E78A2F8C1B8F1568F0B8
:1014600099E7862F821B8F1580F4FB018191BF01C4
:10147000DF01119789278C93F4CF8D91AD014150F5
:1014800051098927FA018083E7CFCE01DF91CF91FF
:101490001F910F91FF900895CF92DF92EF92FF92EC
:1014A0000F931F93CF93DF93CDB7DEB7A3970FB6FC
:1014B000F894DEBF0FBECDBF8C0188E596E00E9498
:1014C000110A6C01C8010E94110A7C010FEC10E0A6
:1014D000BE016F5F7F4FC8010E94D807B601CE01E1
:1014E00001960E94D118892BE9F4B701CE010E961E
:1014F0000E94D118892BB1F4C6010E944818C70177
:101500000E94481881E0A3960FB6F894DEBF0FBE84
:10151000CDBFDF91CF911F910F91FF90EF90DF90A2
:10152000CF9008950D5D1F4F053D89E0180781F6A6
:10153000C6010E944818C7010E94481880E0E3CF06
:101540003F924F925F926F927F928F929F92AF9253
:10155000BF92CF92DF92EF92FF920F931F93CF93A0
:10156000DF93CDB7DEB7E1970FB6F894DEBF0FBEBD
:10157000CDBF0E94F70660E080E00E94A00763E014
:1015800074E087EF97E00E940D0861E080E00E9420
:10159000A00762E174E087EF97E00E940D0862E027
:1015A00080E00E94A0076FE174E087EF97E00E945F
:1015B0000D080E94EF04182F64E670E080E090E0D0
:1015C0000E94E5021A3209F047C081E090E0909352
:1015D0003306809332060E94F7068E010E5D1F4F80
:1015E00080E1F80111928A95E9F70E94F70660E020
:1015F00080E00E94A0078091320690913306019707
:1016000099F56FE274E087EF97E00E940D08C8013A
:101610000E9421082091320630913306232B29F4B1
:101620006FE374E0C8010E9462098823F1F2B801F7
:1016300082E097E00E940D080E94F706C8010E9410
:101640004C0A811136C0F801E80FF11D90819923F1
:1016500069F010828F5FF7CF133209F0AACF109292
:10166000330610923206B7CF80E0D4CF0E94F7063F
:1016700060E080E00E94A0078091320690913306DE
:10168000019709F07BC069E274E087EF97E00E9460
:101690000D08C8010E9421082091320630913306BE
:1016A000232B29F469E374E0C8010E9462098823AE
:1016B000E9F2C8010E944C0A382E811146C01092EE
:1016C0004E0610924D069AE0C92ED12CE12CF12C39
:1016D0002AE0422E512C612C712C0E94F70660E00A
:1016E00080E00E94A00719A2460157018E010F5DFC
:1016F0001F4FC501B401A30192010E948217605DD2
:10170000F80162938F01FAE08F169104A104B104ED
:10171000B9F10115110529F0B80187EF97E00E9492
:10172000FE0765E773E087EF97E00E94FE0768EE2B
:1017300073E080E090E00E94E50281E0C81AD108E1
:10174000E108F10851F60E941809832DE1960FB6C1
:10175000F894DEBF0FBECDBFDF91CF911F910F91E7
:10176000FF90EF90DF90CF90BF90AF909F908F90C1
:101770007F906F905F904F903F90089580E08CCF66
:10178000812C912C54018394B4CFCF92DF92EF92AD
:10179000FF920F931F93CF93DF9300D000D000D020
:1017A000CDB7DEB789E0E5E1F3E0DE011196019007
:1017B0000D928A95E1F790E4E92E92E0F92E10E07F
:1017C00000E0D12CD7018C91811113C04CE050E086
:1017D000B7016F5F7F4F88E596E00E94DA18892B8A
:1017E00041F4E1E0F0E0EC0FFD1FE00FF11F00839A
:1017F000D3940F5F1F4FB7E1EB0EF11C09301105B9
:1018000009F7DD2009F49DC00E94F706FE0131961C
:101810007F0110E000E0033011F0063029F41F5F73
:10182000612F80E00E94A007D7018D917D018F3F3D
:1018300049F0805D0E94B80765E773E087EF97E0A5
:101840000E94FE070F5F093031F71F5F612F80E0B4
:101850000E94A00768E474E087EF97E00E945A09AD
:10186000612F87E00E94A0076EE275E087EF97E0A6
:101870000E945A09612F87E00E94A0070E94EF048E
:10188000082F64E670E080E090E00E94E5020032FC
:1018900039F30A3229F3033219F3802F0E94B80773
:1018A00080EDF82EF00E68EC70E080E090E00E9491
:1018B000E502CF2CD12CE1E0F0E0EC0FFD1FEC0DA8
:1018C000FD1D80818F3F61F2BFEFFB1649F20E9440
:1018D000A00A8823B1F187E18C9DF0018D9DF00D68
:1018E0001124E05CFD4FDF011D928A95E9F781E04C
:1018F000808370E060E08F2D0E94FC050E94F70657
:1019000060E080E00E94A00761E574E087EF97E067
:101910000E945A09802F0E94B8076AEF70E080E0A9
:1019200090E029960FB6F894DEBF0FBECDBFDF91D1
:10193000CF911F910F91FF90EF90DF90CF900C947B
:10194000E50229960FB6F894DEBF0FBECDBFDF913A
:10195000CF911F910F91FF90EF90DF90CF9008955E
:10196000EF92FF920F931F93CF93DF93CDB7DEB724
:10197000A3970FB6F894DEBF0FBECDBF0E94110A29
:101980007C010FEC10E0BE016F5F7F4FC8010E9429
:10199000D807B701CE0101960E94D118892B89F48E
:1019A000C7010E94481881E0A3960FB6F894DEBFE5
:1019B0000FBECDBFDF91CF911F910F91FF90EF90A0
:1019C00008950D5D1F4F053D89E01807E1F6C70139
:1019D0000E94481880E0E8CF3F924F925F926F924A
:1019E0007F928F929F92AF92BF92CF92DF92EF92AF
:1019F000FF920F931F93CF93DF93CDB7DEB7CA56F5
:101A0000D1090FB6F894DEBF0FBECDBF8C017B01AC
:101A10002A010E94B00C882301F16AE574E082E09B
:101A200097E00E940D0880E0C659DF4F0FB6F8948A
:101A3000DEBF0FBECDBFDF91CF911F910F91FF9001
:101A4000EF90DF90CF90BF90AF909F908F907F905E
:101A50006F905F904F903F900895C8010E94110AC7
:101A60005C01C7010E94110A6C010FEC10E0BE017D
:101A70006C5D7F4FC8010E94D807C8010E946C1797
:101A8000380193E2690E711C882309F470C0830148
:101A9000E5ED6E16E9E07E0651F74DE050E0B50148
:101AA000CE01895B9F4F0E94E8184DE050E0B601DF
:101AB00087E490E08C0F9D1F0D960E94E81849E086
:101AC00050E0B20187E490E08C0F9D1F4A960E947F
:101AD000E8188E01095B1F4FF12CE12CF8013190C1
:101AE0008F0143018E0C9F1CC4010E946C17381695
:101AF00021F0632DC4010E947417FFEFEF1AFF0A53
:101B000083E2E816F10451F793E2690E711C8E012D
:101B10000F5F1F4FB801C3010E94D807F801019061
:101B20000020E9F73197EE2EE01A8DE090E00E9458
:101B3000AC17F82E992E4CE050E0B8010E94E8183E
:101B40006F2D792DAF2DB92D4F2D99E78A2F8F1934
:101B50008E1578F098E7862F841B8E1590F4FB0184
:101B60008191BF01DF01119789278C93F4CF380150
:101B700094CF8D919D01215031098927F9018083EE
:101B8000E5CF8F2D992D0E94B00C882329F0F0EC21
:101B90006F16F9E07F0648F4AB961FAEAB97BE0117
:101BA00066597F4FC3010E94C1076FE674E082E06F
:101BB00097E00E940D08B50182E097E00E945A0963
:101BC0006EE275E082E097E00E945A09B60182E079
:101BD00097E00E945A096EE275E082E097E00E9469
:101BE0005A09B20182E097E00E945A0967E773E060
:101BF00082E097E00E940D0863E874E082E097E0DD
:101C00000E940D08C5010E944818C6010E9448188C
:101C100081E00ACF1F920F920FB60F9211242F93DB
:101C20003F938F939F93AF93BF9380915006909172
:101C30005106A0915206B091530630914F0623E011
:101C4000230F2D3758F50196A11DB11D20934F0686
:101C50008093500690935106A0935206B09353067A
:101C60008091540690915506A0915606B091570662
:101C70000196A11DB11D8093540690935506A09323
:101C80005606B0935706BF91AF919F918F913F91A8
:101C90002F910F900FBE0F901F90189526E8230FDD
:101CA0000296A11DB11DD2CF1F920F920FB60F92B7
:101CB00011240BB60F922F933F934F935F936F9323
:101CC0007F938F939F93AF93BF93EF93FF9385E69B
:101CD00096E00E94E803FF91EF91BF91AF919F9131
:101CE0008F917F916F915F914F913F912F910F90C5
:101CF0000BBE0F900FBE0F901F9018951F920F9262
:101D00000FB60F9211240BB60F922F938F939F93C0
:101D1000EF93FF93E0917506F09176068081E09154
:101D20007B06F0917C0682FD1DC0908180917E062D
:101D30008F5F8F7320917F06821741F0E0917E06BE
:101D4000F0E0EB59F94F958F80937E06FF91EF916C
:101D50009F918F912F910F900BBE0F900FBE0F9000
:101D60001F9018958081F2CF1F920F920FB60F929D
:101D700011240BB60F922F933F934F935F936F9362
:101D80007F938F939F93AF93BF93EF93FF9382E0E3
:101D900097E00E94E803FF91EF91BF91AF919F916F
:101DA0008F917F916F915F914F913F912F910F9004
:101DB0000BBE0F900FBE0F901F9018951F920F92A1
:101DC0000FB60F9211240BB60F922F938F939F9300
:101DD000EF93FF93E0911207F09113078081E09158
:101DE0001807F091190782FD1DC0908180911B0793
:101DF0008F5F8F7320911C07821741F0E0911B07C2
:101E0000F0E0EE5FF84F958F80931B07FF91EF9105
:101E10009F918F912F910F900BBE0F900FBE0F903F
:101E20001F9018958081F2CFCF93DF9310926806B0
:101E30001092670648EE53E060E070E04093690658
:101E400050936A0660936B0670936C068BE593E083
:101E5000909366068093650625E331E03093720621
:101E60002093710624E331E03093740620937306C7
:101E700020E331E0309376062093750621E331E0CC
:101E8000309378062093770622E331E030937A0688
:101E90002093790626E331E030937C0620937B067D
:101EA00010927E0610927F06109280061092810694
:101EB00010920507109204074093060750930707F6
:101EC00060930807709309079093030780930207B4
:101ED00085EC90E090930F0780930E0784EC90E0E0
:101EE000909311078093100780EC90E09093130774
:101EF0008093120781EC90E090931507809314076C
:101F000082EC90E0909317078093160786EC90E0A0
:101F1000909319078093180710921B0710921C07C3
:101F200010921D0710921E071092FA071092F907DF
:101F30008DE693E09093F8078093F70786E180930E
:101F4000FB078FEF8093FC0787E18093FD0788E113
:101F50008093FE0789E18093FF078AE18093000860
:101F60008BE18093010810920208109203081092EE
:101F70000408109205081092060881E00E94FF06EE
:101F8000CCE1D0E0D093F007C093EF078EE190E072
:101F90009093F2078093F1078DE190E09093F4071E
:101FA0008093F30781E090E09093F6078093F50724
:101FB00061E08CE10E948F0261E08091F1070E9454
:101FC0008F0261E08091F3070E948F0261E08091AF
:101FD000F3070E946102D093F007C093EF07EFEA86
:101FE000F7E0119287E0EF3EF807D9F7D0E0C0E0C4
:101FF0008091F5079091F607C817D90774F540E06E
:102000006FE0CE010E9427058091F5079091F607B9
:10201000C817D9072CF447E06BE0CE010E942705D2
:1020200040E069E0CE010E9427058091F50790917C
:10203000F607C817D9071CF4CE010E9485058091C8
:10204000F5079091F607C817D9072CF440E06CE02B
:10205000CE010E9427052196CBCFDF91CF91089525
:10206000CF93DF93CDB7DEB7A5970FB6F894DEBF59
:102070000FBECDBF789484B5826084BD84B5816085
:1020800084BD85B5826085BD85B5816085BD809143
:102090006E00816080936E001092810080918100BB
:1020A00082608093810080918100816080938100B3
:1020B000809180008160809380008091B100846075
:1020C0008093B1008091B00081608093B0008091D6
:1020D0009100826080939100809191008160809353
:1020E0009100809190008160809390008091A10088
:1020F00082608093A1008091A10081608093A10003
:102100008091A00081608093A00080912101826075
:102110008093210180912101816080932101809130
:10212000200181608093200180917A0084608093F7
:102130007A0080917A00826080937A0080917A00A0
:10214000816080937A0080917A00806880937A0021
:102150001092C10082E097E00E94AA0185E696E015
:102160000E94AA018091F5079091F60718161906AA
:1021700034F441E06CE090E080E00E94270580911B
:10218000F5079091F6071816190634F448E06AE04E
:1021900090E080E00E9427058091F5079091F60776
:1021A0001816190624F490E080E00E94850584E06A
:1021B0000E94FF0612E060E0812F0E948F021F5FE5
:1021C0001830C9F761E088E00E948F0261E089E081
:1021D0000E948F0261E08AE00E948F020E9418092B
:1021E0000E94A50587E994E00E94B00C81113BC0D4
:1021F0006EE974E082E097E00E940D081982BE014A
:102200006F5F7F4F8FEC90E00E94C1074CEA54E073
:10221000BA0187E994E00E94EC0C48E5642E46E0A0
:10222000742E5DE3E52E56E0F52E64E3462E66E05F
:10223000562E73E0872E912CE0914D06F0914E06BC
:10224000E930F10508F073C08827E65DFE4E8F4F38
:102250000C94A4173A1167150615B811EF119711D0
:10226000BE15B9135B1361EB74E082E097E00E9446
:102270000D08D3CF0E94F70660E080E00E94A0071F
:102280006BEB74E087EF97E00E945A0961E080E011
:102290000E94A0076AEC74E087EF97E00E945A0959
:1022A00062E080E00E94A0076BED74E087EF97E0AA
:1022B0000E945A0963E080E00E94A00763EE74E088
:1022C00087EF97E00E945A0960914C066E5F80E0AC
:1022D0000E94A0076FEE74E087EF97E00E945A0912
:1022E0000E94EF04823381F462ED70E080E090E0C0
:1022F0000E94E50280914C06815080934C068F3FEE
:10230000B1F410924C0613C08833A1F462ED70E072
:1023100080E090E00E94E50280914C068F5F823061
:1023200018F480934C0603C021E020934C060E94D1
:10233000770482CF82E00E9438028C01019781F6F7
:1023400062ED70E080E090E00E94E50280914C0632
:10235000882339F08130A9F610934E0600934D067C
:10236000D0CF82E090E090934E0680934D06C9CF87
:102370000E94A8040E94F70661ED73E087EF97E0E2
:102380000E945A0961E080E00E94A00762EE73E0BB
:1023900087EF97E00E945A0910E082E097E00E94E0
:1023A000C803892B59F042E050E0BE016F5F7F4FB8
:1023B00082E097E00E94730311E0EFCF112369F3ED
:1023C00082E097E00E94C803892B39F780914A0682
:1023D00090914B0690934E0680934D06A8CF8BE0CC
:1023E000F301282F11922A95E9F7F70111928A95A6
:1023F000E9F789E0F20111928A95E9F73BE0232E93
:102400000E94A80481EF94E00E94EC08F301222DC1
:1024100011922A95E9F70E94F70669EF74E087EFB9
:1024200097E00E945A0961E080E00E94A00763E003
:1024300075E087EF97E00E945A0962E080E00E9411
:10244000A0070E9417035B016C010E9417030E9402
:10245000A80410E000E0312C82E097E00E94C8035D
:10246000892B69F082E097E00E945F03F801E85A47
:10247000F94F80830F5F1F4F33243394EDCF332008
:10248000D9F10E9417036A197B098C099D09643FE1
:1024900071408105910504F368E576E087EF97E0E8
:1024A0000E945A0963E080E00E94A0076EE075E098
:1024B00087EF97E00E945A0964EF71E080E090E0B6
:1024C0000E94E5020E94D504382E811165C062E0A9
:1024D00080E00E94A0076FE175E087EF97E00E941F
:1024E0005A0963E080E00E94A0076FE175E087EF82
:1024F00097E00E945A0984CF0E9417035B016C0188
:102500000E941703A9CF2220C9F00E9417036A195D
:102510007B098C099D09643F7140810591050CF48C
:1025200067C00DE316E0F80181918F01882369F0FF
:102530006AE287EF97E00E94B207F5CF0E94170387
:102540005B016C010E94170353C063E080E00E94AE
:10255000A0076EE075E087EF97E00E945A0964EFEC
:1025600071E080E090E00E94E5020E94D5048111B4
:1025700052C062E00E94A0076FE175E087EF97E02C
:102580000E945A0963E080E00E94A0076FE175E0B5
:1025900087EF97E00E945A090E94A80483E395E020
:1025A0000E94EC08F7012BE011922A95E9F70E94AE
:1025B000F70669EF74E087EF97E00E945A0961E03F
:1025C00080E00E94A00760E375E087EF97E00E943B
:1025D0005A0962E080E00E94A0070E9417035B0195
:1025E0006C010E9417030E94A80410E000E0212C57
:1025F00082E097E00E94C803892B09F484CF82E02F
:1026000097E00E945F03F801E35CF94F80830F5F5E
:102610001F4F232CEDCF8CE395E00E94EC088DE357
:1026200096E00E944C0A182F0E94F70667E974E0B2
:1026300088E596E00E94D118892B09F56CEA74E0D0
:102640008DE396E00E94D118892BC9F46AE475E005
:1026500087EF97E00E945A0962E370E080E090E023
:102660000E94E50288E090E090934E0680934D062C
:1026700060ED77E080E090E00E94E50258CE112303
:1026800019F087E090E0F0CF68E576E087EF97E01B
:102690000E945A096DE376E087EF97E00E945A099D
:1026A00062E370E080E090E00E94E50210924E0646
:1026B00010924D06DDCF0E94F70660E080E00E9498
:1026C000A0076AEC74E087EF97E00E945A0961E086
:1026D00080E00E94A00761E475E087EF97E00E9428
:1026E0005A0962E080E00E94A00760E575E087EF8C
:1026F00097E00E945A0963E080E00E94A00760E62C
:1027000075E087EF97E00E945A0960914C066F5F71
:1027100080E00E94A0076FEE74E087EF97E00E94D0
:102720005A090E94EF04823309F4DECD883381F424
:1027300062ED70E080E090E00E94E50280914C063E
:102740008F5F80934C06833008F4F1CD82E0E9CDB1
:1027500082E00E943802019721F762ED70E080E08C
:1027600090E00E94E50280914C06823009F43FC15E
:10277000C8CD0E94F70660E080E00E94A00760E7F5
:1027800075E087EF97E00E945A0961E080E00E94BF
:10279000A0076DE775E087EF97E00E945A0962E0B5
:1027A00080E00E94A00761E675E087EF97E00E9455
:1027B0005A0963E080E00E94A00769E875E087EFAE
:1027C00097E00E945A0960914C0680E00E94A007A1
:1027D0006FEE74E087EF97E00E945A090E94EF04C1
:1027E000823309F481CD883371F462ED70E080E0CA
:1027F00090E00E94E50280914C068F5F843008F4DF
:1028000090CD83E08ECD82E00E943802019731F7AF
:1028100062ED70E080E090E00E94E50280914C065D
:10282000813009F4ACC0A8F0823009F4E0C08330F4
:1028300009F067CD88E596E00E94B00C00E412E054
:10284000811176C062EB75E082E097E00E940D088E
:1028500058CD20E4C22E22E0D22E10E000E00E94EB
:10286000F70660E080E00E94A0076AE975E087EF64
:1028700097E00E940D0861E080E00E94A0076BEAEB
:1028800075E087EF97E00E945A09B02E90E3A92ED9
:10289000A00E8A2D0E94B807F60180818823F1F1ED
:1028A00082E4D82EDCA2ADA2BE016C5D7F4F85E62E
:1028B00096E00E945A0941E050E0BE016F5F7F4FF1
:1028C00085E696E00E9473038981813359F30E9463
:1028D000A00A882309F415CD87E1809F6001819FBC
:1028E000D00C1124F601E05CFD4F10824CE050E06A
:1028F00068E576E0C6018F5B9D4F0E94E81848E0CE
:1029000050E067E773E0C601825B9D4F0E94E818C4
:1029100061E070E08B2D0E94FC05F3CC0F5F1F4F30
:10292000F7E1CF0ED11C0930110509F098CFE9CCA1
:10293000F8018081811126C04CE050E0B8016F5F42
:102940007F4F88E596E00E94DA18892BD9F40E941F
:10295000F70660E080E00E94A00767EC75E087EF73
:1029600097E00E940D0866ED75E087EF97E00E9402
:102970000D0860E971E080E090E00E94E5020E94AD
:10298000C50BBFCC095E1F4FF3E00F301F0781F668
:1029900088E596E00E94110A5C010FEC10E0BE0190
:1029A0006F5F7F4FC8010E94D807B501CE01019625
:1029B0000E94D118892B01F5D12CC12C1CA2BE017B
:1029C0006C5D7F4FC601800F911F0E94C1072FEFE2
:1029D000C21AD20A82E2C816D10481F768EE75E005
:1029E00082E097E00E940D08C5010E9448181092ED
:1029F0004E0610924D0685CC0D5D1F4F053D99E0AA
:102A0000190769F6C5010E9448187BCC0E94F70699
:102A100060E080E00E94A0076AEC74E087EF97E036
:102A20000E945A0961E080E00E94A00768EF75E00B
:102A300087EF97E00E945A0962E080E00E94A007B9
:102A400065E076E087EF97E00E945A0963E080E056
:102A50000E94A0076DE076E087EF97E00E945A0998
:102A600060914C066F5F80E00E94A0076FEE74E0FB
:102A700087EF97E00E945A090E94EF04823309F41D
:102A800033CC883309F454CE82E00E943802019797
:102A900099F762ED70E080E090E00E94E50280919D
:102AA0004C06813069F008F060CE90924E0680921C
:102AB0004D0684E090E090934B0680934A0621CC2B
:102AC000E9E0F0E0F0934E06E0934D061ACC0E9448
:102AD000F70660E080E00E94A0076AEC74E087EFF0
:102AE00097E00E945A0961E080E00E94A00768EF29
:102AF00075E087EF97E00E945A0962E080E00E944B
:102B0000A00765E076E087EF97E00E945A0963E04E
:102B100080E00E94A0076DE076E087EF97E00E94DA
:102B20005A0960914C066F5F80E00E94A0076FEE2B
:102B300074E087EF97E00E945A090E94EF04823305
:102B400009F4D2CB883309F4F3CD82E00E94380235
:102B5000019799F762ED70E080E090E00E94E50255
:102B600080914C06813009F4ABCF08F0FECD9092F5
:102B70004E0680924D0686E090E09DCF8DE0F301F9
:102B8000282F11922A95E9F7F70111928A95E9F712
:102B900089E0F20111928A95E9F70E94A80481EF79
:102BA00094E00E94EC08F3012DE011922A95E9F7D8
:102BB0000E94F70665E176E087EF97E00E945A09E8
:102BC00061E080E00E94A00763E075E087EF97E096
:102BD0000E945A0962E080E00E94A0070E94170349
:102BE0005B016C010E9417030E94A80410E000E042
:102BF000312C82E097E00E94C803892B69F082E0C3
:102C000097E00E945F03F801E85AF94F80830F5F55
:102C10001F4F33243394EDCF3320D9F10E94170393
:102C20006A197B098C099D09643F714081059105F2
:102C300004F368E576E087EF97E00E945A0963E0C5
:102C400080E00E94A0076EE075E087EF97E00E94A9
:102C50005A0964EF71E080E090E00E94E5020E9472
:102C6000D504282E81115AC062E080E00E94A0079E
:102C70006FE175E087EF97E00E945A0963E080E01A
:102C80000E94A0076FE175E087EF97E00E945A0964
:102C900084CF0E9417035B016C010E941703A9CF28
:102CA000332009F47AC00E9417036A197B098C0942
:102CB0009D09643F7140810591050CF45BC064E39C
:102CC00076E087EF97E00E945A0963E080E00E9477
:102CD000A0076EE075E087EF97E00E945A0964EF65
:102CE00071E080E090E00E94E5020E94D504382E59
:102CF0008111A3C062E080E00E94A0076FE175E04F
:102D000087EF97E00E945A0963E080E00E94A007E5
:102D10006FE175E087EF97E00E945A090E94A804CE
:102D200088E296E00E94EC08F20129E011922A95CF
:102D3000E9F70E94F70665E176E087EF97E00E94E9
:102D40005A0961E080E00E94A00765E276E087EF23
:102D500097E00E945A0962E080E00E94A0070E946A
:102D600017035B016C010E9417030E94A80410E086
:102D700000E0312C82E097E00E94C803892B09F41F
:102D80008FCF82E097E00E945F03F801EC5CF94F7F
:102D900080830F5F1F4F322CEDCF0E9417035B0122
:102DA0006C010E941703E6CF2220C9F00E9417038E
:102DB0006A197B098C099D09643F71408105910561
:102DC0000CF467C00DE316E0F80181918F018823B0
:102DD00069F06AE287EF97E00E94B207F5CF0E94A0
:102DE00017035B016C010E94170353C063E080E08E
:102DF0000E94A0076EE075E087EF97E00E945A09F5
:102E000064EF71E080E090E00E94E5020E94D5044A
:102E1000811152C062E00E94A0076FE175E087EF68
:102E200097E00E945A0963E080E00E94A0076FE1EA
:102E300075E087EF97E00E945A090E94A80483E397
:102E400095E00E94EC08F7012DE011922A95E9F730
:102E50000E94F70665E176E087EF97E00E945A0945
:102E600061E080E00E94A00760E375E087EF97E0F3
:102E70000E945A0962E080E00E94A0070E941703A6
:102E80005B016C010E9417030E94A80410E000E09F
:102E9000212C82E097E00E94C803892B09F484CF9B
:102EA00082E097E00E945F03F801E35CF94F8083C2
:102EB0000F5F1F4F232CEDCF44E356E06DE376E028
:102EC00088E596E00E94EC0C882309F430CA109241
:102ED0004E0610924D062BCAF999FECF92BD81BDC8
:102EE000F89A992780B50895262FF999FECF1FBA31
:102EF00092BD81BD20BD0FB6F894FA9AF99A0FBE23
:102F000001960895A1E21A2EAA1BBB1BFD010DC05C
:102F1000AA1FBB1FEE1FFF1FA217B307E407F50789
:102F200020F0A21BB30BE40BF50B661F771F881F65
:102F3000991F1A9469F760957095809590959B01FB
:102F4000AC01BD01CF010895EE0FFF1F881F8BBF9D
:102F50000790F691E02D19940F931F93CF93DF9371
:102F60008230910510F482E090E0E0911108F09138
:102F7000120830E020E0B0E0A0E0309799F421158D
:102F8000310509F44AC0281B390B24303105D8F526
:102F90008A819B816115710589F1FB01938382838D
:102FA000FE0111C0408151810281138148175907E8
:102FB000E0F04817590799F4109761F012960C93B6
:102FC000129713961C933296CF01DF91CF911F91E8
:102FD0000F9108950093110810931208F4CF211552
:102FE000310551F04217530738F0A901DB019A016E
:102FF000BD01DF01F801C1CFEF01F9CF90931208B5
:1030000080931108CDCFFE01E20FF31F81939193BE
:103010002250310939832883D7CF20910F0830916E
:103020001008232B41F420911103309112033093A7
:10303000100820930F0820910F03309110032115E1
:10304000310541F42DB73EB740911303509114035D
:10305000241B350BE0910F08F0911008E217F307DD
:10306000A0F42E1B3F0B2817390778F0AC014E5FF8
:103070005F4F2417350748F04E0F5F1F509310081D
:1030800040930F08819391939FCFF0E0E0E09CCFB5
:10309000CF93DF930097E9F0FC01329713821282FD
:1030A000A0911108B0911208ED0130E020E01097D6
:1030B000A1F420813181820F931F20910F0830915C
:1030C00010082817390709F061C0F0931008E09341
:1030D0000F08DF91CF910895EA01CE17DF07E8F5D9
:1030E0004A815B819E0141155105B1F7E901FB83DE
:1030F000EA8349915991C40FD51FEC17FD0761F47C
:10310000808191810296840F951FE90199838883BC
:10311000828193819B838A83F0E0E0E012968D9117
:103120009C9113970097B9F52D913C911197CD0182
:103130000296820F931F20910F08309110082817D4
:10314000390739F6309751F510921208109211088C
:10315000B0931008A0930F08BCCFD383C2834081E3
:103160005181840F951FC817D90761F44E5F5F4FD7
:1031700088819981480F591F518340838A819B819F
:10318000938382832115310509F0B0CFF0931208A3
:10319000E09311089ECFFD01DC01C0CF13821282A3
:1031A000D7CFFB01DC018D91019080190110D9F37B
:1031B000990B0895FB01DC014150504030F08D9196
:1031C0000190801919F40020B9F7881B990B089514
:1031D000FB01DC014150504048F001900D9200206D
:1031E000C9F701C01D9241505040E0F70895F8948E
:1031F000FFCF0000010000010000000001000001FD
:1032000000000101010101010101000001000001B4
:1032100000000000010000010000010101010101A6
:103220000101000001000001000000000100000198
:10323000000001000000000000000000000000008D
:10324000000000000000000000010000000000007D
:10325000000000000000000000000000000000006E
:10326000010000000000000000000000000000005D
:10327000000000000000000100000000000000004D
:10328000000000000000000000000000000001003D
:10329000000000000000000000000000000000002E
:1032A000000000000001000000000000000000001D
:1032B000000000000000000000000000010000000D
:1032C00000000000000000000000000000000000FE
:1032D00000000001000000000000000000000000ED
:1032E00000000000000000000000010000000000DD
:1032F00000000000000000000000000000000000CE
:1033000000000013088000FFFFFFFFFFFFFFFFFF2B
:103310003132333435363738392A3023312A2423B1
:103320002132414243303344454600344748490046
:10333000354A4B4C00364D4E4F00375051525338A2
:1033400054555600395758595A000000000A0423B2
:103350000350035704C8035F03BA0300000000B220
:10336000072303A504A4040D0A0063616E63656C62
:10337000617200527562656E2032303231313138FF
:1033800033350053657267696F2032303231313125
:1033900038333500506564726F203230323131314C
:1033A000383335004A6F7365203230313930313768
:1033B0003536005365626173203230323131313835
:1033C000333500204573706572616E646F2020751F
:1033D0006E612000202020636F6E6578696F6E2E0D
:1033E0002E2E202000416365707461723F202020E2
:1033F00020202020005449504F20444520494E5061
:1034000055543A00232041504C49434143494F4EC3
:10341000002A205445434C41444F006572726F723C
:103420002070617373776F72643A006572726F72A5
:103430002070617373776F7264004F7063696F6E91
:103440003A200053616361646F202300456C20754E
:1034500073756172696F207961206578697374652D
:10346000002D2D2D4E7565766F207573756172690F
:103470006F2D2D2D002D2D2D2D2D2D2D2D2D2D2D67
:103480002D2D2D2D2D2D2D2D0061646D696E31009A
:10349000416772656761722041646D696E00313207
:1034A0003334004861792061646D696E004D656E4A
:1034B00075207072696E636970616C00507265731B
:1034C000696F6E6120616365707461720020204CC9
:1034D0006F67696E0020205265676973747261724C
:1034E000003E004E6F6D6272653A004C204F2047DF
:1034F0002049204E00202D204E4F4D4252453A008B
:10350000436F72726563746F3F202020202020205B
:1035100000202020202020202020202020202020CB
:103520002000202D20436F6E747261733A004E416B
:103530004441002020416363696F6E2041444D493E
:103540004E002020416363696F6E2041444D494E17
:103550003200202043657272617220736573696F57
:103560006E0020496E677265736F2043656C0020A2
:1035700052657469726F2043656C0020456C696DFB
:10358000696E6172204375656E746100496E746F77
:1035900064757A63612043454C20656E0020504F6E
:1035A00053202300456C207573756172696F206E1E
:1035B0006F206578697374650043454C20656E2003
:1035C00053697374656D61004D656E752064652087
:1035D00072657469726F2E2E2E0055737561726953
:1035E0006F20426F727261646F00202041706C69BD
:1035F000636163696F6E00202050616E656C00200E
:103600002053616C697200522045204720492053A5
:1036100020542052204F00202D2043656C756C6192
:04362000723A0000FA
:020000040003F7
:10E000000D9489F10D94B2F10D94B2F10D94B2F129
:10E010000D94B2F10D94B2F10D94B2F10D94B2F1F0
:10E020000D94B2F10D94B2F10D94B2F10D94B2F1E0
:10E030000D94B2F10D94B2F10D94B2F10D94B2F1D0
:10E040000D94B2F10D94B2F10D94B2F10D94B2F1C0
:10E050000D94B2F10D94B2F10D94B2F10D94B2F1B0
:10E060000D94B2F10D94B2F10D94B2F10D94B2F1A0
:10E070000D94B2F10D94B2F10D94B2F10D94B2F190
:10E080000D94B2F10D94B2F10D94B2F10D94B2F180
:10E090000D94B2F10D94B2F10D94B2F10D94B2F170
:10E0A0000D94B2F10D94B2F10D94B2F10D94B2F160
:10E0B0000D94B2F10D94B2F10D94B2F10D94B2F150
:10E0C0000D94B2F10D94B2F10D94B2F10D94B2F140
:10E0D0000D94B2F10D94B2F10D94B2F10D94B2F130
:10E0E0000D94B2F141546D656761323536300041AF
:10E0F000726475696E6F206578706C6F72657220DE
:10E1000073746B3530305632206279204D4C530099
:10E11000426F6F746C6F616465723E004875683F52
:10E1200000436F6D70696C6564206F6E203D200048
:10E130004350552054797065202020203D20005FF9
:10E140005F4156525F415243485F5F3D2000415658
:10E1500052204C696243205665723D20004743437C
:10E160002056657273696F6E203D20004350552024
:10E1700049442020202020203D20004C6F7720663D
:10E18000757365202020203D20004869676820665F
:10E190007573652020203D200045787420667573D6
:10E1A00065202020203D20004C6F636B2066757336
:10E1B000652020203D20004D617220203720323024
:10E1C000313300312E362E3800342E332E350056A2
:10E1D00023202020414444522020206F7020636F70
:10E1E00064652020202020696E73747275637469E1
:10E1F0006F6E2061646472202020496E74657272B3
:10E20000757074006E6F20766563746F7200726A49
:10E210006D702020006A6D70200057686174207056
:10E220006F72743A00506F7274206E6F7420737541
:10E2300070706F72746564004D7573742062652030
:10E2400061206C6574746572002000577269747483
:10E25000696E672045450052656164696E672045B7
:10E26000450045452065727220636E743D00504F35
:10E27000525400303D5A65726F2061646472003FF1
:10E280003D43505520737461747300403D454550C3
:10E29000524F4D207465737400423D426C696E6B41
:10E2A000204C454400453D44756D70204545505215
:10E2B0004F4D00463D44756D7020464C415348001B
:10E2C000483D48656C70004C3D4C69737420492F83
:10E2D0004F20506F72747300513D51756974005234
:10E2E0003D44756D702052414D00563D73686F7707
:10E2F00020696E7465727275707420566563746FF0
:10E30000727300593D506F727420626C696E6B00BD
:10E310002A0011241FBECFEFD1E2DEBFCDBF01E046
:10E320000CBF12E0A0E0B2E0EEE1FDEF03E00BBFB6
:10E3300002C007900D92A030B107D9F712E0A0E01B
:10E34000B2E001C01D92AE30B107E1F70F9460F367
:10E350000D948DFE01E20EBF0FEF0DBF11241FBE05
:10E360000D9460F30D9400F020E030E040ED57E0B4
:10E3700005C0FA013197F1F72F5F3F4F2817390792
:10E38000C0F308959C01260F311DC901A0E0B0E043
:10E390002F5F3F4FABBFFC018791882361F08093D3
:10E3A000C6008091C00086FFFCCF8091C0008064D1
:10E3B0008093C000EACF08958DE08093C6008091DD
:10E3C000C00086FFFCCF8091C00080648093C000B5
:10E3D0008AE08093C6008091C00086FFFCCF8091C8
:10E3E000C00080648093C00008950F94C2F10F9420
:10E3F000DCF10895FC019081992359F09093C600B7
:10E400008091C00086FFFCCF8091C0008064809323
:10E41000C0003196992379F70895282F982F929567
:10E420009F70892F805D8A3308F0895F8093C600D2
:10E430008091C00086FFFCCF8091C00080648093F3
:10E44000C000822F8F70982F905D9A3308F0995FEB
:10E450009093C6008091C00086FFFCCF8091C000E1
:10E4600080648093C00008959C01FB01853691056E
:10E470001CF46330710594F0C90164E670E00F94F8
:10E480002EFE605D7F4F6093C6008091C00086FFC6
:10E49000FCCF8091C00080648093C0002B30310598
:10E4A00014F43297B4F0C90164E670E00F942EFEC4
:10E4B0006AE070E00F942EFE605D7F4F6093C600AF
:10E4C0008091C00086FFFCCF8091C0008064809363
:10E4D000C000C9016AE070E00F942EFEC0968093E0
:10E4E000C6008091C00086FFFCCF8091C000806490
:10E4F0008093C00008951F93182F8EE692EE60E07F
:10E500000F94C2F11093C6008091C00086FFFCCF2B
:10E510008091C00080648093C0000F94DCF11F9153
:10E5200008952F923F924F925F926F927F928F92B7
:10E530009F92AF92BF92CF92DF92EF92FF920F9392
:10E540001F93DF93CF93CDB7DEB762970FB6F894E2
:10E55000DEBF0FBECDBF382E622ECA01DB015C01CB
:10E560006D01772420E2222E2E010894411C511CBB
:10E570008BC081E0A81680E0B80681E0C80680E084
:10E58000D80628F0C601AA27BB270F940DF2BB2797
:10E59000AD2D9C2D8B2D0F940DF28A2D0F940DF225
:10E5A0002092C6008091C00086FFFCCF8091C00001
:10E5B00080648093C0009DE29093C6008091C0006B
:10E5C00086FFFCCF8091C00080648093C0002092C1
:10E5D000C6008091C00086FFFCCF8091C00080649F
:10E5E0008093C00019828601750188249924A1E0D6
:10E5F0003A1651F03A1620F0B2E03B1661F409C029
:10E600000BBFF701779007C0C7010F9477FE782EF4
:10E6100002C0F7017080872D0F940DF22092C60082
:10E620008091C00086FFFCCF8091C0008064809301
:10E63000C000872D8052F401EF70F0708F3520F408
:10E64000E40DF51D708204C0E40DF51D8EE280839B
:10E650000894E11CF11C011D111D0894811C911CE2
:10E6600090E18916910409F0C2CF80E190E0A0E02A
:10E67000B0E0A80EB91ECA1EDB1E198AC2010F9493
:10E68000FAF10F94DCF16A94662009F072CF629679
:10E690000FB6F894DEBF0FBECDBFCF91DF911F91B3
:10E6A0000F91FF90EF90DF90CF90BF90AF909F9031
:10E6B0008F907F906F905F904F903F902F90089534
:10E6C0002F923F924F925F926F927F928F929F9282
:10E6D000AF92BF92CF92DF92EF92FF920F931F9370
:10E6E000DF93CF93CDB7DEB7CD53D1400FB6F894BB
:10E6F000DEBF0FBECDBF01E20EBF0FEF0DBF94B75F
:10E70000F894A89514BE80916000886180936000A1
:10E7100010926000789493FF05C0E0910002F091A0
:10E7200001021995279A2F9A8091C00082608093E8
:10E73000C00080E18093C40088E18093C1000000A4
:10E74000EE24FF24870144E0A42EB12CCC24DD2448
:10E7500024C0C5010197F1F70894E11CF11C011DCB
:10E76000111D21E2E2162EE4F20620E0020720E06D
:10E77000120718F031E0C32ED12CC801B70127ECE5
:10E780003BE140E050E00F9441FE611571058105C9
:10E79000910519F485B1805885B98091C00087FD35
:10E7A00003C0C114D104A9F2A6014F5F5F4FC25E3E
:10E7B000DE4F59834883CE51D140C25EDE4F8881FF
:10E7C0009981CE51D140019711F00D9410FEC05D9A
:10E7D000DE4F19821882C053D14060E0C15DDE4F28
:10E7E0001882CF52D14088249924C35DDE4F19820C
:10E7F0001882CD52D140C05EDE4F188219821A8233
:10E800001B82C052D140CE5CDE4F188219821A8220
:10E810001B82C253D140EE24FF2487010BBFF701B6
:10E8200007911691C45CDE4F19830883CC53D14005
:10E830000D940BFEC25EDE4F28813981CE51D1404E
:10E840002130310509F52091C600C25EDE4F1982E4
:10E850001882CE51D14022C02F5F3F4F4F4F5F4FA4
:10E86000213082E138078AE7480780E0580780F0C6
:10E87000C45CDE4FE881F981CC53D140EF5FFF4F9C
:10E8800019F0EE27FF27099420E030E040E050E047
:10E890008091C00087FFE0CF2091C600C35DDE4FAE
:10E8A00048815981CD52D1404F5F5F4FC35DDE4FEC
:10E8B00059834883CD52D140213209F063C64A3092
:10E8C000510508F05FC60894811C911C53E0851621
:10E8D000910409F059C600E010E018C081E280936D
:10E8E000C6008091C00086FFFCCF8091C00080648C
:10E8F0008093C0002F5F3F4F2931310579F70F9486
:10E90000DCF10F5F1F4F0530110519F020E030E0FA
:10E91000E5CF10920A0210920B0210920C02109294
:10E920000D02109206021092070210920802109235
:10E930000902109202021092030210920402109235
:10E9400005028FEE90EE60E00F94F5F180E191EE1C
:10E9500060E00F94C2F18091C00087FFFCCF9091DE
:10E96000C600903608F09F759032B8F09093C600BC
:10E970008091C00086FFFCCF8091C00080648093AE
:10E98000C000A0E2A093C6008091C00086FFFCCF2B
:10E990008091C00080648093C000983409F4D7C18E
:10E9A0009934B8F4923409F459C1933458F490333B
:10E9B00019F1903308F4E3C59F33A1F1903409F0C5
:10E9C000DEC5BDC0953409F470C1963409F0D7C5D1
:10E9D00098C1923509F42BC2933538F49C3409F46C
:10E9E000F5C1913509F0CBC518C2963509F445C279
:10E9F000993509F0C4C567C483E792EE62E00F94CD
:10EA0000F5F110920602109207021092080210927D
:10EA1000090210920A0210920B0210920C0210923C
:10EA20000D0213C18FE792EE62E00F94F5F18FEEC5
:10EA300090EE60E00F94F5F181E291EE60E00F94CA
:10EA4000C2F187EB91EE60E00F94F5F180E391EE77
:10EA500060E00F94C2F184EE90EE60E00F94F5F167
:10EA60008FE391EE60E00F94C2F186E090E061E008
:10EA700070E00F9434F20F94DCF18DE591EE60E0DC
:10EA80000F94C2F189EC91EE60E00F94F5F18EE401
:10EA900091EE60E00F94C2F183EC91EE60E00F9490
:10EAA000F5F18CE691EE60E00F94C2F18EE10F94E7
:10EAB0000DF288E90F940DF281E00F940DF20F949E
:10EAC000DCF18BE791EE60E00F94C2F119E0E0E039
:10EAD000F0E010935700E4918E2F0F940DF20F94F5
:10EAE000DCF18AE891EE60E00F94C2F1E3E0F0E03F
:10EAF00010935700E4918E2F0F940DF20F94DCF1D8
:10EB000089E991EE60E00F94C2F1E2E0F0E0109349
:10EB10005700E4918E2F0F940DF20F94DCF188EAE8
:10EB200091EE60E00F94C2F1E1E0F0E01093570045
:10EB30001491812F0F940DF20F94DCF107CF8BE825
:10EB400092EE62E00F94F5F18BE492EE60E00F94A8
:10EB5000F5F10F94DCF100E010E019C0C8016F2D51
:10EB60000F947FFEFF2031F489E492EE60E00F9471
:10EB7000C2F10BC0F092C6008091C00086FFFCCFAE
:10EB80008091C00080648093C0000F5F1F4FC80158
:10EB900081519F41A0E0B0E0ABBFFC01F790BAE229
:10EBA000FB1621F0E2E000301E07C1F60F94DCF105
:10EBB0000F94DCF187E592EE60E00F94F5F10F948D
:10EBC000DCF1CC24DD2400E010E01EC0C8010F946D
:10EBD00077FEF82E882331F489E492EE60E00F94FA
:10EBE000C2F10BC08093C6008091C00086FFFCCFAD
:10EBF0008091C00080648093C000FE1419F00894D6
:10EC0000C11CD11C0F5F1F4FC80181519F41A0E063
:10EC1000B0E0ABBFFC01E790FAE2EF1621F022E092
:10EC20000030120799F60F94DCF10F94DCF182E6C4
:10EC300092EE60E00F94C2F1C60161E070E00F94C3
:10EC400034F20F94DCF10F94DCF110920202109276
:10EC50000302109204021092050278CE89E992EE26
:10EC600062E00F94F5F1279A2F9A16C02F9880E052
:10EC700090E0E0EDF7E03197F1F7019684369105E9
:10EC8000C1F72F9A80E090E0E0EDF7E03197F1F7DF
:10EC9000019684369105C1F78091C00087FFE6CFC9
:10ECA0008091C00087FFFCCF64C485EA92EE62E0E9
:10ECB0000F94F5F140910202509103026091040219
:10ECC0007091050281E020E10F9491F2809102029F
:10ECD00090910302A0910402B091050280509F4FD1
:10ECE000AF4FBF4F8093020290930302A0930402A0
:10ECF000B093050280509041A040B04008F426CE69
:10ED0000A4CF83EB92EE62E00F94F5F140910602FE
:10ED100050910702609108027091090280E020E1A1
:10ED20000F9491F28091060290910702A09108023F
:10ED3000B091090280509F4FAF4FBF4F80930602A2
:10ED400090930702A0930802B0930902FFCD80ECD4
:10ED500092EE62E00F94F5F183E792EE60E00F949B
:10ED6000F5F18FE792EE60E00F94F5F18BE892EE0B
:10ED700060E00F94F5F189E992EE60E00F94F5F10F
:10ED800085EA92EE60E00F94F5F183EB92EE60E09D
:10ED90000F94F5F180EC92EE60E00F94F5F187ECC2
:10EDA00092EE60E00F94F5F188ED92EE60E00F9442
:10EDB000F5F18FED92EE60E00F94F5F18AEE92EEB0
:10EDC00060E00F94F5F183E093EEBDCD87EC92EE19
:10EDD00062E00F94F5F181E40F947BF282E40F94EA
:10EDE0007BF283E40F947BF284E40F947BF285E45E
:10EDF0000F947BF286E40F947BF287E40F947BF20E
:10EE000088E40F947BF28AE40F947BF28BE40F94F6
:10EE10007BF28CE40F947BF299CD88ED92EE62E068
:10EE20000F94F5F1772473948824992409C48FED05
:10EE300092EE62E00F94F5F140910A0250910B02BC
:10EE400060910C0270910D0282E020E10F9491F22A
:10EE500080910A0290910B02A0910C02B0910D02D8
:10EE600080509F4FAF4FBF4F80930A0290930B0289
:10EE7000A0930C02B0930D0269CD8AEE92EE62E08F
:10EE80000F94F5F184EE90EE60E00F94F5F18FECC5
:10EE900091EE60E00F94F5F1662477244301CC5D98
:10EEA000DE4F19821882C452D140D401C301B695F5
:10EEB000A79597958795CA5DDE4F88839983AA8326
:10EEC000BB83C652D140CC5DDE4FA881B981C4520C
:10EED000D1401196CC5DDE4FB983A883C452D14096
:10EEE000CD0162E070E00F9434F2B0E2B093C6005E
:10EEF0008091C00086FFFCCF8091C0008064809329
:10EF0000C000EDE2E093C6008091C00086FFFCCF18
:10EF10008091C00080648093C000F0E2F093C6004E
:10EF20008091C00086FFFCCF8091C00080648093F8
:10EF3000C000CA5DDE4FE880F9800A811B81C6529D
:10EF4000D140BB27A12F902F8F2D0F940DF2CA5DBA
:10EF5000DE4F8881C652D1400F940DF2B0E2FB2EF5
:10EF6000F092C6008091C00086FFFCCF8091C00067
:10EF700080648093C0000DE30093C6008091C000C0
:10EF800086FFFCCF8091C00080648093C00010E2B7
:10EF90001093C6008091C00086FFFCCF8091C00016
:10EFA00080648093C0008BBEF3012791C65DDE4F65
:10EFB0002883CA52D140A22EBB24CC24DD2408943D
:10EFC000611C711C811C911C8BBEF3018791282E42
:10EFD0003324442455240894611C711C811C911C09
:10EFE0008BBEF3013791C55DDE4F3883CB52D140E4
:10EFF0000894611C711C811C911C8BBEF30147910C
:10F00000C45DDE4F4883CC52D140ADEFEA2EAFEF66
:10F01000FA2EAFEF0A2FAFEF1A2F6E0C7F1C801E57
:10F02000911E142D032DF22CEE24EA0CFB1C0C1D5A
:10F030001D1D0F940DF220E22093C6008091C000A8
:10F0400086FFFCCF8091C00080648093C000C65DC5
:10F05000DE4F8881CA52D1400F940DF230E23093D6
:10F06000C6008091C00086FFFCCF8091C000806404
:10F070008093C000C45DDE4F8881CC52D1400F9494
:10F080000DF240E24093C6008091C00086FFFCCFA5
:10F090008091C00080648093C000C55DDE4F888190
:10F0A000CB52D1400F940DF250E25093C6008091A4
:10F0B000C00086FFFCCF8091C00080648093C000B8
:10F0C0008FEFE8168FEFF80680E0080780E018075A
:10F0D00031F484E092EE60E00F94C2F1DFC0D80119
:10F0E000C7018070907CA070B0708050904CA040A0
:10F0F000B040D1F52FEF3FE340E050E0E222F322B1
:10F1000004231523CA5DDE4FA880B980CA80DB8046
:10F11000C652D140AE0CBF1CC01ED11EAA0CBB1CD7
:10F12000CC1CDD1C8EE092EE60E00F94C2F1BB2798
:10F13000A12F902F8F2D0F940DF28E2D0F940DF285
:10F1400030E23093C6008091C00086FFFCCF8091F2
:10F15000C00080648093C0004EE34093C60080915D
:10F16000C00086FFFCCF87C08EE09EEFA0E0B0E03D
:10F17000E822F9220A231B239CE0E91694E9F90608
:10F1800090E0090790E0190709F088C0C45DDE4FE0
:10F19000A881CC52D140EA2EFF2400E010E0102FCD
:10F1A0000F2DFE2CEE24C55DDE4FB881CB52D14031
:10F1B000EB0EF11C011D111DD601C501817090706F
:10F1C000A070B070DC0199278827E80EF91E0A1F8D
:10F1D0001B1F20EF30E040E050E0A222B322C42207
:10F1E000D52241E1AA0CBB1CCC1CDD1C4A95D1F7F1
:10F1F000EA0CFB1C0C1D1D1D81E090E0A0E0B0E0BE
:10F20000282239224A225B2235E1220C331C441C7D
:10F21000551C3A95D1F7E20CF31C041D151D57013E
:10F220006801AA0CBB1CCC1CDD1C85E192EE60E0E1
:10F230000F94C2F1C801AA27BB270F940DF2BB2778
:10F24000A12F902F8F2D0F940DF28E2D0F940DF274
:10F2500090E29093C6008091C00086FFFCCF809121
:10F26000C00080648093C000AEE3A093C60080918C
:10F27000C00086FFFCCF8091C00080648093C000F6
:10F28000C601AA27BB270F940DF2BB27AD2D9C2DDD
:10F290008B2D0F940DF28A2D0F940DF20F94DCF14B
:10F2A000CC5DDE4FE881F981C452D140F99709F471
:10F2B0004DCBF4E0EF2EF12C012D112D6E0C7F1CA7
:10F2C000801E911EF2CD83E093EE62E00F94F5F183
:10F2D0008AE192EE60E00F94C2F18091C00087FF56
:10F2E000FCCF1091C6001F751093C6008091C0001E
:10F2F00086FFFCCF8091C00080648093C0000F9493
:10F30000DCF1812F81548A3108F036C1163409F4BA
:10F3100095C0173490F4133409F44EC0143430F40B
:10F320001134F1F0123409F01DC130C0143409F465
:10F3300059C0153409F016C16BC01A3409F4C4C0A1
:10F340001B3438F4173409F48FC0183409F00AC19B
:10F35000A1C01B3409F4D2C01C3409F003C1E8C0B9
:10F360008FEF81B90DC082B1809582B980E090E0C5
:10F37000E0EDF7E03197F1F70196883C9105C1F790
:10F380008091C00087FFEFCF12B8EFC08FEF84B934
:10F390000DC085B1809585B980E090E0E0EDF7E0A3
:10F3A0003197F1F70196883C9105C1F78091C00033
:10F3B00087FFEFCF15B8D9C08FEF87B90DC088B1DF
:10F3C000809588B980E090E0E0EDF7E03197F1F7C3
:10F3D0000196883C9105C1F78091C00087FFEFCF6F
:10F3E00018B8C3C08FEF8AB90DC08BB180958BB9A7
:10F3F00080E090E0E0EDF7E03197F1F70196883C8E
:10F400009105C1F78091C00087FFEFCF1BB8ADC059
:10F410008FEF8DB90DC08EB180958EB980E090E0F0
:10F42000E0EDF7E03197F1F70196883C9105C1F7DF
:10F430008091C00087FFEFCF1EB897C08FEF80BBD1
:10F440000DC081B3809581BB80E090E0E0EDF7E0F6
:10F450003197F1F70196883C9105C1F78091C00082
:10F4600087FFEFCF11BA81C08FEF83BB0DC084B38C
:10F47000809584BB80E090E0E0EDF7E03197F1F714
:10F480000196883C9105C1F78091C00087FFEFCFBE
:10F4900014BA6BC08FEF809301010FC080910201FD
:10F4A00080958093020180E090E0E0EDF7E03197F5
:10F4B000F1F70196883C9105C1F78091C00087FF64
:10F4C000EDCF1092020151C08FEF809304010FC065
:10F4D0008091050180958093050180E090E0E0ED4A
:10F4E000F7E03197F1F70196883C9105C1F78091DB
:10F4F000C00087FFEDCF1092050137C08FEF8093DA
:10F5000007010FC08091080180958093080180E079
:10F5100090E0E0EDF7E03197F1F70196883C910536
:10F52000C1F78091C00087FFEDCF109208011DC088
:10F530008FEF80930A010FC080910B01809580931B
:10F540000B0180E090E0E0EDF7E03197F1F70196F4
:10F55000883C9105C1F78091C00087FFEDCF1092E4
:10F560000B0103C085E292EEEEC98091C00087FFD7
:10F57000FCCF8091C600EAC988E392EEE4C98CE131
:10F5800091EEE1C988249924933011F1943028F444
:10F59000913089F09230B8F408C0953061F195301F
:10F5A000F0F0963009F048C043C02B3109F042C951
:10F5B00091E06BE13FC96227C15DDE4F2883CF52E6
:10F5C000D14092E037C9B22FA0E0622793E032C960
:10F5D000822F90E0A82BB92B622794E02BC92E3004
:10F5E00009F039C3622795E0C05DDE4F19821882A9
:10F5F000C053D1401FC9E1E0F0E0EC0FFD1FC05D3A
:10F60000DE4F08811981C053D140E00FF11F2083E4
:10F610000F5F1F4FC05DDE4F19830883C053D14079
:10F6200062270A171B0709F005C9D80196E002C92D
:10F63000261709F010C303C0973009F0FBC87724E0
:10F640009981933109F412C19431C8F4963009F4C8
:10F65000D8C0973050F4923009F406C1933009F4C1
:10F660006DC0913009F059C253C0913109F477C08F
:10F67000923108F0BBC0903109F04FC2F5C098310B
:10F6800009F487C0993150F4953109F4EFC09531F0
:10F6900008F4C6C1963109F040C2C2C19A3109F4DA
:10F6A0006CC09A3108F491C09B3109F45BC09D3164
:10F6B00009F033C29D81903359F48F81882311F46E
:10F6C0009EE11CC0813011F091E018C098E916C08D
:10F6D000892F807591F0903539F4E0E0F0E089E011
:10F6E0008093570094910AC0983539F4E3E0F0E034
:10F6F00089E080935700949101C090E01A821B82A8
:10F700008D818C831D829E831F8227E030E009C299
:10F710001A8288E08B8381E48C8386E58D8382E581
:10F720008E8389E48F8383E5888780E589878FE5E9
:10F730008A8782E38B872BE030E0F3C18A818139AD
:10F7400041F0823941F0803911F48FE005C080E04A
:10F7500003C082E001C08AE01A828B8344C0772410
:10F76000739482C08D81882311F48EE12CC0813086
:10F7700011F081E028C088E926C01A82E1E0F0E0BB
:10F7800089E08093570084918B831C8224E030E0D1
:10F79000C8C18B81803589F48C81883039F4E2E0EE
:10F7A000F0E089E08093570084910DC0E0E0F0E044
:10F7B00089E080935700849106C0E3E0F0E089E09F
:10F7C0008093570084911A82DFCF8D81836C99E0FA
:10F7D000E1E0F0E0082E90935700E89507B600FCB2
:10F7E000FDCF1A821B8223E030E09BC180EC8A832C
:10F7F000CE5CDE4F188219821A821B82C253D1401E
:10F800008EC18A8190E0A0E0B0E0582F44273327D2
:10F8100022278B8190E0A0E0B0E0DC0199278827C7
:10F82000282B392B4A2B5B2B8D8190E0A0E0B0E098
:10F83000282B392B4A2B5B2B8C8190E0A0E0B0E089
:10F84000BA2FA92F982F8827282B392B4A2B5B2BCF
:10F85000220F331F441F551FC05EDE4F288339839C
:10F860004A835B83C052D1401A8259C13A81C95C34
:10F87000DE4F3883C753D140CA5CDE4F1882C6536F
:10F88000D1408B81C82EDD24CA5CDE4F488159816E
:10F89000C653D140C42AD52A933109F082C0CE5C28
:10F8A000DE4F88819981AA81BB81C253D1408050AB
:10F8B000904CA340B04030F583E0CE5CDE4FE88052
:10F8C000F9800A811B81C253D140F70100935B008C
:10F8D00080935700E89507B600FCFDCFCE5CDE4F65
:10F8E000088119812A813B81C253D14000501F4FAA
:10F8F0002F4F3F4FCE5CDE4F088319832A833B8313
:10F90000C253D140C05EDE4F488159816A817B81FC
:10F91000C052D140DE011B9631E08C9111962C91A2
:10F9200011971296C75CDE4F2883C953D140C85C3B
:10F93000DE4F1882C853D14090E0C85CDE4FE881AA
:10F94000F981C853D1408E2B9F2B0C01FA01609393
:10F950005B0030935700E89511244E5F5F4F6F4F67
:10F960007F4F0EEFE02E0FEFF02ECE0CDF1CC114F8
:10F97000D10499F685E0C05EDE4F088119812A81A5
:10F980003B81C052D140F80120935B008093570027
:10F99000E89507B600FCFDCF81E180935700E8951C
:10F9A00035C0C05EDE4F88819981AA81BB81C0527B
:10F9B000D140B695A795979587957C018601ABE0D8
:10F9C000AA2EB12CAC0EBD1E0BC0D5016D915D01F0
:10F9D000C7010F947FFE0894E11CF11C01501040F8
:10F9E0000115110591F7A60160E070E0440F551F65
:10F9F000661F771FC05EDE4FE880F9800A811B8199
:10FA0000C052D1404E0D5F1D601F711F1A82C05E33
:10FA1000DE4F488359836A837B83C052D1407FC0C5
:10FA2000FA80C55CDE4FF882CB53D140C65CDE4F16
:10FA30001882CA53D1408B81C82EDD24C65CDE4FAC
:10FA400008811981CA53D140C02AD12A1A828981DA
:10FA5000BE016D5F7F4F843121F59601C05EDE4FA0
:10FA6000E880F9800A811B81C052D1400BBFF701A9
:10FA700087919691DB018C9311969C936E5F7F4FDB
:10FA8000D801C7010296A11DB11DC05EDE4F88835B
:10FA90009983AA83BB83C052D14022503040F1F6F3
:10FAA00036C0C05EDE4F288139814A815B81C052F9
:10FAB000D1400894C108D108760100E010E0089414
:10FAC000C11CD11C0894E11CF11C011D111DE20E8A
:10FAD000F31E041F151F21BDBB27A52F942F832FB5
:10FAE00082BD2F5F3F4F4F4F5F4FF89A80B5DB01CC
:10FAF0008D93BD012E153F054007510761F7C05E8C
:10FB0000DE4F288339834A835B83C052D1409601FC
:10FB10002D5F3F4FFB01108204C080EC8A8322E0FE
:10FB200030E08BE18093C6008091C00086FFFCCF5F
:10FB30008091C00080648093C000C15DDE4FF88179
:10FB4000CF52D140F093C6008091C00086FFFCCF19
:10FB50008091C00080648093C000432F3093C60022
:10FB60008091C00086FFFCCF8091C00080648093AC
:10FB7000C000922F2093C6008091C00086FFFCCF6A
:10FB80008091C00080648093C0008EE08093C600A6
:10FB90008091C00086FFFCCF8091C000806480937C
:10FBA000C00065E1C15DDE4FE880CF52D1406E25D7
:10FBB00069276427FE01319610C090819093C6009A
:10FBC0008091C00086FFFCCF31968091C000806498
:10FBD0008093C0006927215030402115310569F715
:10FBE0006093C6008091C00086FFFCCF8091C0006A
:10FBF00080648093C00085B1805885B9772081F4F6
:10FC0000C15DDE4F0881CF52D1400F5FC15DDE4F35
:10FC10000883CF52D14090E0A0E0B0E00D941AF4F8
:10FC200027982F9880E090E020ED37E0F901319798
:10FC3000F1F7019684369105C9F700008091C00064
:10FC40008D7F8093C00081E180935700E895EE2777
:10FC5000FF270994FFCF90E00D941AF497FB092E2B
:10FC600007260AD077FD04D02ED006D000201AF443
:10FC7000709561957F4F0895F6F7909581959F4F08
:10FC80000895A1E21A2EAA1BBB1BFD010DC0AA1FDD
:10FC9000BB1FEE1FFF1FA217B307E407F50720F0F5
:10FCA000A21BB30BE40BF50B661F771F881F991F70
:10FCB0001A9469F760957095809590959B01AC01B9
:10FCC000BD01CF010895AA1BBB1B51E107C0AA1FAC
:10FCD000BB1FA617B70710F0A61BB70B881F991FED
:10FCE0005A95A9F780959095BC01CD010895F99991
:10FCF000FECF92BD81BDF89A992780B50895262F31
:10FD0000F999FECF1FBA92BD81BD20BD0FB6F89400
:0EFD1000FA9AF99A0FBE01960895F894FFCF63
:00000001FF
