:100000000C9475010C94A6010C94A6010C94A60105
:100010000C94A6010C94A6010C94A6010C94A601C4
:100020000C94A6010C94A6010C94A6010C94A601B4
:100030000C94A6010C94A6010C94A6010C94A601A4
:100040000C94A6010C94A6010C94A6010C94A60194
:100050000C94A6010C94A6010C94A6010C94020E1B
:100060000C94A6010C94D60E0C94AC0E0C94A60124
:100070000C94A6010C94A6010C94A6010C94A60164
:100080000C94A6010C94A6010C94A6010C94A60154
:100090000C94A6010C94A6010C94A6010C94A60144
:1000A0000C94A6010C94A6010C94A6010C94A60134
:1000B0000C94A6010C94A6010C94A6010C94A60124
:1000C0000C94A6010C94A6010C94A6010C94A60114
:1000D0000C94A6010C94A6010C94760E0C944C0E74
:1000E0000C94A6010C9461080C94E3080C949013F2
:1000F0000C9448060C9421030C941C060C94CA031F
:100100000C94FB010C9459040C9432020C941A06C2
:100110000C9469080C94FF010C945D030C94280264
:100120000C942E020C9416020C9463080C94E108B3
:100130000C94F7010C9402020C944C060C94701170
:100140000C94EE130C9462150C944E030C94240240
:100150000C94ED010C94CD110C940C040C94150628
:100160000C94A7040C94D2080C945F080C946708B4
:100170000C9412020C9401150C9418060C940C02A9
:100180000C94BC030C940C0F0C946B080C94F301AE
:100190000C94B4070C944A060C94F2110C94A60427
:1001A0000C941A020C9424120C9420020C946508EE
:1001B0000C9412060C945C080C9408020C94AC0885
:1001C0000C9474080C942D020000210024002700D8
:1001D0002A002D0030003300010100000401070156
:1001E0000A0100002200250028002B002E0031000B
:1001F000340002010000050108010B01000020008D
:100200002300260029002C002F00320000010000EE
:100210000301060109010505050507050808080889
:10022000020202020A0A080804040404010101018E
:100230000101010103030303030303030407070789
:100240000C0C0C0C0C0C0C0C02020202060606062E
:10025000060606060B0B0B0B0B0B0B0B01021020FB
:1002600020080810204010204080020102010804EC
:100270000201010204081020408080402010080480
:1002800002018004020180402010080402010804D9
:10029000020101020408102040800102040810201D
:1002A000408000000A0B02090C0D0E080703040130
:1002B000000000000000000000000000000000003E
:1002C000000000000000000000000000000012110B
:1002D000100000000000000000000000000000000E
:1002E00000000000000000000C0F11241FBECFEF23
:1002F000D1E2DEBFCDBF00E00CBF28E0A8E3B6E04E
:1003000001C01D92A931B207E1F716E0A0E0B2E00A
:10031000EAE3F1E300E00BBF02C007900D92A833BF
:10032000B107D9F711E0C5E7D1E000E006C0219799
:100330000109802FFE010E944817C437D10780E0D1
:100340000807A9F70E9428100C949B180C94000031
:10035000FC01A089B18982E08C93A485B5851C92AB
:10036000A685B7858FEC8C93108EA489B58986E01D
:100370008C93A289B3898C9180618C93A289B38973
:100380008C9188608C93A289B3898C9180688C93BE
:100390000288F389E02D80818F7D808308958150CC
:1003A000823108F05AC0E82FF0E08827E552FE4F6E
:1003B0008F4F0C944817FB01FF01ED01F301F7018A
:1003C0002D02020208020C02120216021A02200278
:1003D00024022D0228022E023202809180008F77A3
:1003E000809380000895809180008F7DF9CF809167
:1003F0008000877FF5CF84B58F7784BD089584B55D
:100400008F7DFBCF8091B0008F778093B0000895EF
:100410008091B0008F7DF9CF809190008F7780938D
:1004200090000895809190008F7DF9CF8091900089
:10043000877FF5CF8091A0008F778093A0000895EB
:100440008091A0008F7DF9CF8091A000877FF5CFAC
:10045000809120018F778093200108958091200161
:100460008F7DF9CF80912001877FF5CFCF93DF93E8
:10047000282F30E0F901EE55FD4F8491F901E45A3F
:10048000FD4FD491F901EA5EFD4FC491CC23A1F058
:1004900081110E94CF01EC2FF0E0EE0FFF1FE4501E
:1004A000FE4FA591B491EC91ED2381E090E009F429
:1004B00080E0DF91CF91089580E090E0FACF1F9324
:1004C000CF93DF93282F30E0F901EE55FD4F849153
:1004D000F901E45AFD4FD491F901EA5EFD4FC49150
:1004E000CC23A9F0162F81110E94CF01EC2FF0E050
:1004F000EE0FFF1FEE51FE4FA591B4918FB7F89408
:10050000EC91111108C0D095DE23DC938FBFDF91F1
:10051000CF911F910895DE2BF8CFCF93DF9390E01A
:10052000FC01E45AFD4F24918A5E9D4FFC018491A9
:100530008823D1F090E0880F991FFC01E853FE4F0B
:10054000A591B491FC01EE51FE4FC591D49161117A
:100550000EC09FB7F8948C91E22FE0958E238C9378
:100560002881E223E8839FBFDF91CF9108958FB761
:10057000F894EC91E22BEC938FBFF6CF3FB7F89451
:1005800080915A0690915B06A0915C06B0915D0641
:1005900026B5A89B05C02F3F19F00196A11DB11DDE
:1005A0003FBFBA2FA92F982F8827BC01CD01620F1A
:1005B000711D811D911D42E0660F771F881F991FD5
:1005C0004A95D1F708958F929F92AF92BF92CF92A2
:1005D000DF92EF92FF924B015C010E94BE026B0121
:1005E0007C010E94BE026C197D098E099F09683E3C
:1005F000734081059105A8F321E0821A9108A108B2
:10060000B10888EEC80E83E0D81EE11CF11C8114ED
:100610009104A104B10429F7FF90EF90DF90CF90EF
:10062000BF90AF909F908F9008952FB7F8946091EE
:1006300056067091570680915806909159062FBF23
:100640000895AF92BF92CF92DF92EF92FF920F93F5
:100650001F93CF93DF936C017B018B01040F151F58
:10066000EB015E01AE18BF08C017D10759F06991C0
:10067000D601ED91FC910190F081E02DC601199514
:10068000892B79F7C501DF91CF911F910F91FF90D1
:10069000EF90DF90CF90BF90AF900895FC01538D05
:1006A000448D252F30E0842F90E0821B930B54174C
:1006B00010F0CF96089501970895FC01918D828DD9
:1006C000981761F0A28DAE0FBF2FB11D5D968C9172
:1006D000928D9F5F9F73928F90E008958FEF9FEFB1
:1006E0000895CF92DF92EF92FF920F931F93CF93D3
:1006F000DF938C01D0E0C0E00E94150360931007E7
:1007000070931107809312079093130788E097E086
:100710000E945D0397FF28C00E941503C090100738
:10072000D0901107E0901207F09013076C197D0923
:100730008E099F09C0900C07D0900D07E0900E071E
:10074000F0900F076C157D058E059F05F8F2CE0120
:10075000DF91CF911F910F91FF90EF90DF90CF909D
:100760000895C2E0D0E0F3CFF80181938F01219783
:10077000C1F3C1E0D0E0C0CFFC01918D828D98170C
:1007800031F0828DE80FF11D858D90E008958FEF97
:100790009FEF0895FC01918D228D892F90E0805C60
:1007A0009F4F821B91098F73992708958BE696E0DE
:1007B0000E94CA0321E0892B09F420E0822F0895CA
:1007C00088E097E00E94CA0321E0892B09F420E029
:1007D000822F0895FC01A48DA80FB92FB11DA35A33
:1007E000BF4F2C91848D90E001968F739927848F51
:1007F000A689B7892C93A089B1898C918370806474
:100800008C93938D848D981306C00288F389E02D14
:1008100080818F7D80830895EF92FF920F931F93C5
:10082000CF93DF93EC0181E0888F9B8D8C8D9813A3
:100830001AC0E889F989808185FF15C09FB7F894AF
:10084000EE89FF896083E889F989808183708064FB
:1008500080839FBF81E090E0DF91CF911F910F9146
:10086000FF90EF900895F62E0B8D10E00F5F1F4F55
:100870000F731127E02E8C8D8E110CC00FB607FC64
:10088000FACFE889F989808185FFF5CFCE010E94F2
:10089000EA03F1CFEB8DEC0FFD2FF11DE35AFF4F73
:1008A000F0829FB7F8940B8FEA89FB898081806280
:1008B000CFCFCF93DF93EC01888D8823B9F0AA893D
:1008C000BB89E889F9898C9185FD03C0808186FD0B
:1008D0000DC00FB607FCF7CF8C9185FFF2CF80815A
:1008E00085FFEDCFCE010E94EA03E9CFDF91CF91E2
:1008F000089580E090E0892B29F00E94E0038111A7
:100900000E94000080E090E0892B49F080E090E0B8
:10091000892B29F00E94000081110E94000080E0D4
:1009200090E0892B49F080E090E0892B29F00E942B
:10093000000081110E94000080E090E0892B29F0E6
:100940000E94D60381110C9400000895089590E050
:1009500080E00895CF92DF92EF92FF92CF93DF93E2
:100960000E941503EB010E9415030E9415036B0101
:1009700088E097E00E94CA03892B29F088E097E07D
:100980000E945D03F5CFCC1ADD0A88EEC81683E01D
:10099000D8065CF388E097E00E94CA03892B29F708
:1009A000DF91CF91FF90EF90DF90CF90089582E09C
:1009B0000E943602892B41F062ED70E080E090E009
:1009C0000E94E30281E0089583E00E943602892BB1
:1009D00071F362ED70E080E090E00E94E30280E05D
:1009E0000895FF920F931F93CF93DF93C8E0D0E059
:1009F000FC2E61E08C2F0E945F0204E010E0802F4B
:100A00000E9436020197B1F460E08F2D0E945F02D0
:100A100004501109C801880F991F080F191FC00F32
:100A2000D11FCA5EDC4F8881DF91CF911F910F915A
:100A3000FF9008950F5F1F4F0830110501F760E028
:100A40008F2D0E945F022196CB30D10589F680E27E
:100A5000EBCFCF92DF92EF92FF920F931F93CF9342
:100A6000DF931F921F92CDB7DEB769834A83880F49
:100A7000991F0091FB071091FC07000F111FE5EA79
:100A8000F7E09F01255A37402017310714F41192DF
:100A9000F8CF2981FC01EB55F84F21838A818083AF
:100AA00060E08091F9070E945F021016110604F5BC
:100AB00001501109F801EB55F84FE080D090F7078D
:100AC000C090F50788E0F82E6E2D661F6627661F1A
:100AD0008C2D0E945F02EE0C61E08D2D0E945F0262
:100AE00060E08D2D0E945F02FA94F110EDCFDDCF12
:100AF00061E08091F9070F900F90DF91CF911F91E6
:100B00000F91FF90EF90DF90CF900C945F02EF92E7
:100B1000FF920F931F93CF937C018C0183E0000F12
:100B2000111F8A95E1F70B54184FC1E0F80111929B
:100B30008F0140E06C2FC7010E942905CF5FC930AB
:100B4000A9F7CF911F910F91FF90EF900895AF9269
:100B5000BF92CF92DF92EF92FF920F931F93CF93AA
:100B6000DF93C5EAD7E080E0C82E82E0D82EB12C12
:100B700090E8E92EF12C10E000E0AA24A394AB0C3D
:100B80008091FB079091FC0718161906E4F488E0A1
:100B9000B816C9F008301105B1F0C701002E02C027
:100BA000959587950A94E2F72889F601E00FF11FE1
:100BB0003081332301F1822B888B48896A2D90E0A4
:100BC00080E00E9429050F5F1F4F09301105C1F613
:100BD000B394219688E0C80ED11C89E0B812CBCF1F
:100BE000DF91CF911F910F91FF90EF90DF90CF9009
:100BF000BF90AF90089580958223DECF982F8930E3
:100C0000E0F4E82FF0E08827E75FF94F8F4F0C946E
:100C100048174C06120615061C0618061A061C066E
:100C200048064A0690E023E008C090E026E005C0B0
:100C300093E0F9CF93E0FACF20E0892F90E030E005
:100C4000AC014F5F5F4FF9013196A3E0880F991F08
:100C5000AA95E1F7B3E0440F551FBA95E1F780502C
:100C60009E4FDC01A20FB31F61307105B9F461E042
:100C70006C9340505E4F240F351FD9016C938E0F3B
:100C80009F1FDC016C93E40FF51F60830C94A70594
:100C900096E0C9CF96E0CACF292FCFCF1C92405003
:100CA0005E4F240F351FD9011C928E0F9F1FDC0150
:100CB0001C92E40FF51F1082E9CFCF93DF93EC0174
:100CC00060E08E810E945F0261E08E810E945F027F
:100CD00060E08E810E945F028BE891E00197F1F75E
:100CE000DF91CF910895CF92DF92EF92FF920F9311
:100CF0001F93CF93DF936C017C0187E0E80EF11C1A
:100D0000D0E0C0E0062F10E0B8010C2E02C07595AF
:100D100067950A94E2F76170F70181917F010E9463
:100D20005F022196C430D10579F7C601DF91CF91DA
:100D30001F910F91FF90EF90DF90CF900C945D0684
:100D4000CF92DF92EF92FF920F931F93CF93DF9397
:100D5000EC01F62E642F8C810E945F028D818F3F03
:100D600019F060E00E945F020F2D10E08F8584FF74
:100D700025C06E0187E0C80ED11CF12CE12CB80112
:100D80000E2C02C0759567950A94E2F76170F60122
:100D900081916F010E945F02FFEFEF1AFF0A88E066
:100DA000E816F10461F7CE01DF91CF911F910F9109
:100DB000FF90EF90DF90CF900C945D06B80184E037
:100DC000759567958A95E1F7CE010E9473066F2DA0
:100DD000CE01DF91CF911F910F91FF90EF90DF90A7
:100DE000CF900C94730640E0682F8DEF97E00C9441
:100DF000A00681E00E94F3068BE39FE10197F1F7E3
:100E00000895CF93DF93813029F090910C0898607A
:100E100090930C08809310081092110880E480933E
:100E2000120880E18093130880E58093140861E044
:100E3000809101080E948D02809102088F3F19F075
:100E400061E00E948D0261E0809103080E948D02A2
:100E5000CDEFD7E09E012D5F374080910C0884FDD7
:100E60000BC084E090E021962817390744F461E034
:100E70008E810E948D02EECF88E090E0F4CF8BE36C
:100E80009DE00197F1F760E0809101080E945F0208
:100E900060E0809103080E945F02809102088F3F0A
:100EA00019F060E00E945F0280910C0884FD34C05C
:100EB00063E08DEF97E00E947306CBE4D6E4CE01A9
:100EC0000197F1F763E08DEF97E00E947306219799
:100ED000F1F763E08DEF97E00E94730683E592E0FF
:100EE0000197F1F762E08DEF97E00E947306809121
:100EF0000C0880620E94F30684E080930D088CE069
:100F00000E94F3060E94F90682E080930E0886E0B4
:100F1000DF91CF910C94F30680620E94F3068BE47C
:100F200096E40197F1F780910C0880620E94F30625
:100F300083E592E00197F1F780910C0880620E94AE
:100F4000F306D5CF643008F063E09091100869177C
:100F500010F06FEF690FE62FF0E0E350F84F94893F
:100F6000890F80680C94F30641E00E94A00681E09E
:100F700090E00895FF920F931F93CF93DF938C011E
:100F8000EB01F8800E941017F81621F06F2DC801B0
:100F90000E941817CE01DF91CF911F910F91FF9002
:100FA0000895CF92DF92EF92FF920F931F93CF930A
:100FB000DF93EB017B0123E2E20EF11C8B016C015C
:100FC000C61AD70AC601800F911F0E941017F80198
:100FD00081938F01EE15FF05A9F7CE01DF91CF9127
:100FE0001F910F91FF90EF90DF90CF900895FB013C
:100FF00001900020E9F73197AF01461B570BDC0148
:10100000ED91FC910280F381E02D19940F931F93D1
:10101000CF93DF93EC010E94F7078C0165E773E043
:10102000CE010E94F707800F911FDF91CF911F9192
:101030000F910895DF92EF92FF920F931F93CF933A
:10104000DF937C0161E080E00E94A20700E0C0E045
:1010500085E0D82E61E080E00E94A2070E94F104A2
:10106000182F64E670E080E090E00E94E302EDED6E
:10107000E10FE73108F038C00E2E000CFF0B882777
:10108000EB5BF74F8F4F0C944817AC08740874084B
:101090007408740874087408D20874087408740812
:1010A000740874086B085C08E308E1085F086108CD
:1010B0006308650867086908D0E0C0E05CC0D3E059
:1010C000FCCFD4E0FACFD5E0F8CFD6E0F6CFD7E02A
:1010D000F4CFD8E0F2CFF701E00FF11D8081882333
:1010E00009F4B8CF0F5FB6CF82E00E9436020197B5
:1010F000A9F461EF74E088E097E00E94060864E6D6
:1011000070E080E090E00E94E30281E0DF91CF9107
:101110001F910F91FF90EF90DF90089583E00E9460
:101120003602019709F096CF68E773E088E097E010
:101130000E94060880E0F701E80FF11D90819923D5
:1011400019F010828F5FF7CF64E670E080E090E0E6
:101150000E94E30280E0DACFC43009F4AECFDD9E16
:10116000F0011124E65DFC4FEC0FF11D8181CF5F92
:10117000882309F4A2CFDD9EF0011124E65DFC4F27
:10118000EC0FF11D8081F701E00FF11D8083B701A5
:101190008DEF97E00E940608B70188E097E00E9473
:1011A000060858CFCC2311F0C150E5CFDD9EF001E9
:1011B0001124E65DFC4F8481C4E08111DCCFC3E0E3
:1011C000DACFD2E07ACFD1E078CF1F93CF93DF93FD
:1011D00000D0CDB7DEB7BC0188E097E00E940608DA
:1011E00010E088E097E00E94CA03892B31F0CE011D
:1011F00001960E94710311E0F4CF112391F388E06E
:1012000097E00E94CA03892B61F70F900F900F900F
:10121000DF91CF911F9108950E94F90660E080E070
:101220000E94A20761E873E08DEF97E00E94060834
:1012300061E080E00E94A20761E973E08DEF97E032
:101240000E94060862E080E00E94A20762EA73E062
:101250008DEF97E00E94060863E080E00E94A207FD
:1012600062EB73E08DEF97E00E94060864EF71E097
:1012700080E090E00E94E3020E94F90660E080E0D6
:101280000E94A20761EC73E08DEF97E00E940608D0
:1012900064EF71E080E090E00C94E3026115710569
:1012A00011F00C94F70790E080E008957F928F9200
:1012B0009F92AF92BF92CF92DF92EF92FF920F93E5
:1012C0001F93CF93DF9300D0CDB7DEB78C016B01B6
:1012D0000E94AA040E94F90661ED73E08DEF97E089
:1012E0000E944E0961E080E00E94A20762EE73E076
:1012F0008DEF97E00E944E0988E097E00E94CA03B4
:10130000892BD1F3CE0101960E9471030E9415032F
:101310004B015C010E9415030E94AA04C6010E94B1
:10132000E5080E94F90660E080E00E94A207B6018D
:101330008DEF97E00E940608F12CE12C712C88E0DB
:1013400097E00E94CA03892B71F088E097E00E9421
:101350005D03F801EE0DFF1D8083C70101967C013E
:1013600077247394ECCF772091F10E9415036819CC
:1013700079098A099B09643F714081059105FCF256
:1013800061E080E00E94A207B8018DEF97E00E9423
:10139000060862E080E00E94A20763EF73E08DEF31
:1013A00097E00E944E0964EF71E080E090E00E94B7
:1013B000E3020E94D704811111C0F801E80FF11D6A
:1013C0009081992309F4A2CF10828F5FF6CF0E94FB
:1013D00015034B015C010E941503B1CF81E00F9012
:1013E0000F900F90DF91CF911F910F91FF90EF9091
:1013F000DF90CF90BF90AF909F908F907F90089597
:10140000FF920F931F93CF93DF938C01FC01019008
:101410000020E9F73197FE2EF81A8DE090E00E9447
:101420005017EC014CE050E0B8010E948C18BE014E
:10143000DE012C2F98E78A2F8C1B8F1568F099E717
:10144000862F821B8F1580F4FB018191BF01DF0184
:10145000119789278C93F4CF8D91AD01415051099B
:101460008927FA018083E7CFCE01DF91CF911F91C9
:101470000F91FF900895CF92DF92EF92FF920F931A
:101480001F93CF93DF93CDB7DEB7A3970FB6F89432
:10149000DEBF0FBECDBF8C018EE596E00E94000A34
:1014A0006C01C8010E94000A7C010FEC10E0BE0133
:1014B0006F5F7F4FC8010E94D107B601CE01019630
:1014C0000E947518892BE9F4B701CE010E960E948F
:1014D0007518892BB1F4C6010E94EC17C7010E9450
:1014E000EC1781E0A3960FB6F894DEBF0FBECDBF18
:1014F000DF91CF911F910F91FF90EF90DF90CF90F0
:1015000008950D5D1F4F053D89E0180781F6C6015E
:101510000E94EC17C7010E94EC1780E0E3CF3F92D6
:101520004F925F926F927F928F929F92AF92BF92F3
:10153000CF92DF92EF92FF920F931F93CF93DF939F
:10154000CDB7DEB7E1970FB6F894DEBF0FBECDBFC3
:101550000E94F90660E080E00E94A20763E074E068
:101560008DEF97E00E94060861E080E00E94A207EC
:1015700062E174E08DEF97E00E94060862E080E08F
:101580000E94A2076FE174E08DEF97E00E940608C9
:101590000E94F104182F64E670E080E090E00E9461
:1015A000E3021A3209F047C081E090E090933906D7
:1015B000809338060E94F9068E010E5D1F4F80E170
:1015C000F80111928A95E9F70E94F90660E080E03F
:1015D0000E94A2078091380690913906019799F5EB
:1015E0006FE274E08DEF97E00E940608C8010E9448
:1015F0001A082091380630913906232B29F46FE31D
:1016000074E0C8010E9456098823F1F2B80188E00D
:1016100097E00E9406080E94F906C8010E943B0A52
:10162000811136C0F801E80FF11D9081992369F00E
:1016300010828F5FF7CF133209F0AACF10923906CC
:1016400010923806B7CF80E0D4CF0E94F90660E050
:1016500080E00E94A2078091380690913906019798
:1016600009F07BC069E274E08DEF97E00E94060804
:10167000C8010E941A082091380630913906232BA0
:1016800029F469E374E0C8010E9456098823E9F24D
:10169000C8010E943B0A382E811146C010925406A0
:1016A000109253069AE0C92ED12CE12CF12C2AE09D
:1016B000422E512C612C712C0E94F90660E080E0D2
:1016C0000E94A20719A2460157018E010F5D1F4F0C
:1016D000C501B401A30192010E942617605DF801C3
:1016E00062938F01FAE08F169104A104B104B9F15D
:1016F0000115110529F0B8018DEF97E00E94F70759
:1017000065E773E08DEF97E00E94F70768EE73E0FE
:1017100080E090E00E94E30281E0C81AD108E1086D
:10172000F10851F60E940C09832DE1960FB6F8944A
:10173000DEBF0FBECDBFDF91CF911F910F91FF9004
:10174000EF90DF90CF90BF90AF909F908F907F9061
:101750006F905F904F903F90089580E08CCF812CE8
:10176000912C54018394B4CFCF92DF92EF92FF92E9
:101770000F931F93CF93DF9300D000D000D0CDB74D
:10178000DEB789E0E5E1F3E0DE01119601900D920C
:101790008A95E1F790E4E92E92E0F92E10E000E05E
:1017A000D12CD7018C91811113C04CE050E0B701CE
:1017B0006F5F7F4F8EE596E00E947E18892B41F483
:1017C000E1E0F0E0EC0FFD1FE00FF11F0083D39488
:1017D0000F5F1F4FB7E1EB0EF11C0930110509F740
:1017E000DD2009F4A6C00E94F906FE0131967F01B2
:1017F00010E000E0033011F0063029F41F5F612F84
:1018000080E00E94A207D7016D917D016F3F61F0DA
:10181000605D41E08DEF97E00E94A00665E773E010
:101820008DEF97E00E94F7070F5F093019F71F5FF0
:10183000612F80E00E94A20768E474E08DEF97E0DA
:101840000E944E09612F87E00E94A2076CE475E0B8
:101850008DEF97E00E944E09612F87E00E94A2075A
:101860000E94F104082F64E670E080E090E00E949E
:10187000E302003239F30A3229F3033219F341E06B
:10188000602F8DEF97E00E94A00680EDF82EF00EFD
:1018900068EC70E080E090E00E94E302CF2CD12C55
:1018A000E1E0F0E0EC0FFD1FEC0DFD1D80818F3FAE
:1018B00049F2BFEFFB1631F20E948F0A8823C9F16B
:1018C00087E18C9DF0018D9DF00D1124E05CFD4FB2
:1018D000DF011D928A95E9F781E0808370E060E086
:1018E0008F2D0E94FE050E94F90660E080E00E94B4
:1018F000A20761E574E08DEF97E00E944E0941E098
:10190000602F8DEF97E00E94A0066AEF70E080E004
:1019100090E029960FB6F894DEBF0FBECDBFDF91E1
:10192000CF911F910F91FF90EF90DF90CF900C948B
:10193000E30229960FB6F894DEBF0FBECDBFDF914C
:10194000CF911F910F91FF90EF90DF90CF9008956E
:10195000EF92FF920F931F93CF93DF93CDB7DEB734
:10196000A3970FB6F894DEBF0FBECDBF0E94000A4A
:101970007C010FEC10E0BE016F5F7F4FC8010E9439
:10198000D107B701CE0101960E947518892B89F401
:10199000C7010E94EC1781E0A3960FB6F894DEBF52
:1019A0000FBECDBFDF91CF911F910F91FF90EF90B0
:1019B00008950D5D1F4F053D89E01807E1F6C70149
:1019C0000E94EC1780E0E8CF3F924F925F926F92B7
:1019D0007F928F929F92AF92BF92CF92DF92EF92BF
:1019E000FF920F931F93CF93DF93CDB7DEB7CA5605
:1019F000D1090FB6F894DEBF0FBECDBF8C017B01BD
:101A00002A010E94A80C882301F16AE574E088E0AD
:101A100097E00E94060880E0C659DF4F0FB6F894A1
:101A2000DEBF0FBECDBFDF91CF911F910F91FF9011
:101A3000EF90DF90CF90BF90AF909F908F907F906E
:101A40006F905F904F903F900895C8010E94000AE8
:101A50005C01C7010E94000A6C010FEC10E0BE019E
:101A60006C5D7F4FC8010E94D107C8010E9410170A
:101A7000380193E2690E711C882309F470C0830158
:101A8000E5ED6E16E9E07E0651F74DE050E0B50158
:101A9000CE01895B9F4F0E948C184DE050E0B6014B
:101AA00087E490E08C0F9D1F0D960E948C1849E0F2
:101AB00050E0B20187E490E08C0F9D1F4A960E948F
:101AC0008C188E01095B1F4FF12CE12CF80131902D
:101AD0008F0143018E0C9F1CC4010E941017381601
:101AE00021F0632DC4010E941817FFEFEF1AFF0ABF
:101AF00083E2E816F10451F793E2690E711C8E013E
:101B00000F5F1F4FB801C3010E94D107F801019078
:101B10000020E9F73197EE2EE01A8DE090E00E9468
:101B20005017F82E992E4CE050E0B8010E948C1806
:101B30006F2D792DAF2DB92D4F2D99E78A2F8F1944
:101B40008E1578F098E7862F841B8E1590F4FB0194
:101B50008191BF01DF01119789278C93F4CF380160
:101B600094CF8D919D01215031098927F9018083FE
:101B7000E5CF8F2D992D0E94A80C882329F0F0EC39
:101B80006F16F9E07F0648F4AB961FAEAB97BE0127
:101B900066597F4FC3010E94BA076FE674E088E080
:101BA00097E00E940608B50188E097E00E944E0980
:101BB0006CE475E088E097E00E944E09B60188E089
:101BC00097E00E944E096CE475E088E097E00E947F
:101BD0004E09B20188E097E00E944E0967E773E082
:101BE00088E097E00E94060863E874E088E097E0E8
:101BF0000E940608C5010E94EC17C6010E94EC175E
:101C000081E00ACF1F920F920FB60F9211242F93EB
:101C10003F938F939F93AF93BF938091560690917C
:101C20005706A0915806B09159063091550623E009
:101C3000230F2D3758F50196A11DB11D2093550690
:101C40008093560690935706A0935806B093590672
:101C500080915A0690915B06A0915C06B0915D065A
:101C60000196A11DB11D80935A0690935B06A09327
:101C70005C06B0935D06BF91AF919F918F913F91AC
:101C80002F910F900FBE0F901F90189526E8230FED
:101C90000296A11DB11DD2CF1F920F920FB60F92C7
:101CA00011240BB60F922F933F934F935F936F9333
:101CB0007F938F939F93AF93BF93EF93FF938BE6A5
:101CC00096E00E94EA03FF91EF91BF91AF919F913F
:101CD0008F917F916F915F914F913F912F910F90D5
:101CE0000BBE0F900FBE0F901F9018951F920F9272
:101CF0000FB60F9211240BB60F922F938F939F93D1
:101D0000EF93FF93E0917B06F0917C068081E09158
:101D10008106F091820682FD1DC09081809184062B
:101D20008F5F8F7320918506821741F0E0918406C2
:101D3000F0E0E559F94F958F80938406FF91EF917C
:101D40009F918F912F910F900BBE0F900FBE0F9010
:101D50001F9018958081F2CF1F920F920FB60F92AD
:101D600011240BB60F922F933F934F935F936F9372
:101D70007F938F939F93AF93BF93EF93FF9388E0ED
:101D800097E00E94EA03FF91EF91BF91AF919F917D
:101D90008F917F916F915F914F913F912F910F9014
:101DA0000BBE0F900FBE0F901F9018951F920F92B1
:101DB0000FB60F9211240BB60F922F938F939F9310
:101DC000EF93FF93E0911807F09119078081E0915C
:101DD0001E07F0911F0782FD1DC090818091210791
:101DE0008F5F8F7320912207821741F0E0912107C6
:101DF000F0E0E85FF84F958F80932107FF91EF9116
:101E00009F918F912F910F900BBE0F900FBE0F904F
:101E10001F9018958081F2CFCF93DF9310926E06BA
:101E200010926D0648EE53E060E070E040936F065C
:101E30005093700660937106709372068BE593E081
:101E400090936C0680936B0625E331E0309378061F
:101E50002093770624E331E030937A0620937906C5
:101E600020E331E030937C0620937B0621E331E0D0
:101E700030937E0620937D0622E331E03093800686
:101E800020937F0626E331E030938206209381067B
:101E9000109284061092850610928606109287068C
:101EA00010920B0710920A0740930C0750930D07EE
:101EB00060930E0770930F079093090780930807AC
:101EC00085EC90E0909315078093140784EC90E0E4
:101ED000909317078093160780EC90E09093190772
:101EE0008093180781EC90E090931B0780931A076A
:101EF00082EC90E090931D0780931C0786EC90E0A5
:101F000090931F0780931E071092210710922207BB
:101F10001092230710922407109200081092FF07D6
:101F20008DE693E09093FE078093FD0786E1809312
:101F300001088FEF8093020887E18093030888E10E
:101F40008093040889E1809305088AE1809306085C
:101F50008BE18093070810920808109209081092EC
:101F60000A0810920B0810920C0881E00E940107E9
:101F7000CCE1D0E0D093F607C093F5078EE190E076
:101F80009093F8078093F7078DE190E09093FA071C
:101F90008093F90781E090E09093FC078093FB0722
:101FA00061E08CE10E948D0261E08091F7070E9460
:101FB0008D0261E08091F9070E948D0261E08091BD
:101FC000F9070E945F02D093F607C093F507E5EB8F
:101FD000F7E0119287E0E53FF807D9F7D0E0C0E0DD
:101FE0008091FB079091FC07C817D90774F540E072
:101FF0006FE0CE010E9429058091FB079091FC07BC
:10200000C817D9072CF447E06BE0CE010E942905E0
:1020100040E069E0CE010E9429058091FB07909184
:10202000FC07C817D9071CF4CE010E9487058091D0
:10203000FB079091FC07C817D9072CF440E06CE02F
:10204000CE010E9429052196CBCFDF91CF91089533
:10205000CF93DF93CDB7DEB7A4970FB6F894DEBF6A
:102060000FBECDBF789484B5826084BD84B5816095
:1020700084BD85B5826085BD85B5816085BD809153
:102080006E00816080936E001092810080918100CB
:1020900082608093810080918100816080938100C3
:1020A000809180008160809380008091B100846085
:1020B0008093B1008091B00081608093B0008091E6
:1020C0009100826080939100809191008160809363
:1020D0009100809190008160809390008091A10098
:1020E00082608093A1008091A10081608093A10013
:1020F0008091A00081608093A00080912101826086
:102100008093210180912101816080932101809140
:10211000200181608093200180917A008460809307
:102120007A0080917A00826080937A0080917A00B0
:10213000816080937A0080917A00806880937A0031
:102140001092C10088E097E00E94A8018BE696E01B
:102150000E94A8018091FB079091FC0718161906B0
:1021600034F441E06CE090E080E00E942905809129
:10217000FB079091FC071816190634F448E06AE052
:1021800090E080E00E9429058091FB079091FC0778
:102190001816190624F490E080E00E94870584E078
:1021A0000E94010712E060E0812F0E948D021F5FF4
:1021B0001830C9F761E088E00E948D0261E089E093
:1021C0000E948D0261E08AE00E948D020E940C094B
:1021D0000E94A70587E994E00E94A80C811179C0AC
:1021E0006EE974E088E097E00E9406081982BE015B
:1021F0006F5F7F4F8FEC90E00E94BA074CEA54E08B
:10220000BA0187E994E00E94E40C4CEA54E0BA0178
:102210008BEB94E00E94E40C4CEA54E0BA0183ECAE
:1022200094E00E94E40C4CEA54E0BA018BEB94E099
:102230000E94E40C4CEA54E0BA0189EC94E00E945C
:10224000E40C4CEA54E0BA018BEB94E00E94E40CFD
:102250004CEA54E0BA0183EC94E00E94E40C4CEAAE
:1022600054E0BA018FEC94E00E94E40C4CEA54E094
:10227000BA018FEC94E00E94E40C4CEA54E0BA01FD
:1022800084ED94E00E94E40C9EE5692E96E0792EA0
:1022900023E4E22E26E0F22E3AE3432E36E0532EDC
:1022A00042E0842E912CE0915306F0915406E830E0
:1022B000F10508F072C08827EF59FE4E8F4F0C943D
:1022C000481770110115F2112412CD116215EE1389
:1022D000901361EB74E088E097E00E94060895CFC8
:1022E0000E94F90660E080E00E94A20769ED74E0B8
:1022F0008DEF97E00E944E0961E080E00E94A20706
:1023000068EE74E08DEF97E00E944E0962E080E095
:102310000E94A20769EF74E08DEF97E00E944E09DA
:1023200063E080E00E94A20761E075E08DEF97E036
:102330000E944E09609152066E5F80E00E94A207E3
:102340006DE075E08DEF97E00E944E090E94F10468
:10235000823381F462ED70E080E090E00E94E3025D
:10236000809152068150809352068F3FB1F41092B3
:10237000520613C08833A1F462ED70E080E090E073
:102380000E94E302809152068F5F823018F480939E
:10239000520603C021E0209352060E94790483CFA5
:1023A00082E00E9436028C01019781F662ED70E0B6
:1023B00080E090E00E94E30280915206882339F089
:1023C0008130A9F61093540600935306D0CF909213
:1023D00054068092530683E090E0909351068093D8
:1023E0005006C5CF0E94AA040E94F90661ED73E071
:1023F0008DEF97E00E944E0961E080E00E94A20705
:1024000062EE73E08DEF97E00E944E0910E088E0E5
:1024100097E00E94CA03892B31F0CE0101960E94F9
:10242000710311E0F4CF112391F388E097E00E944B
:10243000CA03892B61F780915006909151069093C1
:10244000540680935306A9CF8BE0F301282F1192F5
:102450002A95E9F7F70111928A95E9F789E0F201E7
:1024600011928A95E9F78BE0282E0E94AA048FE04A
:1024700095E00E94E508F301222D11922A95E9F7D3
:102480000E94F90667E175E08DEF97E00E944E0922
:1024900061E080E00E94A20761E275E08DEF97E0C5
:1024A0000E944E0962E080E00E94A2070E9415038C
:1024B0005B016C010E9415030E94AA0410E000E079
:1024C000312C88E097E00E94CA03892B69F088E0EC
:1024D00097E00E945D03F801E25AF94F80830F5F95
:1024E0001F4F33243394EDCF3320D9F10E941503CD
:1024F0006A197B098C099D09643F7140810591052A
:1025000004F36EE576E08DEF97E00E944E0963E0FC
:1025100080E00E94A2076CE275E08DEF97E00E94D8
:102520004E0964EF71E080E090E00E94E3020E94B7
:10253000D704382E811165C062E080E00E94A207B6
:102540006DE375E08DEF97E00E944E0963E080E057
:102550000E94A2076DE375E08DEF97E00E944E099F
:1025600084CF0E9415035B016C010E941503A9CF63
:102570002220C9F00E9415036A197B098C099D0964
:10258000643F7140810591050CF467C003E416E0D7
:10259000F80181918F01882369F06AE28DEF97E05D
:1025A0000E94B407F5CF0E9415035B016C010E94E5
:1025B000150353C063E080E00E94A2076CE275E05F
:1025C0008DEF97E00E944E0964EF71E080E090E0AB
:1025D0000E94E3020E94D704811152C062E00E946F
:1025E000A2076DE375E08DEF97E00E944E0963E06E
:1025F00080E00E94A2076DE375E08DEF97E00E94F6
:102600004E090E94AA0481E595E00E94E508F701C1
:102610002BE011922A95E9F70E94F90667E175E02F
:102620008DEF97E00E944E0961E080E00E94A207D2
:102630006EE475E08DEF97E00E944E0962E080E065
:102640000E94A2070E9415035B016C010E94150302
:102650000E94AA0410E000E0212C88E097E00E948C
:10266000CA03892B09F484CF88E097E00E945D03B8
:10267000F801ED5BF94F80830F5F1F4F232CEDCFE7
:102680008AE595E00E94E50883E496E00E943B0A13
:10269000182F0E94F90667E974E08EE596E00E9423
:1026A0007518892B09F56CEA74E083E496E00E94C2
:1026B0007518892BC9F468E675E08DEF97E00E94E4
:1026C0004E0962E370E080E090E00E94E30287E060
:1026D00090E0909354068093530660ED77E080E09D
:1026E00090E00E94E30259CE112319F086E090E0B9
:1026F000F0CF6EE576E08DEF97E00E944E0963E43F
:1027000076E08DEF97E00E944E0962E370E080E092
:1027100090E00E94E3021092540610925306DDCF1F
:102720000E94F90660E080E00E94A20768EE74E073
:102730008DEF97E00E944E0961E080E00E94A207C1
:102740006FE575E08DEF97E00E944E0962E080E052
:102750000E94A2076EE675E08DEF97E00E944E0999
:1027600063E080E00E94A2076EE775E08DEF97E0DE
:102770000E944E09609152066F5F80E00E94A2079E
:102780006DE075E08DEF97E00E944E090E94F10424
:10279000823309F4DFCD883381F462ED70E080E0AC
:1027A00090E00E94E302809152068F5F8093520670
:1027B000833008F4F2CD82E0EACD82E00E94360256
:1027C000019721F762ED70E080E090E00E94E30263
:1027D00080915206823009F405C1C9CD0E94F906E4
:1027E00060E080E00E94A2076EE875E08DEF97E060
:1027F0000E944E0961E080E00E94A2076BE975E04B
:102800008DEF97E00E944E0962E080E00E94A207EF
:102810006FE775E08DEF97E00E944E0963E080E07E
:102820000E94A20767EA75E08DEF97E00E944E09CB
:102830006091520680E00E94A2076DE075E08DEF86
:1028400097E00E944E090E94F104823309F482CD80
:10285000883371F462ED70E080E090E00E94E30262
:10286000809152068F5F843008F491CD83E08FCD44
:1028700082E00E943602019731F762ED70E080E05D
:1028800090E00E94E30280915206813009F472C008
:10289000A8F0823009F4A6C0833009F068CD8EE537
:1028A00096E00E94A80C00E412E081113CC068EBA5
:1028B00075E088E097E00E94060859CDE0E4F2E078
:1028C00010E000E08081882339F10E948F0A88237C
:1028D00009F44DCD87E1809F6001819FD00C1124C8
:1028E000F601E05CFD4F10824CE050E06EE576E0D2
:1028F000C6018F5B9D4F0E948C1848E050E067E74F
:1029000073E0C601825B9D4F0E948C1861E070E00D
:10291000802F0E94FE052BCD0F5F1F4F7796093049
:10292000110581F624CDF8018081811126C04CE08B
:1029300050E0B8016F5F7F4F8EE596E00E947E18F1
:10294000892BD9F40E94F90660E080E00E94A2077A
:102950006DEC75E08DEF97E00E9406086CED75E078
:102960008DEF97E00E94060860E971E080E090E05A
:102970000E94E3020E94B40BFACC095E1F4FF3E001
:102980000F301F0781F68EE596E00E94000A5C0179
:102990000FEC10E0BE016F5F7F4FC8010E94D107AE
:1029A000B501CE0101960E947518892B01F5D12C35
:1029B000C12C1CA2BE016C5D7F4FC601800F911F10
:1029C0000E94BA072FEFC21AD20A82E2C816D104B7
:1029D00081F76EEE75E088E097E00E940608C50179
:1029E0000E94EC171092540610925306C0CC0D5D55
:1029F0001F4F053D99E0190769F6C5010E94EC17C4
:102A0000B6CC0E94F90660E080E00E94A20768EE62
:102A100074E08DEF97E00E944E0961E080E00E9433
:102A2000A2076EEF75E08DEF97E00E944E0962E01D
:102A300080E00E94A2076BE076E08DEF97E00E94B5
:102A40004E0963E080E00E94A20763E176E08DEF2B
:102A500097E00E944E09609152066F5F80E00E94ED
:102A6000A2076DE075E08DEF97E00E944E090E948D
:102A7000F104823309F46ECC883309F48ECE82E0FF
:102A80000E943602019799F762ED70E080E090E0D5
:102A90000E94E30280915206813069F008F09ACEDC
:102AA0009092540680925306E5E0F0E0F0935106D0
:102AB000E09350065CCC88E090E0909354068093BD
:102AC000530655CC8DE0F301282F11922A95E9F792
:102AD000F70111928A95E9F789E0F20111928A953E
:102AE000E9F70E94AA048FE095E00E94E508F3014F
:102AF0002DE011922A95E9F70E94F9066BE176E044
:102B00008DEF97E00E944E0961E080E00E94A207ED
:102B100061E275E08DEF97E00E944E0962E080E08F
:102B20000E94A2070E9415035B016C010E9415031D
:102B30000E94AA0410E000E0312C88E097E00E9497
:102B4000CA03892B69F088E097E00E945D03F801D1
:102B5000E25AF94F80830F5F1F4F33243394EDCF38
:102B60003320D9F10E9415036A197B098C099D094C
:102B7000643F71408105910504F36EE576E08DEFC9
:102B800097E00E944E0963E080E00E94A2076CE299
:102B900075E08DEF97E00E944E0964EF71E080E0F0
:102BA00090E00E94E3020E94D704282E81115AC0AF
:102BB00062E080E00E94A2076DE375E08DEF97E090
:102BC0000E944E0963E080E00E94A2076DE375E079
:102BD0008DEF97E00E944E0984CF0E9415035B01A0
:102BE0006C010E941503A9CF332009F47AC00E941A
:102BF00015036A197B098C099D09643F71408105A1
:102C000091050CF45BC06AE376E08DEF97E00E94DB
:102C10004E0963E080E00E94A2076CE275E08DEF50
:102C200097E00E944E0964EF71E080E090E00E941E
:102C3000E3020E94D704382E8111A3C062E080E035
:102C40000E94A2076DE375E08DEF97E00E944E09A8
:102C500063E080E00E94A2076DE375E08DEF97E0EE
:102C60000E944E090E94AA048EE296E00E94E508A6
:102C7000F20129E011922A95E9F70E94F9066BE129
:102C800076E08DEF97E00E944E0961E080E00E94BF
:102C9000A2076BE276E08DEF97E00E944E0962E0BA
:102CA00080E00E94A2070E9415035B016C010E9454
:102CB00015030E94AA0410E000E0312C88E097E0A0
:102CC0000E94CA03892B09F48FCF88E097E00E9405
:102CD0005D03F801E65CF94F80830F5F1F4F322CD4
:102CE000EDCF0E9415035B016C010E941503E6CF36
:102CF0002220C9F00E9415036A197B098C099D09DD
:102D0000643F7140810591050CF467C003E416E04F
:102D1000F80181918F01882369F06AE28DEF97E0D5
:102D20000E94B407F5CF0E9415035B016C010E945D
:102D3000150353C063E080E00E94A2076CE275E0D7
:102D40008DEF97E00E944E0964EF71E080E090E023
:102D50000E94E3020E94D704811152C062E00E94E7
:102D6000A2076DE375E08DEF97E00E944E0963E0E6
:102D700080E00E94A2076DE375E08DEF97E00E946E
:102D80004E090E94AA0481E595E00E94E508F7013A
:102D90002DE011922A95E9F70E94F9066BE176E0A1
:102DA0008DEF97E00E944E0961E080E00E94A2074B
:102DB0006EE475E08DEF97E00E944E0962E080E0DE
:102DC0000E94A2070E9415035B016C010E9415037B
:102DD0000E94AA0410E000E0212C88E097E00E9405
:102DE000CA03892B09F484CF88E097E00E945D0331
:102DF000F801ED5BF94F80830F5F1F4F232CEDCF60
:102E00004AE356E063E476E08EE596E00E94E40C47
:102E1000882309F4C2CA1092540610925306BDCA00
:102E2000F999FECF92BD81BDF89A992780B5089592
:102E3000262FF999FECF1FBA92BD81BD20BD0FB6D6
:102E4000F894FA9AF99A0FBE01960895A1E21A2E03
:102E5000AA1BBB1BFD010DC0AA1FBB1FEE1FFF1F3E
:102E6000A217B307E407F50720F0A21BB30BE40B8E
:102E7000F50B661F771F881F991F1A9469F76095D5
:102E80007095809590959B01AC01BD01CF0108958F
:102E9000EE0FFF1F881F8BBF0790F691E02D19944E
:102EA0000F931F93CF93DF938230910510F482E04C
:102EB00090E0E0911708F091180830E020E0B0E0D1
:102EC000A0E0309799F42115310509F44AC0281B78
:102ED000390B24303105D8F58A819B816115710544
:102EE00089F1FB0193838283FE0111C040815181EE
:102EF0000281138148175907E0F04817590799F4E0
:102F0000109761F012960C93129713961C933296B9
:102F1000CF01DF91CF911F910F9108950093170872
:102F200010931808F4CF2115310551F042175307BB
:102F300038F0A901DB019A01BD01DF01F801C1CF21
:102F4000EF01F9CF9093180880931708CDCFFE01B9
:102F5000E20FF31F81939193225031093983288323
:102F6000D7CF2091150830911608232B41F42091DA
:102F70001103309112033093160820931508209105
:102F80000F03309110032115310541F42DB73EB7E1
:102F90004091130350911403241B350BE091150845
:102FA000F0911608E217F307A0F42E1B3F0B281729
:102FB000390778F0AC014E5F5F4F2417350748F0B2
:102FC0004E0F5F1F509316084093150881939193FD
:102FD0009FCFF0E0E0E09CCFCF93DF930097E9F044
:102FE000FC01329713821282A0911708B091180841
:102FF000ED0130E020E01097A1F420813181820FB3
:10300000931F20911508309116082817390709F0E9
:1030100061C0F0931608E0931508DF91CF910895F1
:10302000EA01CE17DF07E8F54A815B819E01411571
:103030005105B1F7E901FB83EA8349915991C40F26
:10304000D51FEC17FD0761F4808191810296840FF2
:10305000951FE90199838883828193819B838A8369
:10306000F0E0E0E012968D919C9113970097B9F5EE
:103070002D913C911197CD010296820F931F2091C3
:103080001508309116082817390739F6309751F589
:103090001092180810921708B0931608A0931508FC
:1030A000BCCFD383C28340815181840F951FC81741
:1030B000D90761F44E5F5F4F88819981480F591F8E
:1030C000518340838A819B819383828321153105BB
:1030D00009F0B0CFF0931808E09317089ECFFD01D8
:1030E000DC01C0CF13821282D7CFFB01DC018D91AE
:1030F000019080190110D9F3990B0895FB01DC01AF
:103100004150504030F08D910190801919F4002009
:10311000B9F7881B990B0895FB01DC014150504021
:1031200048F001900D920020C9F701C01D92415056
:0A3130005040E0F70895F894FFCF37
:10313A000000010000010000000001000001000081
:10314A00010101010101010100000100000100006B
:10315A00000001000001000001010101010101015B
:10316A000000010000010000000001000001000051
:10317A000100000000000000000000000000000044
:10318A000000000000000001000000000000000034
:10319A000000000000000000000000000000010024
:1031AA000000000000000000000000000000000015
:1031BA000000000000010000000000000000000004
:1031CA0000000000000000000000000001000000F4
:1031DA0000000000000000000000000000000000E5
:1031EA0000000001000000000000000000000000D4
:1031FA0000000000000000000000010000000000C4
:10320A0000000000000000000000000000000000B4
:10321A0000010000000000000000000000000000A3
:10322A000000000000000000010000000000000093
:10323A000000000000000000000000000000000084
:10324A000019088000FFFFFFFFFFFFFFFFFF313279
:10325A00333435363738392A3023312A2423213278
:10326A004142433033444546003447484900354AD1
:10327A004B4C00364D4E4F0037505152533854552F
:10328A005600395758595A000000000C0421034EC1
:10329A00035904CA035D03BC0300000000B40721FC
:1032AA0003A704A6040D0A0063616E63656C61726C
:1032BA0000527562656E2032303231313138333521
:1032CA000053657267696F203230323131313833D9
:1032DA003500506564726F20323032313131383303
:1032EA0035004A6F7365203230313930313735361F
:1032FA0000536562617320323032313131383335EF
:10330A0000204573706572616E646F2020756E616E
:10331A002000202020636F6E6578696F6E2E2E2E36
:10332A00202000416365707461723F2020202020B4
:10333A002020005449504F20444520494E505554AE
:10334A003A00232041504C49434143494F4E002AF9
:10335A00205445434C41444F006572726F7220708D
:10336A00617373776F72643A006572726F7220705C
:10337A00617373776F7264004F7063696F6E3A207E
:10338A000053616361646F202300456C2075737577
:10339A006172696F20796120657869737465002D9F
:1033AA002D2D4E7565766F207573756172696F2D57
:1033BA002D2D002D2D2D2D2D2D2D2D2D2D2D2D2D60
:1033CA002D2D2D2D2D2D0061646D696E3100416703
:1033DA0072656761722041646D696E0031323334FF
:1033EA00004861792061646D696E00613133313260
:1033FA006E330061736461340078787878320070D3
:10340A00696E67006C656C6F004D656E7520707231
:10341A00696E636970616C0050726573696F6E6181
:10342A0020616365707461720020204C6F67696E59
:10343A00002020526567697374726172003E004E03
:10344A006F6D6272653A004C204F20472049204E2A
:10345A0000202D204E4F4D4252453A00436F727262
:10346A006563746F3F202020202020200020202028
:10347A002020202020202020202020202000202D55
:10348A0020436F6E747261733A004E4144410020CA
:10349A0020416363696F6E2041444D494E002020EC
:1034AA00416363696F6E2041444D494E32002020CA
:1034BA0043657272617220736573696F6E00204989
:1034CA006E677265736F2043656C0020526574697C
:1034DA00726F2043656C0020456C696D696E61727C
:1034EA00204375656E746100456C20757375617251
:1034FA00696F206E6F206578697374650043454C67
:10350A0020656E2053697374656D61004D656E7533
:10351A002064652072657469726F2E2E2E005573B1
:10352A00756172696F20426F727261646F00202048
:10353A0041706C69636163696F6E00202050616E2F
:10354A00656C00202053616C697200522045204747
:10355A002049205320542052204F00202D2043651B
:08356A006C756C61723A0000FF
:00000001FF
