:100000000C947D010C94AE010C94AE010C94AE01E5
:100010000C94AE010C94AE010C94AE010C94AE01A4
:100020000C94AE010C94AE010C94AE010C94AE0194
:100030000C94AE010C94AE010C94AE010C94AE0184
:100040000C94AE010C94AE010C94AE010C94AE0174
:100050000C94AE010C94AE010C94AE010C94DD1B1B
:100060000C94AE010C94F91C0C94CF1C0C94AE01B2
:100070000C94AE010C94AE010C94AE010C94AE0144
:100080000C94AE010C94AE010C94AE010C94AE0134
:100090000C94AE010C94AE010C94AE010C94AE0124
:1000A0000C94AE010C94AE010C94AE010C94AE0114
:1000B0000C94AE010C94AE010C94AE010C94AE0104
:1000C0000C94AE010C94AE010C94AE010C94A51CE2
:1000D0000C947B1C0C94AE010C94511C0C94271CAA
:1000E0000C94AE010C946F030C94640E0C947E037C
:1000F0000C9410020C94E7030C9447190C9403021F
:100100000C9407020C9492190C947C050C942C020C
:100110000C94A1100C947F050C941A0F0C94ED1400
:100120000C94231D0C9480040C9430020C941E0239
:100130000C940D190C9436020C9409190C94AA1500
:100140000C944F150C9473050C9414020C94211903
:100150000C9429030C94D30D0C9404190C94B60739
:100160000C946E050C941D190C94CA040C94F501A2
:100170000C9496190C943B190C943A020C94780543
:100180000C940A020C9428020C941A020C94220279
:100190000C9423130C9476050C94FF010C94E70E39
:1001A0000C94FB010C9433040C9419190C948505E0
:1001B0000C9482050C9411190C94C9040C94D90365
:1001C0000C9435020C9488050C943E190C94151966
:1001D0000C9453140C94B911000021002400270042
:1001E0002A002D0030003300010100000401070146
:1001F0000A0100002200250028002B002E003100FB
:10020000340002010000050108010B01000020007C
:100210002300260029002C002F00320000010000DE
:100220000301060109010505050507050808080879
:10023000020202020A0A080804040404010101017E
:100240000101010103030303030303030407070779
:100250000C0C0C0C0C0C0C0C02020202060606061E
:10026000060606060B0B0B0B0B0B0B0B01021020EB
:1002700020080810204010204080020102010804DC
:100280000201010204081020408080402010080470
:1002900002018004020180402010080402010804C9
:1002A000020101020408102040800102040810200D
:1002B000408000000A0B02090C0D0E080703040120
:1002C000000000000000000000000000000000002E
:1002D00000000000000000000000000000001211FB
:1002E00010000000000000000000000000000000FE
:1002F0000000000000000000231D11241FBECFEFEE
:10030000D1E2DEBFCDBF00E00CBF29E0A8E1B7E03D
:1003100001C01D92AE39B207E1F717E0A0E0B2E0EC
:10032000EEEBF2E400E00BBF02C007900D92A831A3
:10033000B107D9F711E0CDE7D1E000E006C0219781
:100340000109802FFE010E94F81FCC37D10780E001
:100350000807A9F70E947B1E0C945D210C940000F5
:10036000FC01A089B18982E08C93A485B5851C929B
:10037000A685B7858FEC8C93108EA489B58986E00D
:100380008C93A289B3898C9180618C93A289B38963
:100390008C9188608C93A289B3898C9180688C93AE
:1003A0000288F389E02D80818F7D808308958150BC
:1003B000823108F05AC0E82FF0E08827ED51FE4F57
:1003C0008F4F0C94F81F03020702F501FB01FF0198
:1003D00035020A02100214021A021E022202280228
:1003E0002C023502300236023A02809180008F776B
:1003F000809380000895809180008F7DF9CF809157
:100400008000877FF5CF84B58F7784BD089584B54C
:100410008F7DFBCF8091B0008F778093B0000895DF
:100420008091B0008F7DF9CF809190008F7780937D
:1004300090000895809190008F7DF9CF8091900079
:10044000877FF5CF8091A0008F778093A0000895DB
:100450008091A0008F7DF9CF8091A000877FF5CF9C
:10046000809120018F778093200108958091200151
:100470008F7DF9CF80912001877FF5CFCF93DF93D8
:10048000282F30E0F901EE54FD4F8491F901E45931
:10049000FD4FD491F901EA5DFD4FC491CC23A1F049
:1004A00081110E94D701EC2FF0E0EE0FFF1FE45FF7
:1004B000FD4FA591B491EC91ED2381E090E009F41A
:1004C00080E0DF91CF91089580E090E0FACF1F9314
:1004D000CF93DF93282F30E0F901EE54FD4F849144
:1004E000F901E459FD4FD491F901EA5DFD4FC49142
:1004F000CC23A9F0162F81110E94D701EC2FF0E038
:10050000EE0FFF1FEE50FE4FA591B4918FB7F894F8
:10051000EC91111108C0D095DE23DC938FBFDF91E1
:10052000CF911F910895DE2BF8CFCF93DF9390E00A
:10053000FC01E459FD4F24918A5D9D4FFC0184919B
:100540008823D1F090E0880F991FFC01E852FE4FFC
:10055000A591B491FC01EE50FE4FC591D49161116B
:100560000EC09FB7F8948C91E22FE0958E238C9368
:100570002881E223E8839FBFDF91CF9108958FB751
:10058000F894EC91E22BEC938FBFF6CF3FB7F89441
:100590008091420790914307A0914407B09145078D
:1005A00026B5A89B05C02F3F19F00196A11DB11DCE
:1005B0003FBFBA2FA92F982F8827BC01CD01620F0A
:1005C000711D811D911D42E0660F771F881F991FC5
:1005D0004A95D1F708958F929F92AF92BF92CF9292
:1005E000DF92EF92FF924B015C010E94C6026B0109
:1005F0007C010E94C6026C197D098E099F09683E24
:10060000734081059105A8F321E0821A9108A108A1
:10061000B10888EEC80E83E0D81EE11CF11C8114DD
:100620009104A104B10429F7FF90EF90DF90CF90DF
:10063000BF90AF909F908F9008952FB7F8946091DE
:100640003E0770913F0780914007909141072FBF6F
:100650000895AF92BF92CF92DF92EF92FF920F93E5
:100660001F93CF93DF936C017B018B01040F151F48
:10067000EB015E01AE18BF08C017D10759F06991B0
:10068000D601ED91FC910190F081E02DC601199504
:10069000892B79F7C501DF91CF911F910F91FF90C1
:1006A000EF90DF90CF90BF90AF900895FC01A089AC
:1006B000B1898C91A689B78982FD0FC09C91818DEB
:1006C0008F5F8F73228D821749F0A18DAE0FBF2FE0
:1006D000B11D5D969C93818F08958C910895FC01C6
:1006E000538D448D252F30E0842F90E0821B930B97
:1006F000541710F0CF96089501970895FC01918D3D
:10070000828D981761F0A28DAE0FBF2FB11D5D963F
:100710008C91928D9F5F9F73928F90E008958FEFE1
:100720009FEF08958F929F92AF92BF92CF92DF92E8
:10073000EF92FF920F931F93CF93DF937C016A0197
:100740008B01D0E0C0E00E941D03F7016087718734
:1007500082879387C7010E947E0397FF22C00E9471
:100760001D03F70180849184A284B38468197909F8
:100770008A099B0984809580A680B78068157905D1
:100780008A059B0538F3CE01DF91CF911F910F9120
:10079000FF90EF90DF90CF90BF90AF909F908F90A1
:1007A0000895F80181938F012196CC16DD0659F644
:1007B000EACFFC01918D828D981731F0828DE80F80
:1007C000F11D858D90E008958FEF9FEF0895FC0156
:1007D000918D228D892F90E0805C9F4F821B910923
:1007E0008F739927089583E597E00E94E70321E03E
:1007F000892B09F420E0822F089580EF97E00E9472
:10080000E70321E0892B09F420E0822F08958DE889
:1008100098E00E94E70321E0892B09F420E0822F71
:100820000895FC01A48DA80FB92FB11DA35ABF4F85
:100830002C91848D90E001968F739927848FA689DF
:10084000B7892C93A089B1898C91837080648C9333
:10085000938D848D981306C00288F389E02D8081E2
:100860008F7D80830895EF92FF920F931F93CF9314
:10087000DF93EC0181E0888F9B8D8C8D98131AC0DB
:10088000E889F989808185FF15C09FB7F894EE89C2
:10089000FF896083E889F98980818370806480831F
:1008A0009FBF81E090E0DF91CF911F910F91FF906A
:1008B000EF900895F62E0B8D10E00F5F1F4F0F7312
:1008C0001127E02E8C8D8E110CC00FB607FCFACFCD
:1008D000E889F989808185FFF5CFCE010E94110456
:1008E000F1CFEB8DEC0FFD2FF11DE35AFF4FF0829E
:1008F0009FB7F8940B8FEA89FB8980818062CFCF04
:10090000CF93DF93EC01888D8823B9F0AA89BB8946
:10091000E889F9898C9185FD03C0808186FD0DC031
:100920000FB607FCF7CF8C9185FFF2CF808185FF52
:10093000EDCFCE010E941104E9CFDF91CF91089550
:1009400080E090E0892B29F00E94070481110E9429
:10095000000080E090E0892B49F080E090E0892B56
:1009600029F00E94000081110E94000080E090E0C8
:10097000892B29F00E94FD0381110E94000080E074
:1009800090E0892B29F00E94F30381110C94000060
:100990000895089590E080E00895CF92DF92EF925D
:1009A000FF92CF93DF930E941D03EB010E941D0372
:1009B0000E941D036B018DE898E00E94E703892BDC
:1009C00029F08DE898E00E947E03F5CFCC1ADD0A6D
:1009D00088EEC81683E0D8065CF38DE898E00E94A4
:1009E000E703892B29F7DF91CF91FF90EF90DF90FC
:1009F000CF90089582E00E943E02892B41F062ED83
:100A000070E080E090E00E94EB0281E0089583E0D6
:100A10000E943E02892B71F362ED70E080E090E06D
:100A20000E94EB0280E00895FF920F931F93CF93F3
:100A3000DF93C8E0D0E0FC2E61E08C2F0E946702BB
:100A400004E010E0802F0E943E020197B1F460E0C4
:100A50008F2D0E94670204501109C801880F991F49
:100A6000080F191FC00FD11FCF5FDC4F8881DF91A6
:100A7000CF911F910F91FF9008950F5F1F4F083086
:100A8000110501F760E08F2D0E9467022196CB309F
:100A9000D10589F680E2EBCF0E941D0360931A070F
:100AA00070931B0780931C0790931D070895CF93A5
:100AB000DF93EB01DA01893098F4E82FF0E0882722
:100AC000EB59FA4F8F4F0C94F81F6E05730576059E
:100AD00078057C057F0582058505880518821C92AE
:100AE000DF91CF91089583E08883F9CF86E0FCCF32
:100AF000188283E08C93F4CF83E08883FBCF86E079
:100B00008883F7CF188286E0F5CF83E08883FBCF18
:100B100086E0F3CFCF92DF92EF92FF920F931F9375
:100B2000CF93DF931F921F92CDB7DEB769834A83BD
:100B3000880F991F0091800910918109000F111FE2
:100B4000EAE2F9E09F012A5239402017310714F4F4
:100B50001192F8CF2981FC01E65DF64F21838A814D
:100B6000808360E080917E090E9467021016110662
:100B700004F501501109F801E65DF64FE080D090D0
:100B80007C09C0907A0988E0F82E6E2D661F6627D2
:100B9000661F8C2D0E946702EE0C61E08D2D0E9475
:100BA000670260E08D2D0E946702FA94F110EDCF8C
:100BB000DDCF61E080917E090F900F90DF91CF91A2
:100BC0001F910F91FF90EF90DF90CF900C946702F0
:100BD000EF92FF920F931F93CF937C018C0183E0E0
:100BE000000F111F8A95E1F7065C164FC1E0F8016E
:100BF00011928F0140E06C2FC7010E948A05CF5FE0
:100C0000C930A9F7CF911F910F91FF90EF900895F0
:100C1000AF92BF92CF92DF92EF92FF920F931F930A
:100C2000CF93DF93CAE2D9E080E0C82E82E0D82ECD
:100C3000B12C90E8E92EF12C10E000E0AA24A39456
:100C4000AB0C809180099091810918161906E4F483
:100C500088E0B816C9F008301105B1F0C701002EC0
:100C600002C0959587950A94E2F72889F601E00F6E
:100C7000F11F3081332301F1822B888B48896A2D43
:100C800090E080E00E948A050F5F1F4F0930110538
:100C9000C1F6B394219688E0C80ED11C89E0B81241
:100CA000CBCFDF91CF911F910F91FF90EF90DF900D
:100CB000CF90BF90AF90089580958223DECFCF93E1
:100CC000DF93EC0160E08E810E94670261E08E811B
:100CD0000E94670260E08E810E9467028BE891E0CB
:100CE0000197F1F7DF91CF910895CF92DF92EF92C4
:100CF000FF920F931F93CF93DF936C017C0187E0EA
:100D0000E80EF11CD0E0C0E0062F10E0B8010C2E78
:100D100002C0759567950A94E2F76170F7018191B9
:100D20007F010E9467022196C430D10579F7C60180
:100D3000DF91CF911F910F91FF90EF90DF90CF90B7
:100D40000C945F06CF92DF92EF92FF920F931F9366
:100D5000CF93DF93EC01F62E642F8C810E94670203
:100D60008D818F3F19F060E00E9467020F2D10E027
:100D70008F8584FF25C06E0187E0C80ED11CF12C41
:100D8000E12CB8010E2C02C0759567950A94E2F724
:100D90006170F60181916F010E946702FFEFEF1A07
:100DA000FF0A88E0E816F10461F7CE01DF91CF91E8
:100DB0001F910F91FF90EF90DF90CF900C945F0602
:100DC000B80184E0759567958A95E1F7CE010E9498
:100DD00075066F2DCE01DF91CF911F910F91FF907E
:100DE000EF90DF90CF900C94750640E0682F82E87A
:100DF00099E00C94A20681E00E94F5068BE39FE146
:100E00000197F1F70895CF93DF93813029F0909106
:100E10009109986090939109809395091092960991
:100E200080E48093970980E18093980980E580931E
:100E3000990961E0809186090E9495028091870955
:100E40008F3F19F061E00E94950261E0809188096E
:100E50000E949502C2E8D9E09E0122583940809153
:100E6000910984FD0BC084E090E021962817390792
:100E700044F461E08E810E949502EECF88E090E01C
:100E8000F4CF8BE39DE00197F1F760E08091860954
:100E90000E94670260E0809188090E946702809149
:100EA00087098F3F19F060E00E94670280919109E5
:100EB00084FD34C063E082E899E00E947506CBE4CB
:100EC000D6E4CE010197F1F763E082E899E00E9451
:100ED00075062197F1F763E082E899E00E947506B4
:100EE00083E592E00197F1F762E082E899E00E94E1
:100EF00075068091910980620E94F50684E08093D6
:100F000092098CE00E94F5060E94FB0682E0809325
:100F1000930986E0DF91CF910C94F50680620E94E0
:100F2000F5068BE496E40197F1F7809191098062D0
:100F30000E94F50683E592E00197F1F7809191090F
:100F400080620E94F506D5CF643008F063E090918E
:100F50009509691710F06FEF690FE62FF0E0EE5773
:100F6000F64F9489890F80680C94F50641E00E9441
:100F7000A20681E090E0089541E0682F82E899E0C0
:100F80000E94A20681E090E00895CF92DF92EF9256
:100F9000FF920F931F93CF93DF93EB017B0120E12F
:100FA000E20EF11C8B016C01C61AD70AC601800F34
:100FB000911F0E94C01FF80181938F01EE15FF055C
:100FC000A9F7CE01DF91CF911F910F91FF90EF9084
:100FD000DF90CF900895CF92DF92EF92FF920F9320
:100FE0001F93CF93DF93EB017B0123E2E20EF11C11
:100FF0008B016C01C61AD70AC601800F911F0E948F
:10100000C01FF80181938F01EE15FF05A9F7CE01EE
:10101000DF91CF911F910F91FF90EF90DF90CF90D4
:101020000895FB0101900020E9F73197AF01461BBD
:10103000570BDC01ED91FC910280F381E02D1994B6
:101040008F929F92AF92BF92EF92FF920F931F9356
:10105000CF93DF93CDB7DEB7A1970FB6F894DEBF7D
:101060000FBECDBF7C01262F30E050E040E019A23A
:101070008E010F5D1F4F8AE0882E912CA12CB12C80
:10108000CA01B901A50194010E94D61F605DF80153
:1010900062938F01211531054105510589F790E0D3
:1010A00080E0309721F0C701BF010E941108A1968E
:1010B0000FB6F894DEBF0FBECDBFDF91CF911F9169
:1010C0000F91FF90EF90BF90AF909F908F900895F9
:1010D0000F931F93CF93DF93EC010E9420088C01A4
:1010E00063E373E0CE010E941108800F911FDF912E
:1010F000CF911F910F9108950F931F93CF93DF937B
:10110000EC010E9411088C0163E373E0CE010E94A0
:101110001108800F911FDF91CF911F910F910895BA
:101120001F93CF93DF9300D0CDB7DEB7BC018DE81E
:1011300098E00E947C0810E08DE898E00E94E703A8
:10114000892B59F042E050E0BE016F5F7F4F8DE880
:1011500098E00E94920311E0EFCF112369F38DE82C
:1011600098E00E94E703892B39F70F900F900F90BA
:10117000DF91CF911F9108950E94FB0660E080E00F
:101180000E94A40766E373E082E899E00E947C086D
:1011900061E080E00E94A40766E473E082E899E0E1
:1011A0000E947C0862E080E00E94A40767E573E08B
:1011B00082E899E00E947C0863E080E00E94A40736
:1011C00067E673E082E899E00E947C0864EF71E0D2
:1011D00080E090E00E94EB020E94FB0660E080E06D
:1011E0000E94A40766E773E082E899E00E947C0809
:1011F00064EF71E080E090E00C94EB020F931F939A
:101200000E941D0300911A0710911B0720911C07D3
:1012100030911D07601B710B820B930B613E73496C
:101220008F4F9F4F70F066E873E080EF97E00E9469
:101230007C0810923C0710923B0780E01F910F91B1
:10124000089581E0FBCF6115710511F00C94110830
:1012500090E080E00895CF93DF9300D01F92CDB748
:10126000DEB78983605D6A83BE016F5F7F4F83E570
:1012700097E00E94230941E050E0BE016D5F7F4F7F
:1012800083E597E00E94920381E09B81913309F00E
:1012900080E00F900F900F900F90DF91CF91089505
:1012A000FC0101900020E9F7E950E81310C0FC01AF
:1012B0009C01285F3F4F8191082E000C990BC0972D
:1012C0000A9728F4E217F307B1F781E0089580E068
:1012D0000895CF92DF92EF92FF920F931F93CF93D7
:1012E000DF93FC0101900020E9F73197E81BF90B2F
:1012F000DE2EE850E530B0F5C82E8C01D0E0C0E01D
:10130000E12CF801F1908F018F2D0F2C000C990B1F
:101310009C01205331092A30310510F4EE24E39466
:101320000E942821892B09F0C1E0FAE2FF1639F06A
:101330008DED8F0D823018F081E2F81201C0D1E0FE
:10134000802F8C198D15E8F2EE2061F0C111CD2FA0
:101350008C2FDF91CF911F910F91FF90EF90DF9035
:10136000CF900895C0E0F4CF0F931F93CF93DF93F6
:10137000FC0101900020E9F73197E81BF90B1E2FC3
:10138000E850E530D8F4082FC02FD92F8991082EC6
:10139000000C990B9C01205331092A30310520F0B3
:1013A0000E942821892B51F08C2F801B811770F30C
:1013B00081E0DF91CF911F910F91089580E0F9CFE7
:1013C000FF920F931F93CF93DF938C01FC01019049
:1013D0000020E9F73197FE2EF81A8DE090E00E9488
:1013E0000020EC014CE050E0B8010E944E21BE010B
:1013F000DE012C2F95E38A2F8C1B8F1568F093E369
:10140000862F821B8F1580F4FB018191BF01DF01C4
:10141000119789278C93F4CF8D91AD0141505109DB
:101420008927FA018083E7CFCE01DF91CF911F9109
:101430000F91FF900895EF92FF920F931F93CF9318
:10144000DF93CDB7DEB7A3970FB6F894DEBF0FBE1C
:10145000CDBF0E94E0097C0104E810E0BE016F5F8F
:101460007F4FC8010E94EB07B701CE0101960E9491
:101470003021892B89F4C7010E949C2081E0A3962A
:101480000FB6F894DEBF0FBECDBFDF91CF911F9195
:101490000F91FF90EF9008950D5D1F4F003D89E083
:1014A0001807E1F6C7010E949C2080E0E8CFCF92A8
:1014B000DF92EF92FF920F931F93CF93DF93CDB7FD
:1014C000DEB7A3970FB6F894DEBF0FBECDBF8B017A
:1014D0000E94E0096C01C8010E94E0097C0104E857
:1014E00010E0BE016F5F7F4FC8010E94EB07B6019D
:1014F000CE0101960E943021892BE9F4B701CE017B
:101500000E960E943021892BB1F4C6010E949C20C6
:10151000C7010E949C2081E0A3960FB6F894DEBF1D
:101520000FBECDBFDF91CF911F910F91FF90EF9034
:10153000DF90CF9008950D5D1F4F003D89E01807A3
:1015400081F6C6010E949C20C7010E949C2080E079
:10155000E3CFFF920F931F93CF93DF93EC01F62E0F
:1015600008811981C8010E94C01FF81621F06F2D53
:10157000C8010E94C81FCE01DF91CF911F910F912A
:10158000FF9008950F931F93CF93DF931F921F92A5
:10159000CDB7DEB78B019A838983FB016081CE01D1
:1015A00001960E94A90AC8010F900F90DF91CF9178
:1015B0001F910F910895EF92FF920F931F93CF9376
:1015C000DF931F921F92CDB7DEB78230910569F18C
:1015D0008330910581F1019711F180911E07680F09
:1015E00060931E078EE1E82E87E0F82E00E810E0F9
:1015F0001A830983F70161917F01CE0101960E9450
:10160000A90A0F5F1F4F0438110591F70F900F9033
:10161000DF91CF911F910F91FF90EF9008958091EE
:101620001F07680F60931F07DDCF80912007680FA9
:1016300060932007D7CF80912107680F609321071F
:10164000D1CFAF92BF92CF92DF92EF92FF920F93E2
:101650001F93CF93DF93CDB7DEB762970FB6F894A1
:10166000DEBF0FBECDBF5C0180ECE82E89E0F82E16
:10167000D12CC7010E94C01F8D1118C0D39480E1E6
:10168000E80EF11CE4E6DE12F4CF62960FB6F89491
:10169000DEBF0FBECDBFDF91CF911F910F91FF90A5
:1016A000EF90DF90CF90BF90AF9008958E010F5FC5
:1016B0001F4F80E1F80111928A95E9F7D9824FE036
:1016C00050E0B501CE0102960E944E216E01F1E17B
:1016D000CF0ED11CE01AF10AC701800F911F9A8B1F
:1016E000898BF80161918F01C6010E94A90AC01679
:1016F000D10691F7CACFBF92CF92DF92EF92FF92BD
:101700000F931F93CF93DF93CDB7DEB72F970FB60D
:10171000F894DEBF0FBECDBF20E4E22E22E0F22E11
:10172000D12C8E010F5F1F4F6D2D84E50E942B0978
:10173000B82E6D2D82E40E942B09F7019081911142
:1017400048C090E3C92ECD0C882309F18EE0E4EC6B
:10175000F2E0D80101900D928A95E1F71F86F80119
:1017600001900020E9F73197E01BF10BEC0FFD1F12
:10177000C082B80180EF97E00E947C0861E070E0D1
:1017800082E090E00E94DB0AC8010E94210BBB208E
:1017900001F18FE0E9E9F3E0D80101900D928A951B
:1017A000E1F7F80101900020E9F73197E01BF10B18
:1017B000EC0FFD1FC08261E070E082E090E00E94CB
:1017C000DB0AB80180EF97E00E947C08C8010E9404
:1017D000210BD394FEE0EF0EF11C89E0D812A4CFC8
:1017E0002F960FB6F894DEBF0FBECDBFDF91CF911D
:1017F0001F910F91FF90EF90DF90CF90BF900895D1
:101800002F923F924F925F926F927F928F929F9210
:10181000AF92BF92CF92DF92EF92FF920F931F93FE
:10182000CF93DF93CDB7DEB7CA56D1090FB6F89480
:10183000DEBF0FBECDBF8C017B013A010E941B0AA7
:10184000882309F168EA73E080EF97E00E947C0842
:1018500080E0C659DF4F0FB6F894DEBF0FBECDBF94
:10186000DF91CF911F910F91FF90EF90DF90CF907C
:10187000BF90AF909F908F907F906F905F904F90B0
:101880003F902F900895C8010E94E0094C01C701C4
:101890000E94E0095C0104E810E0BE016C5D7F4F2E
:1018A000C8010E94EB07C8010E94C01F780193E2A3
:1018B000E90EF11C882309F471C08701E0EDEE16F2
:1018C000E9E0FE0651F74DE050E0B401CE01895B3E
:1018D0009F4F0E944E214DE050E0B50187E490E01B
:1018E0008C0F9D1F0D960E944E2149E050E0B301E0
:1018F00087E490E08C0F9D1F4A960E944E2187E45A
:10190000282E312C2C0E3D1EF3E22F0E311C8E01A1
:10191000095B1F4F2701401A510ACE0101966C0145
:10192000C201800F911F9A838983F80161918F0111
:10193000C6010E94A90A0215130591F7F3E2EF0E02
:10194000F11CB601C7010E94EB07F60101900020CF
:10195000E9F731970E2F0C198DE090E00E940020DE
:10196000182F592E4CE050E0B6010E944E21612FF5
:10197000752DA12FB52D412F93E38A2F811B801741
:1019800078F095E3862F841B801790F4FB018191FA
:10199000BF01DF01119789278C93F4CF780193CF92
:1019A0008D919D01215031098927F9018083E5CF6F
:1019B000812F952D0E941B0A882329F0F0ECEF1649
:1019C000F9E0FF0648F4AB961FAEAB97BE0166592F
:1019D0007F4FC7010E94C20A6DEB73E080EF97E072
:1019E0000E947C08B40180EF97E00E9423096AE717
:1019F00074E080EF97E00E942309B50180EF97E043
:101A00000E9423096AE774E080EF97E00E942309AF
:101A1000B30180EF97E00E94230965E373E080EF54
:101A200097E00E947C0861ED73E080EF97E00E94F0
:101A30007C08C4010E949C20C5010E949C2061E09A
:101A400070E083E090E00E94DB0A81E002CFEF9239
:101A5000FF920F931F93CF93DF9300D01F92CDB7C8
:101A6000DEB78B01AE014C5F5F4FBE016D5F7F4FF4
:101A70000E9457058C812B8190E030E0AC01E3E0BF
:101A8000440F551FEA95E1F740505E4FFA01E20F0F
:101A9000F31F0130110509F040C061E0608373E07D
:101AA000880F991F7A95E1F7885F9D4FFC01E20F3F
:101AB000F31F60832F5F3F4F420F531FFA01608374
:101AC000820F931FFC0160830E9408061982BE01E9
:101AD0006F5F7F4F90E080E00E94C20A80E4E82EB2
:101AE00082E0F82E01E010E01A830983F70161918A
:101AF0007F01CE0101960E94A90A0F5F1F4F0F3789
:101B0000110591F70F900F900F900F90DF91CF91EB
:101B10001F910F91FF90EF900895108263E0880F5E
:101B2000991F6A95E1F7885F9D4FFC01E20FF31F53
:101B300010822F5F3F4F420F531FFA011082820F16
:101B4000931FFC011082C0CF7F928F929F92AF9221
:101B5000BF92CF92DF92EF92FF920F931F93CF939A
:101B6000DF93CDB7DEB7C354D1090FB6F894DEBF0B
:101B70000FBECDBFE0913B07F0913C07EB30F10584
:101B800008F05CC08827E853F24F8F4F0C94F81F81
:101B9000D30D4F15ED14E70E1A0F640EAA15B911E7
:101BA000A110531423130E947B0B0E94FB0660E0DC
:101BB00080E00E94A40765EE73E082E899E00E944D
:101BC000230961E080E00E94A40764EF73E082E8EB
:101BD00099E00E94230962E080E00E94A40765E08A
:101BE00074E082E899E00E94230963E080E00E94AB
:101BF000A4076DE074E082E899E00E9423096091F7
:101C00003A076E5F80E00E94A40769E174E082E811
:101C100099E00E9423090E941405823321F562EDA8
:101C200070E080E090E00E94EB0280913A078150E2
:101C300080933A078F3F11F410923A07CD5BDF4F44
:101C40000FB6F894DEBF0FBECDBFDF91CF911F91CD
:101C50000F91FF90EF90DF90CF90BF90AF909F904B
:101C60008F907F900895883381F462ED70E080E07A
:101C700090E00E94EB0280913A078F5F823018F467
:101C800080933A07DBCF81E0FBCF82E00E943E02E7
:101C90008C01019709F0BFCF62ED70E080E090E029
:101CA0000E94EB0280913A07882339F0813021F6B7
:101CB00010933C0700933B07BFCF82E090E09093E6
:101CC0003C0780933B07B8CF80EC99E00E94C01F8F
:101CD000E82E0E94FB066E2D80EF97E00E946808B8
:101CE000D12C10E000E0B1EC8B2EB9E09B2EB12C92
:101CF000A12CF12CAE14BF040CF04DC0D1104BC080
:101D0000BE016F5F7F4FC4010E94C507602F82E054
:101D10000E94A407698180EF97E00E946808BE01D5
:101D20006E5F7F4F82E899E00E942309602F80E078
:101D30000E94A407698182E899E00E94200820E1BE
:101D4000820E911C0F5F1F4F8FEFA81AB80A043044
:101D5000110581F682E00E943E02019751F466EE81
:101D600070E080E090E00E94EB020E94FB0610E031
:101D700000E083E00E943E02019749F766EE70E0C2
:101D800080E090E00E94EB020E94FB06DD24D394E9
:101D900010E000E0AFCF0115110591F0D11010C097
:101DA00082E00E943E02019729F083E00E943E02F9
:101DB000019789F766EE70E080E090E00E94EB0208
:101DC00088E090E090933C0780933B0737CF0E94D8
:101DD000CD040E94FB066BE174E082E899E00E946A
:101DE000230961E080E00E94A4076CE274E082E8CD
:101DF00099E00E94230910E08DE898E00E94E70333
:101E0000892B59F042E050E0BE016F5F7F4F8DE8B3
:101E100098E00E94920311E0EFCF112369F38DE85F
:101E200098E00E94E703892B39F780913807909159
:101E30003907C8CF8BE0E6E4F7E0DF01282F1D92D9
:101E40002A95E9F7EBE2F7E0DF011D928A95E9F7C1
:101E5000E2E2F7E089E0DF011D928A95E9F7F6E416
:101E6000CF2EF7E0DF2EABE0EA2E0E94CD048DE30B
:101E700094E00E949008F6012E2D11922A95E9F720
:101E80000E94FB0665E474E082E899E00E94230961
:101E900061E080E00E94A4076FE474E082E899E0CA
:101EA0000E94230962E080E00E94A4070E941D03B3
:101EB0004B015C010E941D030E94CD0410E000E074
:101EC000F12C8DE898E00E94E703892B69F08DE8FA
:101ED00098E00E947E03F801EA5BF84F80830F5F71
:101EE0001F4FFF24F394EDCFFF2009F46BC00E9435
:101EF0001D03681979098A099B09643F71408105AE
:101F00009105FCF266E477E082E899E00E942309FB
:101F100063E080E00E94A4076AE574E082E899E04B
:101F20000E94230964EF71E080E090E00E94EB02E0
:101F30000E94FA04F82E882309F44BC07BE2C72ED6
:101F400077E0D72EEBE07E2E0E94CD048FE794E061
:101F50000E949008F601272D11922A95E9F70E9418
:101F6000FB0665E474E082E899E00E94230961E0E1
:101F700080E00E94A4076CE774E082E899E00E9488
:101F8000230962E080E00E94A4070E941D034B0128
:101F90005C010E941D030E94CD0410E000E0E12CD2
:101FA0008DE898E00E94E703892B41F18DE898E0E5
:101FB0000E947E03F801E55DF84F80830F5F1F4F9D
:101FC000EF2CEECF0E941D034B015C010E941D030C
:101FD00078CF62E080E00E94A4076BE674E082E8BC
:101FE00099E00E94230963E080E00E94A4076BE669
:101FF00074E082E899E00E94230937CFEE20C1F017
:102000000E941D03681979098A099B09643F714080
:10201000810591052CF20BE217E0F80181918F0107
:10202000882369F06AE282E899E00E94B607F5CF5A
:102030000E941D034B015C010E941D03B1CF63E0B0
:1020400080E00E94A4076AE574E082E899E00E94BB
:10205000230964EF71E080E090E00E94EB020E94AF
:10206000FA04811114C062E00E94A4076BE674E0D8
:1020700082E899E00E94230963E080E00E94A407BF
:102080006BE674E082E899E00E9423095DCF88E85E
:1020900094E00E9490086BE277E086E497E00E946B
:1020A000570A182F0E94FB066DE874E086E497E05B
:1020B0000E943021892B29F569E974E08BE297E0D1
:1020C0000E943021892BE9F461EA74E082E899E00A
:1020D0000E94230962E370E080E090E00E94EB023E
:1020E00088E090E090933C0780933B0787EA94E078
:1020F0000E94210B60ED77E080E090E00E94EB020F
:102100009DCD112349F087E090E090933C078093A8
:102110003B078FEA94E0ECCF62E370E080E090E070
:102120000E94EB0210923C0710923B0787EB94E071
:102130000E94210B61E070E081E090E00E94DB0AE8
:10214000D9CF0E947B0B0E94FB0660E080E00E94DA
:10215000A40764EF73E082E899E00E94230961E03C
:1021600080E00E94A4076FEB74E082E899E00E948F
:10217000230962E080E00E94A40766EC74E082E834
:1021800099E00E94230963E080E00E94A40763EDC8
:1021900074E082E899E00E94230960913A076F5F3A
:1021A00080E00E94A40769E174E082E899E00E945F
:1021B00023090E941405823309F431CD883381F458
:1021C00062ED70E080E090E00E94EB0280913A07BF
:1021D0008F5F80933A07833008F430CD82E050CD92
:1021E00082E00E943E02019721F762ED70E080E0FC
:1021F00090E00E94EB0280913A07813009F471C0AF
:1022000060F0823009F018CD10923C0710923B0725
:1022100083E195E00E94210B0FCD0E94FB066E0129
:10222000F4E2CF0ED11C80E1D6011D928A95E9F728
:1022300000EC19E0E12CB3E0BF1570F482E00E94DD
:102240003E02019729F564E670E080E090E00E948C
:10225000EB020E94FB06F12CC8010E94C01F8E11E8
:102260000EC0BE016F5F7F4FC8010E94C5074FE0DF
:1022700050E0BE016E5F7F4FC6010E944E218CA1CF
:10228000811112C083E00E943E020197D9F705C078
:1022900083E00E943E02019789F664E670E080E0E8
:1022A00090E00E94EB02C8CC6F2D80E00E94A40752
:1022B000B60182E899E00E947C0880E0F601E80F10
:1022C000F11D9081992319F010828F5FF7CFF3945D
:1022D000E394005F1F4F0115E0E11E0709F0ABCF4B
:1022E000ABCC0E94FB0660E080E00E94A40763EE96
:1022F00074E082E899E00E94230960911E0782E859
:1023000099E00E94200861E080E00E94A4076FEE3F
:1023100074E082E899E00E94230960911F0782E837
:1023200099E00E94200862E080E00E94A4076BEF21
:1023300074E082E899E00E9423096091200782E816
:1023400099E00E94200863E080E00E94A40767E013
:1023500075E082E899E00E9423096091210782E8F4
:1023600099E00E94200883E00E943E020197D9F77D
:1023700094CF0E947B0B0E94FB0660E080E00E94ED
:10238000A4076CE175E082E899E00E94230961E00E
:1023900080E00E94A40769E275E082E899E00E946B
:1023A000230962E080E00E94A40764ED74E082E803
:1023B00099E00E94230963E080E00E94A40765E39E
:1023C00075E082E899E00E94230960913A0780E075
:1023D0000E94A40769E174E082E899E00E94230961
:1023E0000E941405823309F41ACC883371F462ED2B
:1023F00070E080E090E00E94EB0280913A078F5FEE
:10240000843008F43DCC83E03BCC82E00E943E0265
:10241000019731F762ED70E080E090E00E94EB02FE
:1024200080913A07813009F4BDC0A8F0823009F4E8
:102430008BC0833009F000CC86E497E00E941B0A31
:1024400000E412E0811187C061E975E080EF97E058
:102450000E947C08F1CBE0E4F2E010E000E0808133
:10246000882309F469C0F02E60E3E62EE00E0E9496
:10247000FB0660E080E00E94A40766E475E082E865
:1024800099E00E947C0861E080E00E94A40767E573
:1024900075E082E899E00E9423098E2D0E94BC0716
:1024A0006F2D82E40E942B098111FACF0E94FB0656
:1024B00060E080E00E94A4076EE575E082E899E0A4
:1024C0000E947C0861E080E00E94A40767E575E057
:1024D00082E899E00E9423098E2D0E94BC076F2D8F
:1024E00084E50E942B098111FACF0E94C519811140
:1024F00003C08DE695E08ECE2EE0209FC001219F87
:10250000900D1124FC01E05CFD4F10824CE050E086
:1025100066E477E08F5B9D4F0E944E2161E070E0A2
:102520008F2D0E94270D61E070E090E080E00E9416
:10253000DB0A8BE795E06ECE0F5F1F4F3E960930AA
:10254000110509F08CCF78CB10923C0710923B0715
:1025500087E895E05FCED8018C91811126C04CE0D0
:1025600050E0B8016F5F7F4F86E497E00E94402102
:10257000892BD9F40E94FB0660E080E00E94A4074A
:1025800066EA75E082E899E00E947C0865EB75E0F8
:1025900082E899E00E947C0860E971E080E090E0C8
:1025A0000E94EB020E94BB1A47CB025F1F4FB2E0B2
:1025B0000E3B1B0781F686E497E00E94E0096C0160
:1025C00004E810E0BE016F5F7F4FC8010E94EB0777
:1025D000B601CE0101960E943021892B51F5F12CD4
:1025E000E12C1CA2BE016C5D7F4FC701800F911FC3
:1025F0000E94C20AEFEFEE1AFE0AF2E2EF16F104B1
:1026000081F767EC75E080EF97E00E947C08C601D7
:102610000E949C2087ED95E00E94210B6FEF7FEFD9
:1026200083E090E00E94DB0A10923C0710923B0787
:1026300003CB0D5D1F4F003D29E0120719F6C601BF
:102640000E949C20F9CA80E18E010F5F1F4FD801C4
:10265000E82F1D92EA95E9F76E01F4E2CF0ED11C46
:10266000D601E82F1D92EA95E9F77E01F4E3EF0E1B
:10267000F11CD7011D928A95E9F70E94FB0660E0E4
:1026800080E00E94A40766EF75E082E899E00E946E
:10269000230961E080E00E94A4076FE474E082E80F
:1026A00099E00E94230962E0C8010E94C0188823B3
:1026B00089F064E670E080E090E00E94EB02C801DF
:1026C0000E94B409882309F46FC0B80186E497E03A
:1026D0000E9439210E94FB0660E080E00E94A4076E
:1026E00066EF75E082E899E00E94230961E080E0EE
:1026F0000E94A40760E176E082E899E00E94230945
:1027000062E0C6010E94C018882389F064E670E088
:1027100080E090E00E94EB02C6010E9469098823D4
:1027200009F469C0B6018BE297E00E9439210E944A
:10273000FB0660E080E00E94A40766EF75E082E897
:1027400099E00E94230961E080E00E94A4076CE206
:1027500076E082E899E00E94230962E0C7010E94C6
:10276000C018882389F064E670E080E090E00E9461
:10277000EB02C7010E945009882309F468C0B70121
:1027800082E297E00E94392142E257E06BE277E073
:1027900086E497E00E94000C882309F44FCA109247
:1027A0003C0710923B074ACA0E94FB0660E080E0AB
:1027B0000E94A4076FED75E082E899E00E9423096A
:1027C00061E080E00E94A40765EE75E082E899E090
:1027D0000E94230980E0F801E80FF11D9081992300
:1027E00019F010828F5FF7CF6CE271E080E090E02B
:1027F0000E94EB0242CF0E94FB0660E080E00E9454
:10280000A4076FED75E082E899E00E94230961E07A
:1028100080E00E94A4076FEF75E082E899E00E94D3
:10282000230920E0822F90E0F601E80FF91F3081A4
:10283000332331F0800F911FFC0110822F5FF2CF04
:102840006CE271E080E090E00E94EB0243CF0E94D6
:10285000FB0660E080E00E94A4076FED75E082E86F
:1028600099E00E94230961E080E00E94A4076BE1E7
:1028700076E082E899E00E94230920E0822F90E030
:10288000F701E80FF91F3081332331F0800F911FDA
:10289000DC011C922F5FF2CF6CE271E080E090E0EF
:1028A0000E94EB0244CF0E94FB0660E080E00E94A1
:1028B000A40767E376E082E899E00E94230961E0DB
:1028C00080E00E94A4076FE474E082E899E00E942F
:1028D000230980E18E010F5F1F4FF801282F11920D
:1028E0002A95E9F77E0194E2E90EF11CD7011D92C9
:1028F0008A95E9F762E0C8010E94C018882309F1AF
:1029000064E670E080E090E00E94EB02B80186E4AB
:1029100097E00E9439210E94FB0660E080E00E945F
:10292000A40767E074E082E899E00E94230961E06F
:1029300080E00E94A40760E176E082E899E00E94CE
:10294000230962E0C7010E94C018882359F064E699
:1029500070E080E090E00E94EB02B7018BE297E02C
:102960000E943921B701C8010E94570A882361F1EA
:102970000E94FB0664EF71E080E090E00E94EB02B1
:102980006DE874E086E497E00E943021892B99F489
:1029900069E974E08BE297E00E943021892B59F4B9
:1029A00088E090E090933C0780933B0787EA94E0AF
:1029B0000E94210B43C987E090E090933C078093ED
:1029C0003B078FEA94E0F4CF0E94FB0610923C078D
:1029D00010923B0787EB94E0EBCF0E94FB0660E090
:1029E00080E00E94A40764EF73E082E899E00E940F
:1029F000230961E080E00E94A4076DE376E082E8AD
:102A000099E00E94230962E080E00E94A4076AE442
:102A100076E082E899E00E94230963E080E00E946A
:102A2000A40762E576E082E899E00E9423096091BC
:102A30003A076F5F80E00E94A40769E174E082E8D2
:102A400099E00E9423090E941405823309F4E7C823
:102A5000883309F4B5CB82E00E943E02019799F7D2
:102A600062ED70E080E090E00E94EB0280913A0716
:102A7000813091F020F0823009F4D6CDDDC883E0BA
:102A800090E090933C0780933B0784E090E0909324
:102A9000390780933807D0C889E090E010C90E94B8
:102AA000FB0660E080E00E94A40764EF73E082E828
:102AB00099E00E94230961E080E00E94A4076DE391
:102AC00076E082E899E00E94230962E080E00E94BB
:102AD000A4076AE476E082E899E00E94230963E0B3
:102AE00080E00E94A40762E576E082E899E00E9417
:102AF000230960913A076F5F80E00E94A40769E1B3
:102B000074E082E899E00E9423090E941405823350
:102B100009F485C8883309F453CB82E00E943E0251
:102B2000019799F762ED70E080E090E00E94EB027F
:102B300080913A07813059F008F09DCF83E090E012
:102B400090933C0780933B0786E090E0A0CF8AE01B
:102B500090E0B5C88DE0E6E4F7E0DF01282F1D9294
:102B60002A95E9F7EBE2F7E0DF011D928A95E9F794
:102B7000E2E2F7E089E0DF011D928A95E9F746E499
:102B8000C42E47E0D42E5DE0F52E0E94CD048DE3E7
:102B900094E00E949008F6012F2D11922A95E9F7F2
:102BA0000E94FB066AE576E082E899E00E9423092C
:102BB00061E080E00E94A4076FE474E082E899E09D
:102BC0000E94230962E080E00E94A4070E941D0386
:102BD0004B015C010E941D030E94CD0410E000E047
:102BE000E12C8DE898E00E94E703892BA9F18DE89C
:102BF00098E00E947E03F801EA5BF84F80830F5F44
:102C00001F4FEE24E394EDCF0E94FB0660E080E0CE
:102C10000E94A4076FED75E082E899E00E94230905
:102C200061E080E00E94A40765EE75E082E899E02B
:102C30000E94230980E0E82FF0E0EA5BF84F9081E2
:102C4000992319F010828F5FF6CF6CE271E080E07B
:102C500090E00E94EB0299CFEE2009F474C00E942C
:102C60001D03681979098A099B09643F7140810530
:102C700091050CF4B6CF66E477E082E899E00E9413
:102C8000230963E080E00E94A4076AE574E082E81B
:102C900099E00E94230964EF71E080E090E00E94D7
:102CA000EB020E94FA04882309F454C086E497E0FA
:102CB0000E94B409E82E882309F4A6CF22E2C22E8E
:102CC00027E0D22E39E0732E0E94CD048DE696E0E7
:102CD0000E949008F601272D11922A95E9F70E948B
:102CE000FB066AE576E082E899E00E94230961E04C
:102CF00080E00E94A4076AE676E082E899E00E94FC
:102D0000230962E080E00E94A4070E941D034B019A
:102D10005C010E941D030E94CD0410E000E0F12C34
:102D20008DE898E00E94E703892B09F450C08DE8F4
:102D300098E00E947E03F801EE5DF84F80830F5FFC
:102D40001F4FFE2CEDCF0E941D034B015C010E9422
:102D50001D0347CF62E080E00E94A4076BE674E0A9
:102D600082E899E00E94230963E080E00E94A407C2
:102D70006BE674E082E899E00E94230906CF0E9486
:102D8000FB0660E080E00E94A4076FED75E082E83A
:102D900099E00E94230961E080E00E94A4076BE1B2
:102DA00076E082E899E00E94230980E0E82FF0E0D5
:102DB000EE5DF84F9081992319F010828F5FF6CF66
:102DC0006CE271E080E090E00E94EB027DCFFF209A
:102DD00009F473C00E941D03681979098A099B09C7
:102DE000643F7140810591050CF49ACF62E277E06F
:102DF00082E899E00E94230963E080E00E94A40732
:102E00006AE574E082E899E00E94230964EF71E0CA
:102E100080E090E00E94EB020E94FA04882309F40B
:102E200053C082E297E00E945009F82E882309F4EB
:102E3000A6CF8BE2C82E87E0D82E9DE0E92E0E9417
:102E4000CD048FE794E00E949008F6012E2D119298
:102E50002A95E9F70E94FB066AE576E082E899E0A8
:102E60000E94230961E080E00E94A4076CE774E0FF
:102E700082E899E00E94230962E080E00E94A407B2
:102E80000E941D034B015C010E941D030E94CD04A2
:102E900010E000E0712C8DE898E00E94E703892B98
:102EA00079F18DE898E00E947E03F801E55DF84F26
:102EB00080830F5F1F4F7F2CEECF0E941D034B01BD
:102EC0005C010E941D032CCF62E080E00E94A407F9
:102ED0006BE674E082E899E00E94230963E080E0F9
:102EE0000E94A4076BE674E082E899E00E9423093F
:102EF000EBCE6CE271E080E090E00E94EB029FCFAD
:102F00007720C9F00E941D03681979098A099B0975
:102F1000643F7140810591050CF4BDCF0BE217E0D1
:102F2000F80181918F01882369F06AE282E899E0D3
:102F30000E94B607F5CF0E941D034B015C010E9461
:102F40001D03A9CF63E080E00E94A4076AE574E056
:102F500082E899E00E94230964EF71E080E090E04C
:102F60000E94EB020E94FA04882341F18BE297E071
:102F70000E946909811108CC0E94FB0660E080E094
:102F80000E94A4076FED75E082E899E00E94230992
:102F900061E080E00E94A4076BE176E082E899E0BE
:102FA0000E94230980E0E82FF0E0E55DF84F908172
:102FB000992309F49ECF10828F5FF5CF62E080E005
:102FC0000E94A4076BE674E082E899E00E9423095E
:102FD00063E080E00E94A4076BE674E082E899E079
:102FE0000E9423092CCF7F928F929F92AF92BF9223
:102FF000CF92DF92EF92FF920F931F93CF93DF93C5
:1030000000D0CDB7DEB78C016B010E94CD040E94C9
:10301000FB066BE174E082E899E00E94230961E01D
:1030200080E00E94A4076CE274E082E899E00E94CC
:1030300023098DE898E00E94E703892BD1F3809162
:103040003B0790913C07079731F40E94FE088111DD
:1030500002C00E94A40D42E050E0BE016F5F7F4FAE
:103060008DE898E00E9492030E944C0580913B07F6
:1030700090913C07079731F40E94FE08811102C02D
:103080000E94A40D0E941D034B015C010E941D03C0
:103090000E94CD04C6010E9490080E94FB0660E0D9
:1030A00080E00E94A407B60182E899E00E947C08B3
:1030B000F12CE12C712C8DE898E00E94E703892B1C
:1030C00071F08DE898E00E947E03F801EE0DFF1D7F
:1030D0008083C70101967C0177247394ECCF77201D
:1030E000A1F10E941D03681979098A099B09643FAF
:1030F000714081059105FCF20E944C0561E080E081
:103100000E94A407B80182E899E00E947C0862E06E
:1031100080E00E94A40766E776E082E899E00E94DA
:10312000230964EF71E080E090E00E94EB020E94CE
:10313000FA04811111C0F801E80FF11D9081992363
:1031400009F494CF10828F5FF6CF0E941D034B01CC
:103150005C010E941D03AFCF0E944C0581E00F90DF
:103160000F900F90DF91CF911F910F91FF90EF90F3
:10317000DF90CF90BF90AF909F908F907F900895F9
:10318000BF92CF92DF92EF92FF920F931F93CF9354
:10319000DF937C01B62E80E00E94A407D12CC0E012
:1031A00085E0C82E6B2D80E00E94A4070E941405C4
:1031B000D82F64E670E080E090E00E94EB02EDED35
:1031C000ED0FE73108F063C00E2E000CFF0B8827CF
:1031D000E351F74E8F4F0C94F81F3B1947194719CD
:1031E0004719471947194719211947194719471905
:1031F000471947193E1992199619041909190D19F9
:103200001119151919191D19D0E010E002E0C0E0DC
:103210001AC0D0E010E003E0FACFD0E010E004E004
:10322000F6CFD0E010E005E0F2CFD0E010E006E00D
:10323000EECFD0E010E007E0EACFD0E010E008E009
:10324000E6CFD1E010E00E944C05802F90E01123E2
:1032500009F470C0C43069F0C89EF001C99EF00D39
:103260001124E452FD4FEC0FF11D2181CF5F21119C
:1032700066C0C0E064C0D0E011E0E5CFF701ED0D1D
:10328000F11D8081882309F48DCFD3948BCF82E008
:103290000E943E020197C9F46DEF73E080EF97E062
:1032A0000E947C0864E670E080E090E00E94EB02FF
:1032B0000E944C0581E0DF91CF911F910F91FF900B
:1032C000EF90DF90CF90BF90089583E00E943E0280
:1032D0000197D1F466E876E080EF97E00E947C08E1
:1032E00080E0F701E80FF11D9081992319F0108219
:1032F0008F5FF7CF64E670E080E090E00E94EB0221
:103300000E944C0580E0D7CF80913B0790913C070D
:10331000079709F047CF0E94FE08811143CF0E9412
:10332000A40D40CFD0E010E000E071CFD0E010E07D
:1033300001E06DCFDD2319F0CC23D1F0C150C89E40
:10334000F001C99EF00D1124E452FD4FEC0FF11D68
:103350008081F701ED0DF11D8083B70182E899E0CE
:103360000E947C08B70180EF97E00E947C081ACF8A
:10337000C89EF001C99EF00D1124E452FD4F248136
:10338000C4E02111DCCFC3E0DACF0F931F93CF93BA
:10339000DF93CDB7DEB760970FB6F894DEBF0FBEF0
:1033A000CDBF0E944C050E94FB0660E080E00E94B9
:1033B000A4076FE876E082E899E00E947C0861E06B
:1033C00080E00E94A4076EE976E082E899E00E941E
:1033D0007C0862E080E00E94A4076BEA76E082E865
:1033E00099E00E947C0880913B0790913C070797E9
:1033F00031F40E94FE08811102C00E94A40D0E94B7
:103400001405182F64E670E080E090E00E94EB0263
:1034100080913B0790913C071A3209F04EC021E0A1
:1034200030E03093190720931807079711F40E9492
:103430004C050E94FB068E010F5F1F4F80E1F801D3
:1034400011928A95E9F70E94FB0660E080E00E94F5
:10345000A40780911807909119070197B1F56BEBBC
:1034600076E082E899E00E947C0861E0C8010E9451
:10347000C0182091180730911907232B29F46BEC01
:1034800076E0C8010E94F3178823E9F2B80180EFC3
:1034900097E00E947C080E94FB06B80186E497E052
:1034A0000E94570A811137C0F801E80FF11D908181
:1034B000992369F010828F5FF7CF133209F093CF11
:1034C0001092190710921807B0CF80E0D2CF0E9457
:1034D000FB0660E080E00E94A407809118079091AD
:1034E0001907019709F045C065EB76E082E899E09D
:1034F0000E947C0861E0C8010E94C0182091180752
:1035000030911907232B29F465EC76E0C8010E945D
:10351000F3178823E1F2B80186E497E00E94570A86
:10352000082F81111AC010923C0710923B071AE035
:103530000E94FB0660E080E00E94A407612F82E801
:1035400099E00E94680868EE73E080E090E00E94D5
:10355000EB02115069F70E94BC08802F60960FB6ED
:10356000F894DEBF0FBECDBFDF91CF911F910F91B9
:10357000089580E0C3CFCF92DF92EF92FF920F9336
:103580001F93CF93DF9300D000D000D0CDB7DEB72C
:1035900089E0E3EDF2E0DE01119601900D928A954B
:1035A000E1F790E4E92E92E0F92E10E000E0D12C52
:1035B000D7018C91811113C04CE050E0B7016F5FCF
:1035C0007F4F86E497E00E944021892B41F4E1E09F
:1035D000F0E0EC0FFD1FE00FF11F0083D3940F5FAD
:1035E0001F4FBEE0EB0EF11C0930110509F7DD207D
:1035F00009F4D4C00E94FB06FE0131967F0110E061
:1036000000E0033011F0063029F41F5F612F80E0E5
:103610000E94A407D7018D917D018F3F49F0805D05
:103620000E94BC0763E373E082E899E00E941108FE
:103630000F5F093031F71F5F612F80E00E94A40700
:1036400064ED76E082E899E00E942309612F87E02B
:103650000E94A4076AE774E082E899E00E942309C7
:10366000612F87E00E94A4070E941405082F64E6DA
:1036700070E080E090E00E94EB02003239F30A3201
:1036800029F3033219F3802F0E94BC0780EDF82E36
:10369000F00E68EC70E080E090E00E94EB02CF2C2E
:1036A000D12CE1E0F0E0EC0FFD1FEC0DFD1D808161
:1036B0008F3F61F2BFEFFB1649F20E94C5198111DD
:1036C00012C08DED96E029960FB6F894DEBF0FBEBE
:1036D000CDBFDF91CF911F910F91FF90EF90DF90C1
:1036E000CF900C94210B0E94FB0660E080E00E94CA
:1036F000A40769EE76E082E899E00E947C0861E028
:1037000080E00E94A40767E575E082E899E00E94E6
:103710002309802F0E94BC076F2D82E40E942B0991
:103720008823D1F38EE08C9DF0018D9DF00D112446
:10373000E05CFD4FDF011D928A95E9F781E080830F
:1037400070E060E08F2D0E94270D0E94FB0660E074
:1037500080E00E94A40767EF76E082E899E00E948B
:103760002309802F0E94BC076FEF7FEF90E080E07D
:103770000E94DB0A6AEF70E080E090E029960FB6C5
:10378000F894DEBF0FBECDBFDF91CF911F910F9197
:10379000FF90EF90DF90CF900C94EB0229960FB63C
:1037A000F894DEBF0FBECDBFDF91CF911F910F9177
:1037B000FF90EF90DF90CF9008951F920F920FB679
:1037C0000F9211242F933F938F939F93AF93BF93A7
:1037D00080913E0790913F07A0914007B09141072B
:1037E00030913D0723E0230F2D3758F50196A11D99
:1037F000B11D20933D0780933E0790933F07A09310
:103800004007B09341078091420790914307A091F0
:103810004407B09145070196A11DB11D8093420751
:1038200090934307A0934407B0934507BF91AF918E
:103830009F918F913F912F910F900FBE0F901F90EE
:10384000189526E8230F0296A11DB11DD2CF1F9215
:103850000F920FB60F9211240BB60F922F933F9336
:103860004F935F936F937F938F939F93AF93BF9388
:10387000EF93FF9383E597E00E941104FF91EF918E
:10388000BF91AF919F918F917F916F915F914F9178
:103890003F912F910F900BBE0F900FBE0F901F9076
:1038A00018951F920F920FB60F9211240BB60F921C
:1038B0002F933F934F935F936F937F938F939F9338
:1038C000AF93BF93EF93FF9383E597E00E94560376
:1038D000FF91EF91BF91AF919F918F917F916F91E8
:1038E0005F914F913F912F910F900BBE0F900FBEA4
:1038F0000F901F9018951F920F920FB60F921124E0
:103900000BB60F922F933F934F935F936F937F93D9
:103910008F939F93AF93BF93EF93FF9380EF97E0C5
:103920000E941104FF91EF91BF91AF919F918F91F0
:103930007F916F915F914F913F912F910F900BBEAF
:103940000F900FBE0F901F9018951F920F920FB6F9
:103950000F9211240BB60F922F933F934F935F93C7
:103960006F937F938F939F93AF93BF93EF93FF9347
:1039700080EF97E00E945603FF91EF91BF91AF91C6
:103980009F918F917F916F915F914F913F912F9177
:103990000F900BBE0F900FBE0F901F9018951F92A7
:1039A0000F920FB60F9211240BB60F922F933F93E5
:1039B0004F935F936F937F938F939F93AF93BF9337
:1039C000EF93FF938DE898E00E941104FF91EF912F
:1039D000BF91AF919F918F917F916F915F914F9127
:1039E0003F912F910F900BBE0F900FBE0F901F9025
:1039F00018951F920F920FB60F9211240BB60F92CB
:103A00002F933F934F935F936F937F938F939F93E6
:103A1000AF93BF93EF93FF938DE898E00E94560316
:103A2000FF91EF91BF91AF919F918F917F916F9196
:103A30005F914F913F912F910F900BBE0F900FBE52
:103A40000F901F901895CF93DF9310925607109206
:103A5000550748EE53E060E070E0409357075093FD
:103A600058076093590770935A0789E193E0909340
:103A700054078093530725E331E030936007209388
:103A80005F0724E331E0309362072093610720E36E
:103A900031E0309364072093630721E331E03093F2
:103AA00066072093650722E331E03093680720938F
:103AB000670726E331E030936A0720936907109285
:103AC0006C0710926D0710926E0710926F0710929C
:103AD000F3071092F2074093F4075093F5076093B1
:103AE000F6077093F7079093F1078093F00725EDA1
:103AF00030E03093FD072093FC0724ED30E0309355
:103B0000FF072093FE0720ED30E03093010820935B
:103B1000000821ED30E0309303082093020822EDE5
:103B200030E0309305082093040826ED30E0309310
:103B30000708209306081092090810920A081092AC
:103B40000B0810920C081092900810928F08409366
:103B500091085093920860939308709394089093FF
:103B60008E0880938D0885EC90E090939A0880935E
:103B7000990884EC90E090939C0880939B0880ECDB
:103B800090E090939E0880939D0881EC90E0909344
:103B9000A00880939F0882EC90E09093A208809305
:103BA000A10886EC90E09093A4088093A30810925B
:103BB000A6081092A7081092A8081092A9081092BF
:103BC0008509109284098BE293E090938309809396
:103BD000820986E1809386098FEF8093870987E1C8
:103BE0008093880988E18093890989E180938A0913
:103BF0008AE180938B098BE180938C0910928D0967
:103C000010928E0910928F091092900910929109CA
:103C100081E00E940307CCE1D0E0D0937B09C09300
:103C20007A098EE190E090937D0980937C098DE183
:103C300090E090937F0980937E0981E090E09093DB
:103C400081098093800961E08CE10E94950261E026
:103C500080917C090E94950261E080917E090E941A
:103C6000950261E080917E090E946702D0937B09F2
:103C7000C0937A09EAE3F9E0119289E0EA37F8079C
:103C8000D9F7D0E0C0E08091800990918109C817F0
:103C9000D90774F540E06FE0CE010E948A0580915B
:103CA000800990918109C817D9072CF447E06BE08F
:103CB000CE010E948A0540E069E0CE010E948A059B
:103CC0008091800990918109C817D9071CF4CE0111
:103CD0000E94E8058091800990918109C817D90751
:103CE0002CF440E06CE0CE010E948A052196CBCFF7
:103CF000DF91CF910895CF93DF931F921F92CDB79D
:103D0000DEB7789484B5826084BD84B5816084BD5B
:103D100085B5826085BD85B5816085BD80916E0069
:103D2000816080936E00109281008091810082609A
:103D300080938100809181008160809381008091D7
:103D400080008160809380008091B10084608093C6
:103D5000B1008091B00081608093B00080919100AB
:103D600082608093910080919100816080939100A6
:103D7000809190008160809390008091A10082608A
:103D80008093A1008091A10081608093A100809127
:103D9000A00081608093A0008091210182608093C7
:103DA0002101809121018160809321018091200176
:103DB00081608093200180917A00846080937A00F2
:103DC00080917A00826080937A0080917A0081608D
:103DD00080937A0080917A00806880937A001092B4
:103DE000C10080EF97E00E94B00180EF97E00E9451
:103DF000B0018DE898E00E94B00183E597E00E9451
:103E0000B00180918009909181091816190634F447
:103E100041E06CE090E080E00E948A05809180099A
:103E2000909181091816190634F448E06AE090E090
:103E300080E00E948A05809180099091810918167E
:103E4000190624F490E080E00E94E80584E00E94D6
:103E5000030712E060E0812F0E9495021F5F183077
:103E6000C9F761E088E00E94950261E089E00E9464
:103E7000950261E08AE00E9495020E94BC088DE8EC
:103E800094E00E941B0A811171C060E077E080EF2E
:103E900097E00E947C081982BE016F5F7F4F84E823
:103EA00090E00E94C20A45E653E069E974E08DE8BB
:103EB00094E00E94000C90E080E00E94C01FF82E69
:103EC00081114DC000E412E05801CC24C394D12CE0
:103ED000C6010E94C01FF50181935F01FFEFCF1A59
:103EE000DF0A8FE7C816D10499F7EE24E394F801AE
:103EF000808181112EC0AE014F5F5F4FBE016E5FAA
:103F00007F4F8F2D0E945705898190E02A8130E0F4
:103F1000AC0163E0440F551F6A95E1F740505E4FD6
:103F2000FA01E20FF31FE08273E0880F991F7A9580
:103F3000E1F7885F9D4FFC01E20FF31FE0822F5FE6
:103F40003F4F420F531FFA01E082820F931FFC0183
:103F5000E082F394025F1F4FF9E0FF12C8CF0E9486
:103F600008060E94A40D0E94A004FBCF6EE077E03B
:103F700080EF97E00E947C089ECF992788270895BC
:103F8000F999FECF92BD81BDF89A992780B5089521
:103F9000262FF999FECF1FBA92BD81BD20BD0FB665
:103FA000F894FA9AF99A0FBE01960895A1E21A2E92
:103FB000AA1BBB1BFD010DC0AA1FBB1FEE1FFF1FCD
:103FC000A217B307E407F50720F0A21BB30BE40B1D
:103FD000F50B661F771F881F991F1A9469F7609564
:103FE0007095809590959B01AC01BD01CF0108951E
:103FF000EE0FFF1F881F8BBF0790F691E02D1994DD
:104000000F931F93CF93DF938230910510F482E0DA
:1040100090E0E0919C09F0919D0930E020E0B0E053
:10402000A0E0309799F42115310509F44AC0281B06
:10403000390B24303105D8F58A819B8161157105D2
:1040400089F1FB0193838283FE0111C0408151817C
:104050000281138148175907E0F04817590799F46E
:10406000109761F012960C93129713961C93329648
:10407000CF01DF91CF911F910F91089500939C097B
:1040800010939D09F4CF2115310551F042175307C4
:1040900038F0A901DB019A01BD01DF01F801C1CFB0
:1040A000EF01F9CF90939D0980939C09CDCFFE013C
:1040B000E20FF31F819391932250310939832883B2
:1040C000D7CF20919A0930919B09232B41F420915D
:1040D000C0023091C10230939B0920939A0920912C
:1040E000BE023091BF022115310541F42DB73EB714
:1040F0004091C2025091C302241B350BE0919A09F2
:10410000F0919B09E217F307A0F42E1B3F0B281731
:10411000390778F0AC014E5F5F4F2417350748F040
:104120004E0F5F1F50939B0940939A09819391937F
:104130009FCFF0E0E0E09CCFCF93DF930097E9F0D2
:10414000FC01329713821282A0919C09B0919D09C3
:10415000ED0130E020E01097A1F420813181820F41
:10416000931F20919A0930919B092817390709F06C
:1041700061C0F0939B09E0939A09DF91CF91089574
:10418000EA01CE17DF07E8F54A815B819E01411500
:104190005105B1F7E901FB83EA8349915991C40FB5
:1041A000D51FEC17FD0761F4808191810296840F81
:1041B000951FE90199838883828193819B838A83F8
:1041C000F0E0E0E012968D919C9113970097B9F57D
:1041D0002D913C911197CD010296820F931F209152
:1041E0009A0930919B092817390739F6309751F50C
:1041F00010929D0910929C09B0939B09A0939A0973
:10420000BCCFD383C28340815181840F951FC817CF
:10421000D90761F44E5F5F4F88819981480F591F1C
:10422000518340838A819B81938382832115310549
:1042300009F0B0CFF0939D09E0939C099ECFFD015A
:10424000DC01C0CF13821282D7CF85FD0C94BD1F35
:10425000806291110C94BD1F81568A51D8F7089540
:10426000FB01DC018D91019080190110D9F3990BAC
:104270000895FB01DC0101900D920020E1F7089503
:10428000FB01DC014150504030F08D9101908019CC
:1042900019F40020B9F7881B990B0895FB01DC0184
:1042A0004150504048F001900D920020C9F701C0E4
:0E42B0001D9241505040E0F70895F894FFCF62
:1042BE0000000100000100000000010000010000EC
:1042CE0001010101010101010000010000010000D6
:1042DE0000000100000100000101010101010101C6
:1042EE0000000100000100000000010000010000BC
:1042FE0001000000000000000000000000000100AE
:10430E00000000000000000000000000010000009E
:10431E00000000000000000000000100000000008E
:10432E00000000000000000001000000000000007E
:10433E00000000000000010000000000000000006E
:10434E00000000000100000000000000000000005E
:10435E00000001000000000000000000000000004E
:10436E00010000000000000000000000000000003E
:10437E009E0980004E4F204841592043454C202332
:10438E00200000FFFFFFFFFFFFFFFFFF312A242366
:10439E0021324142433033444546003447484900B8
:1043AE00354A4B4C00364D4E4F0037505152533814
:1043BE0054555600395758595A31323334353637E9
:1043CE0038392A302300000000330429036F03809C
:1043DE0004E7037E03D90300000000B6072903CAD1
:1043EE0004C9040D0A00527562656E2032303231F6
:1043FE0031313833350053657267696F2032303290
:10440E0031303031353400506564726F20323031C6
:10441E00303230363030004A6F73652032303139E9
:10442E0030313735360053656261732032303139A1
:10443E00303630383500534520414341424F2045F8
:10444E004C205449454D504F004D5543484F204345
:10445E00414C4F5220232000456C207573756172BC
:10446E00696F20796120657869737465002D2D2D33
:10447E004E7565766F207573756172696F2D2D2D72
:10448E00002D2D2D2D2D2D2D2D2D2D2D2D2D2D2D7B
:10449E002D2D2D2D004D656E75207072696E636920
:1044AE0070616C0050726573696F6E612061636537
:1044BE00707461720020204C6F67696E002020526C
:1044CE006567697374726172003E00204573706592
:1044DE0072616E646F2020756E6120002020206353
:1044EE006F6E6578696F6E2E2E2E2020004E6F6DCA
:1044FE006272653A004C204F20472049204E002022
:10450E002D204E4F4D4252453A00436F72726563F5
:10451E00746F3F20202020202020002020202020EB
:10452E00202020202020202020202000202D20436D
:10453E006F6E747261733A004E4144410041444DB6
:10454E00494E2A303536343500475255504F3231A8
:10455E000041444D494E006C6F67696E4145006CD9
:10456E006F67696E5545006C6F67696E4641002036
:10457E00204C6F677300202045737461646F205365
:10458E0079730020204365727261722073657369BE
:10459E006F6E0043454C2023202020202020004613
:1045AE0041494C4544202320202000494E43494494
:1045BE00454E54202320004143542055534552204C
:1045CE002320004365727261646F410020496E675B
:1045DE007265736F2043656C002052657469726F4B
:1045EE002043656C0020456C696D696E61722043D5
:1045FE0075656E746100496E746F64757A636120BF
:10460E0043454C20656E0020504F532023004D55DE
:10461E0043484F2043414C4F5220656E00494E4750
:10462E00522043454C204641494C00494E475220AA
:10463E0043454C204F4B004365727261646F555376
:10464E0000456C207573756172696F206E6F206501
:10465E0078697374650043454C20656E2053697309
:10466E0074656D61004D656E7520646520726574AC
:10467E0069726F2E2E2E005573756172696F20420E
:10468E006F727261646F00524D5620555352004541
:10469E0072726F72004E6F6D627265206E6F207651
:1046AE00616C69646F00524547495354524F004341
:1046BE006F6E747261206E6F2076616C696461003A
:1046CE00202D20434F4E5452413A004E756D657267
:1046DE006F206E6F2076616C69646F00202D204E06
:1046EE00554D45524F3A004C4F47494E0020204100
:1046FE00706C69636163696F6E00202050616E6536
:10470E006C00202053616C697200522045204720B6
:10471E0049205320542052204F00202D2043656CF9
:10472E00756C61723A00416365707461723F20204E
:10473E0020202020200063616E63656C617200543E
:10474E0049504F20444520494E5055543A0023209D
:10475E0041504C49434143494F4E002A2054454352
:10476E004C41444F006572726F72207061737377A3
:10477E006F72643A006572726F7220706173737734
:10478E006F7264004F7063696F6E3A2000524D2055
:10479E0043454C204641494C005265746972652070
:1047AE0043454C20656E0053616361646F202300A6
:1047BE00416772656761722041646D696E00486180
:0847CE00792061646D696E0041
:00000001FF
